:020000040000FA
:10000000004400206507010001C9011001C9011069
:1000100001C9011001C9011001C9011001C9011074
:1000200001C9011001C9011001C9011001C9011064
:1000300001C9011001C901103FC9011000000000F1
:1000400000000000000000000000000000000000B0
:1000500000000000000000000000000000000000A0
:100060000000000000000000000000000000000090
:100070000000000000000000000000000000000080
:10100000B41200001810000015AB0110FDB3011060
:101010006DC00110FDAE011099B501100000000077
:10102000000000002D000000B01200003C10000085
:10103000B1C00110A9BF011067C0011069B801104B
:10104000000000000000000030000000B0120000AE
:1010500060100000BDC00110CDB30110D9BD01105A
:101060006DB301100000000000000000310000001E
:10107000000000002C070020040000000000000019
:101080000000000020000000E8FF00003000000029
:10109000281000004C0700200400000000000000A1
:1010A000000000000C0000007406010018000000A1
:1010B0004C10000054070020040000000000000055
:1010C00000000000240000008C0601001800000051
:1010D0000000000094070020040000000000000051
:1010E0000000000010000000780001002C0000004B
:1010F00000100000B0070020040000000000000005
:101100000000000020000000B802010024000000E0
:10111000FFFFFFFFB80700200400000000000000F0
:101120000000000028000000DC0201002400000094
:10113000FFFFFFFFE00700200400000000000000A8
:101140000000000014000000A406010018000000C8
:10115000FFFFFFFFE8070020040000000000000080
:10116000000000005800000014FF000034000000E0
:10117000FFFFFFFFF0070020040000000000000058
:101180000000000010000000BC0601001800000074
:10119000FFFFFFFFF8070020040000000000000030
:1011A000000000001C0000000003010024000000FB
:1011B000FFFFFFFF00080020040000000000000007
:1011C0000000000038000000CC01010028000000F1
:1011D000FFFFFFFF6808002004000000000000007F
:1011E00000000000540000003CFD00003C00000036
:1011F00001000000BC0801000100000000000E001A
:1012000000000F0032000000010000003407002041
:10121000000200000000000001C9011000000000F1
:101220000000000008000000000022005C07002011
:10123000000000000000000008000000C0070020BF
:101240000000000000000000080000000000000096
:10125000000000000000000000000000010000008D
:1012600008080020060000000100000070080020AF
:10127000000000000000000000020000000000006C
:10128000290001002500300031002D00010001007F
:1012900004000000CC070100000000000000000076
:1012A000000001000000030013C4011009C0000089
:1012B000B8120000B812000000000000A4070020CF
:1012C000A9BE0000200000007C070100F40101001D
:1012D00029C101104B950000C3A80000A1C701104F
:1012E000A3C701100000000019BA000000FC0000B4
:1012F00018FC0000E8FB00000200090001000000EB
:1013000001000000990101006D0101008D0501003F
:1013100081FF0000B5FF000031FC000049F500002E
:101320000507010021BE000041C0000045C00000CB
:10133000DFF800F085BF0110DFF800F009C00110F0
:10134000DFF800F061C00110DFF800F0059B01102C
:10135000DFF800F0E1A30110DFF800F05DB4011048
:10136000DFF800F00DC10110DFF800F0A5A50110B5
:1013700064214843FFF7F8BF38B545680A24A879C7
:1013800001F057FD38B142F21070FFF7EDFF641E17
:10139000F5D1002032BD012032BD70B50468A66AC7
:1013A000002508E0EDB224216943314401F1080031
:1013B000FFF7D6FF6D1C94F82C10E8B28842F1D3E9
:1013C000606801F0CBFDDFF88C03006801F0F4FCED
:1013D0000021218070BD4FF0FF310160DFF87C13E8
:1013E00041600021017270472DE9F043DFF86893F6
:1013F000D9F80050D9F8047099B0044688461646CA
:10140000FFF796FF2988012905D1FFF799FF0020F2
:1014100019B0BDE8F08301212980FFF791FF1EB9C3
:101420006846FFF7D8FF6E46002C18BF5FEA080039
:10143000EDD010A801F0D0FD70681490307A8DF8CE
:10144000580001F08EFDF87910A901F0A6FD0028E2
:10145000DDD0686008233068A860AC6285F82C8015
:10146000012068802422002107A8FFF765FF0026DD
:1014700009E0F6B224207043204407AA0121083075
:10148000FFF76AFF761CF0B24045F2D301208DF8D9
:10149000340007AA012105F10C00FFF75DFF381D9C
:1014A000AF490278AB4C0A43039203AA437819432D
:1014B0005160FE218078D16040F00040906003A927
:1014C000201D01F0E2FB00282060A0D0698801B156
:1014D0000121C9B2484600F002F8484698E72DE9D4
:1014E000F041054682B02E6800200C468DF80000C1
:1014F00006F10C00B168FFF727FF002836D02968F5
:101500004C80002C6868076814BF0FF268080FF25F
:1015100084080A2401223946284600F0ECF87A783B
:101520001AB1B91C284600F0F5F80C37641EF1D149
:1015300001224146284600F0DEF81E2208F1010192
:10154000284600F0E7F8222000F034F8C02000F030
:1015500044F900F0DFF8202000F02CF84FF49670EA
:10156000FFF706FF06F10C00FFF7F2FEBDE8F3817E
:1015700000000000320002121151616162626626B1
:101580002A1A1919199999880080352211131121E5
:1015900011721100321018182818181818080000B5
:1015A0000000000000000000001311226311000081
:1015B000000000008DF800000122694628469AE0EC
:1015C00038B5044600F046F868B1C72100911823E9
:1015D00000220021204600F029F905F10C00BDE8A9
:1015E0003240FFF7B5BE31BD2DE9F041044682B06F
:1015F00000F030F860B3C7220021204600F0F3F875
:1016000000264FF47A78574F00F02AF8761C052E02
:10161000FADB204601F0AAF9688890B94FF4967079
:10162000FFF7A6FE00200090C723182200212046C5
:1016300000F0A1F8002600F013F8761C052EFADB66
:1016400003E04FF4FA60FFF793FE05F10C0031E080
:10165000BDE8F3812568A96805F10C00FFF774BEA9
:1016600008FB06F039184246204653E02DE9F041C8
:10167000044682B0206816460D46826A816802F1EF
:1016800008081F464046FFF75FFE88B108981421FE
:101690004F430A28A8BF092048431330C0B2009026
:1016A0003346FAB22946204600F0C0F8404601E031
:1016B000BDE8F381BDE8F641FFF74ABE2DE9F041F0
:1016C000044682B026680D46B16890461F4606F172
:1016D0000C00FFF739FE60B101210091142047434F
:1016E000FBB242462946204600F01BF906F10C00E9
:1016F000E0E7BDE8F3812DE9F04100F023F8002296
:1017000001F081FB00F015F800F018F800B12BE0B3
:10171000BDE8F0812DE9F04100F014F8012201F05C
:1017200072FB00F006F800F009F800B11CE0BDE81B
:10173000F08179793068002201F065BB4246294684
:101740002046DEE00446034E676830680D4690464A
:1017500039797047C41E002074D3000080841E00B5
:101760000000C0801849000079793068BDE8F04178
:10177000012201F048BB2DE9F0410E4682B01F4620
:101780000021009144239046089C8DF800300546C6
:1017900001226946FFF7AFFF8DF800608DF80180E8
:1017A00000F017F8452000F018F8FFF7A4FF00201C
:1017B0008DF801008DF803008DF800708DF802405F
:1017C00000F007F83A463146284600F00CF8BDE82C
:1017D000F3810222694628469CE78DF80000012229
:1017E00069462846704770B582B004460020ADF8BF
:1017F00000004E230E4615468DF8003001F0D7F854
:101800008DF8006001F0D8F84F2001F0DAF80020E0
:101810008DF801008DF80050022201F0CEF820462C
:10182000FFF7AAFD242001F0CCF873BD2DE9F04F9D
:10183000824683B0DAF800700020FF24BD6A2E686B
:101840003454401CB0F5806FF8DB0C9C984616466B
:10185000A8EB0105A01B6D1C401C45438DF804102E
:10186000ADB2680A05EB90504FEA853B800AA5EBC4
:10187000802500F03FF84FF0000903E000F034F855
:1018800009F101091FFA89F9B9EB1B6FF6DBA8B260
:1018900028B1B86A0168AAB25046FFF73BFF50462C
:1018A00001F064F87888C0B94FF4FA70FFF760FD72
:1018B00000F020F8002402E000F016F8641CA4B246
:1018C000B4EB1B6FF8DBA8B260B1B86A0168AAB2CA
:1018D000504603B0BDE8F04F1CE7BDE8FE4F4FF4A3
:1018E0007A7045E5BDE8F78FB86A01684FF4806209
:1018F00050460FE79DF80410009623464246504696
:1019000039E700B585B0002300920393029301915B
:1019100069460268506801F064FB00B1012005B01F
:1019200000BD2DE9FE4F044684B0084601F06CFB73
:10193000009001469DF814004118192903DDC0F1FB
:101940001900C0B2009001942568A86A50F8084BAD
:1019500002909DF8400030B1A9680298FFF7F4FCAE
:10196000002800F08880002619207043FF221921EA
:10197000204401F08FFB761C142EF5DB4FF0000C99
:101980000FF2F80E27E001EB09004FF0800B1EF874
:1019900000007F1E2BFA06FB10EA0B0F0ED1192058
:1019A00000FB08F02044DBB24FF0010B10F803A05D
:1019B0000BFA07FB2AEA0B0A00F803A0F8B208B9F1
:1019C00008275B1C761CF6B29642DCDB491C2829F2
:1019D00012DB0CF1010C009884452ADA049810F807
:1019E0000C00212805DB2038C1B2282000FB01F9BA
:1019F00001E04FF0000900219DF814000A27C00003
:101A0000082207FB0C0701EBD1704FEA6008B1EB2D
:101A10004800FFB202D00837FFB20222B81007EB2D
:101A20005070C010C7F10807034607EBC007002637
:101A3000C9E79DF818400198009404F1130600F0DE
:101A400089FF00F08CFF019800F090FF4FF4FA70CE
:101A5000FFF78EFC688828B90198009400F07AFF9F
:101A600000F07DFF9DF8400028B1029807B0BDE866
:101A7000F04FFFF76DBC07B0BDE8F08FFFFFFFFF31
:101A8000FFFFFFFFFFFFFFFFFFFFFFFFFFFFFFFF66
:101A9000FFFFFFFFFFFFFFFFFFFFFFFFFFFFFFFF56
:101AA000FFFFFFFFFFFFFFFFFFFFFFFFF3FFF3FF5E
:101AB000FFFFF3FFF3FFF3FFE1FFE1FFE1FFE1FFD2
:101AC000E1FFF3FFFFFFFFFFFFFFFFFFFFFFFFFF50
:101AD000FFFFFFFFFFFFFFFFFFFFFFFFFFFFFFFF16
:101AE000FFFFFFFFFFFFCCFFCCFFCCFFFFFFFFFF9F
:101AF000FFFFFFFFFFFFFFFFFFFFFFFFCCFFCCFF5C
:101B0000CCFF807F807FCCFFCCFF807F807FCCFFAD
:101B1000CCFFCCFFFFFFFFFFFFFFFFFFFFFFFFFF3B
:101B2000F3FFF3FFE1FFC0FF8C7FFC7FFCFFF9FFB9
:101B3000E3FFC7FF8FFF8C7FC0FFE1FFF3FFF3FFE1
:101B4000FFFFFFFFFFFFFFFFFFFFFFFF9C7F993FAE
:101B5000C93FCC7FE7FFE7FFF3FFF3FFF9FF89FF02
:101B600024FF24FF8FFFFFFFFFFFFFFFFFFFFFFFAB
:101B7000FFFFFFFFE13FC07F9CFF9EFF9E7FCC3FAA
:101B8000E7FFF1FFE4FFCE7FE4FFF1FFFFFFFFFF80
:101B9000FFFFFFFFFFFFFFFFFFFFFFFFFFFFFFFF55
:101BA000FFFFFFFFFFFFFFFFFFFFFFFFFFFFF3FF51
:101BB000F3FFF3FFFFFFFFFFFFFFFFFFFFFFF9FF53
:101BC000F3FFE7FFEFFFCFFFCFFFCFFFCFFFCFFF49
:101BD000CFFFCFFFCFFFEFFFE7FFF3FFF9FFFFFFDF
:101BE000FFFFFFFFFFFFCFFFE7FFF3FFFBFFF9FF63
:101BF000F9FFF9FFF9FFF9FFF9FFF9FFF9FFFBFF23
:101C0000F3FFE7FFCFFFFFFFFFFFFFFFFFFFFFFF38
:101C1000FFFFFFFFFFFFFFFF9E7FCCFFE1FF807F05
:101C2000E1FFCCFF9E7FFFFFFFFFFFFFFFFFFFFFF6
:101C3000FFFFFFFFFFFFFFFFFFFFFFFFFFFFFFFFB4
:101C4000FFFFF3FFF3FFF3FF807F807FF3FFF3FFDE
:101C5000F3FFFFFFFFFFFFFFFFFFFFFFFFFFFFFFA0
:101C6000F7FFFBFFF3FFF3FFFFFFFFFFFFFFFFFFA8
:101C7000FFFFFFFFFFFFFFFFFFFFFFFFFFFFFFFF74
:101C8000FFFFFFFFFFFFFFFFFFFFFFFFFFFFFFFF64
:101C9000FFFFFFFFFFFFFFFFC0FFC0FFFFFFFFFFD2
:101CA000FFFFFFFFFFFFFFFFFFFFFFFFFFFFFFFF44
:101CB000FFFFFFFFF3FFF3FFFFFFFFFFFFFFFFFF4C
:101CC000FFFFFFFFFFFFFFFFFFFFFFFFFFFFFFFF24
:101CD000FFFFFFFFFFFFFFFF9FFF9FFFCFFFCFFF34
:101CE000E7FFE7FFF3FFF3FFF9FFF9FFFCFFFCFF5E
:101CF000FE7FFE7FFFFFFFFFFFFFFFFFFFFFFFFFF6
:101D0000FFFFFFFFE1FFC0FF8C7F9E7F9E7F927FE2
:101D1000927F9E7F9E7F8C7FC0FFE1FFFFFFFFFFD2
:101D2000FFFFFFFFFFFFFFFFFFFFFFFFF3FFF3FFDB
:101D3000F3FFF3FFF3FFF3FFF3FFF3FFF3FFC3FF43
:101D4000C3FFF3FFFFFFFFFFFFFFFFFFFFFFFFFFEB
:101D5000FFFFFFFF807F807F8FFFC7FFE3FFF1FF63
:101D6000F8FFFC7FFE7F8C7FC0FFE1FFFFFFFFFFDE
:101D7000FFFFFFFFFFFFFFFFFFFFFFFFE1FFC0FFD0
:101D80008C7FFE7FFC7FF0FFF1FFFCFFFE7F8C7FEE
:101D9000C0FFE1FFFFFFFFFFFFFFFFFFFFFFFFFFB0
:101DA000FFFFFFFFFCFFFCFFFCFFFCFF807F807F4D
:101DB0009CFFCCFFCCFFCCFFCCFFCFFFFFFFFFFF92
:101DC000FFFFFFFFFFFFFFFFFFFFFFFFE1FFC0FF80
:101DD0008C7FFE7FFE7FFC7F80FF81FF9FFF9FFF48
:101DE000807F807FFFFFFFFFFFFFFFFFFFFFFFFF01
:101DF000FFFFFFFFE1FFC0FF8C7F9E7F8C7F80FF96
:101E000091FF9FFF9FFF8C7FC0FFE1FFFFFFFFFF60
:101E1000FFFFFFFFFFFFFFFFFFFFFFFFF3FFF3FFEA
:101E2000F3FFF3FFF3FFF3FFF3FFF9FFFCFFFE7F88
:101E3000C07FC07FFFFFFFFFFFFFFFFFFFFFFFFF30
:101E4000FFFFFFFFE1FFC0FF8C7F9E7F8C7FC0FF05
:101E5000E1FFCCFF9E7F8C7FC0FFE1FFFFFFFFFF14
:101E6000FFFFFFFFFFFFFFFFFFFFFFFFE1FFC0FFDF
:101E70008C7FFE7FFE7FE27FC07F8C7F9E7F8C7F8A
:101E8000C0FFE1FFFFFFFFFFFFFFFFFFFFFFFFFFBF
:101E9000FFFFFFFFF3FFF3FFFFFFFFFFFFFFF3FF76
:101EA000F3FFFFFFFFFFFFFFFFFFFFFFFFFFFFFF4E
:101EB000FFFFFFFFFFFFFFFFF7FFFBFFF3FFF3FF56
:101EC000FFFFFFFFFFFFF3FFF3FFFFFFFFFFFFFF3A
:101ED000FFFFFFFFFFFFFFFFFFFFFFFFFFFFFFFF12
:101EE000FFFFFFFFFCFFF9FFF3FFE7FFCFFF9FFFBF
:101EF000CFFFE7FFF3FFF9FFFCFFFFFFFFFFFFFF4F
:101F0000FFFFFFFFFFFFFFFFFFFFFFFFFFFFFFFFE1
:101F1000FFFFC1FFC1FFFFFFFFFFC1FFC1FFFFFFC9
:101F2000FFFFFFFFFFFFFFFFFFFFFFFFFFFFFFFFC1
:101F3000FFFFFFFFCFFFE7FFF3FFF9FFFCFFFE7F8F
:101F4000FCFFF9FFF3FFE7FFCFFFFFFFFFFFFFFFFE
:101F5000FFFFFFFFFFFFFFFFFFFFFFFFF3FFF3FFA9
:101F6000FFFFF3FFF3FFF1FFF8FFFC7F9E7F8C7F05
:101F7000C0FFE1FFFFFFFFFFFFFFFFFFFFFFFFFFCE
:101F8000FFFFE07FC07F9FFF987F907F967F967FC7
:101F9000907F987F9E7F9E7FC0FFE1FFFFFFFFFF46
:101FA000FFFFFFFFFFFFFFFFFFFFFFFF9E7F9E7F03
:101FB0009E7F807F807F9E7F9E7F9E7F9E7FCCFFC7
:101FC000E1FFF3FFFFFFFFFFFFFFFFFFFFFFFFFF4B
:101FD000FFFFFFFF81FF80FF9E7F9E7F9E7F80FF30
:101FE00080FF9E7F9E7F9E7F80FF81FFFFFFFFFF20
:101FF000FFFFFFFFFFFFFFFFFFFFFFFFE1FFC0FF4E
:102000008C7F9FFF9FFF9FFF9FFF9FFF9FFF8C7F06
:10201000C0FFE1FFFFFFFFFFFFFFFFFFFFFFFFFF2D
:10202000FFFFFFFF81FF80FF9C7F9E7F9E7F9E7F43
:102030009E7F9E7F9E7F9C7F80FF81FFFFFFFFFF33
:10204000FFFFFFFFFFFFFFFFFFFFFFFF807F807F9E
:102050009FFF9FFF9FFF81FF81FF9FFF9FFF9FFFCC
:10206000807F807FFFFFFFFFFFFFFFFFFFFFFFFF7E
:10207000FFFFFFFF9FFF9FFF9FFF9FFF9FFF81FFCE
:1020800081FF9FFF9FFF9FFF807F807FFFFFFFFFFC
:10209000FFFFFFFFFFFFFFFFFFFFFFFFE27FC07FAC
:1020A0008C7F9E7F987F987F9FFF9FFF9FFF8C7FF5
:1020B000C0FFE1FFFFFFFFFFFFFFFFFFFFFFFFFF8D
:1020C000FFFFFFFF9E7F9E7F9E7F9E7F9E7F807F84
:1020D000807F9E7F9E7F9E7F9E7F9E7FFFFFFFFF74
:1020E000FFFFFFFFFFFFFFFFFFFFFFFFC0FFC0FF7E
:1020F000F3FFF3FFF3FFF3FFF3FFF3FFF3FFF3FF50
:10210000C0FFC0FFFFFFFFFFFFFFFFFFFFFFFFFF5D
:10211000FFFFFFFFE1FFC0FF8C7FFE7FFE7FFE7FA2
:10212000FE7FFE7FFE7FFE7FFE7FFE7FFFFFFFFFC5
:10213000FFFFFFFFFFFFFFFFFFFFFFFF9E7F9C7F73
:1021400098FF91FF83FF87FF8FFF87FF83FF91FF3A
:1021500098FF9CFFFFFFFFFFFFFFFFFFFFFFFFFF59
:10216000FFFFFFFF807F807F9FFF9FFF9FFF9FFFFD
:102170009FFF9FFF9FFF9FFF9FFF9FFFFFFFFFFFAF
:10218000FFFFFFFFFFFFFFFFFFFFFFFF9E7F9E7F21
:102190009E7F9E7F927F927F807F807F8C7F8C7FCF
:1021A0009E7F9E7FFFFFFFFFFFFFFFFFFFFFFFFF01
:1021B000FFFFFFFF9E7F9C7F9C7F987F987F927F91
:1021C000927F867F867F8E7F8E7F9E7FFFFFFFFFC1
:1021D000FFFFFFFFFFFFFFFFFFFFFFFFE1FFC0FF6C
:1021E0008C7F9E7F9E7F9E7F9E7F9E7F9E7F8C7F2B
:1021F000C0FFE1FFFFFFFFFFFFFFFFFFFFFFFFFF4C
:10220000FFFFFFFF9FFF9FFF9FFF9FFF81FF80FF5B
:102210009C7F9E7F9E7F9C7F80FF81FFFFFFFFFF53
:10222000FFFFFFFFFFFFFFFFFFFFFFFFE27FC07F1A
:10223000887F987F9E7F9E7F9E7F9E7F9E7F8C7FE4
:10224000C0FFE1FFFFFFFFFFFFFFFFFFFFFFFFFFFB
:10225000FFFFFFFF9E7F9E7F9E7F9CFF81FF80FF91
:102260009C7F9E7F9E7F9C7F80FF81FFFFFFFFFF03
:10227000FFFFFFFFFFFFFFFFFFFFFFFFE1FFC0FFCB
:102280008C7FFC7FFCFFF9FFE3FFC7FF8FFF8C7F94
:10229000C0FFE1FFFFFFFFFFFFFFFFFFFFFFFFFFAB
:1022A000FFFFFFFFF3FFF3FFF3FFF3FFF3FFF3FF86
:1022B000F3FFF3FFF3FFF3FF807F807FFFFFFFFF5C
:1022C000FFFFFFFFFFFFFFFFFFFFFFFFE1FFC0FF7B
:1022D0008C7F9E7F9E7F9E7F9E7F9E7F9E7F9E7F28
:1022E0009E7F9E7FFFFFFFFFFFFFFFFFFFFFFFFFC0
:1022F000FFFFFFFFF3FFE1FFCCFF9E7F9E7F9E7FEE
:102300009E7F9E7F9E7F9E7F9E7F9E7FFFFFFFFF23
:10231000FFFFFFFFFFFFFFFFFFFFFFFFCCFF807FFF
:10232000927F927F927F927F927F927F9E7F9E7F0D
:102330009E7F9E7FFFFFFFFFFFFFFFFFFFFFFFFF6F
:10234000FFFFFFFF9E7F9E7FCCFFCCFFE1FFF3FFEF
:10235000F3FFE1FFCCFFCCFF9E7F9E7FFFFFFFFFDF
:10236000FFFFFFFFFFFFFFFFFFFFFFFFF3FFF3FF95
:10237000F3FFF3FFF3FFE1FFCCFF9E7F9E7F9E7F85
:102380009E7F9E7FFFFFFFFFFFFFFFFFFFFFFFFF1F
:10239000FFFFFFFF807F807F9FFF8FFFC7FFE3FF6F
:1023A000F1FFF8FFFC7FFE7F807F807FFFFFFFFF54
:1023B000FFFFFFFFFFFFE1FFE1FFE7FFE7FFE7FFB1
:1023C000E7FFE7FFE7FFE7FFE7FFE7FFE7FFE7FFDD
:1023D000E1FFE1FFFFFFFFFFFFFFFFFFFFFFFFFF49
:1023E000FE7FFE7FFCFFFCFFF9FFF9FFF3FFF3FF29
:1023F000E7FFE7FFCFFFCFFF9FFF9FFFFFFFFFFF3D
:10240000FFFFFFFFFFFFE1FFE1FFF9FFF9FFF9FF2A
:10241000F9FFF9FFF9FFF9FFF9FFF9FFF9FFF9FFFC
:10242000E1FFE1FFFFFFFFFFFFFFFFFFFFFFFFFFF8
:10243000FFFFFFFFFFFFFFFFFFFFFFFFFFFFFFFFAC
:10244000FFFFFFFFFFFFFFFFFFFFBF7FCCFFE1FFAD
:10245000F3FFFFFFFFFF807F807FFFFFFFFFFFFF96
:10246000FFFFFFFFFFFFFFFFFFFFFFFFFFFFFFFF7C
:10247000FFFFFFFFFFFFFFFFFFFFFFFFFFFFFFFF6C
:10248000FFFFFFFFFFFFFFFFFFFFFFFFFFFFFFFF5C
:10249000FFFFFFFFFFFFFFFFFFFFFFFFF9FFF3FF5E
:1024A000E3FFFFFFFFFFFFFFFFFFFFFFC07F807F16
:1024B0009E7F9E7F807FC07FFE7FC0FFC1FFFFFFAA
:1024C000FFFFFFFFFFFFFFFFFFFFFFFFFFFFFFFF1C
:1024D000FFFFFFFF91FF80FF8C7F9E7F9E7F9E7F8F
:1024E0008C7F80FF91FF9FFF9FFF9FFFFFFFFFFFFC
:1024F000FFFFFFFFFFFFFFFFFFFFFFFFE1FFC0FF49
:102500008C7F9FFF9FFF9FFF8C7FC0FFE1FFFFFF3E
:10251000FFFFFFFFFFFFFFFFFFFFFFFFFFFFFFFFCB
:10252000FFFFFFFFE27FC07F8C7F9E7F9E7F9E7FAD
:102530008C7FC07FE27FFE7FFE7FFE7FFFFFFFFF7D
:10254000FFFFFFFFFFFFFFFFFFFFFFFFE1FFC0FFF8
:102550008FFF807F807F9E7F8C7FC0FFE1FFFFFF2A
:10256000FFFFFFFFFFFFFFFFFFFFFFFFFFFFFFFF7B
:10257000FFFFFFFFE7FFE7FFE7FFE7FFE7FFE7FFFB
:10258000807F807FE7FFE7FFE07FF07FFFFFFFFFB7
:10259000FFFFFFFFC1FFC0FFFC7FFE7FE27FC07F28
:1025A0008C7F9E7F9E7F9E7F8C7FC0FFE1FFFFFF21
:1025B000FFFFFFFFFFFFFFFFFFFFFFFFFFFFFFFF2B
:1025C000FFFFFFFF9E7F9E7F9E7F9E7F9E7F9E7F61
:1025D0008C7F80FF91FF9FFF9FFF9FFFFFFFFFFF0B
:1025E000FFFFFFFFFFFFFFFFFFFFFFFFC0FFC0FF79
:1025F000F3FFF3FFF3FFF3FFF3FFC3FFC3FFFFFF9F
:10260000FFFFF3FFF3FFFFFFFFFFFFFFC7FFC3FF66
:10261000F1FFF9FFF9FFF9FFF9FFF9FFF9FFF9FF02
:10262000F9FFE1FFE1FFFFFFFFFFF9FFF9FFFFFF08
:10263000FFFFFFFFFFFFFFFFFFFFFFFF9E7F9CFFEE
:1026400099FF83FF8FFF87FF93FF99FF9CFF9FFFF9
:102650009FFF9FFFFFFFFFFFFFFFFFFFFFFFFFFF4A
:10266000FFFFFFFFC0FFC0FFF3FFF3FFF3FFF3FF28
:10267000F3FFF3FFF3FFF3FFC3FFC3FFFFFFFFFF12
:10268000FFFFFFFFFFFFFFFFFFFFFFFF927F927F34
:10269000927F927F927F927F927F807F92FFFFFF57
:1026A000FFFFFFFFFFFFFFFFFFFFFFFFFFFFFFFF3A
:1026B000FFFFFFFF9E7F9E7F9E7F9E7F9E7F9E7F70
:1026C0008C7F80FF91FFFFFFFFFFFFFFFFFFFFFFFA
:1026D000FFFFFFFFFFFFFFFFFFFFFFFFE1FFC0FF67
:1026E0008C7F9E7F9E7F9E7F8C7FC0FFE1FFFFFFE0
:1026F000FFFFFFFFFFFFFFFFFFFFFFFF9FFF9FFFAA
:102700009FFF9FFF91FF80FF8C7F9E7F9E7F9E7F1C
:102710008C7F80FF91FFFFFFFFFFFFFFFFFFFFFFA9
:10272000FFFFFFFFFE7FFE7FFE7FFE7FE27FC07F19
:102730008C7F9E7F9E7F9E7F8C7FC07FE27FFFFF8E
:10274000FFFFFFFFFFFFFFFFFFFFFFFFFFFFFFFF99
:10275000FFFFFFFF9FFF9FFF9FFF9FFF9FFF8FFFD9
:1027600087FF807F907FFFFFFFFFFFFFFFFFFFFFDF
:10277000FFFFFFFFFFFFFFFFFFFFFFFFE1FFC0FFC6
:102780009E7FFC7FC0FF8FFF9E7FC0FFE1FFFFFFAA
:10279000FFFFFFFFFFFFFFFFFFFFFFFFFFFFFFFF49
:1027A000FFFFFFFFF0FFE0FFE7FFE7FFE7FFE7FFC7
:1027B000E7FFC0FFC0FFE7FFE7FFE7FFFFFFFFFF07
:1027C000FFFFFFFFFFFFFFFFFFFFFFFFE27FC07F75
:1027D0008C7F9E7F9E7F9E7F9E7F9E7F9E7FFFFF42
:1027E000FFFFFFFFFFFFFFFFFFFFFFFFFFFFFFFFF9
:1027F000FFFFFFFFF3FFE1FFCCFF9E7F9E7F9E7FE9
:102800009E7F9E7F9E7FFFFFFFFFFFFFFFFFFFFF7B
:10281000FFFFFFFFFFFFFFFFFFFFFFFFDEFF8C7FDC
:10282000807F807F927F927F9E7F9E7F9E7FFFFF33
:10283000FFFFFFFFFFFFFFFFFFFFFFFFFFFFFFFFA8
:10284000FFFFFFFF9E7F8C7FC0FFE1FFF3FFE1FFF3
:10285000C0FF8C7F9E7FFFFFFFFFFFFFFFFFFFFF9B
:10286000FFFFFFFFC1FFC0FFFE7FFE7FE27FC07F53
:102870008C7F9E7F9E7F9E7F9E7F9E7F9E7FFFFFA1
:10288000FFFFFFFFFFFFFFFFFFFFFFFFFFFFFFFF58
:10289000FFFFFFFF807F807FCFFFE7FFF3FFF9FFA0
:1028A000FCFF807F807FFFFFFFFFFFFFFFFFFFFF39
:1028B000FFFFFFFFFFFFF8FFF3FFE7FFE7FFE7FF83
:1028C000E7FFE7FFCFFFE7FFE7FFE7FFE7FFE7FFF0
:1028D000F3FFF8FFFFFFFFFFFFFFFFFFFFFFFFFF1B
:1028E000FFFFF3FFF3FFF3FFF3FFF3FFF3FFF3FF4C
:1028F000F3FFF3FFF3FFF3FFF3FFF3FFFFFFFFFF30
:10290000FFFFFFFFFFFFC7FFF3FFF9FFF9FFF9FF2D
:10291000F9FFF9FFFCFFF9FFF9FFF9FFF9FFF9FFF4
:10292000F3FFC7FFFFFFFFFFFFFFFFFFFFFFFFFFFB
:10293000FFFFFFFFFFFFFFFFFFFFFFFFFFFFFFFFA7
:10294000FFFFFFFFFFFFFFFFB8FF927FC77FFFFF83
:10295000FFFFFFFFF3B218220021FEF70CBFA86AA9
:10296000016801984FF4FA72FEF7D4BE10B582B038
:10297000044600208DF800002046FEF7FDFC2221D1
:102980008DF8001000F013F821684888002819BF5E
:10299000C4218DF8001004208DF8000000F00CF820
:1029A000202000F00EF8FF2000F00BF813BD0122EC
:1029B00069462046FEF79FBE012269462046FEF783
:1029C000A9BE8DF80000012269462046FEF793BE9D
:1029D00090FAA0F0B0FA80F0704770B500F0F8FB04
:1029E00005460026DFF828450DE025FA06F0C00769
:1029F00008D504EB8600406820B1026811001CBFB6
:102A000031469047761C2068F6B28642EDD370BD01
:102A1000DFF80005DFF800250168DFF80005116028
:102A200000F0D8BB2DE9F0475FEA0108DFF8F014A9
:102A300006465FFA88F401EB840144BF88F0204029
:102A400080F4C0480A68DFF8DC0406EA080788EA70
:102A50000203B243074033403A4306F4E0201B0E22
:102A6000B0F5E02F03F0010302D1D30105D411E04A
:102A700016F4E02F08BF002B0CD002F4E020B0F5D4
:102A8000A02F04D0B0F5C02F04D1052000E006200F
:102A900060F31242DFF890740A6004F180403D68F0
:102AA000E54000F5083915F001054FEA985000F0AF
:102AB000010A03D1700248BF89F800A030020ED588
:102AC00000F0C4FB0122A24039685FEA08234CBF32
:102AD0001346002391431943396000F0C7FB1DB131
:102AE000700248BF89F800A0BDE8F087DFF8302405
:102AF00002EB80020029106848BF0021800901F024
:102B00003F0141EA80111160704710B5DFF81C04E5
:102B1000046800F0B7FB012804F07F0404D100F042
:102B2000A7FB022808BF641C204610BD2DE9F04F0A
:102B300087B0824600F024FC00F0A4FB00250128A9
:102B400004D100F095FB022808BF0125DFF8E0035F
:102B5000C1680127C1F38151012904D10068000E29
:102B600007FA00F00543DFF8CC13DFF8A4630A7816
:102B7000DFF8C4B3FFF7C9FF5FEA0008C6F80080BA
:102B800004D0FF224146584600F0C6FF4FF000092E
:102B900000245AF8240000F0FF01FE2936D000F08E
:102BA000FF02FF2A0BD041453ED225FA00F2D207A0
:102BB0003AD407FA00F00BF8014040EA0909641C16
:102BC000E7E729FA04F0C00759BF04F0FF0141F418
:102BD000C0411BF804005AF820104046FFF722FFBE
:102BE0004FF0FF31E0B2FFF781FF311D002041F8C7
:102BF0002400641C3068844218D225FA04F0C0070F
:102C0000DFD5321D042142F82410F2E7092000F03C
:102C1000C4FCC6F880A0012106F1D40000F0C5FF75
:102C20000024DFF81883E5E702202BE0684600F077
:102C300015FBDFF80C43DFF80C23207801906B467E
:102C4000102106F1840000F0DEFA03A800F095FAE6
:102C5000606805900021069103AADFF8EC1206F1E6
:102C6000A00000F092FADFF8E402DFF8E422016845
:102C700021F47C5141F4005101600020DFF8D412AE
:102C80000F60176007B0BDE8F08F2DE9F042DFF864
:102C9000805207460C4605F1D4094FF0FF314846F3
:102CA00000F0B0FF00214CBB002038607860B860B5
:102CB00000214CB31AE0FF2806D02A68904222D2A5
:102CC0002A1D52F82000F0B9491C17E02A1D0123E3
:102CD00042F8207083407A681A437A60384654F884
:102CE0002120DFF8581200F0D1F8314614F8210005
:102CF000FE2809D04E1CFF28E8D1F6E714F8210081
:102D0000FE28D8D1D0E70027484600F084FF384697
:102D1000BDE8F0822DE9F04104000E46F7B203D081
:102D20007B4D2868874201D302201FE005F1D408BB
:102D30004FF0FF31404600F065FF281D50F8270096
:102D400008B101240EE0291D324641F82740012137
:102D5000606801FA07F7074367602046774900F08B
:102D600095F80024404600F056FF2046BDE8F0816B
:102D700010B50C46F0B1416821FA04F2D20719D51A
:102D80000122A24091434160002061490A1D42F89E
:102D900024006948025D6948FF2A0EBF44F02041C3
:102DA000D1F8801051F82210FFF73CFE4FF0FF31B0
:102DB0002046A5E0022010BD10B5044605E0FFF74F
:102DC00007FEC1B22046FFF7D3FF60680028F6D1A6
:102DD00010BD38B50C464E4915460A68944204D2D7
:102DE00001EB84014A68824201D0022032BD00F02A
:102DF0002DFA4D490A680123A3409A4305FA04F4C9
:102E000014430C6080E010B5414B1C68A14204D211
:102E100003EB81035C68844201D0022010BD01F104
:102E20008041100001F5083118BF01200870002012
:102E300010BD014648480068C84000F001007047D6
:102E400010B5334B1C680A4602F0FF01A14204D2C0
:102E500003EB81014B68834201D0022010BD4FF487
:102E6000E02100F013F8002010BD01600020704741
:102E700000B1FAE70220704780B500F01CF880F03E
:102E8000005080F4C04040F0004002BD38B5204CF6
:102E900025680B46114601F0FF02AA4204D204EB5A
:102EA00082025468844201D0022032BD1846FFF7E6
:102EB000B9FD002032BD014619481A4A00EB8100D5
:102EC00000681040244A13680843CB40DB07126DAA
:102ED00048BF40F48000CA40D10748BF40F400001A
:102EE00070470B4610B51146094A1468A34204D234
:102EF00002EB83025468844201D0022010BD1846C0
:102F0000FFF7F4FD002010BD00F0B0F9002032BD45
:102F1000A81D0020E0200240E0200260481E0020A2
:102F200000100840007F077FD0200240441300506B
:102F3000A83F0050C6220020981E0020007FC767CF
:102F40009CD30000112A0000DB290000003009405A
:102F5000080009400C4009408020024001680A68CE
:102F6000104770B500F072F918490446087878B92E
:102F700001220A700025164E06E00C2169437018E4
:102F800071588A6890476D1C124801788D42F4DBB5
:102F90002046BDE8704000F069B938B50B4C227886
:102FA000034600207AB10B4D2C78A3420BD209B90D
:102FB0000FF234010C204343054AD018D258D3688D
:102FC000BDE83440184732BD00000000C722002091
:102FD000F0D3000008D400000FF20C01202200F012
:102FE00035BE02681369184700000000FFFFFFFFAD
:102FF000000000000000000040420F000800000038
:1030000000000000000000000246002000E0401C1C
:10301000C0B2115C0029FAD17047F0B402461068C2
:1030200095681318506803EB5004C00721D54D4430
:103030001FE0F0BC02F10C00704713F8017B05F8AB
:10304000017B491EF9D1A0B1B60813F8011B06F0A7
:103050000306032E08BF13F8016B01EB062149425A
:10306000801C294405D011F8016B05F8016B401E46
:10307000F9D1A342DDD013F8016B16F0030104BFB0
:1030800013F8011BC91C30090F28DAD113F8010B02
:103090000F30D6E762F30F2262F31F42401810F0A0
:1030A000030308D0C91A1FD3DB0748BF00F8012D5E
:1030B00028BF20F8022D130030B4144615461039ED
:1030C00028BF20E93C00FAD8490728BF20E90C00B6
:1030D00048BF40F8042D890028BF20F8022D48BFC2
:1030E00000F8012D30BC7047C91818BF00F8012D39
:1030F000CB0728BF00F8012D70470268920841EA0B
:1031000082028B0822F0040203F0010342EA8302E8
:10311000CB0822F0080203F0010342EAC3020B09C4
:1031200022F0100203F0010342EA03124B0922F0DD
:10313000E00203F0010342EA4312890942EA8112E4
:1031400002607047DFF800F011BF0110DFF800F0F7
:1031500011B00110DFF800F015C00110DFF800F029
:1031600015C10110DFF800F005B3011020B10823EC
:1031700028220021FFF7EEBF704700210160416067
:10318000C1604FF0FF318160704770B514008AB0A4
:1031900005460E4603D1002200F0A0FD0CE0684673
:1031A000FFF7E4FF206804906A46606805903146A6
:1031B00000F004F800F092FD0AB070BDE0680790DE
:1031C000A068069028467047FFF7C8BFFFF7BABF50
:1031D00000F090BD00F094BDFFF7B8BFFFF7C2BF8D
:1031E000DFF800F079BF0110DFF800F0A9C001108E
:1031F000DFF800F089AF011020B108233022002150
:10320000FFF7EEBF7047F0B51C008DB005460E46C7
:10321000174603D1002300F087FD0CE06846FFF756
:10322000EBFF206805906B46606808903A4600F016
:1032300005F800F079FD28460DB0F0BD207AADF814
:103240001800314628467047FFF7CEBFFEF770B82A
:10325000FFF7CEBF00F088BD00F090BD00210160F7
:103260004FF0FF314160012101727047FEF768B8ED
:103270000D480068000C00F00700062828BF4FF03A
:10328000FF30704709490A68C2F30F324BF69A13B0
:103290009A424FF0FF3006D10868000F0B2801D189
:1032A00003207047002070479412005018130050FC
:1032B00080B5FFF7E7FF032800D101BDFEE7024616
:1032C00081B01078022903D1517800EB012013E07E
:1032D000032906D15178927800EB012000EB0240DF
:1032E0000AE0042908D15178937800EB0120D178C5
:1032F00000EB034000EB016001B0704770B5DFF8F0
:10330000644782B00120009009232568DFF8580740
:103310006E684FF400720021B04773BD70B5DFF8DE
:103320004447DFF844072568EE6800230122342172
:10333000B04700B10120C0B270BDDFF8300780682F
:103340007047DFF82817084490F8EF0070470246EE
:103350000020022904D1012A06D140F2EE20704754
:10336000012A08BF4FF47A707047DFF8001791F810
:10337000E60020B1D1F81001002818BF00477047BF
:103380002DE9FF41DFF8E48608F1E105A87900287E
:1033900073D1DFF8DC16DFF8DC660A6892090120D9
:1033A00002F00102A871EA71307BDFF8CC76687117
:1033B0007068C8F8100101A800F031FD00210291E9
:1033C0008DF80410039101AB00220FF2295108F18E
:1033D0000C0000F0FAFC01AB00220FF2D55108F10D
:1033E000300000F0F2FC01AB00220FF20D5108F1A9
:1033F000540000F0EAFCB16801208847DFF87C0641
:1034000001787868C0F38154707B20B1032C02D11D
:103410000121297003E0032C18BF022C16D10220D1
:1034200000F0A6F8DFF858160A68032C0CBF4FF41A
:103430007A7042F21070B0FBF2F108F1540000F023
:10344000F1FC08F1540000F0EFFC10E0012C0ED16B
:10345000DFF81046032000901C232568DFF80806DB
:103460006E684FF040520021B047FFF747FF3868C1
:1034700040075CBF002000F07BF8002004B0BDE8EE
:10348000F08138B5002408B1150002D16FF00204B4
:1034900007E08160C26003610146DFF8D00500F0FB
:1034A000D5FC204632BD10B50446FFF7CFFEDFF84D
:1034B000BC150A1992F8E9305B1E82F8E930DBB2DC
:1034C00033B98A68012303FA04F422EA04048C6005
:1034D0005FE0F8B50546FFF7B9FE0446DFF88C1546
:1034E000481990F8EF20521E80F8EF20D2B27ABB34
:1034F0000FF2D850DFF88C7500EB850210F82550DC
:103500005688280615D539680A6A304690473A68C1
:10351000916A3046884739680A6B30469047DFF831
:10352000681501200860DFF8641508688007FCD57D
:1035300007E0680611D501EB86010020D1F80421CF
:10354000904705F03F053F2D1CBF2846FFF7C1FF00
:103550002046FFF78BFE0020F2BD39688A693046AD
:1035600090473A68516B304688470228F9D1E8E71E
:1035700010B50446FFF76AFEDFF8F0148A680123ED
:10358000A3401A438A60214491F8E920521C81F833
:10359000E920FFF76BFE002010BD2DE9F041074642
:1035A000FFF754FE0546DFF8C464F01990F8EF10F9
:1035B0004A1C80F8EF2049BB0FF2105818F827007A
:1035C00000F03F003F2818BFFFF7E7FF08EB870038
:1035D000448818F82700DFF8AC7401060ED5396866
:1035E000CA69204690473A68516A20468847396838
:1035F000CA6A2046904700F01AF807E040060BD54B
:1036000006EB84010120D1F8042190472846FFF7FA
:103610002DFE0020BDE8F08139684A6920469047B8
:103620003A68516B204688470128F9D1EEE7DFF868
:10363000581401200860DFF8541408688007FCD58E
:1036400070472DE9F84F0746DFF82404DFF84454AB
:103650000168002600244A06A0460DD5287B58B9EB
:10366000DFF83404DFF8341402680A4042F0817253
:103670000260202000F075F9012F18BF6FF00109DA
:1036800057D12868012852D10221296000F069FC35
:10369000012000F066F95FEA00094BD1FFF796FDC3
:1036A000DFF8FC13DFF8DC7300900C600120B96ACE
:1036B0000A689047012803D1002000F0A8F90124EE
:1036C000DFF8E013DFF8C8A3DFF8DC230E60DAF8D8
:1036D0000010907808B14FF00108517809B148F016
:1036E0000208107808B148F00408A87F20B13968B2
:1036F0000A6B4FF480609047687F20B139680A6B8D
:103700004FF481609047DFF880130120086048F093
:10371000200039688A699047DFF89013012008601B
:10372000DFF84813087AC10709D501261FE06FF0BA
:1037300004097DE00120286000F01EFC78E0396A71
:10374000DFF86C038A6890478346BBF1040FF6D01C
:10375000BBF1010F05D13A6ADFF854035368032126
:103760009847DFF85003016889088900016000204C
:1037700000F026FCDAF800003868816B884776B9DB
:10378000BBF1010F05D13A6ADFF824035368012128
:103790009847DFF82003016841F003010160012030
:1037A000DFF800130860404639684A699047A87FEF
:1037B00020B13968CA6A4FF480609047687F20B1B1
:1037C0003968CA6A4FF481609047AF49B74A01200F
:1037D000086000211160032028603A68516B404660
:1037E00088470128F9D1DAF80000042000F0B9F880
:1037F0000646AB4901200860DAF800109C490868C9
:103800008006FCD514B1012000F001F900F028FD7C
:10381000082000F0A6F80643012028600098FFF772
:10382000DDFC00F0A2FC00F0A7FB0EB14FF0FF3969
:103830004846BDE8F28F38B50446FFF707FD054658
:1038400021468A4800F016FB2846BDE83240FFF7C3
:103850000DBD3EB50024012804D020D303281CD080
:1038600017D31CE0684600F0DAFA804D92490194C3
:103870008DF8004002946B46012205F1780000F0BB
:10388000A4FA00238D4A2C2105F19C00FFF7BBFC14
:1038900005E000F001FD044601E000F0C1FD204616
:1038A0003EBD000038B5FFF7D1FC7049054691F8E0
:1038B000E000012410B1FFF731FD04462846FFF770
:1038C000D5FC204632BD70B5FFF7C0FC044600F0C1
:1038D00036FF6649002081F8E000664885680220CE
:1038E000A8470646102000F03CF8012E04BF032034
:1038F000A84787E07047000038B55A4CE16B0A686A
:1039000004209047022818BF03280FD103200090FD
:103910001C232468544865684FF040520021A84792
:10392000FFF7ECFCBDE832400220BCE56448544996
:1039300000680A684D4CC0F3815003280CBF4FF457
:103940007A7041F28830B0FBF2F104F1540000F0DB
:1039500069FA04F15400BDE8324000F065BA002075
:10396000704738B50546414C204600F065FA88B9E5
:10397000204600F067FA0446A068284205D0226974
:10398000E36800212846984730B9204600F05CFAE9
:103990000400F1D1002032BD4FF0FF3032BD494963
:1039A00001280CBF40F2FF70002008600020704723
:1039B00070B5FFF74BFC2D4E2E4D044696F8E000F7
:1039C00028B100F0BCFE70B1002086F8E0000220B3
:1039D000AD68A84706461020FFF7C3FF012E11D19E
:1039E0000320A8470EE026490A683220B0FBF2F116
:1039F00001B9012106F1300000F014FA06F130009F
:103A000000F012FA2046BDE87040FFF72FBC38B531
:103A1000012823D12C490A681368984701281DD032
:103A200000F080FE114D012085F8E000287A810623
:103A300016D4134802683221B1FBF2F404B9012410
:103A400005F1300000F0F2F9214605F1300000F0F8
:103A5000E9F905F1300000F0E7F901E000F095FE2A
:103A6000002032BDA401001000A00C40F00800208E
:103A700014100940A4D30000B03F0050C62200201B
:103A8000C01E0020B801001028200860282008402F
:103A90002C200940CC09002004000940FFFFFCFC59
:103AA0000C40094000022243EE090020800104433B
:103AB000004003402422084069450000FD42000008
:103AC000B43F005000000460E00100108F000000CF
:103AD0008F0001008F0002008F00030090000001A2
:103AE0008F00010190000002900000038F0001048C
:103AF0008F0000058F0008048F0000048A00000674
:103B0000510000007F0001003F0004003F00020060
:103B10003F0001007F00020062F30F2262F31F42A8
:103B200000B500BF130096469446103928BFA0E8A0
:103B30000C50FAD85FEA417C28BF0CC048BF40F85F
:103B4000042BC90728BF20F8022B48BF00F8012B1F
:103B500000BD10B501688A089300CC0801F003008D
:103B600003F00403E20018430B0902F008021C01F1
:103B700010434A0904F010045301204303F02003CA
:103B80001843890940EA8110C0B210BDDFF800F087
:103B9000D1B20110DFF800F009C1011020B10823F3
:103BA00024220021FDF7C8BB704730B589B0044618
:103BB0000D4600F00BF801218DF818106A462946D1
:103BC0002046FDF7C9FB204609B030BD6846E5E751
:103BD00010B58AB00446FFF7F9FF01218DF81810DF
:103BE0002046034A6946FFF7D1FF0AB010BD000026
:103BF0000C07002080B500906846FFF7CBFF01BDA1
:103C0000FDF7AEBB80B5FDF79FFB10B96FF001006B
:103C100002BD002002BDFDF79BBB01700A0A427085
:103C20000A0C090E8270C170001D704762B38B07C9
:103C300008D0521E11F8013B00F8013B00F024802F
:103C40008B07F6D1830740F0208000BF103A07D3DE
:103C500030B4B1E83810103AA0E83810F9D230BCCE
:103C6000530724BFB1E80810A0E8081044BF51F87A
:103C7000043B40F8043BD20724BF31F8022B20F864
:103C8000022B44BF0B7803707047121F17D35B00E1
:103C900009D151F8043B20F8023B1B0C121F20F8FD
:103CA000023BF6D20BE051F8043B00F8013B1B0A43
:103CB00020F8023B1B0C121F00F8013BF3D238BF67
:103CC000121D521E24BF11F8013B00F8013BF8D829
:103CD0007047FF7FDFF800F079AD011010B50446A2
:103CE000034BFFF7F7FFA06800B1204610BD00BFEF
:103CF0000C07002001488068704700BFC801002001
:103D000038B504460D4600F092FD616A0D436562C8
:103D100000F08EFD2046BDE83240FFF717BA0040A4
:103D2000DFF800F0BDAA0110F8B504460B480C4FAF
:103D30000668F8690D4650F82500B04209D10948D7
:103D400000902046FFF7ECFFF86950F82500B042DC
:103D500001D10020F2BD2046F2BD00BF18120000C4
:103D6000440100200C070020102803D3024910381A
:103D7000C1F8000F704700BF00E000E081604260C2
:103D800070470028DFF800F0C1BF0110DFF800F035
:103D9000B9BA0110DFF800F0E5C00110DFF800F05B
:103DA0001FBE0110DFF800F069B20110DFF800F06B
:103DB000DDC00110DFF800F091BE011020B1082332
:103DC00024220021FFF7DEBF7047F0B51C0089B048
:103DD00005460E46174603D10023FFF7E3FF0AE02E
:103DE0006846FFF7EBFFA06806906B463A463146FF
:103DF0002846FFF7D7FF0E480E4A01681160284693
:103E000009B0F0BDFFF7D2BFFFF7D4BF00F038BD57
:103E100080B500F04CFD00B10120C0B202BD002110
:103E200081607047FFF7B6BFFFF7B8BFFFF7AEBFBF
:103E3000B8080100C01E0020006808B901207047C2
:103E400000207047006870470068704738B5044626
:103E50000D46FFF7FBF90021296061686960616820
:103E6000002914BF0D6025606560FFE7BDE83240A2
:103E7000FFF7FCB90A684B68002A0CBF4360536027
:103E80004A6809680AB901607047116070470128E3
:103E9000DFF800F031BF0110DFF800F0F5B70110D6
:103EA00030BF7047FCE738B500F0D6F900F087F96D
:103EB000FFF743FA044604F00C000C284BD06007CF
:103EC00021D400F0FBFC054601210120FFF73FFA59
:103ED0002F49096801FB05F2904214D2F020B0FB93
:103EE000F1F02C4C291A04F10C00FFF753FF04F1F8
:103EF0000C00FFF753FF0120FFF7A3FB04F10C00B8
:103F0000FFF744FF29E0200725D4234D2348296AE1
:103F10008A6890470428F8D0E206214900D420B9E5
:103F2000086840F00100086003E00A685208520087
:103F30000A601C481C4C016841F00301016020200C
:103F40002A689169884720682868816B8847012121
:103F50002160206801E0FFF7A5FFBDE8314000F0D7
:103F60007FB910B5114CFFF793FF2060104800682F
:103F700008B18047606010BD10B50E480B4C016859
:103F800009B1606888472068BDE81040FFF784BF2A
:103F9000B8080100F0080020B801001000400340FC
:103FA0008C210840242208402C200940B81E002003
:103FB00094080100980801001628A8BF203870470F
:103FC0002DE9F84F80469448DFF850920168944EEE
:103FD0008A0705D50820B0719248C9F80000C2E0F0
:103FE000914801680A6890478246904805682F17F3
:103FF00000247F1CA80208D4CAF13E00C010082883
:10400000C8BF08208742B8BF074689480168C1F386
:104010000460FFF7D1FF834686480168C1F304407E
:10402000FFF7CAFF5F44152F0146C8BF152704DC00
:104030006FF009008742B8BF074607F01F007E4AAD
:1040400040F4F85010807D4A106810F0030F18BF3C
:104050000124400748BF44F0020496F90700B8F174
:10406000000F18BF44F00404AAEB0000042802DC8F
:10407000B27994425DD0AAF10F084FF0000BB8F16D
:10408000000FDC4604F004006D4B24D408EB081844
:104090004FEA282CBCF1070F88BF4FF0070CE6460B
:1040A000BEF1070F28BF4FF0060E1A1D52F82E2042
:1040B00053F82EE0A2EB0E0E0EF0FF0B10B1CEF374
:1040C00007229344A20744BFCEF307429344E2077A
:1040D00048BF0BEB1E6B53F82C2002F0FF0310B10E
:1040E000C2F30720C318A00744BFC2F30740C31898
:1040F000E007A8EB0C2048BF03EB126300FB0BF0BA
:10410000CF1B8030002F03EB1023D8BF01273420B2
:1041100005F0FF0547437D43B5FBF3F04FF6FF7114
:10412000884288BF08460AF3070AB08086F807A0CD
:10413000B47144480168B088316000211F2804D25E
:104140001F20B08004E04008491CB0F5007FFAD27F
:104150000F38000941EAC0013B480143C9F800108B
:104160000020C9F80400BDE8F18F10B53748046895
:10417000A4B21CB32C4801680A689047284991F9F9
:104180000720904205DA6FF07F029042B8BF1046D8
:10419000C8718888844210D32A4A13680A689A1A18
:1041A000921C1F2A88BF1F22241A5208D4402418A8
:1041B000B4F5803F28BF4FF6FF748C8010BD2448B3
:1041C000006800B9704730B522498A6802F0406340
:1041D000B3F1406F1FD0104B1C68A5071BD44C686F
:1041E000A50718D41C680968C1F303511C310901E3
:1041F00014F0050F04D088420DD224F0050409E024
:10420000814208D2100158BF44F00104500158BF48
:1042100044F004041C6030BD000009403010094027
:10422000E81E0020FDFDA400EC010010B43F00508A
:10423000B81200503C1100506E6208402422084021
:104240009C1300500820094000E7A4803410094066
:1042500028500940AC3F0050EFF3108072B6704711
:10426000EFF3108062B670470138FDD17047704798
:1042700010B50C18FFF7F0FF411E8941C90FDFF898
:10428000602410680028FCD024680123136009B161
:10429000FFF7E6FF204610BD38B5DFF84854287810
:1042A0000024002802BFDFF84014887B00280CD0CF
:1042B000FEF7CCFF0146A878002806BF0122AA70AD
:1042C00001240846FEF7D2FF0CB1002032BD0220C7
:1042D000FFF74EF90E20FFF760F9DFF810140868B9
:1042E00008B1012032BDDFF808044022C26002603C
:1042F0000120C8610020687032BD00002DE9F04146
:10430000DFF8EC1382B000200860DFF8E81301F159
:10431000D804A07A002837D00128DFF8DC53DFF872
:10432000DC2332D1DFF8D81316684BF2F520464370
:104330000868360AC0F3814001280BD1A86C0168D7
:10434000884700F03AFA00F053FA3509C0104543A7
:1043500006EBE536607B10B10021617306E0DFF803
:10436000A403006820F07F4036187608DFF8980331
:104370000660360C466001218160DFF86C13887B93
:10438000002849D00521217348E0022809D1156889
:10439000284600F00CF9A5F2FF55032D3CD3082068
:1043A0003BE003283AD1106801F1B806A0F5C060DF
:1043B0003168F061002948BF4942002848BF4042A7
:1043C0008142A8BF002026DA7068D04F80B20090EA
:1043D0000823D5F800C0DCF804804FF47F42302178
:1043E0003846C047B06880B200901223D5F800C0AC
:1043F000DCF804804FF4F80204213846C047B06965
:1044000080B200900A232D686E684FF4406220212C
:104410003846B047012020700B202073BDE8F341DF
:104420002DE9F843DFF8CC82B94EDFF8E092B94CC1
:10443000B94FAF4808F1E105E9784A1E0B2A00F2AE
:104440009280DFE802F00630415F74415F74415FA3
:104450007B8031680A68202090470F20E0600723A6
:1044600041F61D5020614FF4C072022000900021DF
:10447000D6F804C0DCF804404846A04776684846B1
:10448000D6F80C9007234FF4C0720021C8470120D2
:1044900038600220E87008F17800BDE8F243FFF7C9
:1044A000C3BCBDE8F1830120E061287800281DBF6E
:1044B0000021396103200620E870032020600020DD
:1044C000786078688107E6D470684668E8780328E1
:1044D00008D1022100910523602200214846B047FF
:1044E00004200BE0002000900523602200214846B4
:1044F000B047E87806280CBF07200A20E8700120A2
:104500007860C8E7042903D12021A161012105E0D9
:1045100001220A29A2610CBF032102216970002136
:1045200021600821C160016001202060B9E70529F0
:104530000CBF06200920E8700020E1E70020386069
:1045400078600C20A6E7002101600120674908601F
:104550000E20FEF7BEFF0220FEF7A5FF0120E87047
:104560000020A8709DE7FEE762496B4891F8E420BF
:10457000921E0A2A1AD8DFE802F0060A0E190A0E5D
:10458000190A0E19120002689107FCD548E7416824
:104590008A07FCD4FAE741688A07FCD5F6E7026887
:1045A0009107FCD441688A07FCD4EFE7FEE7F8B531
:1045B0000446564D30212846FFF75AFE4D4F07F16D
:1045C000B806C0F30720706004212846FFF750FEAC
:1045D000C0F38440B06020212846FFF749FEC0F3B5
:1045E0008120B4F5C064B061346003D1002087F845
:1045F000D800F1BD316997F8D80028B97068B16862
:10460000F060F461B0697061F06900284CBF6FF030
:104610000102022200EB40001018421000EB9270E1
:1046200001EBA0017268F260002912DC70690328B6
:1046300005D111F1150211001EDA00211CE011F163
:104640000B000100B8BF0021521E48BF0022F260DB
:1046500007E01E2912DD706928B915391E29C8BF67
:104660001E21032009E00B391E29C8BF1E21521C40
:104670003F2AC8BF3F22F2600020706131610823E9
:104680001D4CF06880B200904FF47F422768D7F845
:1046900004C030212846E0470120009011232768FC
:1046A000D7F804C04FF4003204212846E0473069AF
:1046B00080B2009012232768D7F804C04FF4F802A4
:1046C00004212846E047706980B20090284624689B
:1046D00065680A234FF440622021A847F1BD00001D
:1046E00000800C40D1090020A4D3000004800C40BD
:1046F0002C500C40F0080020A401001008400C4091
:10470000B43F0050102009403C600C4000A00C4019
:10471000A001001000400C4034600C403748006895
:1047200000F0E4B810B5374C626D536801210320E6
:1047300098472068C16A88473349886010BD70B5C2
:10474000304C616D0A680120904701281BD0A56993
:104750002B48EE68002301223421B047A0B1FFF7B7
:10476000DDFF2068C16A8847274B9A6827491C6883
:10477000D860A4EB9404801A4843000C1860A0424F
:1047800038BF20461860012070BD38B51D4C626DE1
:104790005368002103209847616D0A680120904703
:1047A00008B1FFF7BBFF2068174DC16A88476860F2
:1047B000206E01688847286131BD10B50146144854
:1047C000144B02681B68100400161B394843C010C4
:1047D00000EB2240120601FB01F412161B06624395
:1047E00061431B1600EBA220594300EBA14010BD12
:1047F00000FB00F1C0EBA15000B270478000001038
:1048000000A00C408C010010D41E002040420F007C
:1048100090130050A410005000E005E0EFF3118069
:10482000202181F31188704780F311887047F5E7E4
:10483000FAE70000F2E7F7E70D49C20744BF01229B
:104840000A60820744BF4FF480720A60400744BF89
:104850004FF4803008607047064AC30748BF1160B4
:10486000830748BF5160400748BF91607047000010
:104870000420094018200940DFF800F09DB2011023
:1048800070B50446FFF7C8FF0646A08A0025012838
:1048900008D1FFF7F1FF0546E068451BA068A84274
:1048A00038BF00253046FFF7B8FF284670BD808A24
:1048B00070470328DFF800F0E1BE011070B5FFF784
:1048C000ABFF094D0446A8680021FFF7F3FF064639
:1048D0006869861BA869B04238BF00262046FFF7EA
:1048E0009CFF304670BD00BF7801002070B50446C3
:1048F000FFF7B2FC451EAD41ED0F064E30680028B3
:10490000FCD0A047012131601DB1BDE87040FFF728
:10491000A7BC70BD00800C40FFFFFFFFFFFFFFFF43
:10492000FFFFFFFFFFFFFFFFFFFFFFFFFFFFFFFF97
:10493000FFFFFFFFFFFFFFFFFFFFFFFFFFFFFFFF87
:10494000FFFFFFFFFFFFFFFFFFFFFFFFFFFFFFFF77
:10495000FFFFFFFFFFFFFFFFFFFFFFFFFFFFFFFF67
:104BF000CF9FE7C7F3F3E79F81FE33E27E67E0FCD8
:104C00001FDF9FBFFFFFFFFFFF8F8FC7C7F1E3E3EA
:104C10009F00FC31E63CE7807007CF9F9FFFFFFFBE
:104C2000FFFF8F0FC3C7F1E1F79E3C7CF9C738E760
:104C30008F71E3CF9F9FFFFFFFFFFF070FC383E14C
:104C4000E1FF9C7E78F88F99FF1FE3F3CF9F9FFFD2
:104C5000FFFFFFFF27278B93E4E9FF9CFE38FC1F33
:104C600083FF3FE7F3CF9F9FFFFFFFFFFF2667997B
:104C700093E4CCFF9CFF38FE1FC3FF3FE7F1CF9FBB
:104C80009FFFFFFFFFFF32679999CECCFF9CFF3853
:104C9000FE3FC7FF3FE7F1CF9F9FFFFFFFFFFE7281
:104CA000679939CE4CFF9CFF38FC1FC3FF3FE7F1EB
:104CB000CF9F9FFFFFFFFFFE70731C39CE1CFF9C30
:104CC0007E38FC8F99FF1FE7F3CF8F1FFFFFFFFF99
:104CD000FE78F33C398E1E7F9E7E78F8CF19FF1F39
:104CE000E3E3C78F1FFFFFFFFFFC78F33C7C9F1EB1
:104CF0007F9E187039E73CFF8670C3C2003FFFFFFC
:104D0000FFFFFCF8F03E7C9F3E7F9F00E031E23CDD
:104D10007FC07807C0303FFFFFFFFFFFFFFFFFFFAF
:104D2000FFFFFFFFFFF8FFFFFFFFFFFFFFFFFFFF9A
:104D3000FFFFFFFFFFFFFFFFFFFFFFFFFFFFF8FF8A
:104D4000FFFFFFFFFFFFFFFFFFFFFFFFFFFFFFFF73
:104D5000FFFFFFFFFFFFFFF8FFFFFFFFFFFFFFFF6A
:104D6000FFFFFFFFFFFFFFFFFFFFFFFFFFFF9FFFB3
:104D7000FFFFFFFFFFFFFFFFFFFFFFFFFFFFFFFF43
:104D8000FFFFFFFFFFFFFF9FFFFFFFFFFFFFFFFF93
:104D9000FFFFFFFFFFFFFFFFFFFFFFFFFFFFFFFF23
:104DA0009FFFFFFFFFFFFFFFFFFFFFFFFFFFFFFF73
:104DB000FFFFFFFFFFFFFFFFFFFFFFFFFFFFFFFF03
:104DC000FFFFFFFFFFFFFFFFFFFFFFFFFFFFFFFFF3
:104DD000FFFFFFFFFFFFFFFFFFFFFFFFFFFFFFFFE3
:104DE000FFFFFFFFFFFFFFFFFFFFFFFFFFFFFFFFD3
:104DF000FFFFFFFFFFFFFFFFFFFFFFFFFFFFFFFFC3
:104E0000FFFFFFFFFFFFFFFFFFFFFFFFFFFFFFFFB2
:104E1000FFFFFFFFFFFFFFFFFFFFFFFFFFFFFFFFA2
:104E2000FFFFFFFFFFFFFFFFFFFFFFFFFFFFFFFF92
:104E3000FFFFFFFFFFFFFFFFFFFFFFFFFFFFFFFF82
:104E4000FFFFFFFFFFFFFFFFFFFFFFFFFFFFFFFF72
:104E5000FFFFFFFFFFFFFFFFFFFFFFFFFFFFFFFF62
:104E6000FFFFFFFFFFFFFFFFFFFFFFFFFFFFFFFF52
:104E7000FFFFFFFFFFFFFFFFFFFFFFFFFFFFFFFF42
:104E8000FFFFFFFFFFFFFFFFFFFFFFFFFFFFFFFF32
:104E9000FFFFFFFFFFFFFFFFFFFFFFFFFFFFFFFF22
:104EA000FFFFFFFFFFFFFFFFFFFFFFFFFFFFFFFF12
:104EB000FFFFFFFFFFFFFFFFFFFFFFFFFFFFFFFF02
:104EC000FFFFFFFFFFFFFFFFFFFFFFFFFFFFFFFFF2
:104ED000FFFFFFFFFFFFFFFFFFFFFFFFFFFFFFFFE2
:104EE000FFFFFFFFFFFFFFFFFFFFFFFFFFFFFFFFD2
:104EF000FFFFFFFFFFFFFFFFFFF803867C33CFCFED
:104F0000C1EFEE0FC07FF3FFFFFFFFFFFFFFFFFFCB
:104F1000FFFFF803007803CFCF00C7CE0F803FF329
:104F2000FFFFFFFFFFFFFFFFFFFFFFF9FE3871C329
:104F3000CFCE3EC7CF1E1F1FF3FFFFFFFFFFFFFFB8
:104F4000FFFFFFFFF9FE3C73E3CFCE3FC7CF3E3FED
:104F50008FF3FFFFFFFFFFFFFFFFFFFFFFF9FE3CA7
:104F600073F3CFCE7FC7CF3C7FC7F3FFFFFFFFFFB9
:104F7000FFFFFFFFFFFFF9FF1E73F3CFCE7FC7CF09
:104F80003CFFE7F3FFFFFFFFFFFFFFFFFFFFFFF91E
:104F9000FF8073F3CFCE7FC7CF3CFFE7F3FFFFFF68
:104FA000FFFFFFFFFFFFFFFFF9FFF073F3CFCE7F9F
:104FB000C7CF3CFFE7F3FFFFFFFFFFFFFFFFFFFF50
:104FC000FFF9FFFE73F3CFCE7FC7CF3CFFE7F3FFC0
:104FD000FFFFFFFFFFFFFFFFFFFFF9FFFC73F3C7BA
:104FE0008E3FC7CF3CFFE7F3FFFFFFFFFFFFFFFF51
:104FF000FFFFFFF9FF18F3F3C11F0CC18F3CFFE760
:10500000F3FFFFFFFFFFFFFFFFFFFFFFF9FF80F34D
:10501000F3C81F80C01F3CFFE7F3FFFFFFFFFFFF48
:10502000FFFFFFFFFFF9FFFFFFFFFFFFFFC7FF3C91
:105030007FC7F3FFFFFFFFFFFFFFFFFFFFFFF9FF4A
:10504000FFFFFFFFFFFFC7FF3E3F8FF3FFFFFFFFA5
:10505000FFFFFFFFFFFFFFF9FFFFFFFFFFFFFFC79E
:10506000FF3E1F0FF3FFFFFFFFFFFFFFFFFFFFFFED
:10507000F9FFFFFFFFFFFFFFC7FE0F001E001FFF2E
:10508000FFFFFFFFFFFFFFFFFFF9FFFFFFFFFFFF36
:10509000FFC7FE0FC07E001FFFFFFFFFFFFFFFFFE8
:1050A000FFFFFFFFFFFFFFFFFFFFC7FFFFFFFFFF48
:1050B000FFFFFFFFFFFFFFFFFFFFFFFFFFFFFFFF00
:1050C000FFFFFFFFFFFFFFFFFFFFFFFFFFFFFFFFF0
:1050D000FFFFFFFFFFFFFFFFFFFFFFFFFFFFFFFFE0
:1050E000FFFFFFFFFFFFFFFFFFFFFFFFFFFFFFFFD0
:1050F000FFFFFFFFFFFFFFFFFFFFFFFFFFFFFFFFC0
:10510000FFFFFFFFFFFFFFFFFFFFFFFFFFFFFFFFAF
:10511000FFFFFFFFFFFFFFFFFFFFFFFFFFFFFFFF9F
:10512000FFFFFFFFFFFFFFFFFFFFFFFFFFFFFFFF8F
:10513000FFFFFFFFFFFFFFFFFFFFFFFFFFFFFFFF7F
:10514000FFFFFFFFFFFFFFFFFFFFFFFFFFFFFFFF6F
:10515000FFFFFFFFFFFFFFFFFFFFFFFFFFFFFFFF5F
:10516000FFFFFFFFFFFFFFFFFFFFFFFFFFFFFFFF4F
:10517000FFFFFFFFFFFFFFFFFFFFFFFFFFFFFFFF3F
:10518000FFFFFFFFFFFFFFFFFFFFFFFFFFFFFFFF2F
:10519000FFFFFFFFFFFFFFFFFFFFFFFFFFFFFFFF1F
:1051A000FFFFFFFFFFFFFFFFFFFFFFFFFFFFFFFF0F
:1051B000FFFFFFFFFFFFFFFFFFFFFFFFFFFFFFFFFF
:1051C000FFFFFFFFFFFFFFFFFFFFFFFFFFFFFFFFEF
:1051D000FFFFFFFFFFFFFFFFFFFFFFFFFFFFFFFFDF
:1051E000FFFFFFFFFFFFFFFFFFFFFFEFFFFFFFFFDF
:1051F000FFFFFFFFFFFFFFFFFFFFFFFFFFFFFFFFBF
:10520000FFFFFFFFE07FFFFFFFFFFFFFFFFFFFFF4D
:10521000FFFFFFFFFFFFFFFFFFFFFFFFFFE00FFFAD
:10522000FFFFFFFFFFFFFFFFFFFFFFFFFFFFFFFF8E
:10523000FFFFFFFFFFFFC007FFFFFFFFFFFFFFFFB5
:10524000FFFFFFFFFFFFFFFFFFFFFFFFFFFFFFC0AD
:1052500003FFFFFFFFFFFFFFFFFFFFFFFFFFFFFF5A
:10526000FFFFFFFFFFFFFFFFC001FFFFFFFFFFFF8B
:10527000FFFFFFFFFFFFFFFFFFFFFFFFFFFFFFFF3E
:10528000FFC1E0FFFFFFFFFFFFFFFFFFFFFFFFFF8B
:10529000FFFFFFFFFFFFFFFFFFFFC3F07FFFFFFFE9
:1052A000FFFFFFFFFFFFFFFFFFFFFFFFFFFFFFFF0E
:1052B000FFFFFFC1F83FFFFFFFFFFFFFFFFFFFFF03
:1052C000FFFFFFFFFFFFFFFFFFFFFFFFE1F83FFFD3
:1052D000FFFFFFFFFFFFFFFFFFFFFFFFFFFFFFFFDE
:1052E000FFFFFFFFFFE1F81FFFF87FFFFFFFFFFF5A
:1052F000FFFFFFFFFFFFFFFFFFFFFFFFFFFFF0FCD0
:105300001FFFE03FFFFFFFFFFFFFFFFFFFFFFFFF6C
:10531000FFFFFFFFFFFFFFF07C1CFF871FFFFFFF6A
:10532000FFFFFFFFFFFFFFFFFFFFFFFFFFFFFFC1CB
:10533000F81C18FE1F8FFFFFFFFFFFFFFFFFFFFF9F
:10534000FFFFFFFFFFFFFFFF80780002787F87FFEE
:10535000FFFFFFFFFFFFFFFFFFFFFFFFFFFFFFFF5D
:10536000FF801C000C20FF87FFFFFFFFFFFFFFFFF8
:10537000FFFFFFFFFFFFFFFFFFFF800E001C03FF8B
:1053800087FFFFFFFFFFFFFFFFFFFFFFFFFFFFFFA5
:10539000FFFFFF8607003E87FF87FFFFFFFFFFFF3E
:1053A000FFFFFFFFFFFFFFFFFFFFFFFF8783C07FC0
:1053B00087FF83FFFFFFFFFFFFFFFFFFFFFFFFFFF1
:1053C000FFFFFFFFFF8783F8FFC7FF83FFFFFFFF9C
:1053D000FFFFFFFFFFFFFFFFFFFFFFFFFFFFC7C153
:1053E000FBFFC3FFC3FFFFFFFFFFFFFFFFFFFFFF49
:1053F000FFFFFFFFFFFFFFC3E1F7FFE3FFC3FFFF77
:10540000FFFFFFFFFFFFFFFFFFFFFFFFFFFFFFFFAC
:10541000E1E1E3FFE3FFC3FFFFFFFFFFFFFFFFFF4C
:10542000FFFFFFFFFFFFFFFFFFE0E081FFE1FFC3A2
:10543000FFFFFFFFFFFFFFFFFFFFFFFFFFFFFFFF7C
:10544000FFFFF00000FFF1FFC3FFFFFFFFFFFFFFC3
:10545000FFFFFFFFFFFFFFFFFFFFFFF000707FF187
:10546000FFC3FFFFFFFFFFFFFFFFFFFFFFFFFFFF88
:10547000FFFFFFFFF800F87FF1FFC3FFFFFFFFFF13
:10548000FFFFFFFFFFFFFFFFFFFFFFFFFFFE01FC2E
:105490003FF0FFC3FFFFFFFFFFFFFFFFFFFFFFFF27
:1054A000FFFFFFFFFFFFFF03FE1FF07FC1FFFFFFB6
:1054B000FFFFFFFFFFFFFFFFFFFFFFFFFFFFFFFFFC
:1054C000CFFF0FE07FE1FFFFFFFFFFFFFFFFFFFFC9
:1054D000FFFFFFFFFFFFFFFFFFDFFF87E03FE1FF71
:1054E000FFFFFFFFFFFFFFFFFFFFFFFFFFFFFFFFCC
:1054F000FFFF3FFF81C01FE1FFFFFFFFFFFFFFFF37
:10550000FFFFFFFFFFFFFFFFFFFFFF3FFFC0000F99
:10551000E1FFFFFFFFFFFFFFFFFFFFFFFFFFFFFFB9
:10552000FFFFFFFFDFFFE00007E1FFFFFFFFFFFFDF
:10553000FFFFFFFFFFFFFFFFFFFFFFFFFFEFFFE0AA
:105540000103E1FFFFFFFFFFFFFFFFFFFFFFFFFF83
:10555000FFFFFFFFFFFFF3FFF00301E1FFFFFFFF8E
:10556000FFFFFFFFFFFFFFFFFFFFFFFFFFFFFFF159
:10557000FFF00780E1FFFFFFFFFFFFFFFFFFFFFFDF
:10558000FFFFFFFFFFFFFFFFE07FE007C060FFFFBF
:10559000FFFFFFFFFFFFFFFFFFFFFFFFFFFFFFFF1B
:1055A000FFC40FC00FE060FFFFFFFFFFFFFFFFFF23
:1055B000FFFFFFFFFFFFFFFFFFFFCF00001FE030F7
:1055C000FFFFFFFFFFFFFFFFFFFFFFFFFFFFFFFFEB
:1055D000FFFFFF9F80007FF000FFFFFFFFFFFFFF47
:1055E000FFFFFFFFFFFFFFFFFFFFFFFF1FF001FFB8
:1055F000F804FFFFFFFFFFFFFFFFFFFFFFFFFFFFBD
:10560000FFFFFFFFFF3FFE1FFFFC00FFFFFFFFFF4D
:10561000FFFFFFFFFFFFFFFFFFFFFFFFFFFE7FFF1B
:105620001FFFFE00FFFFFFFFFFFFFFFFFFFFFFFF6A
:10563000FFFFFFFFFFFFFC7FFF8FFFFF00FFFFFF6C
:10564000FFFFFFFFFFFFFFFFFFFFFFFFFFFFFFFC6D
:10565000FFFFC7FFFF807FFFFFFFFFFFFFFFFFFF91
:10566000FFFFFFFFFFFFFFFFF9FFFFE7FFFF807F67
:10567000FFFFFFFFFFFFFFFFFFFFFFFFFFFFFFFF3A
:10568000FFF9FFFFE3FFFFC07FFFFFFFFFFFFFFF0B
:10569000FFFFFFFFFFFFFFFFFFFFF9FFFFF1FFFF2E
:1056A000E03FFFFFFFFFFFFFFFFFFFFFFFFFFFFFE9
:1056B000FFFFFFF9FFFFF8FFFFF01FFFFFFFFFFFF6
:1056C000FFFFFFFFFFFFFFFFFFFFFFFFF83FFFFCB4
:1056D0007FFFF80FFFFFFFFFFFFFFFFFFFFFFFFF51
:1056E000FFFFFFFFFFFC01FFFE3FFFFC07FFFFFF87
:1056F000FFFFFFFFFFFFFFFFFFFFFFFFFFFFFE00BA
:105700001FFF1FFFFE03FFFFFFFFFFFFFFFFFFFF66
:10571000FFFFFFFFFFFFFFFF0000FF8FFFFF01FF05
:10572000FFFFFFFFFFFFFFFFFFFFFFFFFFFFFFFF89
:10573000FFC0000FC7FFFF80FFFFFFFFFFFFFFFF5E
:10574000FFFFFFFFFFFFFFFFFFFFF8000043FFFF2A
:10575000807FFFFFFFFFFFFFFFFFFFFFFFFFFFFF58
:10576000FFFFFFFFC00003FFFFC07FFFFFFFFFFF42
:10577000FFFFFFFFFFFFFFFFFFFFFFFFFFFE000137
:10578000FFFFE03FFFFFFFFFFFFFFFFFFFFFFFFF08
:10579000FFFFFFFFFFFFFFE000FFFFF01FFFFFFF26
:1057A000FFFFFFFFFFFFFFFFFFFFFFFFFFFFFFFF09
:1057B000FF007FFFFC1FFFFFFFFFFFFFFFFFFFFF5B
:1057C000FFFFFFFFFFFFFFFFFFFFF03FFFF80FFFAF
:1057D000FFFFFFFFFFFFFFFFFFFFFFFFFFFFFFFFD9
:1057E000FFFFFFFF1FFFF00FFFFFFFFFFFFFFFFFA8
:1057F000FFFFFFFFFFFFFFFFFFFFFFFFFF8FFFE048
:1058000047FFFFFFFFFFFFFFFFFFFFFFFFFFFFFF60
:10581000FFFFFFFFFFFFC7FFE007FFFFFFFFFFFFE7
:10582000FFFFFFFFFFFFFFFFFFFFFFFFFFFFFFE3A4
:10583000FFE027FFFFFFFFFFFFFFFFFFFFFFFFFF6F
:10584000FFFFFFFFFFFFFFFFF1FFE023FFFFFFFF71
:10585000FFFFFFFFFFFFFFFFFFFFFFFFFFFFFFFF58
:10586000FFF9FEC063FFFFFFFFFFFFFFFFFFFFFF2A
:10587000FFFFFFFFFFFFFFFFFFFFFCF80063FFFFDD
:10588000FFFFFFFFFFFFFFFFFFFFFFFFFFFFFFFF28
:10589000FFFFFFFC7BF0E3FFFFFFFFFFFFFFFFFFCA
:1058A000FFFFFFFFFFFFFFFFFFFFFFFFFE3BF8E1F2
:1058B000FFFFFFFFFFFFFFFFFFFFFFFFFFFFFFFFF8
:1058C000FFFFFFFFFFFF18F1C0FFFFFFFFFFFFFF1C
:1058D000FFFFFFFFFFFFFFFFFFFFFFFFFFFFFF8E49
:1058E0000780FFFFFFFFFFFFFFFFFFFFFFFFFFFF3F
:1058F000FFFFFFFFFFFFFFFFC3FF00FFFFFFFFFFF3
:10590000FFFFFFFFFFFFFFFFFFFFFFFFFFFFFFFFA7
:10591000FFF1FC00FFFFFFFFFFFFFFFFFFFFFFFFA7
:10592000FFFFFFFFFFFFFFFFFFFFF83800FFFFFF54
:10593000FFFFFFFFFFFFFFFFFFFFFFFFFFFFFFFF77
:10594000FFFFFFFE0001FFFFFFFFFFFFFFFFFFFF65
:10595000FFFFFFFFFFFFFFFFFFFFFFFFFF8003FFD2
:10596000FFFFFFFFFFFFFFFFFFFFFFFFFFFFFFFF47
:10597000FFFFFFFFFFFFF007FFFFFFFFFFFFFFFF3E
:10598000FFFFFFFFFFFFFFFFFFFFFFFFFFFFFFFC2A
:105990000FFFFFFFFFFFFFFFFFFFFFFFFFFFFFFF07
:1059A000FFFFFFFFFFFFFFFFFFFFFFFFFFFFFFFF07
:1059B000FFFFFFFFFFFFFFFFFFFFFFFFFFFFFFFFF7
:1059C000FFFFFFFFFFFFFFFFFFFFFFFFFFFFFFFFE7
:1059D000FFFFFFFFFFFFFFFFFFFFFFFFFFFFFFFFD7
:105CA00038B50546FDF7D2FA2C680CB12168296099
:105CB000FDF7DCFA204632BD70B505460E462C686D
:105CC000002030601CB9FDF7C1FA2E600DE0FDF731
:105CD000BDFA00E0246821680029FBD1B44203D159
:105CE000FDF7C4FA002070BD2660FDF7BFFA012061
:105CF00070BD10B501460022DFF8500B00EB4210DA
:105D0000C37F1C0603D5B0F91C308B4203D0521C54
:105D1000082AF1DB002010BD38B504281DD1DFF8BA
:105D2000CC4A04F1EC052846FEF772F8A8B12846E3
:105D3000FEF76CF8DFF8B81A0A68504364280CD2F2
:105D40002846FEF773F80520FDF712FC0120E077E6
:105D5000042104F14C00FDF73DFA002032BD70B57E
:105D60000446FDF773FADFF88C1A0546887D00B308
:105D7000401E8875C0B2E0B9DFF8706A082100F0F3
:105D8000F4F8B4B1B06B7030FEF750F8B06BDFF8D8
:105D9000601AC0680A68241AB4FBF2F1012906F1FE
:105DA000EC0498BF01212046FEF73CF82046FEF7A0
:105DB0003BF82846BDE87040FDF758BA10B50446D8
:105DC000207B00F00F0002280FD100F018FDA16821
:105DD000081ADFF8181A8A6BD168800801F57A7101
:105DE000814238BFB0F1405F00D3002010BD38B50C
:105DF000DFF85C1ADFF85C0A0C68DFF8F059044041
:105E0000E0430860A00606D54868810603D54FF434
:105E1000005100F0E6FD14F4602F09D0286904F465
:105E2000602404432C6105F19C00BDE834403AE055
:105E300031BD70B5FDF70AFADFF8B059044628699C
:105E400010F4602F25D02E69F601360EF00748BFFA
:105E5000002606D4B00748BF012602D4700748BF09
:105E60000226701D40B200F051FF2969012206F19F
:105E7000110082409143296100F0BEFC05EB8600D1
:105E8000446844B1286800224FF00063711DA047A8
:105E900001E000F0B1FC286920B105F19C00BDE8EB
:105EA000704000E070BD0021FDF794B970B500F0BE
:105EB00099FFDFF83869DFF8E05B8107B16A1DD42C
:105EC000D1E90423104007D0F1628A691043886148
:105ED0004FF4804100F049F8B06A002844D1746A58
:105EE000002C41D0E068B16B884222D006F14C0012
:105EF000BDE870404FF48051FDF76CB909B9B16A43
:105F0000EAE70022B262D1E904238C69104040F034
:105F1000020020438861686990436861E86898439B
:105F2000E86006F13000FFF7C7FE022100F01DF81F
:105F3000E5E7A068FFF742FFB06408B1B06CD1E0BC
:105F4000D4E904016A6902436A610020EA680A43ED
:105F5000EA60E861A0682860E8690028FCD006F1E2
:105F60002400FFF79DFEB46270BD06F14C00FDF702
:105F700031B90020F3E6F8B5074614463E6E1D46DB
:105F800006B1B047A00708D4D7E916012040294040
:105F90000022914208BF904207D0C7E91A4507F195
:105FA0003800BDE8F240FDF736BEF1BD704780B560
:105FB000FDF70EF9DFF834280146906BD26BBDE88F
:105FC000084010470421DFF8D40AFDF703B980B573
:105FD00000F008FFDFF8C81A084204D0BDE804400A
:105FE0004FF00051EFE701BD70B504005AD0A16831
:105FF000202000291CBFC2B2002A59D00A8840F6CE
:1060000003039A421FBF40F604039A424968401EA8
:10601000EFD148E000224FF08043B4F91C10E06853
:106020006568A847FDF712F9DFF8C0570646E88E05
:10603000401CC0F30B00E8860020296BC87705F1EF
:106040003000FFF72DFE3046FDF710F9B5F93600A8
:10605000E26802F19403B3F90010884202BFDFF84E
:106060009407017D00291DD1987808B9106810B9EE
:106070000020987036E0A96B0B6813F1010F11D066
:10608000DFF86C572968B0FBF1F1012998BF0121B5
:1060900002F17000FDF7C6FEE068BDE870407030A8
:1060A000FDF7C2BE70BDE06818222030FDF7CEFDBE
:1060B000A2690020A06160680028B3D0E07F0023BF
:1060C00000F00700012842F0020207D00228A1D008
:1060D000042804BF00224FF080539EE700224FF0B7
:1060E00000539AE7BDE8704039E638B50D46A80779
:1060F000DFF8F84619D5206BFFF776FF206B25F007
:10610000020510B145F0020109E0680702D4606A97
:10611000002854D004F1EC00FDF788FE042104F1BE
:106120004C00BDE83440FDF755B8680747D501205D
:1061300084F820000420FDF71BFADFF868090168E5
:106140000A6B90472064606A08B1C068A063A06BC6
:106150004168DFF854090A7802600220FDF708FA66
:106160001120FDF71AFA0120E076A06B017C0029CE
:1061700019BF607E00280E20FDF70FFAA06BDFF834
:10618000182940688168002904BFC068002804D02D
:106190000021D161DFF84C0A106040F2FF70DFF897
:1061A000481A086000219161DFF8F40850610FF28D
:1061B0001100E0631920BDE83240FDF749B831BD58
:1061C0002DE9F0430446880085B040F19380DFF864
:1061D0001C56A86B4068406800B18047A86BDFF888
:1061E000B88842689068002804BFD16800290DD0A3
:1061F00000F0A7F8906800B18047A86B4068C068BD
:1062000000B18047DFF86C0A00F0EFFD0020C8F80D
:106210001C0040F60A09DFF8600ADFF8D875C8F8F4
:106220000000012000F01BFE0FF28110E863002146
:1062300000207880A7F8009000F00CFA787B00F03E
:1062400003FAA26816467180697E09B1607CA0B12C
:10625000108840F60201884218BFB0F5C15F05D131
:10626000318A4FF60F400140318204E0318B4FF606
:106270000F4001403183002060746946104600F0F1
:10628000DBFD684600F0E6FD7068B0B30188494563
:1062900018BF0646F8D130E0208C00283FD00021FE
:1062A0006184616204F12C004278017802F0F0020E
:1062B00001F0F00142F001020170427004F120008F
:1062C0007860787B00F0F000787328E0DFF8801ABF
:1062D0000A68136801209847012808D0707B00F0F5
:1062E000F00040F0010070730FF26900E863A068ED
:1062F000C8F8000005B0BDE8F083776040F6030100
:10630000707B00F0F0007073686A806800888842D3
:106310001CBF40F604018842BED10020286400F072
:1063200010F84FF6FF30A1680A8A02400A82E87F1F
:106330000028CBD0FDF7B6FA0028FBD0FDF7C3FA52
:10634000D5E7D8F81C000028FBD00021C8F81C10A5
:1063500070470000DFF8FC29114200D17047DFF8D8
:10636000F019012010B50A68DFF8804413689847D7
:10637000012808D10FF23500DFF81C17E063DFF8C1
:106380007404086010BDDFF8682410683221B1FB86
:10639000F0F1012998BF0121EC342046FDF742FDC0
:1063A0002046BDE81040FDF73FBD00002DE9FE4F3F
:1063B00006460C466004DFF8345419D5FCF746FF56
:1063C000EE6AB769B9070ED46EB10021B161FCF76E
:1063D0004DFF706848B1B6F91C10F06876683A460F
:1063E0000023B04701E0FCF741FF24F4804425E19D
:1063F000A0070AD5286BFFF7F7FD286B002824F0CB
:10640000020401D044F0020418E1A00005F1800864
:1064100040F60909DFF8DC73DFF888B676D595F821
:10642000200028B10420FDF73EF8002085F8200068
:1064300040F60202B0680188914218BFB1F5C15F11
:1064400005D1028A2D2161F30912028204E0028B38
:106450002D2161F309120283286CD8B1DBF85410A6
:106460000A6804209047A8B1DBF80000016B884758
:10647000296C814228BF401E401A718A11EB1030EE
:10648000F06040F2D171A0F5FA70884224BF40F666
:10649000C410F060787B10F00F0F04BF708C48457B
:1064A00008D1D6F818C000224FF000736FF4807145
:1064B0003046E0470022DFF8A8184046FCF7CCFE43
:1064C000A87E50B10221ADF80010684600F08DFCA6
:1064D000BDF80800A8820020A876012028760021B7
:1064E000B87D401CB875E976686A18B11920FCF7C8
:1064F000B1FE01E044F002043046766900224FF01C
:1065000080630021B04724F0005497E0A87F24F076
:10651000080A20B1210703D50020A8777BE02007D7
:106520007BD5E87F20B10021E9770520FCF7BBFF90
:106530000020287601202877002000F090FC00221F
:10654000DFF820184046FCF787FE697E09B1A87E77
:1065500010B10121697612E0A86C002834D0DBF874
:106560000010086B8047296C6A6C401A02EB1032ED
:106570006A64A86CC001904226D200216964DFF8E9
:10658000E80701680A061FD5787BA7F8009000F09D
:106590005BF800210020788000F05CF8FCF756FEE4
:1065A000DFF8F4144A6922F002024A616FF0020235
:1065B0000A610F600B699C07FCD50A614A6942F0C9
:1065C00002024A61FCF752FE0020286400F01AFC27
:1065D000DFF81416002008600220FCF764FF112089
:1065E000FCF777FF307C10B90E20FCF772FF00201B
:1065F000A883787D18B906F13800FDF70CFBDFF8A9
:106600006C07E863F87D30B10021F97505F14C00A5
:106610000421FCF7DFFD544610E0A0040ED5AE6A5D
:10662000002E1CBF7068002806D0B6F91C10F06858
:10663000766800222023B04724F4005414B1214688
:1066400000F0CFF9BDE8F78F00F0F00040F0010056
:10665000787370477960387B00F0F00038737047CA
:1066600030B585B0FCF78CFEDFF80407DFF804478F
:1066700001685E4D41F0020101606846FCF77DFD56
:10668000A078DFF8F41602906A4605F14C00FCF79A
:106690007CFD6846FCF7E2FD2178DFF8C826019111
:1066A00000208DF808006B46192105F18000FCF7E9
:1066B000AAFD6846FCF761FDE078DFF8C01602909D
:1066C0006A4605F19C00FCF760FD6846FCF7C6FDD4
:1066D00001208DF808006B466078DFF8A426019051
:1066E0001A2105F1D000FCF78EFD00230022DFF80F
:1066F000941605F1EC00FDF768FBDFF87006DFF893
:106700008826E8630023042105F58870FCF7B9FEAC
:106710004FF6FF70A88205B00120A8760020E8752A
:106720006876E876E861286485F8200030BDF0B529
:1067300000298BB0064615461C4653D0DFF84C06A0
:1067400000680A78D040C0074CD5002D716049D050
:106750000021284600F084FBB560FCF777FD254F4B
:106760000546787D00283BD1FFF77AFF787D401CF5
:10677000787500F0A0FA34B903A80FF24C611C221E
:10678000FDF764FA03AC2068DFF8041630600A46AF
:106790006068F060207C307401207074608A7082C0
:1067A000E06800B10146B161A06800B102467261C3
:1067B000782106F1200000F097FB002106F1380057
:1067C000FDF7F3F96846FDF72AFB02966B460022B7
:1067D000DFF8C01506F17000FDF7F7FA304602E069
:1067E00000F069FA00200BB0F0BD00006C1C002026
:1067F000C01E0020901D00202046FCF737BDD0B5FC
:10680000FCF724FDDFF89025117E31B1DFF88C25EF
:106810001468FCF72BFD2046D0BDFCF727FDA148EE
:10682000DFF87C4501680A6B904710F50032DFF80D
:10683000740541F100030169A4FB0267002004FB19
:106840000377321847EB01031846D0BD800C0020B7
:106850000810044020000E002DE9F84F04460E46B3
:1068600092469B46DFF83055FCF7F0FCB5F9341042
:106870008046B5F93600091AC1F30B0108296FF0FB
:10688000010949DAA88EDFF82015401CC0F30B007F
:10689000A886B5F93400ADF800000020420101F1EE
:1068A0001F039B5C1F0640F18C80401CC0B208286F
:1068B000F4DB002704F17000FDF7B8FABE6087F83A
:1068C0001EA0C7F804B02021BDF80000B883FC600A
:1068D000DDE90AABDFF8D4040AEA00000BEA0101A3
:1068E000C7E9040194340020F87740F6FF76686A1F
:1068F0000028394605F1240006D0FFF7DDF930B154
:1069000000F061F840464FE0FFF7D6F940B9A88E95
:106910003618C6F30B06AE8600F01EFA48464EE067
:1069200000F051F8697FDFF87C4400291CBF287E05
:10693000002807D0002001216877A876A977A07DDC
:10694000401CA07500F008FAA96A002935D1287EFC
:1069500018B11920FCF77EFC2FE0E87E68BBFCF73D
:1069600075FC0646287F10B10121E1751BE0B8686F
:10697000FFF724FAA864D0B1A86BDFF83414C0681C
:106980000968AA6C121AB2FBF1F2012A83BFAA6C41
:10699000101AB0FBF1F10121EC352846FDF742FA5F
:1069A0002846FDF741FA3046FCF760FC05E030462A
:1069B000FCF75CFC042100F014F8BDF90000BDE810
:1069C000F28F8F1876E7BDF800002080F87F40F046
:1069D0008000F877A078012802D10021A170A97663
:1069E000704705F14C00FCF7F5BB2DE9F041054679
:1069F0000C4616461F46FCF7E9FB80462046FFF78B
:106A000078F9040003D14046FCF7E8FB0AE0E07F98
:106A100010F0070F09D04046FCF7E0FBE07F10F0D4
:106A2000070FFBD10220002112E06168DFF8840328
:106A3000814202D0616829666060C5E916674046F8
:106A4000FCF7CCFB00F006F800202866D5E91A0117
:106A5000BDE8F0814FF0FF3105F13800FDF7D2B805
:106A6000DCB5DDE906670446CDE90067180008BF1C
:106A7000DFF840332046FFF7EFFE002803D5002063
:106A80004FF00041DCBD0146204602B0BDE8D040D9
:106A900002224FF0E043A8E700100440B81C002099
:106AA000020000408C010010D021084001E042F0BB
:106AB00002022DE9F843DFF8E052686A00900F46C1
:106AC00003261446FCF7C2FB17F1010F04F001087E
:106AD000814609D1A86A002819BFA96AB1F91C70BA
:106AE000EF8E7F1C0020E87538B2FFF702F9010035
:106AF00069D0A86A814204F0020426D11CB1686AF8
:106B0000009000226A620122C87F02FA08F2104354
:106B1000C877FCF75BFB0646B8F1000F14BFDFF83F
:106B20009802DFF8980200F060F900F06BF824B9E1
:106B300006E000F05BF800F060F800980028F8D15B
:106B40003046FCF74BFB83263FE00098884205F176
:106B5000EC0316D11846FDF769F9002C12BF00208E
:106B6000686A0068686200F04DF8009800F03EF82E
:106B700000F043F8009820B3002CF6D121E0126811
:106B80000092009820B3024610688842F7D1184658
:106B9000FDF74CF9009800681CB1009A00211160C3
:106BA00004E00168009A116000220260009003E096
:106BB00000F01CF800F021F800980028F8D100F04F
:106BC00021F8832606E000F01DF83046BDE8F28388
:106BD00000F018F8E87E0028F7D10221FFF701FF46
:106BE000F3E700005100070600000460C17F41F098
:106BF0000401C1776846FFF753B8014605F130003C
:106C0000FFF75AB84846FCF731BB0FF2BC111C2203
:106C1000FDF71CB838B50446FCF718FBDFF878110F
:106C20000546087E68B1204600F0DFF8044600F013
:106C300042F804F0FF04012C01D1812032BD022072
:106C400032BD00F038F8012032BD0A46DFF84811A5
:106C50008B6B984201D00320704707E00A46DFF8AB
:106C600038118B6B984201D00320704700211046E9
:106C7000D0E700000100070601010E0470B5DFF83F
:106C800018118A6B90426FF07F0412D1087E80B198
:106C9000FCF7DCFA0546DFF8280100F0A6F8064606
:106CA00000F009F806F0FF00012802D13602301684
:106CB00070BD204670BD2846FCF7D8BA70B50E46A8
:106CC0001546FCF7C3FA8324334A1EB1022E0ED0B8
:106CD00006D30FE0916A41B1926A918B29800AE054
:106CE000917E11B9928A2A8005E0802403E0117E0A
:106CF000297000E00324FCF7B9FA204670BD80B586
:106D00000846FEF7F6FF00B1806802BD38B50446BC
:106D1000FCF79CFA204AD17D4B0702D5937D9C421B
:106D200012D00123958A03FA04F10D432549958277
:106D30000C340A6803FA04F422EA04040C600968BB
:106D400011B9184B00221A75BDE83240FCF78EBA13
:106D5000E0010010040000204046FCF787BA000064
:106D6000AD5E0000CF5F000000000440EB6000005B
:106D700000200940B4D30000AF5F0000335E000084
:106D8000EF5D0000C55F0000195D0000D4210840E0
:106D9000AD5F0000735F00006C1C002004300440F5
:106DA00000093D00901D0020800C0020F1EFFF9FA6
:106DB000C01E0020775F00000100020401000104F2
:106DC000010003040C100440FFFFFFFFC409000092
:106DD000000000000000000001001A010000000097
:106DE000000000003849086867E0384A1168002947
:106DF000FCD10023D3611060D0690028FCD0D161A0
:106E0000506870473248016821F0020141F4007176
:106E1000016003212F48816041F23001416101216D
:106E2000C160502141610121C1604FF4CA614161DB
:106E30000121C16001607047274802680A608268CA
:106E40004A60C2688A60406B20F0784040F0805011
:106E5000C8607047014610222048FCF7E7BE704723
:106E6000FEB50188B1F5C15F18D142691C4F00928F
:106E7000002382690192C06902901A480268C2F335
:106E800003625DF8230098B1002550F82560BE42EA
:106E900006D06D1CEDB2042DF7DD09E00120FEBD2A
:106EA000042D05DC26F4702444EA024440F8254011
:106EB0005B1C032BE5DB0020FEBDC2430A600A68B1
:106EC0000242FAD170470000101004400010044044
:106ED00000000460004104404C13005018000021E1
:106EE0000200F844541300500022FCF719BE052A92
:106EF000DFF800F01D6E0110DFF800F04D71011099
:106F000080B54FF4FC720FF278011A48FCF79EFE30
:106F1000012119484174002202210270C17601BD8D
:106F20002DE9F0410FF250221449382013685468BB
:106F30009568D6681769D2F814C0D2F818E0D2F86C
:106F40001C800B604C608D60CE600F61C1F814C076
:106F5000C1F818E0C1F81C8020322031401EE5D174
:106F600050689368D46812680A6048608B60CC608F
:106F7000BDE8F081480400215903002100C0002130
:106F8000410500217D0500212D06002170B51D461B
:106F9000004C204787B2000010B5014800470000B0
:106FA000D509000070B5614C6148254650358047D1
