:020000040000FA
:10000000004400205D05010001C9011001C9011073
:1000100001C9011001C9011001C9011001C9011074
:1000200001C9011001C9011001C9011001C9011064
:1000300001C9011001C901103FC9011000000000F1
:1000400000000000000000000000000000000000B0
:1000500000000000000000000000000000000000A0
:100060000000000000000000000000000000000090
:100070000000000000000000000000000000000080
:10100000B41200001810000015AB0110FDB3011060
:101010006DC00110FDAE011099B501100000000077
:10102000000000002D000000B01200003C10000085
:10103000B1C00110A9BF011067C0011069B801104B
:10104000000000000000000030000000B0120000AE
:1010500060100000BDC00110CDB30110D9BD01105A
:101060006DB301100000000000000000310000001E
:1010700000000000740600200400000000000000D2
:10108000000000002000000064FD000030000000AF
:10109000281000009406002004000000000000005A
:1010A000000000000C0000006C04010018000000AB
:1010B0004C1000009C06002004000000000000000E
:1010C000000000002400000084040100180000005B
:1010D00000000000DC06002004000000000000000A
:1010E000000000001000000060FE00002C00000066
:1010F00000100000F80600200400000000000000BE
:101100000000000020000000100101002400000089
:10111000FFFFFFFF000700200400000000000000A8
:10112000000000002800000034010100240000003D
:10113000FFFFFFFF28070020040000000000000060
:1011400000000000140000009C04010018000000D2
:10115000FFFFFFFF30070020040000000000000038
:1011600000000000580000005CFC0000340000009B
:10117000FFFFFFFF38070020040000000000000010
:101180000000000010000000B4040100180000007E
:10119000FFFFFFFF400700200400000000000000E8
:1011A000000000001C0000005801010024000000A5
:1011B000FFFFFFFF480700200400000000000000C0
:1011C000000000003800000024000100280000009A
:1011D000FFFFFFFFB0070020040000000000000038
:1011E000000000005400000058FA00003C0000001D
:1011F00001000000C00601000100000000000E0018
:1012000000000F0032000000010000007C060020FA
:10121000000200000000000001C9011000000000F1
:10122000000000000800000000002200A4060020CA
:101230000000000000000000080000000807002077
:101240000000000000000000080000000000000096
:10125000000000000000000000000000010000008D
:10126000500700200600000001000000B807002021
:10127000000000000000000000020000000000006C
:10128000290001002500300031002D00010001007F
:1012900004000000C4050100000000000000000080
:1012A000000001000000030013C40110C5B90000D4
:1012B000B8120000B812000000000000EC06002088
:1012C00065B8000020000000740501004C0001001A
:1012D00029C10110AFA5000003AD0000A1C7011096
:1012E000A3C701100000000036CE000050F8000037
:1012F00068F8000038F80000020009000100000052
:1013000001000000F1FF0000C5FF0000A103010083
:10131000C9FC000031FD000081F8000011F100005F
:10132000FD040100DDB70000FDB9000001BA0000B6
:101330004C61756E6368494F540000007777772ED3
:10134000696F7478782E636F6D000000FFE0FFE036
:10135000FFE0FFE0FFE0FFE0FFE0FFE0FFE0FFE095
:10136000FFE0FFE0FFE0FFE0FFE0FFE0FFE0FFE085
:10137000FFE0FFE0FFE0FFE0FFE0FFE0FFE0FFE075
:10138000FFE0FFE0FFE0FFE0FFE0FFE0FFE0FFE065
:10139000FFE0FFE0FFE0FFE0FFE0FFE0D6AF6BF132
:1013A0002A1319D319D342D2CE4FFFE0FFE0FFE05A
:1013B000FFE0FFE0FFE0FFE0FFE0FFE0FFE0FFE035
:1013C000FFE0FFE0FFE0FFE0FFE0FFE0FFE0FFE025
:1013D000FFE0FFE0FFE0FFE0FFE0FFE0FFE0FFE015
:1013E000FFE0FFE0FFE0FFE0FFE0FFE0FFE0FFE005
:1013F000FFE0FFE0FFE0DECE8C70529110B211737F
:1014000032D65B15429419F41174D68FFFE0FFE0D9
:10141000FFE0FFE0FFE0FFE0FFE0FFE0FFE0FFE0D4
:10142000FFE0FFE0FFE0FFE0FFE0FFE0FFE0FFE0C4
:10143000FFE0FFE0FFE0FFE0FFE0FFE0FFE0FFE0B4
:10144000FFE0FFE0FFE0FFE0FFE0FFE0FFE0FFE0A4
:10145000FFE0E70E6B3010F332D66CBA53D911337C
:10146000115352F56B35529411B35332FFE0FFE044
:10147000FFE0FFE0FFE0FFE0FFE0FFE0FFE0FFE074
:10148000FFE0FFE0FFE0FFE0FFE0FFE0FFE0FFE064
:10149000FFE0FFE0FFE0FFE0FFE0FFE0FFE0FFE054
:1014A000FFE0FFE0FFE0FFE0FFE0FFE0FFE0FFE044
:1014B0009D1010B24B17CEBEFFFFFFFFFFFFD73FBF
:1014C0002AB71092325462D4321321F3FFE0FFE0C6
:1014D000FFE0FFE0FFE0FFE0FFE0FFE0FFE0FFE014
:1014E000FFE0FFE0FFE0FFE0FFE0FFE0FFE0FFE004
:1014F000FFE0FFE0FFE0FFE0FFE0FFE0FFE0FFE0F4
:10150000FFE0FFE0FFE0FFE0FFE0FFE0FFE07BF057
:1015100010D29D7CF7FF8E3F653D5CFC6D7DFFFF2B
:10152000FFFF53D910923A533A3319D3FFE0FFE04B
:10153000FFE0FFE0FFE0FFE0FFE0FFE0FFE0FFE0B3
:10154000FFE0FFE0FFE0FFE0FFE0FFE0FFE0FFE0A3
:10155000FFE0FFE0FFE0FFE0FFE0FFE0FFE0FFE093
:10156000FFE0FFE0FFE0FFE0FFE0FFE07BF0113392
:10157000BE9EEFFF347C3CDD6DBE657E2C7C139BF4
:10158000CF3FFFFF435810B211F442D2FFE0FFE01B
:10159000FFE0FFE0FFE0FFE0FFE0FFE0FFE0FFE053
:1015A000FFE0FFE0FFE0FFE0FFE0FFE0FFE0FFE043
:1015B000FFE0FFE0FFE0FFE0FFE0FFE0FFE0FFE033
:1015C000FFE0FFE0FFE0FFE0FFE08C7010F3B69E6D
:1015D000FFFF349C44FDDFFFB71F9EBF863F2C7D7D
:1015E000139BE79FD75F1A15111394F0FFE0FFE0FC
:1015F000FFE0FFE0FFE0FFE0FFE0FFE0FFE0FFE0F3
:10160000FFE0FFE0FFE0FFE0FFE0FFE0FFE0FFE0E2
:10161000FFE0FFE0FFE0FFE0FFE0FFE0FFE0FFE0D2
:10162000FFE0FFE0FFE0FFE09D1010B295DCFFFF60
:10163000FFFF963E1C3C3CDD243C3CDD557E453D99
:10164000137B54DCDF7F4C5A1113EF2EFFE0FFE0D9
:10165000FFE0FFE0FFE0FFE0FFE0FFE0FFE0FFE092
:10166000FFE0FFE0FFE0FFE0FFE0FFE0FFE0FFE082
:10167000FFE0FFE0FFE0FFE0FFE0FFE0FFE0FFE072
:10168000FFE0FFE0FFE0B5CF10927D1BFFFFFFFF03
:10169000FFDFFFFFB69FA63EBEBF2C5B241C2CBD08
:1016A000139B2C3BA67F4C3A29F2FFE0FFE0FFE0C2
:1016B000FFE0FFE0FFE0FFE0FFE0FFE0FFE0FFE032
:1016C000FFE0FFE0FFE0FFE0FFE0FFE0FFE0FFE022
:1016D000FFE0FFE0FFE0FFE0FFE0FFE0FFE0FFE012
:1016E000FFE0FFE0CE6F1091649AFFFFFFFFF7DF8E
:1016F000F7DFFFDFFFFFFFFFFFFFD75F137B13FB6A
:10170000133A2C1B85FE23184AB1FFE0FFE0FFE0EF
:10171000FFE0FFE0FFE0FFE0FFE0FFE0FFE0FFE0D1
:10172000FFE0FFE0FFE0FFE0FFE0FFE0FFE0FFE0C1
:10173000FFE0FFE0FFE0FFE0FFE0FFE0FFE0FFE0B1
:10174000FFE0E70E10B153F9FFFFFFFFF7BFF7DF30
:10175000F7DFF7DFF7DFFFDFFFFFD75F137B135AFA
:1017600012FA3C5C6D5D121594B0FFE0FFE0FFE003
:10177000FFE0FFE0FFE0FFE0FFE0FFE0FFE0FFE071
:10178000FFE0FFE0FFE0FFE0FFE0FFE0FFE0FFE061
:10179000FFE0FFE0FFE0FFE0FFE0FFE0FFE0F76ECB
:1017A000C62F21114337FFFFFFFFF7BFF7DFF7DF3A
:1017B000F7DFF7DFF7DFFFFFFFDFCF3F23FB1299F4
:1017C000135A6D7D43FA1113EF4EFFE0FFE0FFE087
:1017D000FFE0FFE0FFE0FFE0FFE0FFE0FFE0FFE011
:1017E000FFE0FFE0FFE0FFE0FFE0FFE0FFE0FFE001
:1017F000FFE0FFE0FFE0E70EBDEF841052F122149E
:1018000010922A96F7FFFFFFF7BFF7DFF7DFF7DF4A
:10181000F7DFF7DFFFDFF7BFDF3FC6BF8DDD4C7BB4
:101820005CFC6D5D12156B91FFE0FFE0FFE0FFE0F7
:10183000FFE0FFE0FFE0FFE0FFE0FFE0FFE0FFE0B0
:10184000FFE0FFE0FFE0FFE0FFE0FFE0FFCDDEAE06
:10185000A52F73B03A3211D42A763B7843F910D3CE
:1018600011D4DFBFFFFFF7BFF7DFF7DFF7DFF7DFE9
:10187000F7DFFFDFFFDFDF5FBE9F9DFE859D755DAC
:10188000759E233810F2F74EFFE0FFE0FFE0FFE027
:10189000FFE0FFE0FFE0FFE0FFE0FFE0FFE0FFE050
:1018A000FFE0FFE0EF0EBDEF84505B1121D311F597
:1018B00032F7337843D933FA4C7B553D2A3511330F
:1018C000D75FFFFFF7BFF7DFF7DFF7DFF7DFF7DF00
:1018D000FFDFFFDFE77FC6BF9E1E7D7D5CDC6D7E88
:1018E0003C1A1133AD8FFFE0FFE0FFE0FFE0FFE0C7
:1018F000FFE0FFE0FFE0FFE0FFE0F74EBDCF9CF030
:1019000063513A7211D4225533173B993BFA3C1A72
:101910003C3B343B3C3B6CFC7DFE11F51091C6FF1B
:10192000FFFFF7BFF7DFF7DFF7DFF7DFF7DFFFDFF7
:10193000FFDFE77FC6DFA63E7D7D64DC6D5D447B17
:1019400011537C11FFE0FFE0FFE0FFE0FFE0FFE06C
:10195000FFE0FFE0FFE0CE6F633119D32A5532D6A6
:1019600033584BD93BFA3C1A343B3C5B4C5B64DC50
:101970007D5CA61EE75FFFFF7CDA1091A61DFFFFCE
:10198000FFDFF7DFF7DFF7DFF7DFF7DFFFDFFFDF8F
:10199000EF9FCEDFA63E859D64FC6D5D4CBC11942F
:1019A0005B31FFE0FFE0FFE0FFE0FFE0FFE0FFE092
:1019B000FFE0FFE0845011533B37441A341A341BC4
:1019C000341B445B549B6CFC95DDBE9EEF9FFFFF78
:1019D000FFFFFFFFFFFF851B1090855CFFFFFFDF10
:1019E000F7DFF7DFF7DFF7DFF7DFFFDFFFFFEF9F5F
:1019F000CEFFAE5E8DBD64FC6D3D54FC11D54AB189
:101A0000FFE0FFE0FFE0FFE0FFE0FFE0FFE0FFE0DE
:101A1000FFE094F0119443FA54DC54BC64DC857DFF
:101A2000B65EDF3FFFDFFFFFFFFFFFFFFFFFFFFFB0
:101A3000FFDFFFFF95BC1090747AFFFFFFFFF7DF19
:101A4000F7DFF7DFF7DFF7DFFFDFFFFFF7BFD71FB6
:101A5000AE5E8DBD6D1C651D5D1D121531F2FFCD95
:101A6000FFE0FFE0FFE0FFE0FFE0FFE0FFE0FFE07E
:101A7000FF8E1953547A9E5EC6BEFFDFFFFFFFFF45
:101A8000FFFFFFFFFFFFFFDFF7DFF7DFF7DFF7BF46
:101A9000FFFFAE7E10905BB8FFFFFFFFF7BFF7DFE1
:101AA000F7DFF7DFF7DFF7DFFFFFF7BFD71FB67E00
:101AB00095DD6D3C651D653D1A762172F76EFFE080
:101AC000FFE0FFE0FFE0FFE0FFE0FFE0FFE0FFE01E
:101AD000D68E1194BEFFFFFFFFFFFFFFFFDFF7DF92
:101AE000F7DFF7DFF7DFF7DFF7DFF7DFF7BFFFFF3E
:101AF000C71F109142F7FFFFFFFFF7BFF7DFF7DFC8
:101B0000F7DFF7DFF7DFFFDFF7DFDF3FB69F95FE99
:101B1000753C64FC655D22D71112E6EEFFE0FFE044
:101B2000FFE0FFE0FFE0FFE0FFE0FFE0FFE0FFE0BD
:101B3000F76E10D2AE7DFFFFF7BFF7DFF7DFF7DFFD
:101B4000F7DFF7DFF7DFF7DFF7DFF7BFFFFFDF9F35
:101B500010B22A15FFFFFFFFF7BFF7DFF7DFF7DF50
:101B6000F7DFF7DFFFFFF7DFDF5FBEBF9DFE755DCD
:101B700064FC6D7E2B3810F2C64FFFE0FFE0FFE003
:101B8000FFE0FFE0FFE0FFE0FFE0FFE0FFE0FFE05D
:101B9000FFE063502A96FFFFFFFFF7BFF7DFF7DF95
:101BA000F7DFF7DFF7DFF7DFF7BFFFFFF7FF1153CF
:101BB0001173F7FFFFFFF7BFF7DFF7DFF7DFF7DF9F
:101BC000F7DFFFDFFFDFE75FC6BF9E1E7D7D64FCA2
:101BD0006D7E2B7910D22A33FFE0FFE0FFE0FFE0BB
:101BE000FFE0FFE0FFE0FFE0FFE0FFE0FFE0FFE0FD
:101BF000FFE0FF8E10B15C5AFFFFFFFFF7DFF7DF5A
:101C0000F7DFF7DFF7BFFFFFFFFFFFFF325529B414
:101C1000FFFFFFFFFFFFF7BFF7DFF7DFF7DFF7DFBC
:101C2000FFDFFFFFE77FC6DFA63E857D64FC6D7E9C
:101C30003BD9111312154B12FFE0FFE0FFE0FFE06C
:101C4000FFE0FFE0FFE0FFE0FFE0FFE0FFE0FFE09C
:101C5000FFE0FFE0BDEF10B2A63DFFFFF7BFF7DFEB
:101C6000F7DFFFFFFFFFFFFFDF7F3B171090649A56
:101C7000CEBEC69EFFFFFFFFFFFFF7BFF7DFFFDF10
:101C8000FFDFEF9FCEFFA63E859D64FC6D7D441A6D
:101C9000109133383C1A6371FFE0FFE0FFE0FFE092
:101CA000FFE0FFE0FFE0FFE0FFE0FFE0FFE0FFE03C
:101CB000FFE0FFE0FFE06B5111D5EFDFFFFFFFFF1B
:101CC000FFFFE77F853B3B5811D5117412D81B38B5
:101CD0001256125632F7955BFFFFFFFFF7BFFFFF6B
:101CE000EF9FCEFFAE5E8DBD64FC6D5D447B10B298
:101CF00011F5655D43987BF0FFE0FFE0FFE0FFE05A
:101D0000FFE0FFE0FFE0FFE0FFE0FFE0FFE0FFE0DB
:101D1000FFE0FFE0FFE0FFE0295143B8FFFFFFFFD6
:101D2000749A1154109211942AF73B7822F7129763
:101D30002BFA33FA12B811B532F7E79FFFFFEF9F86
:101D4000D71FAE7E8DBD6D1C6D5D54DC10924B3780
:101D50009E7F447B2AF794D0FFE0FFE0FFE0FFE0A6
:101D6000FFE0FFE0FFE0FFE0FFE0FFE0FFE0FFE07B
:101D7000FFE0FFE0FFE0FFE0CE6F11536CBA1A56B0
:101D8000109132D7959CCF1FF7BFEF5FC65D63B848
:101D900012362BBA3C1B341B12361A56E77FF7DF7C
:101DA000B67E95DD6D3C653D5D1D10F319D4FFFFDA
:101DB000A61E2BFA2296B58FFFE0FFE0FFE0FFE0C2
:101DC000FFE0FFE0FFE0FFE0FFE0FFE0FFE0FFE01B
:101DD000FFE0FFE0FFE0FFE0FFE07C3010901A360C
:101DE000AE3DFFFFFFFFFFFFF77FDEFFDEDEE6DE3B
:101DF0004B77127733FA33BA3C3B12362AF7CF3F90
:101E00009E1E753C651D5D5D11541133E7BFFFFFDC
:101E10006CDC3C1A1A35CE6FFFE0FFE0FFE0FFE01C
:101E2000FFE0FFE0FFE0FFE0FFE0FFE0FFE0FFE0BA
:101E3000FFE0FFE0FFE0FFE0FFE063306C9AFFFFB0
:101E4000FFFFFFFFF7BFE75FD6DECE5DB5DCC5FC69
:101E50006BF81256341B33FA33DA341B11F55C7A03
:101E6000961E651C657E11D510B2CF3FFFFFFFFFA8
:101E70005CBB3BFA19F4E70EFFE0FFE0FFE0FFE098
:101E8000FFE0FFE0FFE0FFE0FFE0FFE0FFE0FFE05A
:101E9000FFE0FFE0FFE0FFE063729DFDFFFFFFFF5B
:101EA000F7DFF7DFEF5FDEDECE7DBDFCAD7BB55B40
:101EB00032B61B392B9A12771B393C5B1AF81A97EA
:101EC000757D6D9E1A561091B6BEFFFFFFFFF7BFDE
:101ED000549B33DA2214FF8EFFE0FFE0FFE0FFE0C7
:101EE000FFE0FFE0FFE0FFE0FFE0FFE0FFE0FFE0FA
:101EF000FFE0FFE0FFE052D2A65EFFFFFFDFF7DF6B
:101F0000F7DFEF5FDEDECE7EBDFCAD7BB57B63B879
:101F1000125612771A96543922B712B7341A12761B
:101F20005D1D2B1810919DFDFFFFFFDFFFFFDF5FA1
:101F30004C7B3BD93A72FFE0FFE0FFE0FFE0FFE0BF
:101F4000FFE0FFE0FFE0FFE0FFE0FFE0FFE0FFE099
:101F5000FFE0FFE0FFE0CE6E5C38DFDFFFFFF7BFA2
:101F6000EF7FDEFECE7EBE1DAD7BAD5B8C791215A4
:101F700011754398E79FFFFFE77F2A961B182338C8
:101F80001A761091853BFFFFFFDFF7DFFFFFCEFFE3
:101F9000445B43D94AB1FFE0FFE0FFE0FFE0FFE030
:101FA000FFE0FFE0FFE0FFE0FFE0FFE0FFE0FFE039
:101FB000FFE0FFE0FFE0FF6CB3681A55C73FFFFF8B
:101FC000DEFECE7EBE1DAD9CAD5B94BA1A3510F31D
:101FD000643AFFFFFFFFEF5FFFFFA59C12771AD760
:101FE00010906C9AFFFFFFFFF7BFF7DFFFFFBE9E69
:101FF0003C3B3B986351FFE0FFE0FFE0FFE0FFE088
:10200000FFE0FFE0FFE0FFE0FFE0FFE0FFE0FFE0D8
:10201000FFE0FF8CFC85FAC2FCC2C422121395DFDC
:10202000FF7FC61DAD9CAD5B9CDA227610B35419C0
:10203000FFFFFFFFEF7FE71FE6FECE7D2B38117518
:1020400053D8FFFFFFFFF7BFF7DFF7DFFFFFA63E25
:10205000341B2B387C10FFE0FFE0FFE0FFE0FFE0E7
:10206000FFE0FFE0FFE0FFE0FFE0FFE0FFE0FFE078
:10207000FF4BFB83FAA2FBC2FDC2FE22DC821210E0
:102080006CDED67DAD5BA4FA32D610B34398FFFF69
:10209000FFFFEF7FE71FD6BECE7DD67D3B1711B584
:1020A000C6FFFFFFF7BFF7DFF7DFFFDFFFFF95BDDD
:1020B000343B2AD79CF0FFE0FFE0FFE0FFE0FFE0C9
:1020C000FFE0FFE0FFE0FFE0FFE0FFE0FFE0FFCC2C
:1020D000FB63FAC2FAE2FD02FDA2FD62FE62F3A218
:1020E000195053FCB57B433710B332F7FFFFFFFFA6
:1020F000EF7FE73FD6DECE7DC63DB5DC1A961236C1
:10210000E77FFFFFF7DFF7DFF7DFFFDFFFFF7D5C34
:102110003C1B2A96B58FFFE0FFE0FFE0FFE0FFE009
:10212000FFE0FFE0FFE0FFE0FFE0FFE0FFE0FD6831
:10213000FB62FAC2FB42FD82FDA2FDE2FC82FB02D1
:10214000EDEA95112A7711332A96EFDFFFFFEF7F33
:10215000E73FD6DECE7EBE1DC5FC951A11942B3806
:10216000FFFFFFFFF7DFF7DFF7DFFFDFFFFF751C84
:10217000341A2A75C60FFFE0FFE0FFE0FFE0FFE042
:10218000FFE0FFE0FFE0FFE0FFE0FFE0FF8CFC8707
:10219000FC26FB63FBC2FDC2FD62FC22FAC2FAE22E
:1021A000FF6BFFE0BDF02A15DFDFFFFFEF7FE73FAA
:1021B000D6DECE7EC61DB5BCBDBC741910B374FB93
:1021C000FFFFF7DFF7DFF7DFF7DFFFFFFFFF64DC7D
:1021D00033FA1215D68EFFE0FFE0FFE0FFE0FFE0EC
:1021E000FFE0FFE0FFE0FFE0FFE0FFE0FE09FCE8CA
:1021F000FCA7FC47FC04FC22FB22FA82FAE2FBC3A8
:10220000FFE0FFE0FFE0B4CD443CF7FFFFDFD6DEA8
:10221000CE7EC61DB5BCAD5BAD5B2AB61134CEFF1C
:10222000FFFFF7DFF7DFF7DFF7DFFFFFF7DF5CBB6D
:1022300033FA1A14EF4EFFE0FFE0FFE0FFE0FFE0AB
:10224000FFE0FFE0FFE0FFE0FFE0FFE0FD65FD26CF
:10225000FCE7FCC8FC67FBA5FB63FB22FAC2FEAAF5
:10226000FFE0FECAFCA5FBA378E51AB9CF1FEF3F3C
:10227000BE1DB5DCAD5BAD3B7C5911135419FFFF9E
:10228000FFDFF7DFF7DFF7DFF7DFFFFFEF9F4C7BC5
:10229000441A2213FFAEFFE0FFE0FFE0FFE0FFE0A3
:1022A000FFE0FFE0FFE0FFE0FFE0FFE0FD62FD4355
:1022B000FD26FD07FCC8FC87FC46FBC4FD06FFE0CD
:1022C000FDA7FB22FAC2FAC2FC629B641276A5FF4C
:1022D000D67DA55B9CFAA4FA3AD610B39DFDFFFF0C
:1022E000FFFFF7DFF7DFF7DFF7DFFFFFEF7F4C9B45
:1022F00043F93232FFE0FFE0FFE0FFE0FFE0FFE004
:10230000FFE0FFE0FFE0FFE0FFE0FFE0FD82FD62B5
:10231000FD63FD45FD07FCE7FCA7FD88FFE0FDA987
:10232000FBE4FB83FB02FC62FDE2FE22BBE3121432
:102330007CFEBD9BA4DA6BF822133A7219B46C7A56
:10234000E7BFFFFFFFFFF7BFF7DFFFFFC6DF54FC6C
:1023500033376B90FFE0FFE0FFE0FFE0FFE0FFE0DE
:10236000FFE0FFE0FFE0FFE0FFE0FFE0FDE4FD62F3
:10237000FD62FD62FD44FD26FE6AFFE0FE2AFC6769
:10238000FC26FBA5FC62FDC2FD62FDA2FD82D262BD
:102390001192641B9CDA2235EF2EFFE0AD6F29719C
:1023A00011D5851BFFFFFFFFFFFFFFFFAE7E447BC4
:1023B00019B4CE4FFFE0FFE0FFE0FFE0FFE0FFE0F9
:1023C000FFE0FFE0FFE0FFE0FFE0FFE0FF09FDC30B
:1023D000FDE4FE04FEA7FF8BFFE0FF2BFCC7FCA77C
:1023E000FC67FC45FD62FD82FD62FDC2FBC2FB0293
:1023F000E5CB6C332A56AD8FFFE0FFE0FFE0FFCD69
:102400008C7018D12A559DDCFFFFFFFF961E2235E8
:1024100052D1FFE0FFE0FFE0FFE0FFE0FFE0FFE080
:10242000FFE0FFE0FFE0FFE0FFE0FFE0FFE0FFE0B4
:10243000FFE0FFE0FFE0FFE0FFE0FD67FCE7FCC737
:10244000FC88FCE4FD82FD62FDC2FC82FAC2FAE275
:10245000FFCCFFE0B5CFFFE0FFE0FFE0FFE0FFE0F3
:10246000FFE0F74E7BF010F22A964BB822353A5235
:10247000FF8EFFE0FFE0FFE0FFE0FFE0FFE0FFE0B6
:10248000FFE0FFE0FFE0FFE0FFE0FFE0FFE0FFE054
:10249000FFE0FFE0FFE0FFE0FF2AFD26FD06FCE78E
:1024A000FCA8FD03FD82FD62FCC3FBA4FB62FBE311
:1024B000FFE0FFE0FFE0FFE0FFE0FFE0FFE0FFE024
:1024C000FFE0FFE0FFE0E70E94B07390A52FFFE080
:1024D000FFE0FFE0FFE0FFE0FFE0FFE0FFE0FFE004
:1024E000FFE0FFE0FFE0FFE0FFE0FFE0FFE0FFE0F4
:1024F000FFE0FFE0FFE0FFE0FE47FD45FD26FD06B3
:10250000FCE7FD05FD04FC86FC27FC06FBE4FE69F8
:10251000FFE0FFE0FFE0FFE0FFE0FFE0FFE0FFE0C3
:10252000FFE0FFE0FFE0FFE0FFE0FFE0FFE0FFE0B3
:10253000FFE0FFE0FFE0FFE0FFE0FFE0FFE0FFE0A3
:10254000FFE0FFE0FFE0FFE0FFE0FFE0FFE0FFE093
:10255000FFE0FFE0FFE0FFE0FE04FD43FD44FD255A
:10256000FD26FCE7FCC8FCA8FC87FC66FCE7FFE056
:10257000FFE0FFE0FFE0FFE0FFE0FFE0FFE0FFE063
:10258000FFE0FFE0FFE0FFE0FFE0FFE0FFE0FFE053
:10259000FFE0FFE0FFE0FFE0FFE0FFE0FFE0FFE043
:1025A000FFE0FFE0FFE0FFE0FFE0FFE0FFE0FFE033
:1025B000FFE0FFE0FFE0FFE0FDE4FD62FD42FD44DF
:1025C000FD25FD06FD07FCE7FCC7FCC8FFACFFE0EE
:1025D000FFE0FFE0FFE0FFE0FFE0FFE0FFE0FFE003
:1025E000FFE0FFE0FFE0FFE0FFE0FFE0FFE0FFE0F3
:1025F000FFE0FFE0FFE0FFE0FFE0FFE0FFE0FFE0E3
:10260000FFE0FFE0FFE0FFE0FFE0FFE0FFE0FFE0D2
:10261000FFE0FFE0FFE0FFE0FE04FD62FD42FD425F
:10262000FD44FD25FD26FD07FD28FF6CFFE0FFE0D2
:10263000FFE0FFE0FFE0FFE0FFE0FFE0FFE0FFE0A2
:10264000FFE0FFE0FFE0FFE0FFE0FFE0FFE0FFE092
:10265000FFE0FFE0FFE0FFE0FFE0FFE0FFE0FFE082
:10266000FFE0FFE0FFE0FFE0FFE0FFE0FFE0FFE072
:10267000FFE0FFE0FFE0FFE0FE66FD62FD62FD625D
:10268000FD42FD44FD45FDE8FFCCFFE0FFE0FFE03B
:10269000FFE0FFE0FFE0FFE0FFE0FFE0FFE0FFE042
:1026A000FFE0FFE0FFE0FFE0FFE0FFE0FFE0FFE032
:1026B000FFE0FFE0FFE0FFE0FFE0FFE0FFE0FFE022
:1026C000FFE0FFE0FFE0FFE0FFE0FFE0FFE0FFE012
:1026D000FFE0FFE0FFE0FFE0FF09FD82FD82FD82F9
:1026E000FDA3FE46FF2AFFE0FFE0FFE0FFE0FFE082
:1026F000FFE0FFE0FFE0FFE0FFE0FFE0FFE0FFE0E2
:10270000FFE0FFE0FFE0FFE0FFE0FFE0FFE0FFE0D1
:10271000FFE0FFE0FFE0FFE0FFE0FFE0FFE0FFE0C1
:10272000FFE0FFE0FFE0FFE0FFE0FFE038B5054637
:1027300001F0DCF82C680CB12168296001F0E6F8A2
:10274000204632BD70B505460E462C68002030602C
:102750001CB901F0CBF82E600DE001F0C7F800E0E5
:10276000246821680029FBD1B44203D101F0CEF8DE
:10277000002070BD266001F0C9F8012070BD10B5C1
:1027800001460022DFF8500B00EB4210C37F1C060D
:1027900003D5B0F91C308B4203D0521C082AF1DB60
:1027A000002010BD38B504281DD1DFF8CC4A04F153
:1027B000EC05284601F0F2F8A8B1284601F0ECF843
:1027C000DFF8B81A0A68504364280CD2284601F092
:1027D000F3F8052001F030FA0120E077042104F13C
:1027E0004C0001F045FD002032BD70B5044601F0FB
:1027F0007DF8DFF88C1A0546887D00B3401E887589
:10280000C0B2E0B9DFF8706A082100F0F4F8B4B1A2
:10281000B06B703001F0D0F8B06BDFF8601AC068B0
:102820000A68241AB4FBF2F1012906F1EC0498BFFE
:102830000121204601F0BCF8204601F0BBF82846F3
:10284000BDE8704001F062B810B50446207B00F08E
:102850000F0002280FD100F018FDA168081ADFF858
:10286000181A8A6BD168800801F57A71814238BFE5
:10287000B0F1405F00D3002010BD38B5DFF85C1A1E
:10288000DFF85C0A0C68DFF8F0590440E0430860A8
:10289000A00606D54868810603D54FF4005100F024
:1028A000E6FD14F4602F09D0286904F46024044381
:1028B0002C6105F19C00BDE834403AE031BD70B5B3
:1028C00001F014F8DFF8B0590446286910F4602FBD
:1028D00025D02E69F601360EF00748BF002606D433
:1028E000B00748BF012602D4700748BF0226701DFA
:1028F00040B200F051FF2969012206F11100824027
:102900009143296100F0BEFC05EB8600446844B1A8
:10291000286800224FF00063711DA04701E000F01D
:10292000B1FC286920B105F19C00BDE8704000E0D1
:1029300070BD002101F09CBC70B501F09FFCDFF878
:102940003869DFF8E05B8107B16A1DD4D1E904235F
:10295000104007D0F1628A69104388614FF48041CA
:1029600000F049F8B06A002844D1746A002C41D0C4
:10297000E068B16B884222D006F14C00BDE870409F
:102980004FF4805101F074BC09B9B16AEAE7002242
:10299000B262D1E904238C69104040F00200204368
:1029A0008861686990436861E8689843E86006F167
:1029B0003000FFF7C7FE022100F01DF8E5E7A06830
:1029C000FFF742FFB06408B1B06CD1E0D4E9040174
:1029D0006A6902436A610020EA680A43EA60E861C2
:1029E000A0682860E8690028FCD006F12400FFF701
:1029F0009DFEB46270BD06F14C0001F039BC0020B0
:102A0000F3E6F8B5074614463E6E1D4606B1B047DC
:102A1000A00708D4D7E9160120402940002291429E
:102A200008BF904207D0C7E91A4507F13800BDE852
:102A3000F24001F0FEBCF1BD704780B501F016FC1C
:102A4000DFF834280146906BD26BBDE80840104790
:102A50000421DFF8D40A01F00BBC80B501F00EFCB4
:102A6000DFF8C81A084204D0BDE804404FF0005116
:102A7000EFE701BD70B504005AD0A16820200029FD
:102A80001CBFC2B2002A59D00A8840F603039A42FA
:102A90001FBF40F604039A424968401EEFD148E048
:102AA00000224FF08043B4F91C10E0686568A84725
:102AB00000F01CFFDFF8C0570646E88E401CC0F34C
:102AC0000B00E8860020296BC87705F13000FFF77E
:102AD0002DFE304600F01AFFB5F93600E26802F12B
:102AE0009403B3F90010884202BFDFF89407017D18
:102AF00000291DD1987808B9106810B90020987085
:102B000036E0A96B0B6813F1010F11D0DFF86C5799
:102B10002968B0FBF1F1012998BF012102F1700091
:102B200000F046FFE068BDE87040703000F042BF42
:102B300070BDE0681822203001F0CAFCA2690020B4
:102B4000A06160680028B3D0E07F002300F0070098
:102B5000012842F0020207D00228A1D0042804BFB5
:102B600000224FF080539EE700224FF000539AE777
:102B7000BDE8704039E638B50D46A807DFF8F846DD
:102B800019D5206BFFF776FF206B25F0020510B1F9
:102B900045F0020109E0680702D4606A002854D0B9
:102BA00004F1EC0000F008FF042104F14C00BDE842
:102BB000344001F05DBB680747D5012084F8200050
:102BC000042001F039F8DFF8680901680A6B9047C2
:102BD0002064606A08B1C068A063A06B4168DFF838
:102BE00054090A780260022001F026F8112001F051
:102BF00038F80120E076A06B017C002919BF607EC7
:102C000000280E2001F02DF8A06BDFF8182940688D
:102C10008168002904BFC068002804D00021D16168
:102C2000DFF84C0A106040F2FF70DFF8481A0860C5
:102C300000219161DFF8F40850610FF21100E063A8
:102C40001920BDE8324000F053BE31BD2DE9F043FC
:102C50000446880085B040F19380DFF81C56A86BCD
:102C60004068406800B18047A86BDFF8B8884268C8
:102C70009068002804BFD16800290DD000F0A7F8A3
:102C8000906800B18047A86B4068C06800B1804779
:102C9000DFF86C0A01F0F5FA0020C8F81C0040F6D5
:102CA0000A09DFF8600ADFF8D875C8F800000120CB
:102CB00001F021FB0FF28110E863002100207880F1
:102CC000A7F8009000F00CFA787B00F003FAA268F5
:102CD00016467180697E09B1607CA0B1108840F60B
:102CE0000201884218BFB0F5C15F05D1318A4FF6A5
:102CF0000F400140318204E0318B4FF60F4001401C
:102D00003183002060746946104601F0E1FA68469C
:102D100001F0ECFA7068B0B30188494518BF064667
:102D2000F8D130E0208C00283FD00021618461621E
:102D300004F12C004278017802F0F00201F0F00179
:102D400042F001020170427004F120007860787B4B
:102D500000F0F000787328E0DFF8801A0A68136842
:102D600001209847012808D0707B00F0F00040F067
:102D7000010070730FF26900E863A068C8F80000F2
:102D800005B0BDE8F083776040F60301707B00F08A
:102D9000F0007073686A8068008888421CBF40F643
:102DA00004018842BED10020286400F010F84FF6DC
:102DB000FF30A1680A8A02400A82E87F0028CBD04F
:102DC00001F0D4F80028FBD001F0E1F8D5E7D8F8FD
:102DD0001C000028FBD00021C8F81C107047000020
:102DE000DFF8FC29114200D17047DFF8F01901200B
:102DF00010B50A68DFF8804413689847012808D1A5
:102E00000FF23500DFF81C17E063DFF87404086088
:102E100010BDDFF8682410683221B1FBF0F1012900
:102E200098BF0121EC34204600F0C2FD2046BDE8E9
:102E3000104000F0BFBD00002DE9FE4F06460C46D5
:102E40006004DFF8345419D500F050FDEE6AB7691C
:102E5000B9070ED46EB10021B16100F057FD706862
:102E600048B1B6F91C10F06876683A460023B047BE
:102E700001E000F04BFD24F4804425E1A0070AD5D1
:102E8000286BFFF7F7FD286B002824F0020401D01F
:102E900044F0020418E1A00005F1800840F6090999
:102EA000DFF8DC73DFF888B676D595F8200028B116
:102EB000042000F05CFE002085F8200040F60202AD
:102EC000B0680188914218BFB1F5C15F05D1028A8F
:102ED0002D2161F30912028204E0028B2D2161F39E
:102EE00009120283286CD8B1DBF854100A68042058
:102EF0009047A8B1DBF80000016B8847296C81423C
:102F000028BF401E401A718A11EB1030F06040F269
:102F1000D171A0F5FA70884224BF40F6C410F06069
:102F2000787B10F00F0F04BF708C484508D1D6F89D
:102F300018C000224FF000736FF480713046E047F4
:102F40000022DFF8A818404600F0D6FCA87E50B159
:102F50000221ADF80010684601F093F9BDF80800B1
:102F6000A8820020A876012028760021B87D401C88
:102F7000B875E976686A18B1192000F0BBFC01E069
:102F800044F002043046766900224FF0806300214D
:102F9000B04724F0005497E0A87F24F0080A20B13D
:102FA000210703D50020A8777BE020077BD5E87FA9
:102FB00020B10021E977052000F0D9FD0020287616
:102FC00001202877002001F096F90022DFF8201870
:102FD000404600F091FC697E09B1A87E10B1012144
:102FE000697612E0A86C002834D0DBF80010086B7A
:102FF0008047296C6A6C401A02EB10326A64A86C34
:10300000C001904226D200216964DFF8E807016818
:103010000A061FD5787BA7F8009000F05BF8002126
:103020000020788000F05CF800F060FCDFF8F41419
:103030004A6922F002024A616FF002020A610F60DF
:103040000B699C07FCD50A614A6942F002024A6199
:1030500000F05CFC0020286401F020F9DFF8141671
:1030600000200860022000F082FD112000F095FD94
:10307000307C10B90E2000F090FD0020A883787DF0
:1030800018B906F1380001F0D4F9DFF86C07E863ED
:10309000F87D30B10021F97505F14C00042101F0F3
:1030A000E7F8544610E0A0040ED5AE6A002E1CBF0F
:1030B0007068002806D0B6F91C10F0687668002207
:1030C0002023B04724F4005414B1214600F0CFF976
:1030D000BDE8F78F00F0F00040F001007873704712
:1030E0007960387B00F0F0003873704730B585B0F8
:1030F00000F0AAFCDFF80407DFF8044701685E4D22
:1031000041F002010160684601F085F8A078DFF81F
:10311000F41602906A4605F14C0001F084F8684606
:1031200000F0ECFB2178DFF8C826019100208DF833
:1031300008006B46192105F1800000F0B4FB6846D9
:1031400001F069F8E078DFF8C01602906A4605F1F0
:103150009C0001F068F8684600F0D0FB01208DF873
:1031600008006B466078DFF8A42601901A2105F16B
:10317000D00000F098FB00230022DFF8941605F140
:10318000EC0000F0E8FBDFF87006DFF88826E86363
:103190000023042105F5887000F0D7FC4FF6FF707E
:1031A000A88205B00120A8760020E8756876E87648
:1031B000E861286485F8200030BDF0B500298BB0A7
:1031C000064615461C4653D0DFF84C0600680A78C0
:1031D000D040C0074CD5002D716049D00021284651
:1031E00001F08AF8B56000F081FB254F0546787D37
:1031F00000283BD1FFF77AFF787D401C787500F0FE
:10320000A0FA34B903A80FF24C611C2201F060F956
:1032100003AC2068DFF8041630600A466068F0608E
:10322000207C307401207074608A7082E06800B184
:103230000146B161A06800B102467261782106F1D1
:10324000200001F0ADF9002106F1380001F0BBF8D3
:10325000684600F0AAFB02966B460022DFF8C01514
:1032600006F1700000F077FB304602E000F069FAEA
:1032700000200BB0F0BD0000481F0020B42100204A
:103280006C200020204600F041BBD0B500F02EFBA2
:10329000DFF89025117E31B1DFF88C25146800F03D
:1032A00035FB2046D0BD00F031FBA148DFF87C455E
:1032B00001680A6B904710F50032DFF8740541F1A0
:1032C00000030169A4FB0267002004FB03773218A6
:1032D00047EB01031846D0BDD80B0020081004406E
:1032E00020000E002DE9F84F04460E4692469B46FC
:1032F000DFF8305500F0FAFAB5F934108046B5F928
:103300003600091AC1F30B0108296FF0010949DAE7
:10331000A88EDFF82015401CC0F30B00A886B5F975
:103320003400ADF800000020420101F11F039B5C56
:103330001F0640F18C80401CC0B20828F4DB002737
:1033400004F1700000F038FBBE6087F81EA0C7F8DB
:1033500004B02021BDF80000B883FC60DDE90AABB1
:10336000DFF8D4040AEA00000BEA0101C7E904010E
:1033700094340020F87740F6FF76686A00283946D2
:1033800005F1240006D0FFF7DDF930B100F061F857
:1033900040464FE0FFF7D6F940B9A88E3618C6F37D
:1033A0000B06AE8600F01EFA48464EE000F051F8DB
:1033B000697FDFF87C4400291CBF287E002807D0E5
:1033C000002001216877A876A977A07D401CA07510
:1033D00000F008FAA96A002935D1287E18B1192011
:1033E00000F088FA2FE0E87E68BB00F07FFA06461E
:1033F000287F10B10121E1751BE0B868FFF724FABE
:10340000A864D0B1A86BDFF83414C0680968AA6C4E
:10341000121AB2FBF1F2012A83BFAA6C101AB0FB98
:10342000F1F10121EC35284600F0C2FA284600F0FF
:10343000C1FA304600F06AFA05E0304600F066FA5C
:10344000042100F014F8BDF90000BDE8F28F8F18D8
:1034500076E7BDF800002080F87F40F08000F87724
:10346000A078012802D10021A170A976704705F14A
:103470004C0000F0FDBE2DE9F04105460C46164615
:103480001F4600F0F1FE80462046FFF778F9040061
:1034900003D1404600F0F0FE0AE0E07F10F0070F95
:1034A00009D0404600F0E8FEE07F10F0070FFBD1A6
:1034B0000220002112E06168DFF88403814202D01B
:1034C000616829666060C5E91667404600F0D4FE71
:1034D00000F006F800202866D5E91A01BDE8F08161
:1034E0004FF0FF3105F1380000F09ABFDCB5DDE99F
:1034F00006670446CDE90067180008BFDFF84033CF
:103500002046FFF7EFFE002803D500204FF00041D2
:10351000DCBD0146204602B0BDE8D04002224FF09B
:10352000E043A8E700100440941F00200200004080
:103530008C010010D021084001E042F002022DE988
:10354000F843DFF8E052686A00900F4603261446FD
:1035500000F0CCF917F1010F04F00108814609D100
:10356000A86A002819BFA96AB1F91C70EF8E7F1CE8
:103570000020E87538B2FFF702F9010069D0A86AA7
:10358000814204F0020426D11CB1686A0090002236
:103590006A620122C87F02FA08F21043C87700F07D
:1035A00063FE0646B8F1000F14BFDFF89802DFF89B
:1035B000980200F066FE00F06BF824B906E000F017
:1035C0005BF800F060F800980028F8D1304600F071
:1035D00053FE83263FE00098884205F1EC0316D1A4
:1035E000184600F0E9F9002C12BF0020686A006854
:1035F000686200F04DF8009800F03EF800F043F8E3
:10360000009820B3002CF6D121E0126800920098B7
:1036100020B3024610688842F7D1184600F0CCF972
:10362000009800681CB1009A0021116004E0016854
:10363000009A116000220260009003E000F01CF884
:1036400000F021F800980028F8D100F021F8832636
:1036500006E000F01DF83046BDE8F28300F018F8EF
:10366000E87E0028F7D10221FFF701FFF3E7000011
:103670005100070600000460C17F41F00401C177DA
:103680006846FFF753B8014605F13000FFF75AB816
:10369000484600F03BB90FF2BC111C2200F018BFE5
:1036A00038B5044600F022F9DFF878110546087EA7
:1036B00068B1204600F0E5FD044600F042F804F051
:1036C000FF04012C01D1812032BD022032BD00F067
:1036D00038F8012032BD0A46DFF848118B6B98425A
:1036E00001D00320704707E00A46DFF838118B6BE2
:1036F000984201D00320704700211046D0E7000017
:103700000100070601010E0470B5DFF818118A6B7D
:1037100090426FF07F0412D1087E80B100F0E6F88D
:103720000546DFF8280100F0ACFD064600F009F878
:1037300006F0FF00012802D13602301670BD204687
:1037400070BD284600F0E2B870B50E46154600F090
:10375000CDF88324334A1EB1022E0ED006D30FE0DB
:10376000916A41B1926A918B29800AE0917E11B9E8
:10377000928A2A8005E0802403E0117E297000E00F
:10378000032400F0C3F8204670BD80B50846FEF75C
:10379000F6FF00B1806802BD38B5044600F0A6F817
:1037A000204AD17D4B0702D5937D9C4212D0012344
:1037B000958A03FA04F10D43254995820C340A6871
:1037C00003FA04F422EA04040C60096811B9184BE6
:1037D00000221A75BDE8324000F098B8E0010010F0
:1037E00004000020404600F091B800003929000094
:1037F0005B2A000000000440772B000000200940F5
:1038000050B300003B2A0000BF2800007B280000C6
:10381000512A0000A5270000D4210840392A0000C1
:10382000FF290000481F00200430044000093D002B
:103830006C200020D80B0020F1EFFF9FB421002066
:10384000032A000001000204010001040100030436
:103850000C100440FFFFFFFFC4090000000000003F
:103860000000000001001A0100000000000000003C
:10387000DFF800F085BF0110DFF800F061C0011033
:10388000DFF800F079BF0110DFF800F0A9C00110E7
:10389000DFF800F089AF011020B1082330220021A9
:1038A000FFF7EEBF7047F0B51C008DB005460E4621
:1038B000174603D1002300F099FE0CE06846FFF79D
:1038C000EBFF206805906B46606808903A4600F070
:1038D00005F800F08BFE28460DB0F0BD207AADF85B
:1038E0001800314628467047FFF7CEBFFFF7C0BF2C
:1038F000FFF7CEBF00F09ABE00F0A2BE002101602B
:103900004FF0FF314160012101727047FFF7B4BFF2
:10391000DFF800F0C1BF0110DFF800F0B9BA011004
:10392000DFF800F0E5C00110DFF800F01FBE011065
:10393000DFF800F069B20110DFF800F0DDC001101F
:10394000DFF800F091BE011020B1082324220021ED
:10395000FFF7DEBF7047F0B51C0089B005460E4684
:10396000174603D10023FFF7E3FF0AE06846FFF79D
:10397000EBFFA06806906B463A4631462846FFF7B3
:10398000D7FF0E480E4A01681160284609B0F0BD05
:10399000FFF7D2BFFFF7D4BF00F05ABE80B500F0EA
:1039A0006EFE00B10120C0B202BD002181607047EF
:1039B000FFF7B6BFFFF7B8BFFFF7AEBFBC06010009
:1039C000B421002070B5DFF8644782B00120009078
:1039D00009232568DFF858076E684FF4007200214C
:1039E000B04773BD70B5DFF84447DFF8440725687A
:1039F000EE68002301223421B04700B10120C0B29B
:103A000070BDDFF8300780687047DFF8281708447A
:103A100090F8EF00704702460020022904D1012AE5
:103A200006D140F2EE207047012A08BF4FF47A70A9
:103A30007047DFF8001791F8E60020B1D1F81001C7
:103A4000002818BF004770472DE9FF41DFF8E486E2
:103A500008F1E105A879002873D1DFF8DC16DFF85A
:103A6000DC660A689209012002F00102A871EA717D
:103A7000307BDFF8CC7668717068C8F8100101A857
:103A8000FFF793FF002102918DF80410039101AB21
:103A900000220FF2295108F10C00FFF75CFF01AB87
:103AA00000220FF2D55108F13000FFF754FF01ABAF
:103AB00000220FF20D5108F15400FFF74CFFB168DE
:103AC00001208847DFF87C0601787868C0F38154CC
:103AD000707B20B1032C02D10121297003E0032C5B
:103AE00018BF022C16D1022000F0A6F8DFF85816F5
:103AF0000A68032C0CBF4FF47A7042F21070B0FBCE
:103B0000F2F108F15400FFF753FF08F15400FFF7FA
:103B100051FF10E0012C0ED1DFF810460320009079
:103B20001C232568DFF808066E684FF0405200211C
:103B3000B047FFF747FF386840075CBF002000F040
:103B40007BF8002004B0BDE8F08138B5002408B14E
:103B5000150002D16FF0020407E08160C2600361CA
:103B60000146DFF8D00500F096FD204632BD10B5C5
:103B70000446FFF7BBFEDFF8BC150A1992F8E930DE
:103B80005B1E82F8E930DBB233B98A68012303FA9D
:103B900004F422EA04048C605FE0F8B50546FFF700
:103BA000A5FE0446DFF88C15481990F8EF20521E48
:103BB00080F8EF20D2B27ABB0FF2D850DFF88C75C4
:103BC00000EB850210F825505688280615D539686F
:103BD0000A6A304690473A68916A304688473968A1
:103BE0000A6B30469047DFF8681501200860DFF85F
:103BF000641508688007FCD507E0680611D501EB5D
:103C000086010020D1F80421904705F03F053F2DA3
:103C10001CBF2846FFF7C1FF2046FFF777FE0020B4
:103C2000F2BD39688A69304690473A68516B304630
:103C300088470228F9D1E8E710B50446FFF756FE99
:103C4000DFF8F0148A680123A3401A438A602144F4
:103C500091F8E920521C81F8E920FFF757FE002077
:103C600010BD2DE9F0410746FFF740FE0546DFF89D
:103C7000C464F01990F8EF104A1C80F8EF2049BB9B
:103C80000FF2105818F8270000F03F003F2818BF27
:103C9000FFF7E7FF08EB8700448818F82700DFF8F4
:103CA000AC7401060ED53968CA69204690473A6857
:103CB000516A204688473968CA6A2046904700F012
:103CC0001AF807E040060BD506EB84010120D1F875
:103CD000042190472846FFF719FE0020BDE8F08137
:103CE00039684A69204690473A68516B20468847B0
:103CF0000128F9D1EEE7DFF8581401200860DFF859
:103D0000541408688007FCD570472DE9F84F074622
:103D1000DFF82404DFF844540168002600244A0632
:103D2000A0460DD5287B58B9DFF83404DFF83414E9
:103D300002680A4042F081720260202000F075F9AA
:103D4000012F18BF6FF0010957D12868012852D1FF
:103D50000221296000F047FD012000F066F95FEACA
:103D600000094BD100F080FADFF8FC13DFF8DC73B8
:103D700000900C600120B96A0A689047012803D1BD
:103D8000002000F0A8F90124DFF8E013DFF8C8A351
:103D9000DFF8DC230E60DAF80010907808B14FF0FD
:103DA0000108517809B148F00208107808B148F0CC
:103DB0000408A87F20B139680A6B4FF480609047EF
:103DC000687F20B139680A6B4FF481609047DFF853
:103DD00080130120086048F0200039688A69904704
:103DE000DFF8901301200860DFF84813087AC10754
:103DF00009D501261FE06FF004097DE0012028604D
:103E000000F0FCFC78E0396ADFF86C038A689047C0
:103E10008346BBF1040FF6D0BBF1010F05D13A6A1E
:103E2000DFF85403536803219847DFF85003016813
:103E3000890889000160002000F004FDDAF8000024
:103E40003868816B884776B9BBF1010F05D13A6AB2
:103E5000DFF82403536801219847DFF82003016845
:103E600041F0030101600120DFF8001308604046C3
:103E700039684A699047A87F20B13968CA6A4FF407
:103E800080609047687F20B13968CA6A4FF48160CA
:103E90009047AF49B74A0120086000211160032014
:103EA00028603A68516B404688470128F9D1DAF812
:103EB0000000042000F0B9F80646AB490120086074
:103EC000DAF800109C4908688006FCD514B101207E
:103ED00000F001F900F006FE082000F0A6F8064305
:103EE00001202860009800F0C7F900F080FD00F084
:103EF00085FC0EB14FF0FF394846BDE8F28F38B56A
:103F00000446FFF7F3FC054621468A4800F0D7FB3C
:103F10002846BDE83240FFF7F9BC3EB50024012831
:103F200004D020D303281CD017D31CE06846FFF729
:103F30003CFD804D924901948DF8004002946B46FF
:103F4000012205F17800FFF706FD00238D4A2C21A0
:103F500005F19C00FFF7A7FC05E000F0DFFD04463B
:103F600001E000F09FFE20463EBD000038B5FFF79F
:103F7000BDFC7049054691F8E000012410B1FFF73F
:103F800031FD04462846FFF7C1FC204632BD70B51E
:103F9000FFF7ACFC044601F014F86649002081F8F4
:103FA000E000664885680220A8470646102000F019
:103FB0003CF8012E04BF0320A84787E070470000AB
:103FC00038B55A4CE16B0A6804209047022818BFA4
:103FD00003280FD1032000901C23246854486568EF
:103FE0004FF040520021A847FFF7ECFCBDE83240FB
:103FF0000220BCE56448544900680A684D4CC0F38F
:10400000815003280CBF4FF47A7041F28830B0FB26
:10401000F2F104F15400FFF7CBFC04F15400BDE8C9
:104020003240FFF7C7BC0020704738B50546414C09
:10403000204600F026FB88B9204600F028FB044605
:10404000A068284205D02269E368002128469847E5
:1040500030B9204600F01DFB0400F1D1002032BD34
:104060004FF0FF3032BD494901280CBF40F2FF70CC
:10407000002008600020704770B5FFF737FC2D4E18
:104080002E4D044696F8E00028B100F09AFF70B17A
:10409000002086F8E0000220AD68A8470646102000
:1040A000FFF7C3FF012E11D10320A8470EE02649D8
:1040B0000A683220B0FBF2F101B9012106F13000AB
:1040C000FFF776FC06F13000FFF774FC2046BDE8F0
:1040D0007040FFF71BBC38B5012823D12C490A6872
:1040E0001368984701281DD000F05EFF114D012094
:1040F00085F8E000287A810616D413480268322138
:10410000B1FBF2F404B9012405F13000FFF754FCCF
:10411000214605F13000FFF74BFC05F13000FFF7B9
:1041200049FC01E000F073FF002032BDA401001043
:1041300000A00C40380800201410094040B30000D3
:10414000B03F005083260020B4210020B8010010A9
:1041500028200860282008402C200940140900204D
:1041600004000940FFFFFCFC0C4009400002224310
:104170003609002080010443004003402422084007
:10418000ED4D0000814B0000B43F00500000046082
:10419000E00100108F0000008F0001008F0002007E
:1041A0008F000300900000018F00010190000002C9
:1041B000900000038F0001048F0000058F000804A9
:1041C0008F0000048A000006510000007F000100FB
:1041D0003F0004003F0002003F0001007F0002009A
:1041E000DFF800F011BF0110DFF800F011B001108E
:1041F000DFF800F015C00110DFF800F015C1011064
:10420000DFF800F005B3011020B1082328220021B7
:10421000FFF7EEBF7047002101604160C1604FF0C1
:10422000FF318160704770B514008AB005460E46B4
:1042300003D1002200F036FF0CE06846FFF7E4FFF0
:10424000206804906A4660680590314600F004F8E2
:1042500000F028FF0AB070BDE0680790A0680690E3
:1042600028467047FFF7C8BFFFF7BABF00F026BF68
:1042700000F02ABFFFF7B8BFFFF7C2BF3849086890
:1042800067E0384A11680029FCD10023D36110602F
:10429000D0690028FCD0D16150687047324801686D
:1042A00021F0020141F40071016003212F48816077
:1042B00041F2300141610121C16050214161012180
:1042C000C1604FF4CA6141610121C1600160704762
:1042D000274802680A6082684A60C2688A60406B48
:1042E00020F0784040F08050C860704701461022AE
:1042F000204800F0DDB87047FEB50188B1F5C15F18
:1043000018D142691C4F0092002382690192C06952
:1043100002901A480268C2F303625DF8230098B164
:10432000002550F82560BE4206D06D1CEDB2042D6C
:10433000F7DD09E00120FEBD042D05DC26F4702424
:1043400044EA024440F825405B1C032BE5DB0020D7
:10435000FEBDC2430A600A680242FAD170470000FB
:1043600010100440001004400000046000410440AC
:104370004C130050180000210200F8445413005060
:10438000DFF800F009C00110DFF800F0D1B2011031
:10439000DFF800F0059B0110DFF800F0E1A3011049
:1043A000DFF800F05DB40110DFF800F009C1011082
:1043B000DFF800F00DC1011020B1082324220021F4
:1043C000FFF7DEBF704730B589B004460D4600F0F8
:1043D0000BF801218DF818106A4629462046FFF790
:1043E000DFFF204609B030BD6846E5E710B58AB06A
:1043F0000446FFF7F9FF01218DF818102046034A03
:104400006946FFF7C1FF0AB010BD00005406002046
:1044100080B500906846FFF7C7FF01BDFFF7C8BF32
:1044200080B5FFF7B5FF10B96FF0010002BD0020A5
:1044300002BDFFF7B1BFF0B40246106895681318CB
:10444000506803EB5004C00721D54D441FE0F0BC79
:1044500002F10C00704713F8017B05F8017B491E3F
:10446000F9D1A0B1B60813F8011B06F00306032E1C
:1044700008BF13F8016B01EB06214942801C294457
:1044800005D011F8016B05F8016B401EF9D1A3426C
:10449000DDD013F8016B16F0030104BF13F8011B04
:1044A000C91C30090F28DAD113F8010B0F30D6E7F9
:1044B00062B38B0708D0521E11F8013B00F8013B94
:1044C00000F024808B07F6D1830740F0208000BFE6
:1044D000103A07D330B4B1E83810103AA0E83810D9
:1044E000F9D230BC530724BFB1E80810A0E8081087
:1044F00044BF51F8043B40F8043BD20724BF31F8D5
:10450000022B20F8022B44BF0B7803707047121F58
:1045100017D35B0009D151F8043B20F8023B1B0C78
:10452000121F20F8023BF6D20BE051F8043B00F8D2
:10453000013B1B0A20F8023B1B0C121F00F8013B39
:10454000F3D238BF121D521E24BF11F8013B00F8F0
:10455000013BF8D870470268920841EA82028B0852
:1045600022F0040203F0010342EA8302CB0822F0A6
:10457000080203F0010342EAC3020B0922F0100211
:1045800003F0010342EA03124B0922F0E00203F0B8
:10459000010342EA4312890942EA8112026070472C
:1045A000002200F0ADBD024681B01078022903D18F
:1045B000517800EB012013E0032906D1517892785D
:1045C00000EB012000EB02400AE0042908D15178F9
:1045D000937800EB0120D17800EB034000EB016001
:1045E00001B07047DFF800F0BDAA0110F8B504462D
:1045F0000B480C4F0668F8690D4650F82500B0428C
:1046000009D1094800902046FFF7ECFFF86950F8FF
:104610002500B04201D10020F2BD2046F2BD00BF0E
:10462000181200004401002054060020102803D373
:1046300002491038C1F8000F704700BF00E000E0E9
:104640008160426070470000DFF800F09DB2011009
:1046500070B5044600F06EFD0646A08A00250128CC
:1046600008D1FFF7F1FF0546E068451BA068A842A6
:1046700038BF0025304600F05EFD284670BD808AB8
:104680007047006808B90120704700207047006833
:1046900070470068704738B504460D46FFF726F9A5
:1046A00000212960616869606168002914BF0D609C
:1046B00025606560FFE7BDE83240FFF727B90A686B
:1046C0004B68002A0CBF436053604A6809680AB906
:1046D000016070471160704710B501688A08930047
:1046E000CC0801F0030003F00403E20018430B09B7
:1046F00002F008021C0110434A0904F0100453019F
:10470000204303F020031843890940EA8110C0B216
:1047100010BD0000DFF800F031BF0110DFF800F03D
:10472000F5B7011030BF7047FCE738B500F0D6F997
:1047300000F087F9FFF765F9044604F00C000C2837
:104740004BD0600721D400F029FD0546012101204E
:10475000FFF761F92F49096801FB05F2904214D275
:10476000F020B0FBF1F02C4C291A04F10C00FFF7FB
:10477000D7F804F10C00FFF7D7F80120FFF7C5FACE
:1047800004F10C00FFF7C8F829E0200725D4234DD9
:104790002348296A8A6890470428F8D0E20621490C
:1047A00000D420B9086840F00100086003E00A68FE
:1047B000520852000A601C481C4C016841F0030179
:1047C000016020202A689169884720682868816BE9
:1047D000884701212160206801E0FFF7A5FFBDE8BF
:1047E000314000F07FB910B5114CFFF793FF206006
:1047F0001048006808B18047606010BD10B50E48D1
:104800000B4C016809B1606888472068BDE810401A
:10481000FFF784BFBC06010038080020B801001073
:10482000004003408C210840242208402C200940ED
:1048300094210020980601009C0601001628A8BFBC
:10484000203870472DE9F84F80469448DFF85092A1
:104850000168944E8A0705D50820B0719248C9F8BE
:104860000000C2E0914801680A689047824690487B
:1048700005682F1700247F1CA80208D4CAF13E0047
:10488000C0100828C8BF08208742B8BF074689481B
:104890000168C1F30460FFF7D1FF834686480168D1
:1048A000C1F30440FFF7CAFF5F44152F0146C8BF9C
:1048B000152704DC6FF009008742B8BF074607F0F0
:1048C0001F007E4A40F4F85010807D4A106810F0B6
:1048D000030F18BF0124400748BF44F0020496F9B3
:1048E0000700B8F1000F18BF44F00404AAEB000061
:1048F000042802DCB27994425DD0AAF10F084FF08F
:10490000000BB8F1000FDC4604F004006D4B24D41A
:1049100008EB08184FEA282CBCF1070F88BF4FF0AE
:10492000070CE646BEF1070F28BF4FF0060E1A1D12
:1049300052F82E2053F82EE0A2EB0E0E0EF0FF0BD5
:1049400010B1CEF307229344A20744BFCEF307422F
:104950009344E20748BF0BEB1E6B53F82C2002F088
:10496000FF0310B1C2F30720C318A00744BFC2F36E
:104970000740C318E007A8EB0C2048BF03EB126305
:1049800000FB0BF0CF1B8030002F03EB1023D8BFB0
:104990000127342005F0FF0547437D43B5FBF3F0C5
:1049A0004FF6FF71884288BF08460AF3070AB080B5
:1049B00086F807A0B47144480168B08831600021CE
:1049C0001F2804D21F20B08004E04008491CB0F525
:1049D000007FFAD20F38000941EAC0013B48014389
:1049E000C9F800100020C9F80400BDE8F18F10B527
:1049F00037480468A4B21CB32C4801680A68904781
:104A0000284991F90720904205DA6FF07F02904221
:104A1000B8BF1046C8718888844210D32A4A1368E8
:104A20000A689A1A921C1F2A88BF1F22241A520849
:104A3000D4402418B4F5803F28BF4FF6FF748C8013
:104A400010BD2448006800B9704730B522498A6813
:104A500002F04063B3F1406F1FD0104B1C68A507F4
:104A60001BD44C68A50718D41C680968C1F303510E
:104A70001C31090114F0050F04D088420DD224F036
:104A8000050409E0814208D2100158BF44F0010436
:104A9000500158BF44F004041C6030BD00000940C0
:104AA00030100940DC210020FDFDA400EC010010C5
:104AB000B43F0050B81200503C1100506E620840E4
:104AC000242208409C1300500820094000E7A480DD
:104AD0003410094028500940AC3F0050EFF31080DB
:104AE00072B67047EFF3108062B670470138FDD19F
:104AF0007047704710B50C18FFF7F0FF411E894151
:104B0000C90FDFF8602410680028FCD02468012356
:104B1000136009B1FFF7E6FF204610BD38B5DFF896
:104B2000485428780024002802BFDFF84014887B0E
:104B300000280CD0FEF7DAFE0146A878002806BF50
:104B40000122AA7001240846FEF7E0FE0CB1002005
:104B500032BD0220FFF770F80E20FFF782F8DFF871
:104B60001014086808B1012032BDDFF808044022A3
:104B7000C26002600120C8610020687032BD000080
:104B80002DE9F041DFF8EC1382B000200860DFF877
:104B9000E81301F1D804A07A002837D00128DFF803
:104BA000DC53DFF8DC2332D1DFF8D81316684BF280
:104BB000F52046430868360AC0F3814001280BD12E
:104BC000A86C0168884700F03AFA00F053FA3509FA
:104BD000C010454306EBE536607B10B100216173E0
:104BE00006E0DFF8A403006820F07F40361876085E
:104BF000DFF898030660360C466001218160DFF81B
:104C00006C13887B002849D00521217348E00228D5
:104C100009D11568284600F00CF9A5F2FF55032DBF
:104C20003CD308203BE003283AD1106801F1B806D4
:104C3000A0F5C0603168F061002948BF49420028F2
:104C400048BF40428142A8BF002026DA7068D04F9A
:104C500080B200900823D5F800C0DCF804804FF43F
:104C60007F4230213846C047B06880B2009012239E
:104C7000D5F800C0DCF804804FF4F802042138466F
:104C8000C047B06980B200900A232D686E684FF467
:104C9000406220213846B047012020700B2020734D
:104CA000BDE8F3412DE9F843DFF8CC82B94EDFF8D7
:104CB000E092B94CB94FAF4808F1E105E9784A1ED6
:104CC0000B2A00F29280DFE802F00630415F744167
:104CD0005F74415F7B8031680A68202090470F2015
:104CE000E060072341F61D5020614FF4C07202209E
:104CF00000900021D6F804C0DCF804404846A047E4
:104D000076684846D6F80C9007234FF4C07200210D
:104D1000C847012038600220E87008F17800BDE83B
:104D2000F243FEF747BEBDE8F1830120E061287839
:104D300000281DBF0021396103200620E8700320F0
:104D400020600020786078688107E6D47068466843
:104D5000E878032808D10221009105236022002170
:104D60004846B04704200BE0002000900523602255
:104D700000214846B047E87806280CBF07200A20E3
:104D8000E87001207860C8E7042903D12021A161DF
:104D9000012105E001220A29A2610CBF03210221A1
:104DA0006970002121600821C1600160012020603C
:104DB000B9E705290CBF06200920E8700020E1E7CB
:104DC0000020386078600C20A6E7002101600120F7
:104DD000674908600E20FEF7E0FE0220FEF7C7FEDE
:104DE0000120E8700020A8709DE7FEE762496B484B
:104DF00091F8E420921E0A2A1AD8DFE802F0060A87
:104E00000E190A0E190A0E19120002689107FCD534
:104E100048E741688A07FCD4FAE741688A07FCD56D
:104E2000F6E702689107FCD441688A07FCD4EFE7F3
:104E3000FEE7F8B50446564D30212846FFF75AFEE6
:104E40004D4F07F1B806C0F30720706004212846D3
:104E5000FFF750FEC0F38440B06020212846FFF7E2
:104E600049FEC0F38120B4F5C064B061346003D161
:104E7000002087F8D800F1BD316997F8D80028B92B
:104E80007068B168F060F461B0697061F069002821
:104E90004CBF6FF00102022200EB400010184210DC
:104EA00000EB927001EBA0017268F260002912DC45
:104EB0007069032805D111F1150211001EDA0021D5
:104EC0001CE011F10B000100B8BF0021521E48BFC9
:104ED0000022F26007E01E2912DD706928B9153939
:104EE0001E29C8BF1E21032009E00B391E29C8BF97
:104EF0001E21521C3F2AC8BF3F22F2600020706171
:104F0000316108231D4CF06880B200904FF47F425D
:104F10002768D7F804C030212846E04701200090D8
:104F200011232768D7F804C04FF400320421284623
:104F3000E047306980B2009012232768D7F804C098
:104F40004FF4F80204212846E047706980B20090CF
:104F50002846246865680A234FF440622021A84748
:104F6000F1BD000000800C401909002040B3000092
:104F700004800C402C500C4038080020A401001084
:104F800008400C40B43F0050102009403C600C40E9
:104F900000A00C40A001001000400C4034600C4008
:104FA0003748006800F012B910B5374C626D53688D
:104FB0000121032098472068C16A884733498860E7
:104FC00010BD70B5304C616D0A6801209047012812
:104FD0001BD0A5692B48EE68002301223421B0477D
:104FE000A0B1FFF7DDFF2068C16A8847274B9A68A8
:104FF00027491C68D860A4EB9404801A4843000C2D
:105000001860A04238BF20461860012070BD38B536
:105010001D4C626D5368002103209847616D0A683A
:105020000120904708B1FFF7BBFF2068174DC16A08
:1050300088476860206E01688847286131BD10B5D7
:1050400001461448144B02681B68100400161B39F3
:105050004843C01000EB2240120601FB01F4121677
:105060001B06624361431B1600EBA220594300EB71
:10507000A14010BD00FB00F1C0EBA15000B2704791
:105080008000001000A00C408C010010C8210020FE
:1050900040420F0090130050A4100050DFF800F0C1
:1050A00079AD011010B50446034BFFF7F7FFA06878
:1050B00000B1204610BD00BF5406002001488068A2
:1050C000704700BFC801002038B504460D4600F007
:1050D0003CF8616A0D43656200F038F82046BDE88F
:1050E0003240FFF781B801700A0A42700A0C090EBB
:1050F0008270C170001D704762F30F2262F31F427D
:1051000000B500BF130096469446103928BFA0E8AA
:105110000C50FAD85FEA417C28BF0CC048BF40F869
:10512000042BC90728BF20F8022B48BF00F8012B29
:1051300000BDFF7F00E005E0EFF31180202181F347
:105140001188704780F311887047F5E7FAE700008F
:10515000F2E7F7E70D49C20744BF01220A60820760
:1051600044BF4FF480720A60400744BF4FF4803060
:1051700008607047064AC30748BF1160830748BFED
:105180005160400748BF916070470000042009400B
:1051900018200940DFF800F0E1BE011070B5FFF7FC
:1051A000C9FF094D0446A8680021FFF7F3FF064632
:1051B0006869861BA869B04238BF00262046FFF701
:1051C000BAFF304670BD00BF7801002070B50446BC
:1051D000FFF784FC451EAD41ED0F064E30680028F8
:1051E000FCD0A047012131601DB1BDE87040FFF740
:1051F00079BC70BD00800C40DFF800F01D6E01101E
:10520000DFF800F04D71011080B54FF4FC720FF221
:1052100078011A48FFF75CF901211948417400220E
:1052200002210270C17601BD2DE9F0410FF250223A
:1052300014493820136854689568D6681769D2F8FD
:1052400014C0D2F818E0D2F81C800B604C608D605E
:10525000CE600F61C1F814C0C1F818E0C1F81C801D
:1052600020322031401EE5D150689368D46812681E
:105270000A6048608B60CC60BDE8F0814804002182
:105280005903002100C00021410500217D050021B6
:105290002D06002170B51D46004C204787B2000046
:1052A00010B5014800470000D509000070B5614CF9
:1052B0006148254650358047022809D14034E188AD
:1052C0005E4A914204D1E97C890601D4911DE180B6
:1052D00070BD70B557495A4A084650300378002BC4
:1052E00010D08379012B0DD1037C5B09DB0709D03A
:1052F000097D544DC1746C7F20202043687790470E
:105300006C7770BDFF21C174904770BD10B54E48D9
:10531000484C804702280ED121464031CA88474B6D
:105320009A4208D1CA7C5209D20704D0227D920643
:1053300001D49A1DCA8010BD70B53E484349403023
:10534000C07C4009C00707D03E4D41482C8B20430C
:10535000288388472C8370BD884770BD10B53B48B3
:10536000344CAC388047214653310A789309DB0727
:1053700005D04034A2730A7803231A430A7010BD83
:105380002C4940310871182812D004DC0A280BD0AF
:105390000B2804D10AE025280CD02A280CD02D494E
:1053A00080004018C06870472B4870472B487047F2
:1053B0002B4870472B4870472B48704770B5044600
:1053C0001C484E252D5CAE09F60716D0067D300729
:1053D000000F052803D00120054202D00DE0022075
:1053E000FAE7E80905D0700603D54868800F012860
:1053F00003D05B085B0052085200062B03D010203C
:10540000022B11D011E0FB20024002232046FFF7BF
:1054100041FF002807DAC100611A2039497E1422B1
:10542000114200D1002070BD024303432046FFF724
:1054300031FF70BD4401002137CB0000041400008F
:10544000EBC80000A8000021F5B4000053AD000037
:105450002020000080DF00001D050021F90400214C
:10546000CD040021930400216D04002110B5034CEC
:10547000FFF716FF20680028FAD110BD0011044084
:1054800068610000F825F965F9754500450045009B
:105490002600260057A3520052004C00401F401F18
:1054A000401F3F000000000030400040014003402A
:1054B00007400F404F40CF40CF41CF43CF47CF4F62
:1054C000CF3FCF2FCF1FCF0F000000000000000004
:1054D00000000F00080000003F00000040003F00F7
:1054E0000000040068000E00DC00060043001A0003
:1054F00005000000000002000000000000000000A5
:105500000400C00000000400C0000000070000000C
:10551000000000000000000000000000000000008B
:10552000304000400140034007400F404F40CF4013
:10553000CF7FCF6FCF5FCF4FCF3FCF2FCF1FCF0FBB
:10554000000000000000000050C00091007070C01A
:105550000091007082312100319110B10070018101
:1055600001B100A18231329110B10191111041813C
:1055700041227740F106007051C001913018103976
:10558000833108D01831416F3100319110B183144B
:10559000141683680070251050C00091F4C340C1F8
:1055A0002014036F311041045082F022984051269C
:1055B00022C082312100319110B163393110410490
:1055C00082C082312100319110B163393110A2C003
:1055D00082312100319110B150101531051405921E
:1055E0000070676452C0311031066131C1026A64D3
:1055F00012C13110213971065131E1026A64007023
:1056000051C0019101CCE2C06A64676411C1C2C09B
:105610006A6450B054B0007140804022D6440022E9
:10562000C94060B08180111EC944007054A064B0AC
:10563000F0800022C9404012B09032B070C1DF68E3
:1056400011C122C16A6470C1E46851C00191E2C015
:10565000823160820200329110B130C2EE68538212
:1056600053395339B16460C3F4688012B09032B0DA
:105670000070676401C122C16A6401C1C2C06A646A
:105680005382B164C012B09032B00070676472C2CD
:1056900081C06A6422C111C16A6402C011C16A6416
:1056A00062C031C36A6462C311C16A6402C311C1BA
:1056B0006A6453825339B164E2C36F6411221C419E
:1056C00042C281C86A6452C211C16A6472C2E1CE28
:1056D0006A6402C281C86A6402C201C86A64B0C056
:1056E00030690070676442C201C86A6452C211C066
:1056F0006A6472C2E1C06A6402C001C16A6462C0C5
:1057000001C36A6422C101C16A6462C301C16A64DF
:1057100002C301C16A645382B16400708180111EAA
:105720005C4150B054B00071408040225D4154A0B3
:1057300064B0F1800122514500700022514160B0F7
:105740004E610000000000000000000000000000AA
:10575000067305720B720E7250B00071818060B0DA
:1057600050A09280F0EFF19202936A6741228C453B
:105770008080F1C11004301601110114016CB56173
:10578000B661B761B861B961BA61BB61BD61BF6142
:10579000C161C36126632D63F0C002043231412A26
:1057A0001214321601112114016CDA61C561E06135
:1057B000C761CB61B561B561B561F461C561FA617D
:1057C000C761CB61B561B561B561F461C561FA616D
:1057D000C761CB61B561B561B561E761C561ED6177
:1057E000C761CB61B561B561B561CF61CF61CF6193
:1057F000CF61CF61CF61C064CF61F964CF610665CD
:10580000CF613265CF617467CF611166CF61C064CB
:105810004E65F964CF61066511663265CF6182809D
:10582000E0DFF2926A67B0B0D661B1B0067305727C
:1058300030B06C61D0CF6A6784C203C0C0C37C64DF
:10584000207851788278E3781579B6780062C0CFF5
:105850006A6784C203C0C0C37C6430786178927880
:10586000F3781579C6780062B0CF6A6784C203C046
:10587000C0C37C6440787178A27803791579D678B2
:1058800010922192329243925492659256911FC087
:10589000FF914039F006011010311014009270672A
:1058A000CF61E3B054A0F08050221A46408000221D
:1058B000BE461262E3A000C86091598150B0918049
:1058C00041228E46A0CF6A671282823182394239E4
:1058D0008B641282F2062F101F312F141682D622EB
:1058E000334640C1346200C520140D6F6D39DE109F
:1058F000F4C34E0482C082312E006D39A2C08231C1
:105900002D001A828A39FA062082803180390BC034
:105910000B18BC10AC18038239149B141082F006CB
:10592000011010311014518110140C14C622C946F4
:1059300031D0C1266462021011C0013010C00118BC
:10594000021882312100C126919103B013B063B0D7
:1059500053B041800122BE46B481C491D581B51CAB
:10596000774E95186591F080102269428C623D91C6
:1059700010B13E9110B1E08000228146E6228142C2
:10598000E0B0951865910F925981F914F08050227A
:10599000114210228C464D6390CF6A6763B052A0CB
:1059A0003082F2C02004021011C0013010C0011872
:1059B000021882312100C1269191919113B003B058
:1059C00063B053B064B054B0007141800122BE4650
:1059D00063B064B0F08050221142B181C191D18195
:1059E0009118619131B0A4622967E0A059810582C4
:1059F000591480C0007163B0BA6A6962E3A0018281
:105A000062818231823D80EFF19202936A6703A046
:105A1000007037824739873930828039F0060210AA
:105A200011C0013010C00118021882312100C126B6
:105A3000819102B012B030824039F006021011C0DC
:105A4000013010C00118021882312100C126919145
:105A500003B013B063B053B0007153A062B052B042
:105A600041800122BE46A481C491D581B51CFE4E61
:105A700095186591F0801022F0428C62B481C49137
:105A8000D4814518751C084FF0801022F0428C62BA
:105A90003D9110B13E9110B1E08000221247E62204
:105AA0001243E0B065910F925981F914F0805022B1
:105AB000114210228C4630632967E0A0598105828B
:105AC0005914F0C0007162B0226BF062A2808B6446
:105AD000CF6112824239F2068B6050B00071CF6103
:105AE00070CF6A67408241800122BE46A481C49182
:105AF000D58195186591F18011228C46336B4180D8
:105B00000122BE46A481C491D581C51C1C4B9518A9
:105B10006591F08010223F438C6260CF6A674082BB
:105B200041800122BE46B481C491D581951865910A
:105B3000F18011228C46506B41800122BE46B48117
:105B4000C491D581C51CB44A95186591F080102286
:105B50005C438C62E092D08200226B47C0B200703E
:105B6000A080F022874330B002C1623101C0A08022
:105B7000001E8043F022814380F8603160398163E8
:105B80002010101A136F236E11161216826B0070FC
:105B90002DE9F84FDFF8BC92AF4989F800000020EA
:105BA00008600921AD4801700D2141804FF4087152
:105BB0008180AB48AB4901608A7EAB480270FF2A06
:105BC000CB7E437008BFFF2B0C7F84704E7FC67066
:105BD0008D7F0571C97F417114D1FF2C08BFFF2E45
:105BE00010D1FF2D08BFFF290CD1A0490A780270FF
:105BF0004A7842708A788270CA78C2700A790271D3
:105C0000497941719A490278DFF868A2DFF868B2F1
:105C10000A70FF2642784A7082788A70C278CA7009
:105C200002790A714079954A48718AF800608AF8C9
:105C300001608AF802608AF803608AF804608AF8D2
:105C4000056000208E490880DBF834408D4960787B
:105C5000087021781170A0788B4908706169087903
:105C60008A49421E0A70E07889490870A06989490A
:105C7000086008B900F026F9206A8749086008B969
:105C800000F020F9606A8549086008B900F01AF947
:105C9000DFF80C82834C98F8040000F029F92060AA
:105CA00000283ED098F805007F4D00F021F92860CB
:105CB00008B9206832E098F806007C4F00F018F927
:105CC000386020B9206800F01BF9286826E098F8B1
:105CD000070000F00DF97649086038B9206800F037
:105CE0000FF9286800F00CF9386817E063490A7862
:105CF00098F80000921C504380B200F0F9F86D490A
:105D00008860216890B9084600F0FAF8286800F029
:105D1000F7F8386800F0F4F86548006800F0F0F82B
:105D2000002000F0CFF84FF480418DE00120087191
:105D30002068067321684E73206886732168CE73CD
:105D400020680674002021684E742268D072A02258
:105D50002168487103212068C280017207202168F0
:105D60004872002022689072282120684182012117
:105D7000C176002021684877226882F85E00012001
:105D800021680877226882F85D0029680871286810
:105D9000067329684E73286886732968CE7328684D
:105DA0000674002029684E742A68D07229684871E8
:105DB0002A6890724FF4207029680022C8800881F8
:105DC0008A7401212A68D17439680E733A6856734F
:105DD00039688E733A68D67339680E7400213A6850
:105DE00056743B68D97201213A68117100213B68F1
:105DF00059713968C88008810020887239688874B0
:105E000005203A68D0742C480168884723490A68FD
:105E100006461068804721490A6852F8043F00206E
:105E20009847DBF80C101A4B0A881878234902436C
:105E30000A80304622490A6890475046FFF7DCF94D
:105E4000FFF7DEF94FF4005199F80000BDE8F44F78
:105E500000F05EB86E4F0020044F0020604E00201E
:105E6000084F0020B63F00502C4E0020E812005092
:105E70003C4E0020344E00200CFB00007B4F0020E5
:105E80000C4F00206D4F00206B4F0020724F002000
:105E90006C4F0020F04E0020F84E0020FC4E0020F9
:105EA000BC090020104F002030220020184F002095
:105EB00034220020B0240020B8050020544F0020D8
:105EC000BC05002080B5010002BF06490A78012AFE
:105ED00004D00549054A097813689847BDE8014090
:105EE00000F07CB8D40900208C2600207C0900201A
:105EF00002490A6852F8343F184700BFF4210020D5
:105F000002490A6852F8383F184700BFF4210020C0
:105F10002DE9F04180462A482A4D06785FEA08605C
:105F20000F4632D5042000F05AF8040008BF0420C0
:105F300043D04FF6FF702080678000F063F822495D
:105F4000FF280FBF4E78C96836188E5DFF2EA4F16A
:105F50000C0707D1204600F05BF8286850F8081FAE
:105F6000884710E0404600F0D0F8FF21B9720146A2
:105F70002D68D5F80080234600223046C047E0B1A6
:105F8000204600F045F8012017E0B04514D20F4834
:105F9000016888470E49096831F81820174321F82D
:105FA00018700C490A68904729680B4851F8242F4B
:105FB00000689047002000E00320BDE8F08100BFAA
:105FC00037CE0000F42100205C090020B805002035
:105FD000E4210020BC050020A8210020704710B556
:105FE000040001D1002010BD04F10C0080B2FFF7C5
:105FF0007FFF28B1002101600481FF2181720C30F4
:1060000010BD004001480078704700BF5C090020C7
:1060100080B508B9052002BD10F8021CFF2901D087
:10602000042002BD0C38FFF76BFF002002BD0028E2
:106030002DE9F04182B004460E469046FFF7E2FF9C
:106040004649FF2808BF4F7804D0CA68444B1978E6
:106050000818175C434DFF2F04D1286850F8081F1B
:10606000884713E0304600F050F80146FF2008F85A
:10607000020C20002E680CD156F83C4F43460022FB
:106080003846A04770B14046FFF7C2FF0120BDE887
:10609000F681012CF7D13468434600223846A047E8
:1060A0000028F0D10020F2E770B50C000646154636
:1060B00018D0300602D500F034F89047284A1178FD
:1060C0008E4204D32046FFF7A3FF032070BDA4F146
:1060D0000C010868002804BF8A7AFF2A04D02046F1
:1060E000FFF796FF052070BD8E72012D1E482146D8
:1060F00002D100F051F801E000F062F84FF40041E5
:106100003046FFF705FF002070BD10B580F0800419
:10611000022C02DB00F005F89047104820448078FC
:1061200010BD1048016851F8082F704738B5044673
:106130000E4801688847094905468868844206D1A7
:1061400008490B480A68006852F8243F98470949F3
:106150000A682846BDE83240104700005C0900206C
:1061600037CE0000F42100209C210020B80500203B
:10617000A8210020BC05002080B5020606D50A46ED
:1061800001460120FFF754FFC0B202BDBDE8084040
:106190000022FFF789BF012838B5044606480D469E
:1061A00001688847216845F80C1C256003490A6886
:1061B000BDE83240104700BFB8050020BC050020F4
:1061C00038B504460B480D4601688847002145F85C
:1061D0000C1C226812B9256006E00A4652F80C1C15
:1061E0000029FAD142F80C5C03490A68BDE8324044
:1061F000104700BFB8050020BC050020DFF800F004
:10620000A5A50110704770B50468A66A002508E0CE
:10621000EDB224216943314401F10800FEF7C8F8CA
:106220006D1C94F82C10E8B28842F1D3606800F03D
:1062300019FEDFF81404006801F05EF800212180E7
:1062400070BD4FF0FF310160DFF8041441600021A0
:10625000017270472DE9F046DFF8F093D9F800603D
:10626000D9F8047097B004468A461546FDF700FB3E
:106270003188012902D1FDF7FFFA52E00122328074
:10628000FDF7FAFA1DB96846FFF7DBFF6D46002CF3
:1062900018BFBAF1000F44D00FA800F021FE6868C3
:1062A0001390287A8DF8540000F0DFFDB8790FA91B
:1062B00000F0F7FDA8B3706008232868B060B462EE
:1062C00086F82CA02422002106A8FEF759F8002504
:1062D00009E0EDB224206843204406AA01210830D9
:1062E000FEF75EF86D1CE8B25045F2D301208DF840
:1062F000300006AA012106F10C00FEF751F83979A9
:10630000DFF85003DFF840430143039103A97A7992
:1063100010434860FE208860201D00F056FF20607A
:1063200008B9002019E03C6801222146484600F0E7
:10633000D3F86078FFF766FFA61C142401223146CB
:10634000484600F0C9F872781AB1B11C484600F00E
:10635000D3F81636641EF1D1484617B0BDE8F08672
:1063600030B5044683B02568A96805F10C00FEF736
:106370000FF880B17F210191009100232168086B03
:1063800001880022204600F010F905F10C00BDE85C
:106390003E40FEF701B837BD2DE9F8438046D8F8F6
:1063A0000040D8F80460A16804F10C00FDF7F0FF8C
:1063B00000283FD044210091572310222821404635
:1063C000DFF88472DFF8789A00F0B2F800F03DF858
:1063D00000F036F800254FF4806200F02DF86D1CB7
:1063E000042DF8DB4FF4787200F026F8717900F094
:1063F0002DF80020009050231822DFF8481A40465C
:1064000000F041F90020009060230822DFF8381ADC
:10641000404600F038F904F10C00FDF7BDFFDFF84D
:106420002C1ADFF82C0A0A68BDE8F243B0FBF2F040
:10643000FFF7E4BEBDE8F18309EB8521404612E198
:1064400071793868002200F081BF31793868012203
:1064500000F07CBF2DE9FC41044688462568A96808
:1064600016461F4605F10C00FDF792FFA0B10898F3
:1064700000963F070828A8BF072000010F30C0B2D0
:1064800001903B0E2068016B09884246204600F0CF
:106490008CF805F10C001BE0BDE8F3812DE9F0411B
:1064A000044682B026680D46B16890461F4600F04B
:1064B000D4FC58B1012100913F073B0E42462946CA
:1064C000204600F0E0F806F10C0001E0BDE8F381A1
:1064D000BDE8F641FDF760BF2DE9F04100F020F87E
:1064E000FFF7B0FF79793068FFF7ACFF00F014F8E0
:1064F00000B1B1E0BDE8F0812DE9F04100F010F805
:10650000FFF7A5FF79793068FFF79CFF00F004F8EA
:1065100000B1A1E0BDE8F081424629462046A2E054
:106520000446494E676830680D4690463979704791
:106530002DE9F0410F4682B01D46002100912A232B
:106540001646089C8DF80030804601226946FFF708
:10655000C3FF00F01EF8BF1CAD1C8DF801708DF854
:10656000035000F012F82B2000F019F800F011F899
:10657000F61CE41C8DF801608DF8034000F005F86E
:106580002C2000F00CF8BDE8F38104226946404657
:10659000B2E700208DF800008DF8020070478DF8FA
:1065A000000001226946404696E72DE9F0470F4674
:1065B00082B011468046D8F80460D8F800400B98A5
:1065C00000901A460A9B5D1AA0EB020C40466D1C17
:1065D0000CF1010C0CFB05F5FFF7AAFFADB2002092
:1065E000A16A0A6822F81070401CB0F5007FF7DB42
:1065F000154FFFF72AFFFFF723FF280A05EBD050BE
:10660000C0014FEA1049A5EB49201FFA80FA002586
:1066100006E0A06A01684FF48062FFF70FFF6D1C6F
:10662000ADB24D45F5DBBAF1000F06D0A06A0168A6
:106630004FEA4A0292B2FFF701FF7179386802B05F
:10664000BDE8F0470CE00000B82100200CB30000CA
:10665000001BB7000000C08079793068BDE8F041C8
:10666000012200F073BE00B585B0002300920393B1
:106670000293019169460268506800F036FC00B14F
:10668000012005B000BD2DE9F24F86B08346DDF84C
:1066900040A016461D46084600F004FF0490DBF8B3
:1066A0000090D9F8280050F8088B03905FEA0A00A0
:1066B00007D0D9F808100398FDF76AFE002800F00B
:1066C0008780F6088DF80450029600249DF8040097
:1066D0000FF204160F3000258DF805000298854250
:1066E0000FDB0146049841188D420ADA0299069898
:1066F000691A405C212804DBA0F120021206120D69
:1067000000E0002200234FF0000C08EB83119818E2
:106710008027305CD9F830E027FA0CF738420AD0ED
:106720006F1005EB97708010A5EB8000BEF902702A
:106730000CEBC00009E0681005EB90708010A5EB31
:1067400080070CEBC700BEF9007021F810700CF147
:10675000010CBCF1080FDADB5B1C102BD3DB6910DA
:1067600005EB91718910A5EB8100032803D100F09E
:106770002BFB2034E4B26D1C102DAFDB681005EB51
:1067800090708010A5EB8005EDB2280017D012E0C4
:1067900000200021D9F83060B6F9006008EB8012C3
:1067A00001EBC503491C22F813600829F2DB401CE9
:1067B0001028EEDB6D1C032DEADD00F005FBBAF1BD
:1067C000000F05D0039807B0BDE8F04FFDF7E4BD1A
:1067D00007B0BDE8F08F00000000000000000000DE
:1067E0000000000000000000001010101010101039
:1067F000101000001010000000006C6C2424000039
:1068000000000100000000000024242424FE484869
:106810004848FC909090900000103C549290503862
:1068200014121292547810000000225C94A84810B0
:1068300010242A5254880000000030484850206E2E
:1068400054948C888A7400000000303010100000CE
:1068500000000000000000000004081010202020AC
:10686000202020101008040000804020201010106C
:10687000101010202040800000000000105438103C
:10688000385410000000000000000010101010FE2E
:1068900010101010000000000000000000000000B8
:1068A000000000001010200000000000000000FEAA
:1068B00000000000000000000000000000000000D8
:1068C0000000000010100000000004040808101070
:1068D0002020404080800000000038448282828274
:1068E0008282828244380000000010701010101064
:1068F00010101010107C0000000038448282040840
:106900001020408284FC00000000384482020438D9
:1069100004020282443800000000040C14142424F1
:106920004444FE04040E00000000FC808080B8C4D3
:10693000820202828478000000003C428280B8C457
:10694000828282824438000000007E428204040871
:1069500008081010101000000000384482824438EB
:10696000448282824438000000003844828282825D
:10697000463A028244380000000000001010000077
:1069800000001010000000000000000010100000C7
:1069900000000010102000000000000006186080B9
:1069A0006018060000000000000000000000FE006B
:1069B00000FE00000000000000000000C0300C02DB
:1069C0000C30C0000000000000384482820204083D
:1069D000101010001010000000003844829AAAAA7B
:1069E000AAAAAA9680423C0000001010102828286D
:1069F00044447C4444EE00000000FC424242427C9D
:106A00004242424242FC000000003C4482808080BE
:106A100080808282443800000000F84442424242B2
:106A20004242424244F800000000FC444240447CA0
:106A30004440404244FC00000000FC444240447C8E
:106A40004440404040F000000000344C8280808090
:106A50008E8484844C3400000000EE444444447C22
