:020000040000FA
:10000000004400202DF0000001C9011001C90110B9
:1000100001C9011001C9011001C9011001C9011074
:1000200001C9011001C9011001C9011001C9011064
:1000300001C9011001C901103FC90110120001835B
:1000400001000143C5A70D631DA415B007010058A9
:10005000030020C5A70001611061081007430228B2
:1000600004438AFF00FF0140028460F8050823F979
:1000700015083009838800000200FF4488601820BA
:10008000F00100D9BA00016002FF0880800412FE6E
:100090001F1003037100001904400499730000C18C
:1000A000F130920637F0051C7C020020D4E00001FC
:1000B000D2FE2F100324CD00004804125C0412B8B5
:1000C000501186F10851F30DFFFF6C1650242104E6
:1000D000612613C5EEC4110D3001FF001413127018
:1000E0001C2104527804834C1050458010010100FB
:1000F0009418F206941C12B018210452B80452C08D
:100100000443E8EA2C212812D410210452DC0443D1
:100110009C0104C70100E43001BFBD01622002045C
:1001200004002004520C04521404521C04522404EF
:10013000522C0483A9D54512050BD6201343840401
:1001400013125C082104526404526C045274045269
:100150007C04528404528C04529404830000B062E4
:1001600004641602A442061CD00353C0011000010F
:10017000D2011112E048210452E80452F00452F86E
:1001800004430005045208046178F1C7016520F3B7
:100190000D0101E610035F2C0000CF04C31F2C28C3
:1001A000FC0401ADE5000015F12203214F43B956CF
:1001B0001512D9081BDF64F8F300081B65F301442E
:1001C000F178F30134081420061800A001A41814D3
:1001D0000C1A23FF7F703BFFFFC002FF8301000169
:1001E000A10CD003E00400200001431005142002FC
:1001F0003401002004523C041200011007E01C00EE
:10020000209C150020A004C20001C00520010100AF
:1002100000D414185200011007080200202C04001A
:10022000200111C30100012002E403002004220088
:100230000150026CDC02000150039C030020030DFE
:100240001003ADA30000F504F30101000120025CDE
:1002500004002017120001000208020020520001D1
:10026000520001120001000208000000030000001B
:10027000000000000000000000000000000000007E
:10028000000000000000000000000000000000006E
:10029000000000000000000000000000000000005E
:1002A000000000000000000000000000000000004E
:10100000B41200001810000015AB0110FDB3011060
:101010006DC00110FDAE011099B501100000000077
:10102000000000002D000000B01200003C10000085
:10103000B1C00110A9BF011067C0011069B801104B
:10104000000000000000000030000000B0120000AE
:1010500060100000BDC00110CDB30110D9BD01105A
:101060006DB301100000000000000000310000001E
:1010700000000000500300200400000000000000F9
:1010800000000000200000007CE8000030000000AC
:101090002810000070030020040000000000000081
:1010A000000000000C00000054EF000018000000D9
:1010B0004C10000078030020040000000000000035
:1010C00000000000240000006CEF00001800000089
:1010D00000000000B8030020040000000000000031
:1010E000000000001000000078E900002C00000063
:1010F00000100000D40300200400000000000000E5
:101100000000000020000000FCEB000024000000B4
:10111000FFFFFFFFDC0300200400000000000000D0
:10112000000000002800000020EC00002400000067
:10113000FFFFFFFF04040020040000000000000087
:10114000000000001400000084EF00001800000000
:10115000FFFFFFFF0C04002004000000000000005F
:10116000000000005800000074E700003400000098
:10117000FFFFFFFF14040020040000000000000037
:1011800000000000100000009CEF000018000000AC
:10119000FFFFFFFF1C04002004000000000000000F
:1011A000000000001C00000044EC000024000000CF
:1011B000FFFFFFFF240400200400000000000000E7
:1011C000000000003800000010EB000028000000C4
:1011D000FFFFFFFF8C04002004000000000000005F
:1011E000000000005400000070E500003C0000001A
:1011F0000100000090F100000100000000000E005E
:1012000000000F0032000000010000005803002021
:10121000000200000000000001C9011000000000F1
:1012200000000000080000000000220080030020F1
:10123000000000000000000008000000E40300209F
:101240000000000000000000080000000000000096
:10125000000000000000000000000000010000008D
:101260002C0400200600000001000000940400206F
:10127000000000000000000000020000000000006C
:10128000290001002500300031002D00010001007F
:101290000400000094F000000000000000000000C6
:1012A000000001000000030013C4011009A40000A5
:1012B000B8120000B812000000000000C8030020AF
:1012C000A9A200002000000044F0000038EB00005C
:1012D00029C10110E75400003F550000A1C70110CB
:1012E000A3C70110000000004666000068E300008C
:1012F00080E3000050E3000002000900010000004C
:1013000001000000DDEA0000B1EA00006DEE00001F
:10131000E1E7000049E8000099E3000029DC000053
:10132000CDEF000021A2000041A4000045A4000070
:1013300038B5054601F0DCF82C680CB1216829604D
:1013400001F0E6F8204632BD70B505460E462C6821
:10135000002030601CB901F0CBF82E600DE001F0E8
:10136000C7F800E0246821680029FBD1B44203D10A
:1013700001F0CEF8002070BD266001F0C9F8012010
:1013800070BD10B501460022DFF8500B00EB421093
:10139000C37F1C0603D5B0F91C308B4203D0521C0E
:1013A000082AF1DB002010BD38B504281DD1DFF874
:1013B000CC4A04F1EC05284601F0F2F8A8B1284621
:1013C00001F0ECF8DFF8B81A0A68504364280CD230
:1013D000284601F0F3F8052001F02AFA0120E07711
:1013E000042104F14C0001F03FFD002032BD70B536
:1013F000044601F07DF8DFF88C1A0546887D00B3BD
:10140000401E8875C0B2E0B9DFF8706A082100F0AC
:10141000F4F8B4B1B06B703001F0D0F8B06BDFF815
:10142000601AC0680A68241AB4FBF2F1012906F1B7
:10143000EC0498BF0121204601F0BCF8204601F0E1
:10144000BBF82846BDE8704001F062B810B504460C
:10145000207B00F00F0002280FD100F018FDA168DA
:10146000081ADFF8181A8A6BD168800801F57A71BA
:10147000814238BFB0F1405F00D3002010BD38B5C5
:10148000DFF85C1ADFF85C0A0C68DFF8F0590440FA
:10149000E0430860A00606D54868810603D54FF4EE
:1014A000005100F0E6FD14F4602F09D0286904F41F
:1014B000602404432C6105F19C00BDE834403AE00F
:1014C00031BD70B501F014F8DFF8B0590446286951
:1014D00010F4602F25D02E69F601360EF00748BFB4
:1014E000002606D4B00748BF012602D4700748BFC3
:1014F0000226701D40B200F051FF2969012206F159
:10150000110082409143296100F0BEFC05EB86008A
:10151000446844B1286800224FF00063711DA04761
:1015200001E000F0B1FC286920B105F19C00BDE8A4
:10153000704000E070BD002101F096BC70B501F074
:1015400099FCDFF83869DFF8E05B8107B16A1DD4E8
:10155000D1E90423104007D0F1628A691043886101
:101560004FF4804100F049F8B06A002844D1746A11
:10157000002C41D0E068B16B884222D006F14C00CB
:10158000BDE870404FF4805101F06EBC09B9B16AFA
:10159000EAE70022B262D1E904238C69104040F0EE
:1015A000020020438861686990436861E868984355
:1015B000E86006F13000FFF7C7FE022100F01DF8D9
:1015C000E5E7A068FFF742FFB06408B1B06CD1E076
:1015D000D4E904016A6902436A610020EA680A43A7
:1015E000EA60E861A0682860E8690028FCD006F19C
:1015F0002400FFF79DFEB46270BD06F14C0001F0BF
:1016000033BC0020F3E6F8B5074614463E6E1D468F
:1016100006B1B047A00708D4D7E9160120402940F9
:101620000022914208BF904207D0C7E91A4507F14E
:101630003800BDE8F24001F0F8BCF1BD704780B55C
:1016400001F010FCDFF834280146906BD26BBDE846
:10165000084010470421DFF8D40A01F005BC80B52A
:1016600001F008FCDFF8C81A084204D0BDE80440C5
:101670004FF00051EFE701BD70B504005AD0A168EA
:10168000202000291CBFC2B2002A59D00A8840F687
:1016900003039A421FBF40F604039A424968401E62
:1016A000EFD148E000224FF08043B4F91C10E0680D
:1016B0006568A84700F01CFFDFF8C0570646E88EB3
:1016C000401CC0F30B00E8860020296BC87705F1A9
:1016D0003000FFF72DFE304600F01AFFB5F9360056
:1016E000E26802F19403B3F90010884202BFDFF808
:1016F0009407017D00291DD1987808B9106810B9A8
:101700000020987036E0A96B0B6813F1010F11D01F
:10171000DFF86C572968B0FBF1F1012998BF01216E
:1017200002F1700000F046FFE068BDE870407030E4
:1017300000F042BF70BDE0681822203001F0C4FC08
:10174000A2690020A06160680028B3D0E07F002378
:1017500000F00700012842F0020207D00228A1D0C1
:10176000042804BF00224FF080539EE700224FF070
:1017700000539AE7BDE8704039E638B50D46A80732
:10178000DFF8F84619D5206BFFF776FF206B25F0C0
:10179000020510B145F0020109E0680702D4606A51
:1017A000002854D004F1EC0000F008FF042104F1FB
:1017B0004C00BDE8344001F057BB680747D5012015
:1017C00084F82000042001F033F8DFF8680901688C
:1017D0000A6B90472064606A08B1C068A063A06B80
:1017E0004168DFF854090A780260022001F020F80D
:1017F000112001F032F80120E076A06B017C002975
:1018000019BF607E00280E2001F027F8A06BDFF8DA
:10181000182940688168002904BFC068002804D0E6
:101820000021D161DFF84C0A106040F2FF70DFF850
:10183000481A086000219161DFF8F40850610FF246
:101840001100E0631920BDE8324000F053BE31BD05
:101850002DE9F0430446880085B040F19380DFF81D
:101860001C56A86B4068406800B18047A86BDFF841
:10187000B88842689068002804BFD16800290DD05C
:1018800000F0A7F8906800B18047A86B4068C06876
:1018900000B18047DFF86C0A01F0EFFA0020C8F8C9
:1018A0001C0040F60A09DFF8600ADFF8D875C8F8AE
:1018B0000000012001F01BFB0FF28110E863002102
:1018C00000207880A7F8009000F00CFA787B00F0F8
:1018D00003FAA26816467180697E09B1607CA0B1E6
:1018E000108840F60201884218BFB0F5C15F05D1EB
:1018F000318A4FF60F400140318204E0318B4FF6C0
:101900000F4001403183002060746946104601F0A9
:10191000DBFA684601F0E6FA7068B0B30188494521
:1019200018BF0646F8D130E0208C00283FD00021B7
:101930006184616204F12C004278017802F0F002C7
:1019400001F0F00142F001020170427004F1200048
:101950007860787B00F0F000787328E0DFF8801A78
:101960000A68136801209847012808D0707B00F0AE
:10197000F00040F0010070730FF26900E863A068A6
:10198000C8F8000005B0BDE8F083776040F60301B9
:10199000707B00F0F0007073686A8068008888428D
:1019A0001CBF40F604018842BED10020286400F02C
:1019B00010F84FF6FF30A1680A8A02400A82E87FD9
:1019C0000028CBD001F0CEF80028FBD001F0DBF8E6
:1019D000D5E7D8F81C000028FBD00021C8F81C105F
:1019E00070470000DFF8FC29114200D17047DFF892
:1019F000F019012010B50A68DFF880441368984791
:101A0000012808D10FF23500DFF81C17E063DFF87A
:101A10007404086010BDDFF8682410683221B1FB3F
:101A2000F0F1012998BF0121EC34204600F0C2FDFD
:101A30002046BDE8104000F0BFBD00002DE9FE4F7C
:101A400006460C466004DFF8345419D500F050FD0A
:101A5000EE6AB769B9070ED46EB10021B16100F02A
:101A600057FD706848B1B6F91C10F06876683A46C0
:101A70000023B04701E000F04BFD24F4804425E151
:101A8000A0070AD5286BFFF7F7FD286B002824F084
:101A9000020401D044F0020418E1A00005F180081E
:101AA00040F60909DFF8DC73DFF888B676D595F8DB
:101AB000200028B1042000F056FE002085F8200008
:101AC00040F60202B0680188914218BFB1F5C15FCB
:101AD00005D1028A2D2161F30912028204E0028BF2
:101AE0002D2161F309120283286CD8B1DBF8541060
:101AF0000A6804209047A8B1DBF80000016B884712
:101B0000296C814228BF401E401A718A11EB1030A7
:101B1000F06040F2D171A0F5FA70884224BF40F61F
:101B2000C410F060787B10F00F0F04BF708C484534
:101B300008D1D6F818C000224FF000736FF48071FE
:101B40003046E0470022DFF8A818404600F0D6FCF7
:101B5000A87E50B10221ADF80010684601F08DF961
:101B6000BDF80800A8820020A87601202876002170
:101B7000B87D401CB875E976686A18B1192000F084
:101B8000BBFC01E044F002043046766900224FF0CD
:101B900080630021B04724F0005497E0A87F24F030
:101BA000080A20B1210703D50020A8777BE0200791
:101BB0007BD5E87F20B10021E977052000F0D3FD37
:101BC0000020287601202877002001F090F90022DB
:101BD000DFF82018404600F091FC697E09B1A87E2C
:101BE00010B10121697612E0A86C002834D0DBF82E
:101BF0000010086B8047296C6A6C401A02EB1032A7
:101C00006A64A86CC001904226D200216964DFF8A2
:101C1000E80701680A061FD5787BA7F8009000F056
:101C20005BF800210020788000F05CF800F060FC98
:101C3000DFF8F4144A6922F002024A616FF00202EE
:101C40000A610F600B699C07FCD50A614A6942F082
:101C500002024A6100F05CFC0020286401F01AF9DD
:101C6000DFF8141600200860022000F07CFD11202F
:101C700000F08FFD307C10B90E2000F08AFD0020AE
:101C8000A883787D18B906F1380001F0CEF9DFF8A5
:101C90006C07E863F87D30B10021F97505F14C005F
:101CA000042101F0E1F8544610E0A0040ED5AE6A1C
:101CB000002E1CBF7068002806D0B6F91C10F06812
:101CC000766800222023B04724F4005414B1214642
:101CD00000F0CFF9BDE8F78F00F0F00040F0010010
:101CE000787370477960387B00F0F0003873704784
:101CF00030B585B000F0A4FCDFF80407DFF8044736
:101D000001685E4D41F002010160684601F07FF814
:101D1000A078DFF8F41602906A4605F14C0001F055
:101D20007EF8684600F0ECFB2178DFF8C8260191C8
:101D300000208DF808006B46192105F1800000F0A5
:101D4000B4FB684601F063F8E078DFF8C016029053
:101D50006A4605F19C0001F062F8684600F0D0FB8D
:101D600001208DF808006B466078DFF8A42601900A
:101D70001A2105F1D00000F098FB00230022DFF8C3
:101D8000941605F1EC0000F0E8FBDFF87006DFF8D0
:101D90008826E8630023042105F5887000F0D1FC53
:101DA0004FF6FF70A88205B00120A8760020E875E4
:101DB0006876E876E861286485F8200030BDF0B5E3
:101DC00000298BB0064615461C4653D0DFF84C065A
:101DD00000680A78D040C0074CD5002D716049D00A
:101DE0000021284601F084F8B56000F081FB254F02
:101DF0000546787D00283BD1FFF77AFF787D401CAF
:101E0000787500F0A0FA34B903A80FF24C611C22D7
:101E100001F05AF903AC2068DFF8041630600A4676
:101E20006068F060207C307401207074608A708279
:101E3000E06800B10146B161A06800B1024672617C
:101E4000782106F1200001F0A7F9002106F1380001
:101E500001F0B5F8684600F0AAFB02966B46002236
:101E6000DFF8C01506F1700000F077FB304602E0A5
:101E700000F069FA00200BB0F0BD0000C015002092
:101E80002C180020E4160020204600F041BBD0B5FD
:101E900000F02EFBDFF89025117E31B1DFF88C25A4
:101EA000146800F035FB2046D0BD00F031FBA1489E
:101EB000DFF87C4501680A6B904710F50032DFF8C7
:101EC000740541F100030169A4FB0267002004FBD3
:101ED0000377321847EB01031846D0BDB80800203D
:101EE0000810044020000E002DE9F84F04460E466D
:101EF00092469B46DFF8305500F0FAFAB5F93410F7
:101F00008046B5F93600091AC1F30B0108296FF0B4
:101F1000010949DAA88EDFF82015401CC0F30B0038
:101F2000A886B5F93400ADF800000020420101F1A7
:101F30001F039B5C1F0640F18C80401CC0B2082828
:101F4000F4DB002704F1700000F038FBBE6087F876
:101F50001EA0C7F804B02021BDF80000B883FC60C3
:101F6000DDE90AABDFF8D4040AEA00000BEA01015C
:101F7000C7E9040194340020F87740F6FF76686AD8
:101F80000028394605F1240006D0FFF7DDF930B10D
:101F900000F061F840464FE0FFF7D6F940B9A88E4F
:101FA0003618C6F30B06AE8600F01EFA48464EE021
:101FB00000F051F8697FDFF87C4400291CBF287EBF
:101FC000002807D0002001216877A876A977A07D96
:101FD000401CA07500F008FAA96A002935D1287EB6
:101FE00018B1192000F088FA2FE0E87E68BB00F0F5
:101FF0007FFA0646287F10B10121E1751BE0B86821
:10200000FFF724FAA864D0B1A86BDFF83414C068D5
:102010000968AA6C121AB2FBF1F2012A83BFAA6CFA
:10202000101AB0FBF1F10121EC35284600F0C2FA9C
:10203000284600F0C1FA304600F06AFA05E0304662
:1020400000F066FA042100F014F8BDF90000BDE8C4
:10205000F28F8F1876E7BDF800002080F87F40F0FF
:102060008000F877A078012802D10021A170A9761C
:10207000704705F14C0000F0F7BE2DE9F041054630
:102080000C4616461F4600F0EBFE80462046FFF742
:1020900078F9040003D1404600F0EAFE0AE0E07F50
:1020A00010F0070F09D0404600F0E2FEE07F10F08C
:1020B000070FFBD10220002112E06168DFF88403E2
:1020C000814202D0616829666060C5E916674046B2
:1020D00000F0CEFE00F006F800202866D5E91A01CF
:1020E000BDE8F0814FF0FF3105F1380000F094BFFA
:1020F000DCB5DDE906670446CDE90067180008BFD6
:10210000DFF840332046FFF7EFFE002803D500201C
:102110004FF00041DCBD0146204602B0BDE8D04092
:1021200002224FF0E043A8E7001004400C16002004
:10213000020000408C010010D021084001E042F074
:1021400002022DE9F843DFF8E052686A00900F467A
:102150000326144600F0CCF917F1010F04F0010832
:10216000814609D1A86A002819BFA96AB1F91C7073
:10217000EF8E7F1C0020E87538B2FFF702F90100EE
:1021800069D0A86A814204F0020426D11CB1686AB1
:10219000009000226A620122C87F02FA08F210430E
:1021A000C87700F05DFE0646B8F1000F14BFDFF8F7
:1021B0009802DFF8980200F060FE00F06BF824B996
:1021C00006E000F05BF800F060F800980028F8D115
:1021D000304600F04DFE83263FE00098884205F12E
:1021E000EC0316D1184600F0E9F9002C12BF0020CC
:1021F000686A0068686200F04DF8009800F03EF8E8
:1022000000F043F8009820B3002CF6D121E01268CA
:102210000092009820B3024610688842F7D1184611
:1022200000F0CCF9009800681CB1009A0021116000
:1022300004E00168009A116000220260009003E04F
:1022400000F01CF800F021F800980028F8D100F008
:1022500021F8832606E000F01DF83046BDE8F28341
:1022600000F018F8E87E0028F7D10221FFF701FFFF
:10227000F3E700005100070600000460C17F41F051
:102280000401C1776846FFF753B8014605F13000F5
:10229000FFF75AB8484600F03BB90FF2BC111C22B8
:1022A00000F012BF38B5044600F022F9DFF87811CB
:1022B0000546087E68B1204600F0DFFD044600F0C8
:1022C00042F804F0FF04012C01D1812032BD02202C
:1022D00032BD00F038F8012032BD0A46DFF848115F
:1022E0008B6B984201D00320704707E00A46DFF865
:1022F00038118B6B984201D00320704700211046A3
:10230000D0E700000100070601010E0470B5DFF8F8
:1023100018118A6B90426FF07F0412D1087E80B151
:1023200000F0E6F80546DFF8280100F0A6FD0646B5
:1023300000F009F806F0FF00012802D1360230163D
:1023400070BD204670BD284600F0E2B870B50E465C
:10235000154600F0CDF88324334A1EB1022E0ED06C
:1023600006D30FE0916A41B1926A918B29800AE00D
:10237000917E11B9928A2A8005E0802403E0117EC3
:10238000297000E0032400F0C3F8204670BD80B53A
:102390000846FEF7F6FF00B1806802BD38B5044676
:1023A00000F0A6F8204AD17D4B0702D5937D9C42D0
:1023B00012D00123958A03FA04F10D432549958231
:1023C0000C340A6803FA04F422EA04040C60096875
:1023D00011B9184B00221A75BDE8324000F098B8C8
:1023E000E001001004000020404600F091B8000019
:1023F0003D1500005F160000000004407B17000040
:102400000020094050D500003F160000C314000012
:102410007F14000055160000A9130000D4210840C5
:102420003D16000003160000C015002004300440D3
:1024300000093D00E4160020B8080020F1EFFF9FDE
:102440002C180020071600000100020401000104FE
:10245000010003040C100440FFFFFFFFC40900004B
:10246000000000000000000001001A010000000050
:1024700000000000DFF800F085BF0110DFF800F079
:1024800061C00110DFF800F079BF0110DFF800F043
:10249000A9C00110DFF800F089AF011020B10823B6
:1024A00030220021FFF7EEBF7047F0B51C008DB061
:1024B00005460E46174603D1002300F093FE0CE0BC
:1024C0006846FFF7EBFF206805906B466068089050
:1024D0003A4600F005F800F085FE28460DB0F0BD44
:1024E000207AADF81800314628467047FFF7CEBF76
:1024F000FFF7C0BFFFF7CEBF00F094BE00F09CBE58
:10250000002101604FF0FF314160012101727047ED
:10251000FFF7B4BFDFF800F0C1BF0110DFF800F033
:10252000B9BA0110DFF800F0E5C00110DFF800F0E3
:102530001FBE0110DFF800F069B20110DFF800F0F3
:10254000DDC00110DFF800F091BE011020B10823BA
:1025500024220021FFF7DEBF7047F0B51C0089B0D0
:1025600005460E46174603D10023FFF7E3FF0AE0B6
:102570006846FFF7EBFFA06806906B463A46314687
:102580002846FFF7D7FF0E480E4A0168116028461B
:1025900009B0F0BDFFF7D2BFFFF7D4BF00F054BEC3
:1025A00080B500F068FE00B10120C0B202BD00217C
:1025B00081607047FFF7B6BFFFF7B8BFFFF7AEBF48
:1025C0008CF100002C18002070B5DFF8584782B05D
:1025D0000120009009232568DFF84C076E684FF44E
:1025E00000720021B04773BD70B5DFF83847DFF8DF
:1025F00038072568EE68002301223421B04700B176
:102600000120C0B270BDDFF8240780687047024621
:102610000020022904D1012A06D140F2EE207047A1
:10262000012A08BF4FF47A707047DFF8001791F85D
:10263000E60020B1D1F81001002818BF004770470C
:102640002DE9FF41DFF8E48608F1E105A8790028CB
:1026500073D1DFF8DC16DFF8DC660A689209012026
:1026600002F00102A871EA71307BDFF8CC76687164
:102670007068C8F8100101A8FFF799FF00210291C6
:102680008DF80410039101AB00220FF2295108F1DB
:102690000C00FFF762FF01AB00220FF2D55108F1E9
:1026A0003000FFF75AFF01AB00220FF20D5108F185
:1026B0005400FFF752FFB16801208847DFF87C061D
:1026C00001787868C0F38154707B20B1032C02D16B
:1026D0000121297003E0032C18BF022C16D102201F
:1026E00000F0A6F8DFF858160A68032C0CBF4FF468
:1026F0007A7042F21070B0FBF2F108F15400FFF76B
:1027000059FF08F15400FFF757FF10E0012C0ED1DC
:10271000DFF81046032000901C232568DFF8080628
:102720006E684FF040520021B047FFF74DFF386808
:1027300040075CBF002000F07BF8002004B0BDE83B
:10274000F08138B5002408B1150002D16FF0020401
:1027500007E08160C26003610146DFF8D00500F048
:1027600096FD204632BD10B50446FFF7C1FEDFF8E6
:10277000BC150A1992F8E9305B1E82F8E930DBB229
:1027800033B98A68012303FA04F422EA04048C6052
:102790005FE0F8B50546FFF7ABFE0446DFF88C15A1
:1027A000481990F8EF20521E80F8EF20D2B27ABB81
:1027B0000FF2D850DFF88C7500EB850210F8255029
:1027C0005688280615D539680A6A304690473A680F
:1027D000916A3046884739680A6B30469047DFF87F
:1027E000681501200860DFF8641508688007FCD5CB
:1027F00007E0680611D501EB86010020D1F804211D
:10280000904705F03F053F2D1CBF2846FFF7C1FF4D
:102810002046FFF77DFE0020F2BD39688A69304608
:1028200090473A68516B304688470228F9D1E8E76B
:1028300010B50446FFF75CFEDFF8F0148A68012348
:10284000A3401A438A60214491F8E920521C81F880
:10285000E920FFF75DFE002010BD2DE9F04107469D
:10286000FFF746FE0546DFF8C464F01990F8EF1054
:102870004A1C80F8EF2049BB0FF2105818F82700C7
:1028800000F03F003F2818BFFFF7E7FF08EB870085
:10289000448818F82700DFF8AC7401060ED53968B3
:1028A000CA69204690473A68516A20468847396885
:1028B000CA6A2046904700F01AF807E040060BD598
:1028C00006EB84010120D1F8042190472846FFF748
:1028D0001FFE0020BDE8F08139684A692046904714
:1028E0003A68516B204688470128F9D1EEE7DFF8B6
:1028F000581401200860DFF8541408688007FCD5DC
:1029000070472DE9F84F0746DFF82404DFF84454F8
:102910000168002600244A06A0460DD5287B58B938
:10292000DFF83404DFF8341402680A4042F08172A0
:102930000260202000F075F9012F18BF6FF0010927
:1029400057D12868012852D10221296000F047FDA3
:10295000012000F066F95FEA00094BD100F080FA2F
:10296000DFF8FC13DFF8DC7300900C600120B96A1B
:102970000A689047012803D1002000F0A8F901243B
:10298000DFF8E013DFF8C8A3DFF8DC230E60DAF825
:102990000010907808B14FF00108517809B148F063
:1029A0000208107808B148F00408A87F20B13968FF
:1029B0000A6B4FF480609047687F20B139680A6BDA
:1029C0004FF481609047DFF880130120086048F0E1
:1029D000200039688A699047DFF890130120086069
:1029E000DFF84813087AC10709D501261FE06FF008
:1029F00004097DE00120286000F0FCFC78E0396AE1
:102A0000DFF86C038A6890478346BBF1040FF6D069
:102A1000BBF1010F05D13A6ADFF854035368032173
:102A20009847DFF850030168890889000160002099
:102A300000F004FDDAF800003868816B884776B949
:102A4000BBF1010F05D13A6ADFF824035368012175
:102A50009847DFF82003016841F00301016001207D
:102A6000DFF800130860404639684A699047A87F3C
:102A700020B13968CA6A4FF480609047687F20B1FE
:102A80003968CA6A4FF481609047AF49B74A01205C
:102A9000086000211160032028603A68516B4046AD
:102AA00088470128F9D1DAF80000042000F0B9F8CD
:102AB0000646AB4901200860DAF800109C49086816
:102AC0008006FCD514B1012000F001F900F006FEEB
:102AD000082000F0A6F8064301202860009800F0C6
:102AE000C7F900F080FD00F085FC0EB14FF0FF3912
:102AF0004846BDE8F28F38B50446FFF7F9FC0546B5
:102B000021468A4800F0D7FB2846BDE83240FFF74F
:102B1000FFBC3EB50024012804D020D303281CD0DC
:102B200017D31CE06846FFF742FD804D924901949F
:102B30008DF8004002946B46012205F17800FFF702
:102B40000CFD00238D4A2C2105F19C00FFF7ADFC04
:102B500005E000F0DFFD044601E000F09FFE2046A6
:102B60003EBD000038B5FFF7C3FC7049054691F83B
:102B7000E000012410B1FFF737FD04462846FFF7B7
:102B8000C7FC204632BD70B5FFF7B2FC044601F029
:102B900014F86649002081F8E00066488568022044
:102BA000A8470646102000F03CF8012E04BF032081
:102BB000A84787E07047000038B55A4CE16B0A68B7
:102BC00004209047022818BF03280FD1032000904B
:102BD0001C232468544865684FF040520021A847E0
:102BE000FFF7F2FCBDE832400220BCE564485449DE
:102BF00000680A684D4CC0F3815003280CBF4FF4A5
:102C00007A7041F28830B0FBF2F104F15400FFF722
:102C1000D1FC04F15400BDE83240FFF7CDBC0020E8
:102C2000704738B50546414C204600F026FB88B970
:102C3000204600F028FB0446A068284205D02269FF
:102C4000E36800212846984730B9204600F01DFB74
:102C50000400F1D1002032BD4FF0FF3032BD4949B0
:102C600001280CBF40F2FF70002008600020704770
:102C700070B5FFF73DFC2D4E2E4D044696F8E00052
:102C800028B100F09AFF70B1002086F8E000022021
:102C9000AD68A84706461020FFF7C3FF012E11D1EB
:102CA0000320A8470EE026490A683220B0FBF2F163
:102CB00001B9012106F13000FFF77CFC06F130007C
:102CC000FFF77AFC2046BDE87040FFF721BC38B51D
:102CD000012823D12C490A681368984701281DD080
:102CE00000F05EFF114D012085F8E000287A810692
:102CF00016D4134802683221B1FBF2F404B901245E
:102D000005F13000FFF75AFC214605F13000FFF7CE
:102D100051FC05F13000FFF74FFC01E000F073FFBC
:102D2000002032BDA401001000A00C4014050020BA
:102D300014100940FCD40000B03F0050EF1C0020EC
:102D40002C180020B8010010282008602820084016
:102D50002C200940F005002004000940FFFFFCFC86
:102D60000C40094000022243120600208001044367
:102D70000040034024220840E53900007937000074
:102D8000B43F005000000460E00100108F0000001C
:102D90008F0001008F0002008F00030090000001EF
:102DA0008F00010190000002900000038F000104D9
:102DB0008F0000058F0008048F0000048A000006C1
:102DC000510000007F0001003F0004003F000200AE
:102DD0003F0001007F000200DFF800F011BF01108A
:102DE000DFF800F011B00110DFF800F015C001109D
:102DF000DFF800F015C10110DFF800F005B3011095
:102E000020B1082328220021FFF7EEBF70470021E0
:102E100001604160C1604FF0FF318160704770B563
:102E200014008AB005460E4603D1002200F036FF9A
:102E30000CE06846FFF7E4FF206804906A4660688B
:102E40000590314600F004F800F028FF0AB070BD8C
:102E5000E0680790A068069028467047FFF7C8BF53
:102E6000FFF7BABF00F026BF00F02ABFFFF7B8BFD8
:102E7000FFF7C2BF3849086867E0384A116800297F
:102E8000FCD10023D3611060D0690028FCD0D1614F
:102E9000506870473248016821F0020141F4007126
:102EA000016003212F48816041F23001416101211D
:102EB000C160502141610121C1604FF4CA6141618B
:102EC0000121C16001607047274802680A6082687A
:102ED0004A60C2688A60406B20F0784040F08050C1
:102EE000C860704701461022204800F0DDB87047E6
:102EF000FEB50188B1F5C15F18D142691C4F00923F
:102F0000002382690192C06902901A480268C2F3E4
:102F100003625DF8230098B1002550F82560BE4299
:102F200006D06D1CEDB2042DF7DD09E00120FEBDD9
:102F3000042D05DC26F4702444EA024440F82540C0
:102F40005B1C032BE5DB0020FEBDC2430A600A6860
:102F50000242FAD1704700001010044000100440F3
:102F600000000460004104404C1300501800002190
:102F70000200F84454130050DFF800F009C00110BB
:102F8000DFF800F0D1B20110DFF800F0059B01106E
:102F9000DFF800F0E1A30110DFF800F05DB40110EC
:102FA000DFF800F009C10110DFF800F00DC10110D9
:102FB00020B1082324220021FFF7DEBF704730B57F
:102FC00089B004460D4600F00BF801218DF8181069
:102FD0006A4629462046FFF7DFFF204609B030BD8C
:102FE0006846E5E710B58AB00446FFF7F9FF01210E
:102FF0008DF818102046034A6946FFF7C1FF0AB052
:1030000010BD00003003002080B500906846FFF737
:10301000C7FF01BDFFF7C8BF80B5FFF7B5FF10B907
:103020006FF0010002BD002002BDFFF7B1BFF0B498
:103030000246106895681318506803EB5004C007E7
:1030400021D54D441FE0F0BC02F10C00704713F88D
:10305000017B05F8017B491EF9D1A0B1B60813F830
:10306000011B06F00306032E08BF13F8016B01EBEA
:1030700006214942801C294405D011F8016B05F84E
:10308000016B401EF9D1A342DDD013F8016B16F09D
:10309000030104BF13F8011BC91C30090F28DAD142
:1030A00013F8010B0F30D6E762B38B0708D0521E1E
:1030B00011F8013B00F8013B00F024808B07F6D1AA
:1030C000830740F0208000BF103A07D330B4B1E846
:1030D0003810103AA0E83810F9D230BC530724BF9A
:1030E000B1E80810A0E8081044BF51F8043B40F8CC
:1030F000043BD20724BF31F8022B20F8022B44BF37
:103100000B7803707047121F17D35B0009D151F879
:10311000043B20F8023B1B0C121F20F8023BF6D2A6
:103120000BE051F8043B00F8013B1B0A20F8023B7E
:103130001B0C121F00F8013BF3D238BF121D521EA8
:1031400024BF11F8013B00F8013BF8D87047026832
:10315000920841EA82028B0822F0040203F0010384
:1031600042EA8302CB0822F0080203F0010342EA9C
:10317000C3020B0922F0100203F0010342EA03121A
:103180004B0922F0E00203F0010342EA43128909ED
:1031900042EA811202607047002200F0ADBD024693
:1031A00081B01078022903D1517800EB012013E09F
:1031B000032906D15178927800EB012000EB024000
:1031C0000AE0042908D15178937800EB0120D178E6
:1031D00000EB034000EB016001B07047DFF800F046
:1031E000BDAA0110F8B504460B480C4F0668F869F3
:1031F0000D4650F82500B04209D1094800902046FC
:10320000FFF7ECFFF86950F82500B04201D100202B
:10321000F2BD2046F2BD00BF18120000440100209C
:1032200030030020102803D302491038C1F8000FE2
:10323000704700BF00E000E081604260704700001E
:10324000DFF800F09DB2011070B5044600F072FD89
:103250000646A08A0025012808D1FFF7F1FF0546A0
:10326000E068451BA068A84238BF0025304600F042
:1032700062FD284670BD808A7047006808B9012049
:10328000704700207047006870470068704738B585
:1032900004460D46FFF72CF900212960616869603A
:1032A0006168002914BF0D6025606560FFE7BDE817
:1032B0003240FFF72DB90A684B68002A0CBF436003
:1032C00053604A6809680AB9016070471160704725
:1032D00010B501688A089300CC0801F0030003F0E0
:1032E0000403E20018430B0902F008021C0110431A
:1032F0004A0904F010045301204303F0200318434B
:10330000890940EA8110C0B210BD0000DFF800F06A
:1033100031BF0110DFF800F0F5B7011030BF704782
:10332000FCE738B500F0D6F900F087F9FFF76BF944
:10333000044604F00C000C284BD0600721D400F0A8
:103340002DFD054601210120FFF761F92F4909688C
:1033500001FB05F2904214D2F020B0FBF1F02C4CAE
:10336000291A04F10C00FFF7DDF804F10C00FFF757
:10337000DDF80120FFF7C5FA04F10C00FFF7CEF8E5
:1033800029E0200725D4234D2348296A8A689047DD
:103390000428F8D0E206214900D420B9086840F09A
:1033A0000100086003E00A68520852000A601C48E5
:1033B0001C4C016841F00301016020202A689169DA
:1033C000884720682868816B884701212160206830
:1033D00001E0FFF7A5FFBDE8314000F07FB910B56F
:1033E000114CFFF793FF20601048006808B1804738
:1033F000606010BD10B50E480B4C016809B16068E3
:1034000088472068BDE81040FFF784BF8CF10000BA
:1034100014050020B8010010004003408C21084032
:10342000242208402C2009400C18002068F10000DC
:103430006CF100001628A8BF203870472DE9F84F1E
:1034400080469448DFF850920168944E8A0705D56B
:103450000820B0719248C9F80000C2E091480168A4
:103460000A6890478246904805682F1700247F1C01
:10347000A80208D4CAF13E00C0100828C8BF08201E
:103480008742B8BF074689480168C1F30460FFF767
:10349000D1FF834686480168C1F30440FFF7CAFFA5
:1034A0005F44152F0146C8BF152704DC6FF00900E3
:1034B0008742B8BF074607F01F007E4A40F4F85025
:1034C00010807D4A106810F0030F18BF01244007D8
:1034D00048BF44F0020496F90700B8F1000F18BF86
:1034E00044F00404AAEB0000042802DCB279944200
:1034F0005DD0AAF10F084FF0000BB8F1000FDC46C9
:1035000004F004006D4B24D408EB08184FEA282C73
:10351000BCF1070F88BF4FF0070CE646BEF1070F5E
:1035200028BF4FF0060E1A1D52F82E2053F82EE039
:10353000A2EB0E0E0EF0FF0B10B1CEF30722934458
:10354000A20744BFCEF307429344E20748BF0BEB08
:103550001E6B53F82C2002F0FF0310B1C2F30720BA
:10356000C318A00744BFC2F30740C318E007A8EB85
:103570000C2048BF03EB126300FB0BF0CF1B803025
:10358000002F03EB1023D8BF0127342005F0FF05DF
:1035900047437D43B5FBF3F04FF6FF71884288BF88
:1035A00008460AF3070AB08086F807A0B4714448B9
:1035B0000168B088316000211F2804D21F20B0802C
:1035C00004E04008491CB0F5007FFAD20F3800092A
:1035D00041EAC0013B480143C9F800100020C9F886
:1035E0000400BDE8F18F10B537480468A4B21CB3DD
:1035F0002C4801680A689047284991F907209042B1
:1036000005DA6FF07F029042B8BF1046C871888813
:10361000844210D32A4A13680A689A1A921C1F2AF5
:1036200088BF1F22241A5208D4402418B4F5803FC2
:1036300028BF4FF6FF748C8010BD2448006800B985
:10364000704730B522498A6802F04063B3F1406F99
:103650001FD0104B1C68A5071BD44C68A50718D4B5
:103660001C680968C1F303511C31090114F0050FEE
:1036700004D088420DD224F0050409E0814208D22A
:10368000100158BF44F00104500158BF44F0040435
:103690001C6030BD00000940301009404418002073
:1036A000FDFDA400EC010010B43F0050B812005022
:1036B0003C1100506E620840242208409C130050C8
:1036C0000820094000E7A480341009402850094030
:1036D000AC3F0050EFF3108072B67047EFF31080EC
:1036E00062B670470138FDD17047704710B50C18AD
:1036F000FFF7F0FF411E8941C90FDFF86024106811
:103700000028FCD024680123136009B1FFF7E6FF0D
:10371000204610BD38B5DFF848542878002400282A
:1037200002BFDFF84014887B00280CD0FEF7E0FED3
:103730000146A878002806BF0122AA700124084685
:10374000FEF7E6FE0CB1002032BD0220FFF770F854
:103750000E20FFF782F8DFF81014086808B1012086
:1037600032BDDFF808044022C26002600120C86157
:103770000020687032BD00002DE9F041DFF8EC1345
:1037800082B000200860DFF8E81301F1D804A07AC5
:10379000002837D00128DFF8DC53DFF8DC2332D1F2
:1037A000DFF8D81316684BF2F52046430868360A4E
:1037B000C0F3814001280BD1A86C0168884700F054
:1037C0003AFA00F053FA3509C010454306EBE536E6
:1037D000607B10B10021617306E0DFF8A40300688C
:1037E00020F07F4036187608DFF898030660360C24
:1037F000466001218160DFF86C13887B002849D086
:103800000521217348E0022809D11568284600F0F7
:103810000CF9A5F2FF55032D3CD308203BE003280B
:103820003AD1106801F1B806A0F5C0603168F061C6
:10383000002948BF4942002848BF40428142A8BFF2
:10384000002026DA7068D04F80B200900823D5F8A7
:1038500000C0DCF804804FF47F4230213846C04776
:10386000B06880B200901223D5F800C0DCF8048064
:103870004FF4F80204213846C047B06980B2009086
:103880000A232D686E684FF4406220213846B04705
:10389000012020700B202073BDE8F3412DE9F8438F
:1038A000DFF8CC82B94EDFF8E092B94CB94FAF489F
:1038B00008F1E105E9784A1E0B2A00F29280DFE860
:1038C00002F00630415F74415F74415F7B80316874
:1038D0000A68202090470F20E060072341F61D5022
:1038E00020614FF4C072022000900021D6F804C07D
:1038F000DCF804404846A04776684846D6F80C9065
:1039000007234FF4C0720021C8470120386002200D
:10391000E87008F17800BDE8F243FEF74DBEBDE85F
:10392000F1830120E061287800281DBF0021396162
:1039300003200620E870032020600020786078686B
:103940008107E6D470684668E878032808D1022128
:1039500000910523602200214846B04704200BE077
:10396000002000900523602200214846B047E878F7
:1039700006280CBF07200A20E87001207860C8E7FD
:10398000042903D12021A161012105E001220A2996
:10399000A2610CBF0321022169700021216008216E
:1039A000C160016001202060B9E705290CBF062035
:1039B0000920E8700020E1E70020386078600C20E2
:1039C000A6E7002101600120674908600E20FEF78C
:1039D000E0FE0220FEF7C7FE0120E8700020A8707C
:1039E0009DE7FEE762496B4891F8E420921E0A2A9F
:1039F0001AD8DFE802F0060A0E190A0E190A0E1983
:103A0000120002689107FCD548E741688A07FCD498
:103A1000FAE741688A07FCD5F6E702689107FCD40B
:103A200041688A07FCD4EFE7FEE7F8B50446564D37
:103A300030212846FFF75AFE4D4F07F1B806C0F374
:103A40000720706004212846FFF750FEC0F3844031
:103A5000B06020212846FFF749FEC0F38120B4F56D
:103A6000C064B061346003D1002087F8D800F1BD94
:103A7000316997F8D80028B97068B168F060F461CE
:103A8000B0697061F06900284CBF6FF0010202223A
:103A900000EB40001018421000EB927001EBA00107
:103AA0007268F260002912DC7069032805D111F1F7
:103AB000150211001EDA00211CE011F10B000100BB
:103AC000B8BF0021521E48BF0022F26007E01E2945
:103AD00012DD706928B915391E29C8BF1E210320BF
:103AE00009E00B391E29C8BF1E21521C3F2AC8BF3E
:103AF0003F22F26000207061316108231D4CF068A4
:103B000080B200904FF47F422768D7F804C030217C
:103B10002846E0470120009011232768D7F804C009
:103B20004FF4003204212846E047306980B200900B
:103B300012232768D7F804C04FF4F802042128465E
:103B4000E047706980B200902846246865680A23BF
:103B50004FF440622021A847F1BD000000800C40D6
:103B6000F5050020FCD4000004800C402C500C40D3
:103B700014050020A401001008400C40B43F005080
:103B8000102009403C600C4000A00C40A001001037
:103B900000400C4034600C403748006800F016B913
:103BA00010B5374C626D5368012103209847206897
:103BB000C16A88473349886010BD70B5304C616D6B
:103BC0000A680120904701281BD0A5692B48EE68A0
:103BD000002301223421B047A0B1FFF7DDFF2068A8
:103BE000C16A8847274B9A6827491C68D860A4EBAC
:103BF0009404801A4843000C1860A04238BF204645
:103C00001860012070BD38B51D4C626D53680021ED
:103C100003209847616D0A680120904708B1FFF7BB
:103C2000BBFF2068174DC16A88476860206E016835
:103C30008847286131BD10B501461448144B02680D
:103C40001B68100400161B394843C01000EB2240CB
:103C5000120601FB01F412161B06624361431B1698
:103C600000EBA220594300EBA14010BD00FB00F186
:103C7000C0EBA15000B270478000001000A00C40C3
:103C80008C0100103018002040420F0090130050AB
:103C9000A4100050DFF800F079AD011010B5044613
:103CA000034BFFF7F7FFA06800B1204610BD00BF2F
:103CB0003003002001488068704700BFC801002021
:103CC00038B504460D4600F040F8616A0D43656260
:103CD00000F03CF82046BDE83240FFF781B80170A3
:103CE0000A0A42700A0C090E8270C170001D7047EA
:103CF00062F30F2262F31F4200B500BF1300964625
:103D00009446103928BFA0E80C50FAD85FEA417CED
:103D100028BF0CC048BF40F8042BC90728BF20F8B3
:103D2000022B48BF00F8012B00BD0268531C036042
:103D30001170704700E005E0EFF31180202181F35E
:103D40001188704780F311887047F5E7FAE70000A3
:103D5000F2E7F7E70D49C20744BF01220A60820774
:103D600044BF4FF480720A60400744BF4FF4803074
:103D700008607047064AC30748BF1160830748BF01
:103D80005160400748BF916070470000042009401F
:103D900018200940DFF800F0E1BE011070B5FFF710
:103DA000C9FF094D0446A8680021FFF7F3FF064646
:103DB0006869861BA869B04238BF00262046FFF715
:103DC000BAFF304670BD00BF7801002070B50446D0
:103DD000FFF780FC451EAD41ED0F064E3068002810
:103DE000FCD0A047012131601DB1BDE87040FFF754
:103DF00075BC70BD00800C402DE9F0439FB081463A
:103E00002698DFF8CC8A8DF83B00174600201E4626
:103E100002910B900FF270144FF0FF350AE017F883
:103E2000011B0298C8470028029000F09A800B9866
:103E3000401C0B90387850B12528F0D1002000218B
:103E4000059006910790089109900A9103E00B985C
:103E50009EE041F0010117F8010F2028F9D0232836
:103E60000DD02B2804D02D2806D030280AD07AE097
:103E700041F0020189B2EEE741F00401FAE741F0B6
:103E80000801F7E741F01001F4E700200D9009E088
:103E90000D98404505DA00EB800302EB4302303A0F
:103EA0000D927F1C3A78A2F130000A28F0D33A78BC
:103EB0002E2A18BF0C9523D117F8010F2A2807D1F5
:103EC000306830607F1C50F8042B30600C9217E093
:103ED0002D280CBF17F8010B002000220C920AE0DD
:103EE00040B90C9A424505DA02EB820203EB420329
:103EF000303B0C937F1C3B78A3F130020A2AEFD3AE
:103F0000ADF838102046397800F062FE08B117F895
:103F1000010B8DF83A009DF83A00682804BF397803
:103F2000682903D162208DF83A0007E06C2804BFAD
:103F300038786C2803D171218DF83A107F1C10A8B5
:103F40000490324617F8013B6946484600F060F895
:103F500038B910AA6946484600F08CF900287FF568
:103F600069AF284614E02A288FD13068306050F8B5
:103F7000042B3060002A0D9204D5524241F0040116
:103F80000D9289B27F1C92E7686A6C747A4C0000CB
:103F90001FB0BDE8F083622820D0682811D06A28BD
:103FA00003D06C2827D0712825D10868C01D20F0C7
:103FB00007000860D0E90023083008601946104661
:103FC0007047002A0A680A60106803D0121D0A6050
:103FD00000B217E0121D0A6080B217E0002A0A68DA
:103FE0000A60106803D0121D0A6040B20AE0121D78
:103FF0000A60C0B20AE0002A0A680A60106803D0AA
:10400000121D0A60C1177047121D0A600021704717
:1040100070B51C460D46B4F125002E69114600F01E
:1040200017811C386AD0001F022867D9133843D083
:10403000093863D0801E16D0401E1ED0401E0228B4
:104040005CD9001F19D0401F00F08380401E33D080
:10405000401E00F0CD80C01E00F0D880801E2BD006
:10406000C01E29D0FAE06869421C6A610A680A60C9
:1040700052F8043B0A603354FAE095F83A00012202
:10408000FFF789FFC5E900010023994204DA686956
:10409000411C69612D210DE0288F810704D56869D5
:1040A000411C69612B2105E0C00722D56869411CCC
:1040B0006961202131541CE095F83A000022FFF795
:1040C0006AFFC5E9000195F83800010711D5D5E967
:1040D00000230020834208BF82420AD044F020001F
:1040E000782806D1686930213154401C411C69612F
:1040F0003454214668693044E86083E00868C01D94
:1041000020F007000860D0E9002308300860C5E906
:104110000023D5E90001C80F04D06869411C69611A
:104120002D210DE0288F810704D56869411C696144
:104130002B2105E0C00704D56869411C6961202175
:10414000315468693044E8602146284600F0C7F9D8
:104150008EE005F13A02507820B14FF0FF340FF6AF
:1041600010205EE01078622808D0682824D06A28E1
:1041700012D06C282ED071280ED02BE00A680A606D
:1041800052F8040B0A6020B94FF0FF340FF6F81014
:1041900047E0E96A01706BE00A680A6052F8040BB4
:1041A0000A6020B94FF0FF340FF6DC1039E0EA6AFC
:1041B000D317C0E900235BE00A680A6052F8040BD9
:1041C0000A6020B94FF0FF340FF6BC1029E0E96A0D
:1041D00001804DE00A680A6052F8040B0A6020B9B9
:1041E0004FF0FF340FF6A0101BE0E96A01603FE0DA
:1041F0000A680A6052F8040B0A600021C5E9000150
:10420000EE607821284600F0BCF831E008680860CC
:1042100050F8044B0860EC603CB94FF0FF340FF6E7
:10422000801000F0E1FC201A70BD2E6B002E04D52A
:10423000204600F0FBFC044608E032460021204600
:1042400000F010FD002814BF041B3446AC610FE0E1
:104250006869411C69612521315409E06869411C84
:10426000696125223254200002D0481C68617454D0
:10427000002070BD2DE9F0410F4682B00646796BF3
:104280007869BC6A091A386A091AB869091A786A19
:10429000091AF869091A97F838000C1B410790466B
:1042A0000FD42021002C8DF800100ADD25460123B3
:1042B0006A463946304600F044FC00285DD16D1E48
:1042C000F5D17B6942463946304600F03AFC002879
:1042D00053D130208DF800003D6A002D09DD012307
:1042E0006A463946304600F02CFC002845D16D1E48
:1042F000F5D1BB69FA683946304600F022FC002847
:104300003BD130208DF800007D6A002D08DD0123AF
:104310006A463946304600F014FC70BB6D1EF6D17B
:10432000F868B969FB6942183946304600F009FC63
:1043300018BB30208DF80000BD6A002D08DD012378
:104340006A463946304600F0FCFBB0B96D1EF6D126
:1043500097F8380041070DD52021002C8DF800106A
:1043600008DD01236A463946304600F0EAFB20B9F1
:10437000641EF6D10020BDE8F6814FF0FF30BDE8A5
:10438000F6812DE9FC4B06468B463469BBF16F0F75
:1043900008BF082505D04BF02001782914BF0A2555
:1043A00010253C27D6E90023BBF1640F18BFBBF1F1
:1043B000690F9046994606D100218B4203DAD8F165
:1043C000000869EB49090020814508BF80451FD1DD
:1043D000306BE8B9082D4ED196F8380001074AD560
:1043E00030203B2784F83B0045E000280ED596F8A6
:1043F000380000F01400102808D1726B7069121A8E
:10440000306A121A511A0029C8BF3162BDE8F38B15
:1044100001968DF800B0404649462A46EB1700F059
:104420004DFC30327F1ED2B23A2A04DB9DF80000E8
:10443000A0F151018A18E255404649462A46EB1739
:1044400000F03CFC894600228046914508BF90451B
:1044500004D00198C168E0198142DCD3082D019E87
:1044600009D196F83800010705D5E15D302902D061
:104470007F1E3020E055E019F060C7F13C01306B41
:10448000B1618142B1DA411A31624FF6EF70318F7A
:1044900001403187BDE8F38B2DE9D04306460F4636
:1044A00014464FF00008DFF82C9412E0E00707D51F
:1044B00042464B463046394600F078FC06460F46E9
:1044C0004046494642464B4600F070FC6410804628
:1044D0008946002CEAD130463946BDE8D0832DE923
:1044E000F04705468A468EB0D5E900894AF020009B
:1044F000612802AF00900AD0286B002802D5062060
:10450000286304E001BF0098672801212963D5E9E9
:10451000006460004015401C0DD121030BD0AAF1AE
:10452000610103201A29A86102D20FF2906110E004
:104530000FF28C610DE060004015401C0ED121038C
:104540000CD1AAF1610103201A29A86116D30FF238
:104550007861E8680322FEF7A7FDCBE124F0004371
:10456000B3F5801F26F0000211D20020834208BF5D
:104570008242019005D13046214612E00FF244619B
:10458000E7E701AA3046214600F0E2FC09E0D24804
:10459000D24900EB1350019004EA0102D0493046A1
:1045A0001143C5E90001009A612A0DD1E868302164
:1045B0000170811CE960BAF1610F0CBF78215821AC
:1045C00041706869801C6861D5E90023CDE90C233E
:1045D000DDE90C0121F0004100220023994204BFD3
:1045E0009042002000F04D810098612840F09C80AE
:1045F000286B00284CBF2120401C00904046009EA4
:10460000761C4946DDE90C8900F0DAFC01988DF84A
:10461000082038BF89F00049001F0190002E0DF1DD
:10462000090040F33C8107464046494600220023EA
:1046300000F0DEFC80F032814800400D00F11C02E9
:1046400011D0002A0FDD40F2FF70824205DBA54940
:1046500009F000400143002012E06FF31E5141EACF
:10466000025140460CE029F0004128F00000994238
:1046700008BF98420FBF49461C22494600F0D0FCB3
:104680008046894600F06AFDF61F002E044609DDCB
:1046900000F082FD02460B464046494600F08EFD82
:1046A00080468946F81D072104E004F00F0200F857
:1046B000012D2411002C01DD491EF6D5491E5CBFD9
:1046C000002200F8012DF9D5E4E00020194602AAE5
:1046D0000A4400E05B1E12F80149491E8442F9D0E9
:1046E0000F2804D10DF10900425C521C42540029EC
:1046F00004D50198001D02AF5B1C0190581E0CD41C
:104700003918AAF13A040A783032D2B2392AC8BF2D
:10471000A218401E01F80129F5D5286B002840F1A8
:10472000AF80591E2963ABE04046494600F048FC83
:10473000019938BF89F0004947F2975041436A4ACE
:1047400091FBF2F20192D2F1070204DD40464946A4
:10475000FFF7A2FE0AE0524200206449FFF79CFEE8
:1047600002460B464046494600F09AFD80460098B6
:104770005F4E6628286B06BF019C0A340624241865
:10478000142CC8BF142430208DF8080089460DF180
:10479000090000E03846002C34DD07464046494613
:1047A00000F0A2FE01460A4607F1080304200A278A
:1047B000B2FBF7F707EB870EA2EB4E02303203F89D
:1047C000012C0A22B7FBF2F202EB820EA7EB4E0796
:1047D0003037401E03F8027DE9D1083C002C03F17C
:1047E0000807D7DD084600F093FE02460B46404618
:1047F000494600F0E3FC0022334600F0D7FA804639
:104800008946CBE70DF10901401A0DF1090704E0D3
:104810000199491E401E01917F1C39783029F7D03B
:10482000009A662A02D10199491C03E0652A0CBF4F
:10483000012100212B6BCB189842B8BF431E002BDF
:104840001ED4834204DAF85C3528A8BF392000DA88
:10485000302019467A1E02EB010800E05B1E18F8B2
:104860000199491E8145F9D0392802D1785C401C54
:104870007854002904D50198401C17465B1C019010
:10488000019800B200901BB23A465146284600F00B
:1048900034F82FE0C71D002E3FF7C6AE38460DF1A5
:1048A0000901401A009903468842C8BF0B46002BF5
:1048B0000DF109073FF531AF8342BFF606AF0DF1A9
:1048C0000900C05C07287FF700AF0F20FEE600005C
:1048D000CBCCCC0C0000244002FCFFFFFFFF0F807C
:1048E0000000E03F0000F07FA08601000000F03FE4
:1048F00084D797410EB0BDE8F0872DE9F046064613
:1049000085B01C46376B002C914602DC01240FF267
:10491000BC298A46BDF930504AF02000662808BFFD
:104920006D1C12D0672878D115F1040F7BDBBD42D6
:1049300079DA96F838006D1C010702D4BC42B8BF82
:1049400027462DB27F1B48BF00272DB2F068B16902
:10495000002D23DC4A1C30234354002F03DC96F83F
:104960003800010703D5F0682E218154521CEF4214
:10497000B8BF7D422DB26842ED19A542B8BF2C46A2
:10498000B261706224B2F461F068B36922464946AC
:104990001844FEF789FB281BB062BBE02A4694420C
:1049A000084416DA22464946FEF77EFBB069201815
:1049B000B0612C1B002F746203DC96F838100A07D4
:1049C00005D5F1682E220A54F069401CF061B762E7
:1049D000A0E04946FEF768FBB0692818641B002F69
:1049E00003DC96F838100A0703D5F1682E220A5422
:1049F000401CB06124B2A742B8BF3C46F068B3691E
:104A000024B2224609EB05011844FEF74DFBB069BC
:104A10002018B0613C1B74627CE0BAF1610F14D1C4
:104A20004FF0700A16E0BC4204DA96F838100A0714
:104A300058BF27467F1E48BF0027BAF1670F14BF33
:104A40004FF0450A4FF0650A04E0BAF1410F08BF84
:104A50004FF0500AB169F368481CB061002F19F893
:104A6000012B5A5403DC96F838100A0717D5F26860
:104A7000431CB3612E211154002F10DD641E24B29B
:104A8000A742B8BF3C46F06824B2224649461844C3
:104A9000FEF70AFBB0692018B0613F1B7762F0682F
:104AA000B1690844002D80F800A003D42B21417087
:104AB000811C03E02D2141706D42811C00206A465B
:104AC0000AE02B460A2493FBF4F505EB8504A3EBDF
:104AD000440302F8013B401C2DB2002DF1DC0128FB
:104AE00006DC4AF02002652A04BF302201F8012BBF
:104AF00048B9302001F8010B07E0401E1DF80020E6
:104B0000303201F8012B0028F7DCF068B26910445C
:104B1000091AF16196F8380000F0140010280DD140
:104B20007169B0694118706A4118F0694118B06A3A
:104B30004118706B8142BCBF411A316205B0BDE8BB
:104B4000F086F8B505460E4617461C46002074B19F
:104B500017F8011BB068A847B06030B1F06A401C7C
:104B6000F0620020641EF3D1F2BD4FF0FF30F2BDC1
:104B70007072696E74665F733A20256E2064697383
:104B8000616C6C6F776564007072696E74663A2050
:104B900062616420256E20617267756D656E7400B8
:104BA0007072696E74665F733A2062616420257367
:104BB00020617267756D656E740000006E616E0035
:104BC0004E414E00696E6600494E46003000FF7F40
:104BD0000278C9B28A421AB11CBF10F8012FF9E756
:104BE00018BF00207047004080B508B90FF21C00C4
:104BF00005490B681BB122220021984701E000F013
:104C000099FC222002BD0000DC1C0020636F6E7343
:104C1000747261696E742068616E646C65723A20AA
:104C2000626164206D6573736167650000F1010363
:104C3000810704D010F8011B89B18107FAD10268FD
:104C4000B2F10131914311F0803F04BF50F8042FBD
:104C5000F6E710F8011B11B110F8011BFBE7C01AB1
:104C600070470028C9B2830706D0521E22D310F81D
:104C7000013B9942F7D11FE0083A13D302F1040235
:104C800041EA012141EA014150F8043B121F21BFD2
:104C90004B40A3F1013C2CEA030C1CF0803FF3D005
:104CA000C9B2001F083210F8013B521E28BF91EA1A
:104CB000030FF8D818BF0120401E70471B4213D1C4
:104CC000094236D12AB18446B0FBF2F002FB10C291
:104CD000704700F033BCFCD30022002370470B0068
:104CE0000200002100207047904271EB030CF6D3C4
:104CF00070B5B1FA81F4B3FA83F52C1BA340C4F16B
:104D0000200532FA05F63343A2405FF00046E64044
:104D100002E05B085FEA3202841A71EB030524BFEC
:104D2000204629467641F4D302000B0030000021D2
:104D300070BD012ACFD970B5140C20D0B1FA81F41E
:104D4000B2FA82F5C4F120046419B4F12006D6D376
:104D5000B2405FF00044F440002502E052085FEAF0
:104D60003303C61A71EB020E24BF3046714664410C
:104D70006D41F3D302000B002000290070BD0C46EA
:104D8000B1FBF2F102FB11452D0445EA1045B5FBDC
:104D9000F2F402FB145580B240EA0545B5FBF2F08F
:104DA00002FB105240EA044070BD0128B0B581EA10
:104DB000030C0CF0004C40F2FF7515EA11541DBFB6
:104DC00015EA1357AC42AF4239E0E41923EA4553E0
:104DD00043F48013C90241F0004141EA505EC7022A
:104DE0001100A7FB020200284FF00000EEFB01209B
:104DF0004FF00001E3FB072118BF42F00102401809
:104E000000214941E3FB0E01A4F580640F0302D2A7
:104E100052004041494154F101046CDD470872F1F0
:104E2000004250F1000051EB0451A1F580115CBF2C
:104E300041EA0C01B0BD4CEA05510020B0BD05EAC5
:104E40001357AC4214BFAF4241E050EA410E1CBFC1
:104E500052EA430E02E061460020B0BD24423C44C9
:104E60001BD15FEA070EF6D0090302BF01460020FE
:104E7000AEF1140EB1FA81F7AEEB070401FA07FEAA
:104E80000C37C7F1200100FA07F7C8404EEA000EC0
:104E900023EA455343F48013A2E733F00043B3FA07
:104EA00083F704BFB2FA82FE77440B3FE41BB7F1ED
:104EB000200E2FBF02FA0EF3BB40C7F1200E22FADC
:104EC0000EFE38BF43EA0E03BA40641C82E750EA84
:104ED000410E14BF52EA430E6FF000014FF4001769
:104EE00017EB430F8ABF194617EB410FB5E74CEAA2
:104EF00005510020B0BDD4F10104B4F120070FDA50
:104F0000C4F12007520828BF42F0010210FA07F549
:104F100001FA07F7E1BF2A43E0403843E1400FE0E0
:104F2000352C98DCC7F1200452EA400220FA07F23F
:104F300018BF42F0010231FA07F0A1400A430021F4
:104F400072F1004250F1000051EB0C01B0BD03289A
:104F500010B5144600F002F8226010BDC1F30A53E8
:104F600043B14A0012F5001F28D2A3F2FE32A1EB92
:104F70000251704750EA410C20D001F0004C31EA58
:104F80000C01B1FA81F204BFB0FA80F3D2180B3AE7
:104F9000B2F120032CBF00FA03F1914041EA0C0169
:104FA0003EBFC2F1200C20FA0CF31943904052424C
:104FB00040F2FD33D21A01EB0351704700227047D3
:104FC0004FF4001C1CEB410F94BF1CEB430F09E096
:104FD00041EA030C50EA4C0C52EA0C0C03D2994201
:104FE00008BF9042704714BF8B4282427047052A27
:104FF0004FF4001C1CEB410F94BF1CEB430F09E066
:1050000041EA030C50EA4C0C52EA0C0C03D28B42DE
:1050100008BF8242704714BF9942904270470A0508
:10502000124254D440F2FF7C1CEA11530FD0634566
:1050300031D09B1863453CBF01EB0251704701F032
:10504000004141EA0C510020AFF30080704750EA64
:10505000410320D001F0004C91EA0C011CD0B1FAC0
:1050600081F30B3B9A420DD9D21A994051EA0C01B7
:10507000C3F1200C20FA0CFC61449840531C40F210
:10508000FF7CD7E7914041EA0C01C2F1200C20FAE5
:105090000CF3194390407047B0FA80F31533202B7E
:1050A000E0D3202AEED3203A203B9A4209D9D21AE3
:1050B00000FA03F141EA0C010020531C40F2FF7C8E
:1050C000B8E700FA02F141EA0C01002070475242B1
:1050D00040F2FF7C1CEA11530DD06345DBD0B2EBEC
:1050E000030C3CBFA1EB025170470CF1010221EA15
:1050F000035141F4801150EA410CCCD001F0004C36
:10510000352A27DC30B481EA0C01B2F1200309DA38
:10511000C2F12003044601FA03F5D0402843D140F0
:105120009C400CE0C3F12002450020FA03F418BFB4
:1051300044F0010421FA03F091400C43002174F182
:10514000004550F1000051EB0C01244230BC7FF4CB
:105150007BAF70476146002076E70603C1F30A5330
:1051600040F2FE329B1A14DDD3F120034FEAE172C4
:1051700008DDC90241EA505141F00040D840801892
:105180005040704703F2E13010B1D24382F000404A
:105190007047002070470201C11768B14840401AAB
:1051A000B0FA80F29040D21CC907C2F5846241EA8D
:1051B000025202EBD02140057047000070B44FF05E
:1051C000004591EA030F40F1BB816B40841A71EBFB
:1051D000030603D2001BB141121973414FF4001CA6
:1051E0001CEB410F34BF7CEB430442E00C0DA4EBFD
:1051F0001356352E4FDC45EAC323DB0A45EAC121AD
:10520000C912B6F120050DDD63FA05F6EB4086EA1A
:105210000305124218BF45F00105C01851F1000105
:105220000CD213E062FA06F5F2405540F3415A40C1
:10523000B340F3405A408018594107D349085FEA08
:1052400030005FEA350528BF45F0010501F5801102
:10525000420875F1004250F1000041EB04514E004C
:1052600016F5001F70BC38BF70470020090D0905F6
:1052700070471CEB410F10D252EA43060BD0BCEB37
:10528000410F05D80C0DAB43661E342EB6DD02E08F
:10529000AB438018594170BC704770BC7047000028
:1052A000F0B540F2FF7581EA030C0CF0004C15EAF2
:1052B00011541DBF15EA1357AC42AF42E5E0BC41A3
:1052C000C1F31301C3F31303801A994143F480130C
:1052D00004D2641E4000494180185941C90241EA84
:1052E0005051B1FBF3F603FB1611A2FB0675D7EB89
:1052F000C020A94102D2761E80185941C90241EA54
:105300005051B1FBF3FE03FB1E11A2FB0E75D7EB50
:10531000C020A94103D2AEF1010E80185941890283
:1053200041EA9051760546EA8E2EB1FBF3F603FB77
:105330001611A2FB0675D7EB8020A94102D2761E7A
:1053400080185941C90241EA50514EEA060EB1FB9C
:10535000F3F603FB1611A2FB0675D7EBC020A9419B
:1053600002D2761E80185941C90241EA5051B1FB60
:10537000F3F703FB1711A2FB0735D3EBC020A941BC
:1053800067F100070CBF004247F0010766F3D5271D
:105390004FEA1E31B80814F5806412DDBD0775F1BF
:1053A000004250EB0E5051EB045111F5801F5CBFD1
:1053B00041EA0C01F0BD4CF07F6141F0E04100207A
:1053C000F0BDBD076D0840EA0E5041F48011D4F1E4
:1053D0000104B4F120060ADAC4F120060200E0401C
:1053E00001FA06F3E1401843B24015430EE0342CB5
:1053F00013DCC6F1200445EA40056D0820FA06F2E8
:10540000154321FA06F0A1400D43002175F1004239
:1054100050F1000051EB0C01F0BD00205FEA0C01DF
:10542000F0BDCFB992185B41B3FA83F704BFB2FA6B
:1054300082F6BF190B3FB7F120062FBF02FA06F321
:10544000BB40C7F1200622FA06F638BF3343BA4004
:105450001CB1E419641E33E77F4231F00041B1FA18
:1054600081F404BFB0FA80F6A4190B3CB4F1200615
:105470002FBF00FA06F1A140C4F1200620FA06F67B
:1054800038BF3143A0403C1B1AE7AC421ABF05EAC3
:105490001357AF4212E050EA41061CBF52EA4306DE
:1054A000BFE750EA4107304661461CBF41EA05515B
:1054B000F0BD52EA430C08BFC143F0BD00204FF4D9
:1054C000001616EB410F98BF16EB430F08BF16EB03
:1054D000410F24BFC14305E016EB430F0CBF6146EB
:1054E0004CEA0551F0BDFEE7400D491840EA812025
:1054F0000CD2490DA1F58061491C40F0004005DB4C
:10550000D1F11F0154BFC840C01770470020704739
:10551000014648B1B0FA80F18840C91CC1F58461E8
:10552000090501EBD021400570470000DFF800F0CD
:105530001D9A01100120FFF7F9BF00007047704766
:10554000841A71EB030604D26E40001BB14112199C
:1055500073414FF4001C1CEB410F34BF7CEB43063E
:1055600082E00C0DA4EB1356362E7BDC012E45EAAF
:10557000C32341DC43EA525312BFD20292025B08BA
:10558000240545EAC12141EA5051D2EBC02099419E
:1055900025D407D1B0FA80F610FA06F162D00020C7
:1055A000203608E0B1FA81F6B140C6F1200220FAB7
:1055B00002F21143B0404FEAF474B4EB465434F0B5
:1055C00001064FEA74040AD8D6F50016760D04F0E9
:1055D0000044F04061FA06F25040F1404840C00AF1
:1055E00040EA415021F0004128BF5FEA500550F1E8
:1055F000000044EBD12135E0DB0A45EAC121C90AAC
:10560000B6F120050EDD42EA0242120CC5F1200679
:1056100003FA06F6EB4042EA06056D42984161F155
:1056200000010DE062FA06F5F240554063FA06FC0F
:1056300082EA0C02F3405A406D42904161EB030153
:1056400011F4801F05D1641E620502D06D00404137
:10565000494121F48011430875F1004350F10000E5
:1056600041EB045170BC70471CEB410F15D223F085
:10567000004352EA43060BD04FEA4C0CBCEB410FFF
:1056800004D80C0D661E342EB7DDEBE7801A994165
:1056900050EA410608BF0021E4E708BF1CEB430FB6
:1056A00028BF6FF00001DDE7DFF800F01D6E01108C
:1056B000DFF800F04D71011080B54FF4FC720FF26D
:1056C00078011A48FDF700FD0121194841740022B4
:1056D00002210270C17601BD2DE9F0410FF2502286
:1056E00014493820136854689568D6681769D2F849
:1056F00014C0D2F818E0D2F81C800B604C608D60AA
:10570000CE600F61C1F814C0C1F818E0C1F81C8068
:1057100020322031401EE5D150689368D468126869
:105720000A6048608B60CC60BDE8F08148040021CD
:105730005903002100C00021410500217D05002101
:105740002D06002170B51D46004C204787B2000091
:1057500010B5014800470000D509000070B5614C44
:105760006148254650358047022809D14034E188F8
:105770005E4A914204D1E97C890601D4911DE18001
:1057800070BD70B557495A4A084650300378002B0F
:1057900010D08379012B0DD1037C5B09DB0709D085
:1057A000097D544DC1746C7F202020436877904759
:1057B0006C7770BDFF21C174904770BD10B54E4825
:1057C000484C804702280ED121464031CA88474BB9
:1057D0009A4208D1CA7C5209D20704D0227D92068F
:1057E00001D49A1DCA8010BD70B53E48434940306F
:1057F000C07C4009C00707D03E4D41482C8B204358
:10580000288388472C8370BD884770BD10B53B48FE
:10581000344CAC388047214653310A789309DB0772
:1058200005D04034A2730A7803231A430A7010BDCE
:105830002C4940310871182812D004DC0A280BD0FA
:105840000B2804D10AE025280CD02A280CD02D4999
:1058500080004018C06870472B4870472B4870473D
:105860002B4870472B4870472B48704770B504464B
:105870001C484E252D5CAE09F60716D0067D300774
:10588000000F052803D00120054202D00DE00220C0
:10589000FAE7E80905D0700603D54868800F0128AB
:1058A00003D05B085B0052085200062B03D0102087
:1058B000022B11D011E0FB20024002232046FFF70B
:1058C00041FF002807DAC100611A2039497E1422FD
:1058D000114200D1002070BD024303432046FFF770
:1058E00031FF70BD4401002137CB000004140000DB
:1058F000EBC80000A8000021F5B4000053AD000083
:105900002020000080DF00001D050021F904002197
:10591000CD040021930400216D04002110B5034C37
:10592000FFF716FF20680028FAD110BD00110440CF
:1059300068610000F825F965F975450045004500E6
:105940002600260057A3520052004C00401F401F63
:10595000401F3F0000000000304000400140034075
:1059600007400F404F40CF40CF41CF43CF47CF4FAD
:10597000CF3FCF2FCF1FCF0F00000000000000004F
:1059800000000F00080000003F00000040003F0042
:105990000000040068000E00DC00060043001A004E
:1059A00005000000000002000000000000000000F0
:1059B0000400C00000000400C00000000700000058
:1059C00000000000000000000000000000000000D7
:1059D000304000400140034007400F404F40CF405F
:1059E000CF7FCF6FCF5FCF4FCF3FCF2FCF1FCF0F07
:1059F000000000000000000050C00091007070C066
:105A00000091007082312100319110B1007001814C
:105A100001B100A18231329110B101911110418187
:105A200041227740F106007051C0019130181039C1
:105A3000833108D01831416F3100319110B1831496
:105A4000141683680070251050C00091F4C340C143
:105A50002014036F311041045082F02298405126E7
:105A600022C082312100319110B1633931104104DB
:105A700082C082312100319110B163393110A2C04E
:105A800082312100319110B1501015310514059269
:105A90000070676452C0311031066131C1026A641E
:105AA00012C13110213971065131E1026A6400706E
:105AB00051C0019101CCE2C06A64676411C1C2C0E7
:105AC0006A6450B054B0007140804022D644002235
:105AD000C94060B08180111EC944007054A064B0F8
:105AE000F0800022C9404012B09032B070C1DF682F
:105AF00011C122C16A6470C1E46851C00191E2C061
:105B0000823160820200329110B130C2EE6853825D
:105B100053395339B16460C3F4688012B09032B025
:105B20000070676401C122C16A6401C1C2C06A64B5
:105B30005382B164C012B09032B00070676472C218
:105B400081C06A6422C111C16A6402C011C16A6461
:105B500062C031C36A6462C311C16A6402C311C105
:105B60006A6453825339B164E2C36F6411221C41E9
:105B700042C281C86A6452C211C16A6472C2E1CE73
:105B80006A6402C281C86A6402C201C86A64B0C0A1
:105B900030690070676442C201C86A6452C211C0B1
:105BA0006A6472C2E1C06A6402C001C16A6462C010
:105BB00001C36A6422C101C16A6462C301C16A642B
:105BC00002C301C16A645382B16400708180111EF6
:105BD0005C4150B054B00071408040225D4154A0FF
:105BE00064B0F1800122514500700022514160B043
:105BF0004E610000000000000000000000000000F6
:105C0000067305720B720E7250B00071818060B025
:105C100050A09280F0EFF19202936A6741228C4586
:105C20008080F1C11004301601110114016CB561BE
:105C3000B661B761B861B961BA61BB61BD61BF618D
:105C4000C161C36126632D63F0C002043231412A71
:105C50001214321601112114016CDA61C561E06180
:105C6000C761CB61B561B561B561F461C561FA61C8
:105C7000C761CB61B561B561B561F461C561FA61B8
:105C8000C761CB61B561B561B561E761C561ED61C2
:105C9000C761CB61B561B561B561CF61CF61CF61DE
:105CA000CF61CF61CF61C064CF61F964CF61066518
:105CB000CF613265CF617467CF611166CF61C06417
:105CC0004E65F964CF61066511663265CF618280E9
:105CD000E0DFF2926A67B0B0D661B1B006730572C8
:105CE00030B06C61D0CF6A6784C203C0C0C37C642B
:105CF000207851788278E3781579B6780062C0CF41
:105D00006A6784C203C0C0C37C64307861789278CB
:105D1000F3781579C6780062B0CF6A6784C203C091
:105D2000C0C37C6440787178A27803791579D678FD
:105D300010922192329243925492659256911FC0D2
:105D4000FF914039F0060110103110140092706775
:105D5000CF61E3B054A0F08050221A464080002268
:105D6000BE461262E3A000C86091598150B0918094
:105D700041228E46A0CF6A6712828231823942392F
:105D80008B641282F2062F101F312F141682D62236
:105D9000334640C1346200C520140D6F6D39DE10EA
:105DA000F4C34E0482C082312E006D39A2C082310C
:105DB0002D001A828A39FA062082803180390BC080
:105DC0000B18BC10AC18038239149B141082F00617
:105DD000011010311014518110140C14C622C94640
:105DE00031D0C1266462021011C0013010C0011808
:105DF000021882312100C126919103B013B063B023
:105E000053B041800122BE46B481C491D581B51CF6
:105E1000774E95186591F080102269428C623D9111
:105E200010B13E9110B1E08000228146E62281420D
:105E3000E0B0951865910F925981F914F0805022C5
:105E4000114210228C464D6390CF6A6763B052A016
:105E50003082F2C02004021011C0013010C00118BD
:105E6000021882312100C1269191919113B003B0A3
:105E700063B053B064B054B0007141800122BE469B
:105E800063B064B0F08050221142B181C191D181E0
:105E90009118619131B0A4622967E0A0598105820F
:105EA000591480C0007163B0BA6A6962E3A00182CC
:105EB00062818231823D80EFF19202936A6703A092
:105EC000007037824739873930828039F0060210F6
:105ED00011C0013010C00118021882312100C12602
:105EE000819102B012B030824039F006021011C028
:105EF000013010C00118021882312100C126919191
:105F000003B013B063B053B0007153A062B052B08D
:105F100041800122BE46A481C491D581B51CFE4EAC
:105F200095186591F0801022F0428C62B481C49182
:105F3000D4814518751C084FF0801022F0428C6205
:105F40003D9110B13E9110B1E08000221247E6224F
:105F50001243E0B065910F925981F914F0805022FC
:105F6000114210228C4630632967E0A059810582D6
:105F70005914F0C0007162B0226BF062A2808B6491
:105F8000CF6112824239F2068B6050B00071CF614E
:105F900070CF6A67408241800122BE46A481C491CD
:105FA000D58195186591F18011228C46336B418023
:105FB0000122BE46A481C491D581C51C1C4B9518F5
:105FC0006591F08010223F438C6260CF6A67408207
:105FD00041800122BE46B481C491D5819518659156
:105FE000F18011228C46506B41800122BE46B48163
:105FF000C491D581C51CB44A95186591F0801022D2
:106000005C438C62E092D08200226B47C0B2007089
:10601000A080F022874330B002C1623101C0A0806D
:10602000001E8043F022814380F860316039816333
:106030002010101A136F236E11161216826B007047
:106040002DE9F84FDFF8BC92AF4989F80000002035
:1060500008600921AD4801700D2141804FF408719D
:106060008180AB48AB4901608A7EAB480270FF2A51
:10607000CB7E437008BFFF2B0C7F84704E7FC670B1
:106080008D7F0571C97F417114D1FF2C08BFFF2E90
:1060900010D1FF2D08BFFF290CD1A0490A7802704A
:1060A0004A7842708A788270CA78C2700A7902711E
:1060B000497941719A490278DFF868A2DFF868B23D
:1060C0000A70FF2642784A7082788A70C278CA7055
:1060D00002790A714079954A48718AF800608AF815
:1060E00001608AF802608AF803608AF804608AF81E
:1060F000056000208E490880DBF834408D496078C7
:10610000087021781170A0788B490870616908794E
:106110008A49421E0A70E07889490870A069894955
:10612000086008B900F026F9206A8749086008B9B4
:1061300000F020F9606A8549086008B900F01AF992
:10614000DFF80C82834C98F8040000F029F92060F5
:1061500000283ED098F805007F4D00F021F9286016
:1061600008B9206832E098F806007C4F00F018F972
:10617000386020B9206800F01BF9286826E098F8FC
:10618000070000F00DF97649086038B9206800F082
:106190000FF9286800F00CF9386817E063490A78AD
:1061A00098F80000921C504380B200F0F9F86D4955
:1061B0008860216890B9084600F0FAF8286800F075
:1061C000F7F8386800F0F4F86548006800F0F0F877
:1061D000002000F0CFF84FF480418DE001200871DD
:1061E0002068067321684E73206886732168CE7319
:1061F00020680674002021684E742268D072A022A4
:106200002168487103212068C2800172072021683B
:106210004872002022689072282120684182012162
:10622000C176002021684877226882F85E0001204C
:1062300021680877226882F85D002968087128685B
:10624000067329684E73286886732968CE73286898
:106250000674002029684E742A68D0722968487133
:106260002A6890724FF4207029680022C880088143
:106270008A7401212A68D17439680E733A6856739A
:1062800039688E733A68D67339680E7400213A689B
:1062900056743B68D97201213A68117100213B683C
:1062A00059713968C88008810020887239688874FB
:1062B00005203A68D0742C480168884723490A6849
:1062C00006461068804721490A6852F8043F0020BA
:1062D0009847DBF80C101A4B0A88187823490243B8
:1062E0000A80304622490A6890475046FFF7DCF999
:1062F000FFF7DEF94FF4005199F80000BDE8F44FC4
:1063000000F05EB86E4F0020044F0020604E002069
:10631000084F0020B63F00502C4E0020E8120050DD
:106320003C4E0020344E002024E600007B4F00202D
:106330000C4F00206D4F00206B4F0020724F00204B
:106340006C4F0020F04E0020F84E0020FC4E002044
:1063500098060020104F002098180020184F0020A9
:106360009C180020181B0020A0020020544F002081
:10637000A402002080B5010002BF06490A78012A64
:1063800004D00549054A097813689847BDE80140DB
:1063900000F07CB8B0060020F71C00205806002052
:1063A00002490A6852F8343F184700BF5C180020C1
:1063B00002490A6852F8383F184700BF5C180020AD
:1063C0002DE9F04180462A482A4D06785FEA0860A8
:1063D0000F4632D5042000F05AF8040008BF04200C
:1063E00043D04FF6FF702080678000F063F82249A9
:1063F000FF280FBF4E78C96836188E5DFF2EA4F1B6
:106400000C0707D1204600F05BF8286850F8081FF9
:10641000884710E0404600F0D0F8FF21B9720146ED
:106420002D68D5F80080234600223046C047E0B1F1
:10643000204600F045F8012017E0B04514D20F487F
:10644000016888470E49096831F81820174321F878
:1064500018700C490A68904729680B4851F8242F96
:1064600000689047002000E00320BDE8F08100BFF5
:10647000476600005C18002038060020A0020020BB
:106480004C180020A402002020180020704710B5EE
:10649000040001D1002010BD04F10C0080B2FFF710
:1064A0007FFF28B1002101600481FF2181720C303F
:1064B00010BD704701480078704700BF38060020C3
:1064C00080B508B9052002BD10F8021CFF2901D0D3
:1064D000042002BD0C38FFF76BFF002002BD70479F
:1064E0002DE9F04182B004460E469046FFF7E2FFE8
:1064F0004649FF2808BF4F7804D0CA68444B197832
:106500000818175C434DFF2F04D1286850F8081F66
:10651000884713E0304600F050F80146FF2008F8A5
:10652000020C20002E680CD156F83C4F4346002246
:106530003846A04770B14046FFF7C2FF0120BDE8D2
:10654000F681012CF7D13468434600223846A04733
:106550000028F0D10020F2E770B50C000646154681
:1065600018D0300602D500F034F89047284A117848
:106570008E4204D32046FFF7A3FF032070BDA4F191
:106580000C010868002804BF8A7AFF2A04D020463C
:10659000FFF796FF052070BD8E72012D1E48214623
:1065A00002D100F051F801E000F062F84FF4004130
:1065B0003046FFF705FF002070BD10B580F0800465
:1065C000022C02DB00F005F8904710482044807848
:1065D00010BD1048016851F8082F704738B50446BF
:1065E0000E4801688847094905468868844206D1F3
:1065F00008490B480A68006852F8243F984709493F
:106600000A682846BDE832401047000038060020DE
:10661000476600005C18002014180020A00200202B
:1066200020180020A402002080B5020606D50A46E4
:1066300001460120FFF754FFC0B202BDBDE808408B
:106640000022FFF789BF000538B5044606480D460D
:1066500001688847216845F80C1C256003490A68D1
:10666000BDE83240104700BFA0020020A402002075
:1066700038B504460B480D4601688847002145F8A7
:106680000C1C226812B9256006E00A4652F80C1C60
:106690000029FAD142F80C5C03490A68BDE832408F
:1066A000104700BFA0020020A4020020F11C00201F
:1066B000F41C0020F31C0020F51C0020F21C00201C
:1066C00024E60000181B002098060020624C000001
:1066D000AA4D0000EE4F00004E4F0000A1630000E5
:1066E000B163000091D8000061AF0000E5EF000049
:1066F000C1C600008F640000C1640000296600006C
:1067000025D80000C1630000F1E4000089EB00001F
:10671000DF3C00009F31000005EE000061C2000078
:10672000C5C50000E9E50000FDC50000E1EE000080
:1067300049BC0000BDF10000EDF0000015DF0000D5
:1067400035DB00008D64000075630000F1A70010C8
:1067500091BB0010A5BC00108DBA001075A80010E8
:1067600021F10000EDBC0010B9A90010F1A9001042
:106770002DF10000B1BA001005AB00101DA90010EA
:106780004594011079BD001051BD001021BE0010CC
:1067900039A800107DA9001039F10000FDA70010F4
:1067A0002DBC0010C1DE000021AE0010A9AF00100A
:1067B0008DAF001089AB001079B00010BDB0001093
:1067C00041AC001081AC001009AC0010E5AB00102A
:1067D00061AC0010F949001071BE0010955F001007
:1067E000D9490010615F001049C7001079520010AC
:1067F000FD5A0010855E0010BD4B0010FDD6000054
:1068000035CB00102DBD000059B50000154D00100E
:1068100095C6001001CA001069CA0010B55A0010D0
:10682000615A001021C90010954A0010DDF00000E7
