:020000040000FA
:1000000000440020F5F7000001C9011001C90110EA
:1000100001C9011001C9011001C9011001C9011074
:1000200001C9011001C9011001C9011001C9011064
:1000300001C9011001C901103FC9011000000000F1
:1000400000000000000000000000000000000000B0
:1000500000000000000000000000000000000000A0
:100060000000000000000000000000000000000090
:100070000000000000000000000000000000000080
:10100000B41200001810000015AB0110FDB3011060
:101010006DC00110FDAE011099B501100000000077
:10102000000000002D000000B01200003C10000085
:10103000B1C00110A9BF011067C0011069B801104B
:10104000000000000000000030000000B0120000AE
:1010500060100000BDC00110CDB30110D9BD01105A
:101060006DB301100000000000000000310000001E
:1010700000000000DC070020040000000000000069
:101080000000000020000000E4F00000300000003C
:1010900028100000FC0700200400000000000000F1
:1010A000000000000C00000034F7000018000000F1
:1010B0004C100000040800200400000000000000A4
:1010C00000000000240000004CF7000018000000A1
:1010D00000000000440800200400000000000000A0
:1010E0000000000010000000B4F100002C0000001F
:1010F0000010000060080020040000000000000054
:10110000000000002000000010F400002400000097
:10111000FFFFFFFF6808002004000000000000003F
:10112000000000002800000034F40000240000004B
:10113000FFFFFFFF900800200400000000000000F7
:10114000000000001400000064F700001800000018
:10115000FFFFFFFF980800200400000000000000CF
:10116000000000005800000028EF000034000000DC
:10117000FFFFFFFFA00800200400000000000000A7
:1011800000000000100000007CF7000018000000C4
:10119000FFFFFFFFA808002004000000000000007F
:1011A000000000001C00000058F4000024000000B3
:1011B000FFFFFFFFB0080020040000000000000057
:1011C000000000003800000000F3000028000000CC
:1011D000FFFFFFFF180900200400000000000000CE
:1011E000000000005400000064EC00003C0000001F
:1011F0000100000054F900000100000000000E0092
:1012000000000F003200000001000000E407002091
:10121000000200000000000001C9011000000000F1
:101220000000000008000000000022000C08002060
:10123000000000000000000008000000700800200E
:101240000000000000000000080000000000000096
:10125000000000000000000000000000010000008D
:10126000B80800200600000001000000200900204E
:10127000000000000000000000020000000000006C
:10128000290001002500300031002D00010001007F
:10129000040000005CF800000000000000000000F6
:1012A000000001000000030013C40110D5B90000C4
:1012B000B8120000B812000000000000540800201E
:1012C00075B80000200000000CF8000028F30000B2
:1012D00029C10110776F00001F790000A1C701101C
:1012E000A3C70110000000007A8D00009CEA0000F6
:1012F000B4EA000084EA00000200090001000000D6
:1013000001000000CDF20000A1F2000041F6000053
:1013100095EF0000B3F00000CDEA000095E6000074
:10132000ADF70000EDB700000DBA000011BA0000E3
:1013300038B5054601F0DCF82C680CB1216829604D
:1013400001F0E6F8204632BD70B505460E462C6821
:10135000002030601CB901F0CBF82E600DE001F0E8
:10136000C7F800E0246821680029FBD1B44203D10A
:1013700001F0CEF8002070BD266001F0C9F8012010
:1013800070BD10B501460022DFF8500B00EB421093
:10139000C37F1C0603D5B0F91C308B4203D0521C0E
:1013A000082AF1DB002010BD38B504281DD1DFF874
:1013B000CC4A04F1EC05284601F0F2F8A8B1284621
:1013C00001F0ECF8DFF8B81A0A68504364280CD230
:1013D000284601F0F3F8052001F02AFA0120E07711
:1013E000042104F14C0001F03FFD002032BD70B536
:1013F000044601F07DF8DFF88C1A0546887D00B3BD
:10140000401E8875C0B2E0B9DFF8706A082100F0AC
:10141000F4F8B4B1B06B703001F0D0F8B06BDFF815
:10142000601AC0680A68241AB4FBF2F1012906F1B7
:10143000EC0498BF0121204601F0BCF8204601F0E1
:10144000BBF82846BDE8704001F062B810B504460C
:10145000207B00F00F0002280FD100F018FDA168DA
:10146000081ADFF8181A8A6BD168800801F57A71BA
:10147000814238BFB0F1405F00D3002010BD38B5C5
:10148000DFF85C1ADFF85C0A0C68DFF8F0590440FA
:10149000E0430860A00606D54868810603D54FF4EE
:1014A000005100F0E6FD14F4602F09D0286904F41F
:1014B000602404432C6105F19C00BDE834403AE00F
:1014C00031BD70B501F014F8DFF8B0590446286951
:1014D00010F4602F25D02E69F601360EF00748BFB4
:1014E000002606D4B00748BF012602D4700748BFC3
:1014F0000226701D40B200F051FF2969012206F159
:10150000110082409143296100F0BEFC05EB86008A
:10151000446844B1286800224FF00063711DA04761
:1015200001E000F0B1FC286920B105F19C00BDE8A4
:10153000704000E070BD002101F096BC70B501F074
:1015400099FCDFF83869DFF8E05B8107B16A1DD4E8
:10155000D1E90423104007D0F1628A691043886101
:101560004FF4804100F049F8B06A002844D1746A11
:10157000002C41D0E068B16B884222D006F14C00CB
:10158000BDE870404FF4805101F06EBC09B9B16AFA
:10159000EAE70022B262D1E904238C69104040F0EE
:1015A000020020438861686990436861E868984355
:1015B000E86006F13000FFF7C7FE022100F01DF8D9
:1015C000E5E7A068FFF742FFB06408B1B06CD1E076
:1015D000D4E904016A6902436A610020EA680A43A7
:1015E000EA60E861A0682860E8690028FCD006F19C
:1015F0002400FFF79DFEB46270BD06F14C0001F0BF
:1016000033BC0020F3E6F8B5074614463E6E1D468F
:1016100006B1B047A00708D4D7E9160120402940F9
:101620000022914208BF904207D0C7E91A4507F14E
:101630003800BDE8F24001F0F8BCF1BD704780B55C
:1016400001F010FCDFF834280146906BD26BBDE846
:10165000084010470421DFF8D40A01F005BC80B52A
:1016600001F008FCDFF8C81A084204D0BDE80440C5
:101670004FF00051EFE701BD70B504005AD0A168EA
:10168000202000291CBFC2B2002A59D00A8840F687
:1016900003039A421FBF40F604039A424968401E62
:1016A000EFD148E000224FF08043B4F91C10E0680D
:1016B0006568A84700F01CFFDFF8C0570646E88EB3
:1016C000401CC0F30B00E8860020296BC87705F1A9
:1016D0003000FFF72DFE304600F01AFFB5F9360056
:1016E000E26802F19403B3F90010884202BFDFF808
:1016F0009407017D00291DD1987808B9106810B9A8
:101700000020987036E0A96B0B6813F1010F11D01F
:10171000DFF86C572968B0FBF1F1012998BF01216E
:1017200002F1700000F046FFE068BDE870407030E4
:1017300000F042BF70BDE0681822203001F0C4FC08
:10174000A2690020A06160680028B3D0E07F002378
:1017500000F00700012842F0020207D00228A1D0C1
:10176000042804BF00224FF080539EE700224FF070
:1017700000539AE7BDE8704039E638B50D46A80732
:10178000DFF8F84619D5206BFFF776FF206B25F0C0
:10179000020510B145F0020109E0680702D4606A51
:1017A000002854D004F1EC0000F008FF042104F1FB
:1017B0004C00BDE8344001F057BB680747D5012015
:1017C00084F82000042001F033F8DFF8680901688C
:1017D0000A6B90472064606A08B1C068A063A06B80
:1017E0004168DFF854090A780260022001F020F80D
:1017F000112001F032F80120E076A06B017C002975
:1018000019BF607E00280E2001F027F8A06BDFF8DA
:10181000182940688168002904BFC068002804D0E6
:101820000021D161DFF84C0A106040F2FF70DFF850
:10183000481A086000219161DFF8F40850610FF246
:101840001100E0631920BDE8324000F053BE31BD05
:101850002DE9F0430446880085B040F19380DFF81D
:101860001C56A86B4068406800B18047A86BDFF841
:10187000B88842689068002804BFD16800290DD05C
:1018800000F0A7F8906800B18047A86B4068C06876
:1018900000B18047DFF86C0A01F0EFFA0020C8F8C9
:1018A0001C0040F60A09DFF8600ADFF8D875C8F8AE
:1018B0000000012001F01BFB0FF28110E863002102
:1018C00000207880A7F8009000F00CFA787B00F0F8
:1018D00003FAA26816467180697E09B1607CA0B1E6
:1018E000108840F60201884218BFB0F5C15F05D1EB
:1018F000318A4FF60F400140318204E0318B4FF6C0
:101900000F4001403183002060746946104601F0A9
:10191000DBFA684601F0E6FA7068B0B30188494521
:1019200018BF0646F8D130E0208C00283FD00021B7
:101930006184616204F12C004278017802F0F002C7
:1019400001F0F00142F001020170427004F1200048
:101950007860787B00F0F000787328E0DFF8801A78
:101960000A68136801209847012808D0707B00F0AE
:10197000F00040F0010070730FF26900E863A068A6
:10198000C8F8000005B0BDE8F083776040F60301B9
:10199000707B00F0F0007073686A8068008888428D
:1019A0001CBF40F604018842BED10020286400F02C
:1019B00010F84FF6FF30A1680A8A02400A82E87FD9
:1019C0000028CBD001F0CEF80028FBD001F0DBF8E6
:1019D000D5E7D8F81C000028FBD00021C8F81C105F
:1019E00070470000DFF8FC29114200D17047DFF892
:1019F000F019012010B50A68DFF880441368984791
:101A0000012808D10FF23500DFF81C17E063DFF87A
:101A10007404086010BDDFF8682410683221B1FB3F
:101A2000F0F1012998BF0121EC34204600F0C2FDFD
:101A30002046BDE8104000F0BFBD00002DE9FE4F7C
:101A400006460C466004DFF8345419D500F050FD0A
:101A5000EE6AB769B9070ED46EB10021B16100F02A
:101A600057FD706848B1B6F91C10F06876683A46C0
:101A70000023B04701E000F04BFD24F4804425E151
:101A8000A0070AD5286BFFF7F7FD286B002824F084
:101A9000020401D044F0020418E1A00005F180081E
:101AA00040F60909DFF8DC73DFF888B676D595F8DB
:101AB000200028B1042000F056FE002085F8200008
:101AC00040F60202B0680188914218BFB1F5C15FCB
:101AD00005D1028A2D2161F30912028204E0028BF2
:101AE0002D2161F309120283286CD8B1DBF8541060
:101AF0000A6804209047A8B1DBF80000016B884712
:101B0000296C814228BF401E401A718A11EB1030A7
:101B1000F06040F2D171A0F5FA70884224BF40F61F
:101B2000C410F060787B10F00F0F04BF708C484534
:101B300008D1D6F818C000224FF000736FF48071FE
:101B40003046E0470022DFF8A818404600F0D6FCF7
:101B5000A87E50B10221ADF80010684601F08DF961
:101B6000BDF80800A8820020A87601202876002170
:101B7000B87D401CB875E976686A18B1192000F084
:101B8000BBFC01E044F002043046766900224FF0CD
:101B900080630021B04724F0005497E0A87F24F030
:101BA000080A20B1210703D50020A8777BE0200791
:101BB0007BD5E87F20B10021E977052000F0D3FD37
:101BC0000020287601202877002001F090F90022DB
:101BD000DFF82018404600F091FC697E09B1A87E2C
:101BE00010B10121697612E0A86C002834D0DBF82E
:101BF0000010086B8047296C6A6C401A02EB1032A7
:101C00006A64A86CC001904226D200216964DFF8A2
:101C1000E80701680A061FD5787BA7F8009000F056
:101C20005BF800210020788000F05CF800F060FC98
:101C3000DFF8F4144A6922F002024A616FF00202EE
:101C40000A610F600B699C07FCD50A614A6942F082
:101C500002024A6100F05CFC0020286401F01AF9DD
:101C6000DFF8141600200860022000F07CFD11202F
:101C700000F08FFD307C10B90E2000F08AFD0020AE
:101C8000A883787D18B906F1380001F0CEF9DFF8A5
:101C90006C07E863F87D30B10021F97505F14C005F
:101CA000042101F0E1F8544610E0A0040ED5AE6A1C
:101CB000002E1CBF7068002806D0B6F91C10F06812
:101CC000766800222023B04724F4005414B1214642
:101CD00000F0CFF9BDE8F78F00F0F00040F0010010
:101CE000787370477960387B00F0F0003873704784
:101CF00030B585B000F0A4FCDFF80407DFF8044736
:101D000001685E4D41F002010160684601F07FF814
:101D1000A078DFF8F41602906A4605F14C0001F055
:101D20007EF8684600F0ECFB2178DFF8C8260191C8
:101D300000208DF808006B46192105F1800000F0A5
:101D4000B4FB684601F063F8E078DFF8C016029053
:101D50006A4605F19C0001F062F8684600F0D0FB8D
:101D600001208DF808006B466078DFF8A42601900A
:101D70001A2105F1D00000F098FB00230022DFF8C3
:101D8000941605F1EC0000F0E8FBDFF87006DFF8D0
:101D90008826E8630023042105F5887000F0D1FC53
:101DA0004FF6FF70A88205B00120A8760020E875E4
:101DB0006876E876E861286485F8200030BDF0B5E3
:101DC00000298BB0064615461C4653D0DFF84C065A
:101DD00000680A78D040C0074CD5002D716049D00A
:101DE0000021284601F084F8B56000F081FB254F02
:101DF0000546787D00283BD1FFF77AFF787D401CAF
:101E0000787500F0A0FA34B903A80FF24C611C22D7
:101E100001F05AF903AC2068DFF8041630600A4676
:101E20006068F060207C307401207074608A708279
:101E3000E06800B10146B161A06800B1024672617C
:101E4000782106F1200001F09FF9002106F1380009
:101E500001F0B5F8684600F0AAFB02966B46002236
:101E6000DFF8C01506F1700000F077FB304602E0A5
:101E700000F069FA00200BB0F0BD000050180020FF
:101E8000401B002074190020204600F041BBD0B553
:101E900000F02EFBDFF89025117E31B1DFF88C25A4
:101EA000146800F035FB2046D0BD00F031FBA1489E
:101EB000DFF87C4501680A6B904710F50032DFF8C7
:101EC000740541F100030169A4FB0267002004FBD3
:101ED0000377321847EB01031846D0BDB01000203D
:101EE0000810044020000E002DE9F84F04460E466D
:101EF00092469B46DFF8305500F0FAFAB5F93410F7
:101F00008046B5F93600091AC1F30B0108296FF0B4
:101F1000010949DAA88EDFF82015401CC0F30B0038
:101F2000A886B5F93400ADF800000020420101F1A7
:101F30001F039B5C1F0640F18C80401CC0B2082828
:101F4000F4DB002704F1700000F038FBBE6087F876
:101F50001EA0C7F804B02021BDF80000B883FC60C3
:101F6000DDE90AABDFF8D4040AEA00000BEA01015C
:101F7000C7E9040194340020F87740F6FF76686AD8
:101F80000028394605F1240006D0FFF7DDF930B10D
:101F900000F061F840464FE0FFF7D6F940B9A88E4F
:101FA0003618C6F30B06AE8600F01EFA48464EE021
:101FB00000F051F8697FDFF87C4400291CBF287EBF
:101FC000002807D0002001216877A876A977A07D96
:101FD000401CA07500F008FAA96A002935D1287EB6
:101FE00018B1192000F088FA2FE0E87E68BB00F0F5
:101FF0007FFA0646287F10B10121E1751BE0B86821
:10200000FFF724FAA864D0B1A86BDFF83414C068D5
:102010000968AA6C121AB2FBF1F2012A83BFAA6CFA
:10202000101AB0FBF1F10121EC35284600F0C2FA9C
:10203000284600F0C1FA304600F06AFA05E0304662
:1020400000F066FA042100F014F8BDF90000BDE8C4
:10205000F28F8F1876E7BDF800002080F87F40F0FF
:102060008000F877A078012802D10021A170A9761C
:10207000704705F14C0000F0F7BE2DE9F041054630
:102080000C4616461F4600F0EBFE80462046FFF742
:1020900078F9040003D1404600F0EAFE0AE0E07F50
:1020A00010F0070F09D0404600F0E2FEE07F10F08C
:1020B000070FFBD10220002112E06168DFF88403E2
:1020C000814202D0616829666060C5E916674046B2
:1020D00000F0CEFE00F006F800202866D5E91A01CF
:1020E000BDE8F0814FF0FF3105F1380000F094BFFA
:1020F000DCB5DDE906670446CDE90067180008BFD6
:10210000DFF840332046FFF7EFFE002803D500201C
:102110004FF00041DCBD0146204602B0BDE8D04092
:1021200002224FF0E043A8E7001004409C18002072
:10213000020000408C010010D021084001E042F074
:1021400002022DE9F843DFF8E052686A00900F467A
:102150000326144600F0CCF917F1010F04F0010832
:10216000814609D1A86A002819BFA96AB1F91C7073
:10217000EF8E7F1C0020E87538B2FFF702F90100EE
:1021800069D0A86A814204F0020426D11CB1686AB1
:10219000009000226A620122C87F02FA08F210430E
:1021A000C87700F05DFE0646B8F1000F14BFDFF8F7
:1021B0009802DFF8980200F060FE00F06BF824B996
:1021C00006E000F05BF800F060F800980028F8D115
:1021D000304600F04DFE83263FE00098884205F12E
:1021E000EC0316D1184600F0E9F9002C12BF0020CC
:1021F000686A0068686200F04DF8009800F03EF8E8
:1022000000F043F8009820B3002CF6D121E01268CA
:102210000092009820B3024610688842F7D1184611
:1022200000F0CCF9009800681CB1009A0021116000
:1022300004E00168009A116000220260009003E04F
:1022400000F01CF800F021F800980028F8D100F008
:1022500021F8832606E000F01DF83046BDE8F28341
:1022600000F018F8E87E0028F7D10221FFF701FFFF
:10227000F3E700005100070600000460C17F41F051
:102280000401C1776846FFF753B8014605F13000F5
:10229000FFF75AB8484600F03BB90FF2BC111C22B8
:1022A00000F012BF38B5044600F022F9DFF87811CB
:1022B0000546087E68B1204600F0DFFD044600F0C8
:1022C00042F804F0FF04012C01D1812032BD02202C
:1022D00032BD00F038F8012032BD0A46DFF848115F
:1022E0008B6B984201D00320704707E00A46DFF865
:1022F00038118B6B984201D00320704700211046A3
:10230000D0E700000100070601010E0470B5DFF8F8
:1023100018118A6B90426FF07F0412D1087E80B151
:1023200000F0E6F80546DFF8280100F0A6FD0646B5
:1023300000F009F806F0FF00012802D1360230163D
:1023400070BD204670BD284600F0E2B870B50E465C
:10235000154600F0CDF88324334A1EB1022E0ED06C
:1023600006D30FE0916A41B1926A918B29800AE00D
:10237000917E11B9928A2A8005E0802403E0117EC3
:10238000297000E0032400F0C3F8204670BD80B53A
:102390000846FEF7F6FF00B1806802BD38B5044676
:1023A00000F0A6F8204AD17D4B0702D5937D9C42D0
:1023B00012D00123958A03FA04F10D432549958231
:1023C0000C340A6803FA04F422EA04040C60096875
:1023D00011B9184B00221A75BDE8324000F098B8C8
:1023E000E001001004000020404600F091B8000019
:1023F0003D1500005F160000000004407B17000040
:102400000020094008DF00003F160000C314000050
:102410007F14000055160000A9130000D4210840C5
:102420003D16000003160000501800200430044040
:1024300000093D0074190020B0100020F1EFFF9F4B
:10244000401B0020071600000100020401000104E7
:10245000010003040C100440FFFFFFFFC40900004B
:10246000000000000000000001001A010000000050
:1024700000000000DFF800F085BF0110DFF800F079
:1024800061C00110DFF800F079BF0110DFF800F043
:10249000A9C00110DFF800F089AF011020B10823B6
:1024A00030220021FFF7EEBF7047F0B51C008DB061
:1024B00005460E46174603D1002300F075FE0CE0DA
:1024C0006846FFF7EBFF206805906B466068089050
:1024D0003A4600F005F800F067FE28460DB0F0BD62
:1024E000207AADF81800314628467047FFF7CEBF76
:1024F000FFF7C0BFFFF7CEBF00F076BE00F07EBE94
:10250000002101604FF0FF314160012101727047ED
:10251000FFF7B4BFDFF800F0C1BF0110DFF800F033
:10252000B9BA0110DFF800F0E5C00110DFF800F0E3
:102530001FBE0110DFF800F069B20110DFF800F0F3
:10254000DDC00110DFF800F091BE011020B10823BA
:1025500024220021FFF7DEBF7047F0B51C0089B0D0
:1025600005460E46174603D10023FFF7E3FF0AE0B6
:102570006846FFF7EBFFA06806906B463A46314687
:102580002846FFF7D7FF0E480E4A0168116028461B
:1025900009B0F0BDFFF7D2BFFFF7D4BF00F036BEE1
:1025A00080B500F04AFE00B10120C0B202BD00219A
:1025B00081607047FFF7B6BFFFF7B8BFFFF7AEBF48
:1025C00050F90000401B002070B5DFF8584782B07A
:1025D0000120009009232568DFF84C076E684FF44E
:1025E00000720021B04773BD70B5DFF83847DFF8DF
:1025F00038072568EE68002301223421B04700B176
:102600000120C0B270BDDFF8240780687047024621
:102610000020022904D1012A06D140F2EE207047A1
:10262000012A08BF4FF47A707047DFF8001791F85D
:10263000E60020B1D1F81001002818BF004770470C
:102640002DE9FF41DFF8E48608F1E105A8790028CB
:1026500073D1DFF8DC16DFF8DC660A689209012026
:1026600002F00102A871EA71307BDFF8CC76687164
:102670007068C8F8100101A8FFF799FF00210291C6
:102680008DF80410039101AB00220FF2295108F1DB
:102690000C00FFF762FF01AB00220FF2D55108F1E9
:1026A0003000FFF75AFF01AB00220FF20D5108F185
:1026B0005400FFF752FFB16801208847DFF87C061D
:1026C00001787868C0F38154707B20B1032C02D16B
:1026D0000121297003E0032C18BF022C16D102201F
:1026E00000F0A6F8DFF858160A68032C0CBF4FF468
:1026F0007A7042F21070B0FBF2F108F15400FFF76B
:1027000059FF08F15400FFF757FF10E0012C0ED1DC
:10271000DFF81046032000901C232568DFF8080628
:102720006E684FF040520021B047FFF74DFF386808
:1027300040075CBF002000F07BF8002004B0BDE83B
:10274000F08138B5002408B1150002D16FF0020401
:1027500007E08160C26003610146DFF8D00500F048
:1027600078FD204632BD10B50446FFF7C1FEDFF804
:10277000BC150A1992F8E9305B1E82F8E930DBB229
:1027800033B98A68012303FA04F422EA04048C6052
:102790005FE0F8B50546FFF7ABFE0446DFF88C15A1
:1027A000481990F8EF20521E80F8EF20D2B27ABB81
:1027B0000FF2D850DFF88C7500EB850210F8255029
:1027C0005688280615D539680A6A304690473A680F
:1027D000916A3046884739680A6B30469047DFF87F
:1027E000681501200860DFF8641508688007FCD5CB
:1027F00007E0680611D501EB86010020D1F804211D
:10280000904705F03F053F2D1CBF2846FFF7C1FF4D
:102810002046FFF77DFE0020F2BD39688A69304608
:1028200090473A68516B304688470228F9D1E8E76B
:1028300010B50446FFF75CFEDFF8F0148A68012348
:10284000A3401A438A60214491F8E920521C81F880
:10285000E920FFF75DFE002010BD2DE9F04107469D
:10286000FFF746FE0546DFF8C464F01990F8EF1054
:102870004A1C80F8EF2049BB0FF2105818F82700C7
:1028800000F03F003F2818BFFFF7E7FF08EB870085
:10289000448818F82700DFF8AC7401060ED53968B3
:1028A000CA69204690473A68516A20468847396885
:1028B000CA6A2046904700F01AF807E040060BD598
:1028C00006EB84010120D1F8042190472846FFF748
:1028D0001FFE0020BDE8F08139684A692046904714
:1028E0003A68516B204688470128F9D1EEE7DFF8B6
:1028F000581401200860DFF8541408688007FCD5DC
:1029000070472DE9F84F0746DFF82404DFF84454F8
:102910000168002600244A06A0460DD5287B58B938
:10292000DFF83404DFF8341402680A4042F08172A0
:102930000260202000F075F9012F18BF6FF0010927
:1029400057D12868012852D10221296000F00DFDDD
:10295000012000F066F95FEA00094BD100F080FA2F
:10296000DFF8FC13DFF8DC7300900C600120B96A1B
:102970000A689047012803D1002000F0A8F901243B
:10298000DFF8E013DFF8C8A3DFF8DC230E60DAF825
:102990000010907808B14FF00108517809B148F063
:1029A0000208107808B148F00408A87F20B13968FF
:1029B0000A6B4FF480609047687F20B139680A6BDA
:1029C0004FF481609047DFF880130120086048F0E1
:1029D000200039688A699047DFF890130120086069
:1029E000DFF84813087AC10709D501261FE06FF008
:1029F00004097DE00120286000F0C2FC78E0396A1B
:102A0000DFF86C038A6890478346BBF1040FF6D069
:102A1000BBF1010F05D13A6ADFF854035368032173
:102A20009847DFF850030168890889000160002099
:102A300000F0CAFCDAF800003868816B884776B984
:102A4000BBF1010F05D13A6ADFF824035368012175
:102A50009847DFF82003016841F00301016001207D
:102A6000DFF800130860404639684A699047A87F3C
:102A700020B13968CA6A4FF480609047687F20B1FE
:102A80003968CA6A4FF481609047AF49B74A01205C
:102A9000086000211160032028603A68516B4046AD
:102AA00088470128F9D1DAF80000042000F0B9F8CD
:102AB0000646AB4901200860DAF800109C49086816
:102AC0008006FCD514B1012000F001F900F0CCFD26
:102AD000082000F0A6F8064301202860009800F0C6
:102AE000C7F900F046FD00F04BFC0EB14FF0FF3986
:102AF0004846BDE8F28F38B50446FFF7F9FC0546B5
:102B000021468A4800F0B9FB2846BDE83240FFF76D
:102B1000FFBC3EB50024012804D020D303281CD0DC
:102B200017D31CE06846FFF742FD804D924901949F
:102B30008DF8004002946B46012205F17800FFF702
:102B40000CFD00238D4A2C2105F19C00FFF7ADFC04
:102B500005E000F0A5FD044601E000F065FE20461A
:102B60003EBD000038B5FFF7C3FC7049054691F83B
:102B7000E000012410B1FFF737FD04462846FFF7B7
:102B8000C7FC204632BD70B5FFF7B2FC044600F02A
:102B9000DAFF6649002081F8E00066488568022077
:102BA000A8470646102000F03CF8012E04BF032081
:102BB000A84787E07047000038B55A4CE16B0A68B7
:102BC00004209047022818BF03280FD1032000904B
:102BD0001C232468544865684FF040520021A847E0
:102BE000FFF7F2FCBDE832400220BCE564485449DE
:102BF00000680A684D4CC0F3815003280CBF4FF4A5
:102C00007A7041F28830B0FBF2F104F15400FFF722
:102C1000D1FC04F15400BDE83240FFF7CDBC0020E8
:102C2000704738B50546414C204600F008FB88B98E
:102C3000204600F00AFB0446A068284205D022691D
:102C4000E36800212846984730B9204600F0FFFA93
:102C50000400F1D1002032BD4FF0FF3032BD4949B0
:102C600001280CBF40F2FF70002008600020704770
:102C700070B5FFF73DFC2D4E2E4D044696F8E00052
:102C800028B100F060FF70B1002086F8E00002205B
:102C9000AD68A84706461020FFF7C3FF012E11D1EB
:102CA0000320A8470EE026490A683220B0FBF2F163
:102CB00001B9012106F13000FFF77CFC06F130007C
:102CC000FFF77AFC2046BDE87040FFF721BC38B51D
:102CD000012823D12C490A681368984701281DD080
:102CE00000F024FF114D012085F8E000287A8106CC
:102CF00016D4134802683221B1FBF2F404B901245E
:102D000005F13000FFF75AFC214605F13000FFF7CE
:102D100051FC05F13000FFF74FFC01E000F039FFF6
:102D2000002032BDA401001000A00C40A00900202A
:102D300014100940F8DE0000B03F0050281C0020AD
:102D4000401B0020B80100102820086028200840FF
:102D50002C2009407C0A002004000940FFFFFCFCF5
:102D60000C400940000222439E0A002080010443D7
:102D7000004003402422084071390000053700005C
:102D8000B43F005000000460E00100108F0000001C
:102D90008F0001008F0002008F00030090000001EF
:102DA0008F00010190000002900000038F000104D9
:102DB0008F0000058F0008048F0000048A000006C1
:102DC000510000007F0001003F0004003F000200AE
:102DD0003F0001007F000200DFF800F011BF01108A
:102DE000DFF800F011B00110DFF800F015C001109D
:102DF000DFF800F015C10110DFF800F005B3011095
:102E000020B1082328220021FFF7EEBF70470021E0
:102E100001604160C1604FF0FF318160704770B563
:102E200014008AB005460E4603D1002200F0FCFED5
:102E30000CE06846FFF7E4FF206804906A4660688B
:102E40000590314600F004F800F0EEFE0AB070BDC7
:102E5000E0680790A068069028467047FFF7C8BF53
:102E6000FFF7BABF00F0ECBE00F0F0BEFFF7B8BF4E
:102E7000FFF7C2BF3849086867E0384A116800297F
:102E8000FCD10023D3611060D0690028FCD0D1614F
:102E9000506870473248016821F0020141F4007126
:102EA000016003212F48816041F23001416101211D
:102EB000C160502141610121C1604FF4CA6141618B
:102EC0000121C16001607047274802680A6082687A
:102ED0004A60C2688A60406B20F0784040F08050C1
:102EE000C860704701461022204800F0DDB87047E6
:102EF000FEB50188B1F5C15F18D142691C4F00923F
:102F0000002382690192C06902901A480268C2F3E4
:102F100003625DF8230098B1002550F82560BE4299
:102F200006D06D1CEDB2042DF7DD09E00120FEBDD9
:102F3000042D05DC26F4702444EA024440F82540C0
:102F40005B1C032BE5DB0020FEBDC2430A600A6860
:102F50000242FAD1704700001010044000100440F3
:102F600000000460004104404C1300501800002190
:102F70000200F84454130050DFF800F009C00110BB
:102F8000DFF800F0D1B20110DFF800F0E1A301108A
:102F9000DFF800F0059B0110DFF800F05DB40110D0
:102FA000DFF800F009C10110DFF800F00DC10110D9
:102FB00020B1082324220021FFF7DEBF704730B57F
:102FC00089B004460D4600F00BF801218DF8181069
:102FD0006A4629462046FFF7DFFF204609B030BD8C
:102FE0006846E5E710B58AB00446FFF7F9FF01210E
:102FF0008DF818102046034A6946FFF7C1FF0AB052
:1030000010BD0000BC07002080B500906846FFF7A7
:10301000C7FF01BDFFF7C8BF80B5FFF7B9FF10B903
:103020006FF0010002BD002002BDFFF7ADBFF0B49C
:10303000034618689D681A18586802EB5004C007C8
:1030400021D54D441FE0F0BC03F10C00704712F88D
:10305000017B05F8017B491EF9D1A0B1B60812F831
:10306000011B06F00306032E08BF12F8016B01EBEB
:1030700006214942801C294405D011F8016B05F84E
:10308000016B401EF9D1A242DDD012F8016B16F09F
:10309000030104BF12F8011BC91C30090F28DAD143
:1030A00012F8010B0F30D6E762B38B0708D0521E1F
:1030B00011F8013B00F8013B00F024808B07F6D1AA
:1030C000830740F0208000BF103A07D330B4B1E846
:1030D0003810103AA0E83810F9D230BC530724BF9A
:1030E000B1E80810A0E8081044BF51F8043B40F8CC
:1030F000043BD20724BF31F8022B20F8022B44BF37
:103100000B7803707047121F17D35B0009D151F879
:10311000043B20F8023B1B0C121F20F8023BF6D2A6
:103120000BE051F8043B00F8013B1B0A20F8023B7E
:103130001B0C121F00F8013BF3D238BF121D521EA8
:1031400024BF11F8013B00F8013BF8D87047024654
:103150000229107803D1517800EB01207047032930
:1031600006D15178927800EB012000EB02407047C5
:10317000042908D15178937800EB0120D17800EB35
:10318000034000EB01607047002200F073BD017046
:103190000A0A42700A0C090E8270C170001D704745
:1031A000DFF800F0BDAA0110F8B504460B480C4F3B
:1031B0000668F8690D4650F82500B04209D1094863
:1031C00000902046FFF7ECFFF86950F82500B04268
:1031D00001D10020F2BD2046F2BD00BF1812000050
:1031E00044010020BC070020102803D302491038F6
:1031F000C1F8000F704700BF00E000E0816042604E
:1032000070470000DFF800F09DB2011070B5044671
:1032100000F04AFD0646A08A0025012808D1FFF7E4
:10322000F1FF0546E068451BA068A84238BF0025AD
:10323000304600F03AFD284670BD808A704700682D
:1032400008B9012070470020704700687047006887
:10325000704738B504460D46FFF74AF9002129604A
:10326000616869606168002914BF0D602560656050
:10327000FFE7BDE83240FFF74BB90A684B68002A08
:103280000CBF436053604A6809680AB9016070471F
:1032900011607047FF7F0000DFF800F031BF0110C0
:1032A000DFF800F0F5B7011030BF7047FCE738B524
:1032B00000F0D6F900F087F9FFF7A5F9044604F00D
:1032C0000C000C284BD0600721D400F021FD0546EE
:1032D00001210120FFF79BF92F49096801FB05F245
:1032E000904214D2F020B0FBF1F02C4C291A04F1DA
:1032F0000C00FFF717F904F10C00FFF717F9012094
:10330000FFF7FFFA04F10C00FFF708F929E02007A6
:1033100025D4234D2348296A8A6890470428F8D089
:10332000E206214900D420B9086840F00100086095
:1033300003E00A68520852000A601C481C4C0168ED
:1033400041F00301016020202A68916988472068C4
:103350002868816B884701212160206801E0FFF720
:10336000A5FFBDE8314000F07FB910B5114CFFF763
:1033700093FF20601048006808B18047606010BD6E
:1033800010B50E480B4C016809B160688847206889
:10339000BDE81040FFF784BF50F90000A0090020ED
:1033A000B8010010004003408C210840242208404E
:1033B0002C2009409C1A00202CF9000030F9000054
:1033C0001628A8BF203870472DE9F84F804694484A
:1033D000DFF850920168944E8A0705D50820B07135
:1033E0009248C9F80000C2E0914801680A68904715
:1033F0008246904805682F1700247F1CA80208D435
:10340000CAF13E00C0100828C8BF08208742B8BFD4
:10341000074689480168C1F30460FFF7D1FF83467E
:1034200086480168C1F30440FFF7CAFF5F44152FC7
:103430000146C8BF152704DC6FF009008742B8BFFA
:10344000074607F01F007E4A40F4F85010807D4A7E
:10345000106810F0030F18BF0124400748BF44F064
:10346000020496F90700B8F1000F18BF44F00404F5
:10347000AAEB0000042802DCB27994425DD0AAF1E4
:103480000F084FF0000BB8F1000FDC4604F0040009
:103490006D4B24D408EB08184FEA282CBCF1070F19
:1034A00088BF4FF0070CE646BEF1070F28BF4FF06C
:1034B000060E1A1D52F82E2053F82EE0A2EB0E0E27
:1034C0000EF0FF0B10B1CEF307229344A20744BFC6
:1034D000CEF307429344E20748BF0BEB1E6B53F851
:1034E0002C2002F0FF0310B1C2F30720C318A0077D
:1034F00044BFC2F30740C318E007A8EB0C2048BF45
:1035000003EB126300FB0BF0CF1B8030002F03EBAB
:103510001023D8BF0127342005F0FF0547437D4322
:10352000B5FBF3F04FF6FF71884288BF08460AF3F7
:10353000070AB08086F807A0B47144480168B088D3
:10354000316000211F2804D21F20B08004E0400811
:10355000491CB0F5007FFAD20F38000941EAC001DA
:103560003B480143C9F800100020C9F80400BDE839
:10357000F18F10B537480468A4B21CB32C48016819
:103580000A689047284991F90720904205DA6FF0C0
:103590007F029042B8BF1046C8718888844210D319
:1035A0002A4A13680A689A1A921C1F2A88BF1F2287
:1035B000241A5208D4402418B4F5803F28BF4FF68F
:1035C000FF748C8010BD2448006800B9704730B586
:1035D00022498A6802F04063B3F1406F1FD0104B5C
:1035E0001C68A5071BD44C68A50718D41C6809687B
:1035F000C1F303511C31090114F0050F04D08842B6
:103600000DD224F0050409E0814208D2100158BF10
:1036100044F00104500158BF44F004041C6030BD64
:103620000000094030100940581B0020FDFDA40097
:10363000EC010010B43F0050B81200503C11005093
:103640006E620840242208409C1300500820094064
:1036500000E7A4803410094028500940AC3F0050D6
:10366000EFF3108072B67047EFF3108062B67047C8
:103670000138FDD17047704710B50C18FFF7F0FF07
:10368000411E8941C90FDFF8602410680028FCD072
:1036900024680123136009B1FFF7E6FF204610BD3F
:1036A00038B5DFF8485428780024002802BFDFF836
:1036B0004014887B00280CD0FEF71AFF0146A8783A
:1036C000002806BF0122AA7001240846FEF720FF49
:1036D0000CB1002032BD0220FFF7AAF80E20FFF740
:1036E000BCF8DFF81014086808B1012032BDDFF81B
:1036F00008044022C26002600120C8610020687096
:1037000032BD00002DE9F041DFF8EC1382B000205B
:103710000860DFF8E81301F1D804A07A002837D058
:103720000128DFF8DC53DFF8DC2332D1DFF8D813CF
:1037300016684BF2F52046430868360AC0F381400C
:1037400001280BD1A86C0168884700F03AFA00F014
:1037500053FA3509C010454306EBE536607B10B1DE
:103760000021617306E0DFF8A403006820F07F40C9
:1037700036187608DFF898030660360C466001219B
:103780008160DFF86C13887B002849D00521217304
:1037900048E0022809D11568284600F00CF9A5F286
:1037A000FF55032D3CD308203BE003283AD1106895
:1037B00001F1B806A0F5C0603168F061002948BF8A
:1037C0004942002848BF40428142A8BF002026DA73
:1037D0007068D04F80B200900823D5F800C0DCF8A4
:1037E00004804FF47F4230213846C047B06880B231
:1037F00000901223D5F800C0DCF804804FF4F802E2
:1038000004213846C047B06980B200900A232D6871
:103810006E684FF4406220213846B0470120207086
:103820000B202073BDE8F3412DE9F843DFF8CC828B
:10383000B94EDFF8E092B94CB94FAF4808F1E10555
:10384000E9784A1E0B2A00F29280DFE802F0063087
:10385000415F74415F74415F7B8031680A6820205A
:1038600090470F20E060072341F61D5020614FF480
:10387000C072022000900021D6F804C0DCF8044099
:103880004846A04776684846D6F80C9007234FF480
:10389000C0720021C847012038600220E87008F19A
:1038A0007800BDE8F243FEF787BEBDE8F183012052
:1038B000E061287800281DBF00213961032006201F
:1038C000E870032020600020786078688107E6D4E3
:1038D00070684668E878032808D102210091052322
:1038E000602200214846B04704200BE000200090F1
:1038F0000523602200214846B047E87806280CBF1F
:1039000007200A20E87001207860C8E7042903D165
:103910002021A161012105E001220A29A2610CBF39
:10392000032102216970002121600821C16001602A
:1039300001202060B9E705290CBF06200920E870A6
:103940000020E1E70020386078600C20A6E7002125
:1039500001600120674908600E20FEF71AFF02206F
:10396000FEF701FF0120E8700020A8709DE7FEE748
:1039700062496B4891F8E420921E0A2A1AD8DFE8BF
:1039800002F0060A0E190A0E190A0E191200026830
:103990009107FCD548E741688A07FCD4FAE74168FB
:1039A0008A07FCD5F6E702689107FCD441688A07CC
:1039B000FCD4EFE7FEE7F8B50446564D3021284623
:1039C000FFF75AFE4D4F07F1B806C0F307207060AD
:1039D00004212846FFF750FEC0F38440B060202148
:1039E0002846FFF749FEC0F38120B4F5C064B061FA
:1039F000346003D1002087F8D800F1BD316997F811
:103A0000D80028B97068B168F060F461B06970617D
:103A1000F06900284CBF6FF00102022200EB400069
:103A20001018421000EB927001EBA0017268F26076
:103A3000002912DC7069032805D111F1150211006B
:103A40001EDA00211CE011F10B000100B8BF0021BB
:103A5000521E48BF0022F26007E01E2912DD706985
:103A600028B915391E29C8BF1E21032009E00B39CA
:103A70001E29C8BF1E21521C3F2AC8BF3F22F26028
:103A800000207061316108231D4CF06880B2009005
:103A90004FF47F422768D7F804C030212846E0471A
:103AA0000120009011232768D7F804C04FF400329A
:103AB00004212846E047306980B20090122327682D
:103AC000D7F804C04FF4F80204212846E047706993
:103AD00080B200902846246865680A234FF440624B
:103AE0002021A847F1BD000000800C40810A002081
:103AF000F8DE000004800C402C500C40A00900208F
:103B0000A401001008400C40B43F005010200940B0
:103B10003C600C4000A00C40A001001000400C4094
:103B200034600C403748006800F00AB910B5374CD3
:103B3000626D53680121032098472068C16A884755
:103B40003349886010BD70B5304C616D0A68012042
:103B5000904701281BD0A5692B48EE68002301225D
:103B60003421B047A0B1FFF7DDFF2068C16A884764
:103B7000274B9A6827491C68D860A4EB9404801AE4
:103B80004843000C1860A04238BF2046186001204E
:103B900070BD38B51D4C626D5368002103209847F5
:103BA000616D0A680120904708B1FFF7BBFF2068EC
:103BB000174DC16A88476860206E01688847286190
:103BC00031BD10B501461448144B02681B6810043F
:103BD00000161B394843C01000EB2240120601FBBF
:103BE00001F412161B06624361431B1600EBA22070
:103BF000594300EBA14010BD00FB00F1C0EBA15008
:103C000000B270478000001000A00C408C01001032
:103C1000441B002040420F0090130050A41000509D
:103C2000DFF800F079AD011010B50446034BFFF743
:103C3000F7FFA06800B1204610BD00BFBC07002000
:103C400001488068704700BFC801002038B50446AD
:103C50000D4600F034F8616A0D43656200F030F8FB
:103C60002046BDE83240FFF7BBB8004062F30F22A8
:103C700062F31F4200B500BF130096469446103908
:103C800028BFA0E80C50FAD85FEA417C28BF0CC0DE
:103C900048BF40F8042BC90728BF20F8022B48BFB3
:103CA00000F8012B00BD0A0500E005E0EFF31180EC
:103CB000202181F31188704780F311887047F5E760
:103CC000FAE70000F2E7F7E70D49C20744BF012217
:103CD0000A60820744BF4FF480720A60400744BF05
:103CE0004FF4803008607047064AC30748BF116030
:103CF000830748BF5160400748BF9160704700008C
:103D00000420094018200940DFF800F0E1BE01104E
:103D100070B5FFF7C9FF094D0446A8680021FFF7F9
:103D2000F3FF06466869861BA869B04238BF0026C3
:103D30002046FFF7BAFF304670BD00BF7801002073
:103D400070B50446FFF78CFC451EAD41ED0F064EE5
:103D500030680028FCD0A047012131601DB1BDE8CA
:103D60007040FFF781BC70BD00800C40DFF800F0B0
:103D700021C00110DFF800F0F99B0110DFF800F01E
:103D800055A40110DFF800F019AE01102DE9FC4D2B
:103D9000DFF8445A0F469046002440F2013B95F864
:103DA00001C02979EA7895F800A0B0EB0B0640F63F
:103DB0007B4332D0761E37D0761E3CD0B61E40D024
:103DC000761E00F08680761E00F08980761E00F058
:103DD0009980761E00F0AD80761E00F0B280761ECF
:103DE00000F0B780761E00F0BD80761E00F0C28025
:103DF000F61E00F0C780761E00F0CC80761E00F024
:103E0000D180761E00F0D680761E00F0DB80761F13
:103E100000F0E380B61E2FD0F9E0102F12D110224F
:103E2000414605F1A4009AE0102F0BD11022414623
:103E300005F1B40093E0042F04D1D8F80000E86243
:103E4000F4E0012F40F0E180012940D098F8000013
:103E5000E87042B10028F3D1BCF1020F1ED0BCF1D2
:103E6000050FEDD11AE00028EAD0BCF1010F2AD0ED
:103E7000BCF1040F24D126E0012F5BD1012A26D00A
:103E800098F80000287189B100280ED1BCF1030F09
:103E90001CBFBCF1070FBCF1050F06D100F040FCC0
:103EA0000246DFF8381900F038FCBFE00028FCD0EB
:103EB000BCF1010F1CBFBCF1040FBCF1060F02D016
:103EC000BCF1050F02D1012000F080FCAEE012240D
:103ED000ACE0022F2ED1B8F80000A883A6E0202F76
:103EE00034DA05F1CC041F212046FFF74DF900F02C
:103EF000A4F86F7100F014FC6979009102460194F6
:103F0000012311E0202F21DA05F1EC041F212046C6
:103F1000FFF73AF900F091F8AF7100F001FCA979D0
:103F20000091024601940023DFF8B41800F0CBF9A9
:103F300079E0012F69D198F80000042865DCE87168
:103F400074E0012F61D198F8000004285DDA28722E
:103F50006CE0062F59D10622414605F58670FFF721
:103F6000A3F863E0012F50D198F8000007284CDC3B
:103F700068725BE0012F48D198F80000042844DA09
:103F8000A87253E0012F40D198F8000006283CDACF
:103F900028744BE000F04DF837D1811F994234D29C
:103FA000688243E000F045F82FD1811F99422CD25E
:103FB000A8823BE000F03DF827D1B0F5FA7F24DA83
:103FC000E88233E000F035F81FD1A0F10A0140F695
:103FD0007742914219D2288328E0012F04BF98F834
:103FE0000000012811D105F1800000F05CFC50B9FF
:103FF00005F1100100F098FB040017D105F15C00F9
:1040000000F058FC12E0162410E018240EE02828D6
:104010000BDA022F09D1B8F80030DFF8C8170246D2
:10402000102001F054F9044600E00224E0B2BDE89B
:10403000F68DB8F80000022F70473A4641462046F8
:10404000FFF732B838B50D4600244FF440730246EE
:10405000D11ADFF8840736D0491E36D0491E38D031
:10406000491E3AD0491E3BD0491E3DD0491E3FD083
:10407000491E3FD0491E41D0491E43D0491E43D05E
:10408000491E43D0491E45D0491E45D0491E45D042
:10409000891E45D0491E45D0491E45D0491E45D0F0
:1040A000491E45D0491E45D0491E4AD0491E4AD016
:1040B000491E4AD0891E4CD0491E17D0491E46D0F1
:1040C000491E48D04AE0807846E0102200F1A40161
:1040D00033E0102200F1B4012FE0C06A286044E010
:1040E000062200F1C40128E0C07835E0007933E011
:1040F000808B37E0427900F1CC011EE0827900F13B
:10410000EC011AE0C07927E0007A25E0062200F5EC
:10411000867112E0407A1FE0807A1DE0C08B21E0BA
:10412000007C1FE0408A1DE0808A1BE0C08A19E005
:10413000008B17E0062200F58A712846FEF7B4FFCF
:1041400013E0008C0EE0408C0CE0808C0AE0C07A1A
:1041500002E0407800E0007B287006E0282A03DABD
:1041600000F0DAFA288000E00224204632BD1FB5B4
:10417000DFF864466178C1B900B12063217800F0AE
:10418000D0FA04F1B4010291024604F12C03039326
:1041900004F1A4000021019000911020A378DFF821
:1041A000481601F094F8002000E0112004B010BD82
:1041B00010B5DFF824466078062818BF072882B0BB
:1041C0000CD1217800F0ADFA132200920246E38B65
:1041D000DFF8181600F077F8C0B216BD122016BD31
:1041E00000B58FB008233C2200216846FFF7BEFDD2
:1041F000DFF8FC0500F1500107914FF4DC72032158
:104200000892069100236A460FF2C501FFF7BAFD36
:104210000FB000BD7CB5DFF8C04504F12801204691
:1042200000F0E8FD0020607000214FF6FF70E08391
:1042300000910120019000230FF2E1550022294650
:1042400004F1380000F0F8FA022000F034F804F12C
:104250005C0000F0F1FA042000F02DF804F1800079
:1042600000F0EAFA0420A070002104F1A40000226A
:104270000023002580E82E0004F1B405002685E81F
:104280004E00E162E1712172A27207216172009019
:104290001023DFF86065022200F014F80095102367
:1042A000032200F00FF804F12C00009004230422F4
:1042B00000F008F873BD0021019000910023002256
:1042C000294670473146102001F001B80000000077
:1042D0002DE9F04387B0FFF79DFFDFF8FC74DFF8AE
:1042E0001855DFF81865DFF8188507F18009B86AF6
:1042F000DFF810254FF0FF330021FFF73BFD0400EE
:10430000F5D00020029002AA01A90DF1060000F0EC
:10431000A9FD00283DD1BDF80600102802BF9DF878
:1043200004103878814230D1029801884FF6FF722C
:1043300091420BD14088410427D507F12C0100910F
:10434000042304224146FFF7BEFF1EE00178A229A4
:1043500004D0D02908BF00F068F816E0417913298D
:1043600013D10089012804BF797B022905D1484671
:1043700000F0A0FAFFF71CFF07E00522314600F02D
:10438000CCF981B2484600F07EFA029808B100F0FC
:1043900054FDE00730D53879F97801432CD018B1B5
:1043A00003208DF80C000CE0F9798DF80C10062232
:1043B000387A8DF80D0007F586710DF10E00FEF7C5
:1043C00073FE787A8DF81400B87A8DF815005020B5
:1043D000397800F062FF024603AB2946102000F056
:1043E00076FF00281FBF08207870386B002803D0A4
:1043F000016809B108208847A00704D507F110011A
:10440000002000F091F9600706D5787B012804D0E0
:10441000022808BFFFF7CCFE69E700903B8BFA8AC1
:10442000B98A788A00F0B8F961E72DE9F0410546CC
:1044300084B0DFF8A443A97862782379DFF8A06319
:10444000080004F58A7704F1800815D002294AD0C3
:10445000032918BF042971D0052900F0938006298B
:1044600000F0C480072900F0E5800F2900F0FD80EE
:10447000112900F0018134E06878010026D104F1AF
:10448000A40100911023DFF8787302223946FFF768
:104490001AFF04F1B4010091102303223946FFF7FB
:1044A00012FF0622E91C04F1C400FEF7FDFD012005
:1044B00060705020217800F0F0FE024604F1CC003C
:1044C0000190012360790090FFF7FCFEC0B208B1B3
:1044D00008206070206B00281FBF016800296078E9
:1044E0008847BDE8FF81697811BBE87868B1217819
:1044F00000F017F904F1EC0101910246A179009155
:104500000023FFF7DFFE687012E0022A18BF072AB7
:104510000ED0062A02D1012B0AD101E0032A07D0CE
:1045200004F1380000F0BFF910B9012000F04EF995
:1045300068780028D5D008216170CBE7687800BB87
:10454000E078032908D1062A08BF0720C1D0002837
:104550000CBF03200220BCE7A18B31B103430AD07A
:1045600004F1380000F08FF905E0012807BF0020B2
:10457000E070002020716078072814BF0420062016
:10458000A7E7A5E7687858BB0622291D3846FEF73D
:104590008BFD6889E08306206070E8892084288A82
:1045A0006084688AA084E878E072207C012818BFC3
:1045B00002280AD11F2200F0AFF880B24FF47A71BE
:1045C000414304F15C0000F05EF9042001902B1DD2
:1045D00068898D4900901020EA7800F078FE79E72C
:1045E0003128CED10020E070042072E7AA888749E4
:1045F00000F093F806213846FEF7C6FD002020841F
:104600006084A084A879207300F0DCF8404600F0B4
:1046100051F94FF6FF70E083207908B103218BE751
:10462000A87908280CBF052004206070012000F044
:10463000CDF84FE7404600F03DF96878002813D1E7
:10464000E9882184288960846889A08404F15C0059
:1046500000F029F9002807D1636B002B04D0A28C4D
:10466000618C208C1B6898473BE7AA886849052322
:10467000102000F02CFE34E7217CA888ADF8000063
:10468000052903D100208DF80A003FE001218DF8B3
:104690000A1000F097F8207C012818BF04281AD1CE
:1046A000608AE988814228BF0846ADF80200A18AE5
:1046B0002889884238BF0846ADF80400E18A688935
:1046C000884238BF0846ADF80600218BA889884289
:1046D0001AD2084618E0032818BF02280AD1608AB7
:1046E000ADF80200A08AADF80400E08AADF806003B
:1046F000208B09E0E888ADF802002889ADF80400B5
:104700006889ADF80600A889ADF8080041496A46F5
:10471000102000F0DCFDE4E63849102000F0D7BDA1
:104720005146502000F0B9BDFEB50F462A4D79889C
:104730000446288C884224BFB988814207D3688CFC
:10474000F988884202BFA88C3989884221D0052285
:10475000FFF7E2FFE98BADF80010064678882E4996
:10476000ADF802006A46B888ADF80400F888ADF8E4
:1047700006003889ADF80800102000F0A8FD0746B3
:10478000C0B238B96C73B1B205F1800000F07BF8AB
:1047900000E01827F8B2FEBD3EB50F4C6578062D37
:1047A00001D014203EBDADF80200ADF80410ADF804
:1047B0000620ADF8083000F005F806986946FFF7C6
:1047C000B3FF3EBD04F15C0000F074B8014602483E
:1047D000806AFFF7D3BA00008404002099450110D5
:1047E00009450110BD8401106DEE0000E5140110B3
:1047F000A80C0020E988000059440110F58401103C
:104800002989000007000080F9D5000061CC000074
:10481000C1170110051601107D150110D6E7000023
:10482000DFF800F0A1B60110DFF800F035BD01108F
:10483000DFF800F019BD01102DE9F04389B0804682
:10484000894617461D46109C119E082324220021EC
:104850006846FDF75FFE474906964FF47A700A688E
:10486000B0FBF2F0454305954743ADF810406B4669
:104870003A4649464046FDF75DFE404609B0BDE870
:10488000F083FDF753BE38B504460D46FEF7D5FC60
:1048900010B12046FDF742FE00F00EF82046BDE8BC
:1048A0003240FDF743BE80B5FEF7C7FC00B10120E2
:1048B000C0B202BDFDF732BE2E4A10684FF47A71C5
:1048C000B1FBF0F0454329462046FDF72BBE10B55D
:1048D00004460021FFF7A4FF204610BD70B5054631
:1048E0000C4616460C2000F03FFB01000BD08E60FA
:1048F0002846FFF799FF24B14FF080412046FFF78B
:104900003DFA012070BD304600F02FFB002070BD45
:1049100010B50446FFF78CFFA04204D0846800F075
:1049200024FB204610BD002010BD70B586B00446A3
:1049300068460FF248011422FEF7C6FB0E483025E8
:104940000570831C78254570A21D062112F8015DB3
:104950002D09491E1DF8056003F8016B167806F055
:104960000F061DF8065003F8015BEFD106B070BDCD
:104970000000000050F9000054170020303132339D
:10498000343536373839414243444546000000004B
:10499000DFF800F02DB40110DFF800F0CDAC01100D
:1049A000DFF800F02DC00110DFF800F0FDB10110BC
:1049B00020B108233C220021FFF7D8B9704780B509
:1049C000FEF76AFCADF80000FDF754FDADF80200FB
:1049D000009802BD01B5BDF80200FDF74FFDBDF81E
:1049E0000000BDE80240FEF75BBC38B5DFF8B8490F
:1049F000207801282DD0DFF8B429DFF8B409920817
:104A00009200801AA061012121706261104602E0CB
:104A1000002340F8043BA3699D18A842F8D39B08E3
:104A200002EB8301002041F8040CE8201060A0692B
:104A300080088000EC38C2F8E80002F1E800A060CD
:104A4000002000F007F8E0606069A060A069001F26
:104A5000206131BDF8B500250026071D17F00300C1
:104A60001CBF391D0F1AFFF7AAFFDFF83C290146CA
:104A70005160112F34BF9468D4682068002803D592
:104A800080F0004000261AE0330014D02B68D4F8E0
:104A900000C06344BB422B6011D32C461846ECB1D6
:104AA000C01B042811D3E05147F00040206010697A
:104AB000C71B176111E0B842F1D201262546044414
:104AC00020680028DAD1002408E0136920681B1A46
:104AD0001361206840F000402060241D00F096FA29
:104AE0002046F2BD10B50446FFF769FFDFF8B8189D
:104AF000486054F8042C22F0004244F8042C0B695E
:104B0000D2180A61221F8B689A4238BF8A60BDE8BA
:104B100010405FE72DE9F041FFF751FFDFF88818FB
:104B2000CA68486000260027002400250AE00C46D9
:104B30000127164605E03B00F9D03368CB183360F7
:104B40000C190A441168A846A54238BFA04600299E
:104B500005D0F0D581F0004100274546F1E7FFF789
:104B600039FF4046BDE8F08110B50446DFF838084B
:104B70008169216000696060FFF7CCFF09282CBFC4
:104B800008380020A06010BD80B5FFF72EFF4BF65F
:104B9000BE2002BD08465DE70846A3E702B56846A9
:104BA000FFF7E2FF01BD0120704738B50446FFF76B
:104BB00006FF00220C23DFF8FC175343CD18A96C25
:104BC00021B18C4206D0521C032AF3D3FFF702FF17
:104BD000002032BDFFF7FEFE05F1480032BD70B582
:104BE0000546FFF7ECFE044600210C22DFF8C4075F
:104BF0004A438618B06C30B185420DD0491C032958
:104C0000F3D3204615E13065B5640021FFF7C0FEFF
:104C1000F06408B900F0EAFB2046FFF7DBFE06F17E
:104C2000480070BD38B50446FFF7C9FE0025DFF81F
:104C300084270C216943515A21B18C4206D06D1C46
:104C4000062DF6D3FFF7C6FEFF2032BD21E310B5D7
:104C500004462088FFF7E6FFFF2802D14FF0FF301F
:104C600010BD0C21DFF84C2748431044816811B96E
:104C70006FF0010010BD2046BDE810400847024615
:104C80000FF25470104710B500200C21DFF82427D4
:104C9000002401FB00F31344401C03289C641C65A2
:104CA000F7D30020002301FB00F4401C1353062817
:104CB000F9D3BDE8104098E62DE9F04790B0814661
:104CC0008846FEF7E9FA05460027DFF8EC66474517
:104CD0001FD26846FFF76CFE09EB0710416806918A
:104CE000816808916946026804920022C0680590B4
:104CF0003046FFF751FE040011D0FFF760FE8246F8
:104D00002046FFF76CFF50B15046FFF763FE7F1C53
:104D1000DDE72846FEF7C4FA10B0BDE8F08700F0E2
:104D200065FB00BF00B585B06846052141604FF4C2
:104D30007A718160DFF88426DFF884160091C26002
:104D40000121FFF7B9FF05B000BD38B504460D4697
:104D5000FFF735FE002145F80C1C226812B92560CA
:104D600006E00A4652F80C1C0029FAD142F80C5C05
:104D7000BDE832402EE680B5FFF712FEFFF715FFC3
:104D800010B96FF0040002BD816809B9022002BDAC
:104D90004068AFE006280ADA0C225043DFF81426F8
:104DA000105A00281CBF4FF6F872904202D14FF003
:104DB000FF30704708800020704730B5DFF8045698
:104DC0002A680C464FF47A71A1FB0001002300F021
:104DD00011FB002399424FF0004201D8904202D3C8
:104DE0006FF0020030BD2060002030BD01468868B1
:104DF0004968084770B505460E46FFF7D1FDFFF735
:104E0000EEFE040009D0FFF7DAFD0146002200F0B3
:104E1000A4F820B1521C062AF9D300F0E7FA4FF6A5
:104E2000F87018805C60002098602A7060683060BC
:104E30000846FFF7CFFD002070BD0C3852E670B574
:104E4000044615461E460846FFF7ECFEFF2802D131
:104E50004FF0FF3070BD014633462A462046BDE87C
:104E6000704084E070B582B00546164600F0A1F8A7
:104E7000040010D128886946C0B2FFF78BFF28B123
:104E80003068FFF7DAFF6FF0050076BDBDF800006F
:104E90002880FFF770FF204676BD38B50546FFF73E
:104EA0007FFDFFF782FE044600F01CFB002818BFC0
:104EB000012800D014B96FF0040032BD65B900209C
:104EC0000090009B60684FF000420021FEF752FF07
:104ED000401E8041C00F32BD15F1010F08BF4FF0D9
:104EE000FF30EDD069462846FFF767FF0028E8D07D
:104EF00032BD80B54FF00041FEF740FF002002BDFB
:104F00002DE9F84304460E4617469846FFF748FD3C
:104F1000FFF765FE05006FF002091CD0FFF74FFD9B
:104F20000146002200F019F840B1844211D0521C11
:104F3000062AF7D300F05AFABDE8F2831C805D60C0
:104F40009E603A706868C8F8000000F05FF80020C2
:104F5000F2E700F05BF84846EEE70C23DFF8540474
:104F6000534303441888704774E5BBE5FCE52DE91D
:104F7000F8430D460446062DB8BF062C1646994642
:104F80006FF0020806DAFFF71AFD00F005FA19B90A
:104F9000FFF720FD40460AE0FFF71CFD00F0F2F9A4
:104FA000786840684FF00041FEF7E8FE0020BDE859
:104FB000F2832DE9F04106460F469046FFF7F0FCDC
:104FC000FFF7F3FD050008BF6FF004001CD0FFF7EA
:104FD000F6FC0146A868002440B10446A4F10C0088
:104FE0000268AA6000220260FF22827200F00EF8BE
:104FF0000CB9022008E0A4F10C000179317040796D
:105000003870C8F800400020BDE8F0810846E1E4AF
:1050100082B001218DF800109DF800000028FBD11E
:1050200000F0E4F900BFFEF7EDB810B5DFF8940327
:1050300002686FF00044A4FB020100234FF47A726F
:1050400000F0D8F9002399424FF0004201D8904275
:1050500000D3204610BD70B582B00C4615461E46E2
:105060006946FFF7AAFE30B9009833462A46214622
:1050700000F002F8002076BD2DE9F0431D4689B00E
:105080002C6880460E4617462CBB0C20FFF7E2FC2E
:1050900004006FF0030918D0082324220021684679
:1050A000FDF738FA0020ADF81000059006940023B3
:1050B0006A464146DFF81003FFF776FC206030B9FE
:1050C000FFF7A6FF2046FFF70DFD484617E0666094
:1050D000A7602C600BE0DFF8F4623068804705467B
:1050E0002068FDF71BFAA76028467168884720688A
:1050F0004146FDF717FA2068FDF718FA002009B0BD
:10510000BDE8F08300281CBF0068FDF707BA7047B0
:1051100000B583B08DF80400684600F013FA9DF8DE
:1051200005000EBD00B583B00190684600F040FA5E
:105130000EBD00B583B00190684600F043FA0EBD85
:105140002DE9F04385B00446884616461F46FFF712
:1051500027FCFFF72AFD05460020029000F0C2F967
:10516000002818BF012800D015B96FF004006FE0C7
:1051700044B900200190FEF745F8814601980124CA
:10518000814425E014F1010F08BF4FF0FF30F1D04A
:1051900001A92046FFF711FE0400ECD058E0039966
:1051A00002A8FFF7D2FD68684FF00051FEF7E6FD58
:1051B0000199012411F1010F0AD0080008D0FEF76F
:1051C00021F8B9EB00002ED0019981422BD3019038
:1051D000019B68684FF000520021FEF7CBFD10B331
:1051E00003AA69460DF10100FFF7E3FE0400DFD1D9
:1051F0009DF801000DF10201FFF7CCFD0028CED192
:10520000039A9DF80010BDF80200C0470028C6D0E0
:1052100016B1BDF80200308017B19DF8000038705B
:105220000C9903980860FFF7A6FD029EFFF7C7FBE5
:10523000014656B1324600E0024652F80C0C0028F6
:10524000FAD1A86842F80C0CAE60FFF7DFFE2046EA
:1052500005B0BDE8F08338B5FFF7A2FB044600F0C7
:1052600041F9002818BF012811D0FFF7A8FB00253D
:10527000504A0C236B43D15A39B1D1184B68196885
:10528000A14206D06D1C062DF3D3FFF7A3FBFF2030
:1052900032BDFFF79FFBE8B232BD00B583B0ADF879
:1052A00000008DF80610002049490A68ADF8020098
:1052B0006846904710B99DF807000EBDFF200EBD4F
:1052C0001078422801D101207047002070470CB4AB
:1052D00070B504460E4688B000F004F90CAD002805
:1052E00014BF0128FFF794FE1420ADF81000002130
:1052F000FF2002918DF8120006960595FFF7ABFF8F
:1053000005AB03222146FFF79AFD002001A9019079
:105310000091002300222F4941F28830FFF710FF4F
:10532000012805D020B9019820B1FFF786FD01E0E2
:10533000FFF76EFE0598006808B070BC5DF80CFBC6
:105340002DE9F8430D460446062DB8BF062C164637
:1053500099466FF0020806DAFFF731FB00F01CF8FF
:1053600019B9FFF737FB40460AE0FFF733FB00F0BF
:1053700009F8786840684FF00051FEF7FFFC002004
:10538000BDE8F283A9F108000470457086704946B3
:1053900078680830FFF7D9BC0C21064A01FB05F7F5
:1053A000D7197968704700005C140020381C002071
:1053B000FF3F0020F01300207F4C00007404002009
:1053C0005DEF000050F90000ED4D00004C0400209E
:1053D00054040020C15200004F4C0000BF4900009F
:1053E000D5490000DFF800F01D9A01100120FFF7F9
:1053F000F9BF02011B4213D1094236D12AB18446BA
:10540000B0FBF2F002FB10C2704700F0EBB8FCD327
:105410000022002370470B0002000021002070478B
:10542000904271EB030CF6D370B5B1FA81F4B3FA84
:1054300083F52C1BA340C4F1200532FA05F6334353
:10544000A2405FF00046E64002E05B085FEA3202FD
:10545000841A71EB030524BF204629467641F4D314
:1054600002000B003000002170BD012ACFD970B5B9
:10547000140C20D0B1FA81F4B2FA82F5C4F1200400
:105480006419B4F12006D6D3B2405FF00044F44072
:10549000002502E052085FEA3303C61A71EB020EE0
:1054A00024BF3046714664416D41F3D302000B00C6
:1054B0002000290070BD0C46B1FBF2F102FB114542
:1054C0002D0445EA1045B5FBF2F402FB145580B2F9
:1054D00040EA0545B5FBF2F002FB105240EA0440F9
:1054E00070BD00000148007D704700BFA40100208E
:1054F00010B5044601E0FDF79BF9B4FA84F02028CA
:1055000006D000F017F8F6DB401FFDF7A6F9F4E728
:1055100010BD10B5044601E0FDF725F9B4FA84F09A
:10552000202806D000F006F8F6DB401FFDF731F921
:10553000F4E710BDC0F11F00C0B2012181404C4012
:105540000528704738B5044601206071244D207944
:10555000A8B1FFF734FA04462878FF2805D1204681
:10556000FFF738FA6FF0060032BD401C2870C0B259
:10557000012804BF6868FFF7BBFF204614E0FFF76F
:105580001EFA297821B9FFF725FA6FF0070032BD1E
:10559000491E2970C9B239B9FFF71CFA6868FFF7CC
:1055A000B8FF0020607101E0FFF714FA002032BD5F
:1055B00080B5406810F07F4F00D00DE0FFF798FFF6
:1055C000002002BD80B5406810F07F4F00D003E09E
:1055D000FFF79FFF002002BD6FF0020002BD000038
:1055E0005C040020704700002C1C00202F1C0020B1
:1055F0002E1C0020301C00202D1C002064ED00001B
:10560000901B00207C0C002014F2000018F2000017
:1056100034F200001CF2000051940000B18F000031
:105620001DD300005B890000F1C200004789000023
:10563000C18F0000ED8A000035910000E9D4000020
:105640000D8B0000E5EB0000A1F300008F3100009E
:105650004F31000009890000ADAF000091E3000068
:1056600029ED0000218A0000F9F600006F89000092
:1056700081F90000B5F8000001E70000A5D20000A4
:10568000FD9500000D950000F1A7001091BB0010E2
:10569000A5BC00108DBA001075A80010E9F8000034
:1056A000F1AF0000B9A90010F1A90010F5F8000051
:1056B000B1BA001005AB00101DA9001045940110EF
:1056C00079BD001051BD001021BE001039A8001096
:1056D0007DA9001001F90000FDA700102DBC0010ED
:1056E00041BA001021AE0010A9AF00108DAF00101C
:1056F00089AB001079B00010BDB0001041AC0010B3
:1057000081AC001009AC0010E5AB001061AC0010DA
:10571000F949001071BE0010955F0010D9490010C2
:10572000615F001049C7001079520010FD5A001047
:10573000855E0010BD4B0010E950001035CB001005
:10574000E94F0010454E0010154D001095C6001091
:1057500001CA001069CA0010B55A0010615A001041
:1057600021C90010954A0010494B001069490010EA
:10577000B54A00105DB9001001570010C16100105A
:105780008D490010814C0010594B00107D4B0010CA
:105790004D61001025C80010D14B0010ADC800109D
:1057A000B54C0010ED4A0010314C0010614A001059
:1057B0008951001029520010E5BE0010254A001042
:1057C000A9B0000065940110F15500109D5500101E
:1057D0006D530010AD490010195900109557001075
:1057E000395700104D60001045490010814D0010E0
:1057F000FD610010F97201109D720110D5E00000EA
:105800008574011061730110217201100D72011075
:1058100035720110CD710110E5710110597201103E
:10582000AD7101107D6D0010C16D0010C1680010D8
:10583000996D0010C5680010C9680010BD6C00109B
:10584000596B0010756D0010596E0010796D0010C5
:10585000B96C0010016A0010B56A0010656900108B
:10586000256E0010A1680010216E0010556D00100B
:10587000056D0010D9B90010ED6D0010996C001085
:105880008D6B001029690010956C0010ED680010F8
:105890009D6C0010596800101D6C001041690010CB
:1058A00069680010A98C0110B18B0110ED8B0110FB
:1058B000F98D0110518C0110258C0110118C0110F3
:1058C000818B0110418D011039F0000051A50010AD
:1058D0005DA50010A9A50010ADA5001065BF0010C2
:1058E000096300107D6300106962001035630010C9
:1058F000BD630010AD93001071930010898F0010EC
:10590000DD93001071E40000598F0010BDB200104B
:1059100089B2001019680010F9C00010D567001096
:1059200015C000106DB100104DB200106DB2001026
:1059300025640010216500109D6500101D66001093
:10594000256600108566001009E3000081670010DD
:10595000296D011021700110196F0110716D011076
:10596000896E0110016F0110596E0110E56F011071
:1059700039710110FD6F011009AC00009DE50000B8
:10598000F5A40010718D0010F1800010B980001096
:105990003D990110018B0010354401100572001073
:1059A0007984001085830010A9850010B986001045
:1059B00099860010BDAA0000097F0010AD7E00107E
:1059C0009186001069860010818B001059EB000051
:1059D000358600109DAF00005DA7000005F00000B7
:1059E00035F80000B1970110F57F0010E971001043
:1059F000757000109D92001021860010D192001049
:105A0000B9950010E1850010B57F0010DD8600100B
:105A1000053F01108D820010697F0010ED6F0010AE
:105A2000996F0010B17000105DA4000051AB000030
:105A300049890010498000109171001051720010C6
:105A4000DD940010297800109D890010D589001080
:105A5000099500102D7A0010897C0010DD7C001063
:105A600059760010B9940010753B0110AD7B001001
:105A7000FD8700105D880010397C0010A58A001099
:105A80007974001075940010ED7A0010197B0010E5
:105A9000E57D0010497E00105D7D0010B997011072
:105AA000DD97011021E60000458E00106D87001083
:105AB000057E01104D800110557F01107D7F011082
:105AC0007D7D01103D800110F17F011019800110D2
:105AD000E57D0110917E0110D57F0110E580011058
:105AE000B17F011021800110D57E01102D540110CD
:105AF000AD4F01109550011085910110C591011015
:105B00009D9201107592011059500110D990011009
:105B1000059101100DEE00009192011031920110DB
:105B20003952011069520110A55001102D50011079
:105B3000E54C011091530110B94E0110BD520110F6
:105B4000A9520110FD53011021530110855301107A
:105B5000895101104D530110DD510110ED4F01101D
:105B6000514F011099500110D14C0110D97A0110F8
:105B7000C97C01103D7C0110317B0110BD7B0110FF
:105B8000754D0110694E01102D4E0110F94C011098
:105B9000E952011009530110054E0110495C011032
:105BA0008D5C0110895D0110C95C01101D60011040
:105BB000A15F0110F95E0110355F0110295E01102F
:105BC0002D5F01106D5E01101161011079610110EE
:105BD000398E0110598E011025900110BD8E0110D3
:105BE000818E01101D620110659001104590011019
:105BF000815C0110FD5F0110BD5C0110415D011071
:105C0000E55B0110795F0110D15E0110E55D0110C7
:105C1000155F0110515E0110755E0110FD8F0110BE
:105C2000518F0110BD8F0110F18E0110918F011065
:105C30002D8F0110318E0110E9610110ED8F0110DF
:105C400071600110999001104D81011005840110BF
:105C500089840110BDFD001055FD001005FE0010E7
:105C600089FA0010CDFF001041830110BDFE001025
:105C7000ADFE00105D83011011FC001059FC0010F6
:105C80005D0601101D060110B183011035060110DB
:105C9000A9820110190501106D02011019060110E9
:105CA0009D030110710201109D040110C103011038
:105CB000F90301109D050110F5810110E18101102A
:105CC000E904011021040110218101108506011051
:105CD0008D8301101D070110E1060110B9060110A6
:105CE000E90001109D060110AD0001100D830110A7
:105CF00021830110C9000110D50C011015EB000023
:105D0000C9E90000D514011009140110F9080110A7
:105D10004D130110B1EC0000D91201107D0A0110E1
:105D20000512011051C60000DD0D011039DA000026
:105D3000D50F0110A90E01105D0D011069E70000DB
:105D400059D7000015F100006511011099450110A7
:105D5000A5850110F5840110FD8801102918011096
:105D600071890110B58A0110098B0110118A011087
:105D700009890110498B011041870110AD8701107D
:105D8000A58701107D8701107587011069870110B3
:105D9000858701100987011079860110BD860110E1
:105DA000E98701108D1C0110C11D0110011E011099
:105DB000751F0110FD1E0110E119011021E5000001
:105DC000C11A0110F9200110251E0110351C011007
:105DD000811E01104D19011019190110B51C011077
:105DE000851B0110F91B0110AD950110499501109B
:105DF0002595011029950110A195011035950110E7
:105E0000DD93011085930110999301100194011005
:105E1000FD4901106D470110BD4A0110894A01106A
:105E2000C9490110394A0110714A0110514C011041
:105E3000B5490110E54B01101D4C0110A14B01109B
:105E4000BD4701108148011051490110B1480110AE
:105E5000754C01100B8B0000652401108B8900002C
:105E600091EB0010EDEA00102125011015770110CB
:105E700065770110C1760110892701107D28011076
:105E800061280110E123011045240110592401105B
:105E9000B12301107D210110A52101100924011059
:105EA0005D2201102526011095280110612901109D
:105EB000012B0110452C0110652301104D23011009
:105EC0004D28011019F80010CDF9001085F90010C7
:105ED00011F9001015F2001041DD000029F1001049
:105EE000B9F20010D9F0001049F1001065F400106B
:105EF00065F50010A1EC0010F1EE00108DF500101A
:105F000055F80010C1F8001099F8001069F8001059
:105F1000FDF80010EDEC001025EE00105DF0001013
:105F200099EC001069C800008DF1001035F40010E4
:105F3000F9ED001075F20000F1F90010BDF100104C
:105F4000BDF00010DDEC00105DF3001001F5001055
:105F500055DB00001DF0001065330110CD34011039
:105F60003D35011041360110FD3501108935011014
:105F7000653101105134011035330110ED3101103C
:105F800061300110A1360110AD6401107965011076
:105F900049650110E56401100D640110D966011016
:105FA0007D6401106D660110456401105562011099
:105FB0007D6201106962011025660110ED65011016
:105FC000C9640110C96501109D65011029670110A0
:105FD0001165011029640110F56601108D6401102E
:105FE0009D660110616401102D6301104966011066
:105FF000096601103D67011050F8382F1143016008
:10600000704750F8382F22EA010101607047817D06
:10601000FF291CBFC07DFF2801D001207047002050
:10602000704738B50446FCF763FA0546207820B976
:106030000220FCF7FDFB012020700BE038B5044680
:10604000FCF756FA0546207820B10220FCF78BFBBE
:10605000002020702846BDE83240FCF759BA40685D
:10606000D030FCF7E2BF4068EC30FCF7DEBF70B523
:10607000456886680C466CB12A6A3068117800F071
:10608000AEFC38B1286A411C686A2962401C641E53
:106090006862F0E7204670BD70B5456886680C46BA
:1060A0007CB1306800F091FC10F1010F09D0296B30
:1060B0000870641E286B411C686B2963401C686370
:1060C000EEE7204670BD70B5456886680C4664B141
:1060D000306800F07AFC10F1010F06D0C1B205F172
:1060E000400000F0AFFC641EF1E7204670BD70B5C3
:1060F000466806F584750C462846FCF75FFADFF81B
:10610000E807337F717F0268DFF8E007CB18DB1DFB
:106110005C434443B069B4FBF0F010186330B0FB4B
:10612000F2F1491C2846FCF745FA2846BDE87040C4
:10613000FCF742BAF8B504466568A76805F58476A9
:106140003046FCF73BFA386818300068000711D574
:10615000DFF894170A684FF4FA70B0FBF2F10129E6
:1061600098BF01213046FCF725FA3046BDE8F240E1
:10617000FCF722BADFF87807FFF760FF38682021C4
:10618000FFF73FFF00F076FA00F07AFA01B0BDE8C1
:10619000F040184738B504460D4620212868FFF71F
:1061A00030FF297D606E012200F03DFE297D606E8A
:1061B000012200F052FE297D606E002200F078FE80
:1061C000A97D606E002200F073FEA078012805D141
:1061D000296851F8180F0007FAD405E04FF0FF3195
:1061E00004F1D000FCF718FF00F098FB2846FFF7F9
:1061F0000EFF30B1A97D606EBDE83840112200F07D
:1062000057BE31BD2DE9F04780460024D8F808502C
:106210002A68D8F8049002F1400002F144010668AF
:106220000E6009F13007B8687B69D7F818A016F43A
:10623000F06F0146A3EB0A0A33D0700518D5002091
:106240002029CCBF20250D46294652F8044F106066
:1062500004F00F0400F060F8C5F120015145C8BFFB
:1062600051464046FFF72FFF15E0B968491EB96057
:10627000B96881B1012100F04FF8296851F8040F85
:106280000C6010F00F00F0D004463868411E3960F1
:106290007968491E796089F81F40404600F075FA18
:1062A00027E0720609F19C040CD5F1B100F034F836
:1062B000B86099F82D0010B10021B96011E0B868FC
:1062C00000280DE0F20614D579B13D7B6D1E8542A4
:1062D00028BF0546294600F01FF8B868451BBD6079
:1062E00007D12046FCF7C2FD03E051464046FFF7C8
:1062F000EAFEB0060ED5D9F828405CB121464046EA
:10630000FFF7B5FEC9F8280020B9211D4046BDE8B9
:10631000F047ECE6BDE8F0874046BDE638B50446F8
:10632000DFF8D0056568FFF789FE48E24068002184
:106330000170DFF8C005017041707047F0B5064686
:1063400085B07468B5680F46FCF7D2F8217801294A
:1063500041D001212170FCF7DBF838786070002112
:106360007878A07078686060B868A060F868E060CD
:1063700038692061387D2075787D6075B87DA0759D
:10638000B869A061387F2077787F6077B87FA07781
:106390000020206204F12C00416061628160A162F2
:1063A000C16001704170102101740021417468685E
:1063B000FCF753FA304600F00DFA304600F059FA77
:1063C00068B9286800F0F0FA6868FCF7E2F9FCF7B1
:1063D0008FF800212170FCF79BF800204DE0684603
:1063E000FCF78EF800966B46287BDFF80C250190B1
:1063F00004F18000A968FCF758F86846FCF707FD2F
:1064000000966A462869DFF8F414029004F19C00B3
:10641000FCF705FDA07838B9002104F1D000FCF7A5
:10642000CEFDDFF8DC042061607838B9002104F18A
:10643000EC00FCF7C4FDDFF8CC04E0606846FCF734
:10644000B6F8002001908DF8000002966B460A22F3
:10645000DFF8B41404F58470FCF77FF8EA69A969E1
:1064600004F1400000F0C8FA33460FF2BD420421A7
:1064700004F16C00FCF765F9304605B0F0BD70B56D
:1064800005466C68AE68606E00F0C0FC306840F293
:10649000F271FFF7B6FD284600F0C1F8284600F07B
:1064A00074F9316801F12C00026822F010020260D8
:1064B00051F8303FDFF8540403400B607068FCF77C
:1064C00068F904F18000FCF711F804F19C00FCF776
:1064D000C5FCA07818B904F1D000FCF79BFD6078EA
:1064E00018B904F1EC00FCF795FD04F58470FCF795
:1064F00051F8FBF7FDFF00212170FCF709F804F1CA
:106500006C00BDE87040FCF7F6BA70B5446820290D
:106510006FF0010208D023D3222909D03EBF00200A
:1065200084F82D0000221BE0012084F82D0016E0E5
:106530008568FBF7DDFF0646286800F046FA10F193
:10654000010FF9D104F13800002101610022C16876
:106550008261491E416102603046FBF7D9FF00228B
:10656000104670BD2DE9F84307467C68BD68884633
:106570009146FBF7BDFF0646A06A18B13046FBF70F
:10658000C7FF43E004F58470FCF718F80020E077BB
:106590006062C4F820803046FBF7BAFFD54E701C0D
:1065A000FFF73FFDDFF86803016841F48071016087
:1065B00038464946FFF75BFDA06204F1D00858B9A0
:1065C00049463846FFF793FDA07820BBA1684046B6
:1065D000FCF722FDE8B10EE028682021FFF70CFD52
:1065E000A078C0B9A1684046FCF716FD88B14946BD
:1065F0003846FFF77CFD0020A06229461020E07796
:106600002046FFF7C7FD701CFFF718FD4FF0FF3065
:1066100002E0606A00E00020BDE8F283B2E070B5FD
:1066200004466568A668FBF763FFA96A41B932684A
:1066300052F8181F090703D4BDE87040FBF768BF84
:106640000021A962FBF764FF3046FFF7E0FC18B1B8
:1066500031462846FFF79EFD30682021FFF7D1FC28
:1066600000F008F8A248FFF7E9FC00F009F8BDE8DF
:1066700070401847A648016821F480710160704796
:106680006A6A286A2B695142014429622046704790
:106690002DE9F84306468846B7687468386891461D
:1066A0004FF4FA61FFF7ADFC04F13005A86820B1A2
:1066B00000F063F84FF0FF305DE0C5F80890E07738
:1066C000C5F8008068600CE029689DF8000008703B
:1066D0002868411C2960A8686968491C401E6960D7
:1066E000A860A868002838D0694604F1400000F08E
:1066F0008CF90028E8D57F4E3046FFF792FC84489D
:10670000016841F4007101604FF4FA613868FFF7E5
:1067100073FC607890B9616804F1EC00FCF77CFCD4
:1067200040B30020A8603046FFF788FC69682868FD
:106730004942084428601020E0771BE094F82D10AF
:1067400000291CBF6868002805D00021A96004F159
:106750009C00FCF78BFB00200DE000F00EF86A684F
:1067600028685142014429606078012802D1E36819
:10677000304698476868BDE8F28338684FF4FA619C
:106780003AE400BF4FF0FF30704738B504464FF48D
:10679000FA61A26865681068FFF733FC5C4801681D
:1067A00021F4007101605348FFF748FCFBF7A0FE9D
:1067B000A96B01B94FE40022AA63FBF7A9FE6A6B3B
:1067C000286BEB68514201442963204601B0BDE8C3
:1067D0003040184770B588B0054602A80FF258112E
:1067E0001422FCF771FC6C68AD68286800F0DCF8D6
:1067F00040F2F27628683146FFF703FC296801F180
:10680000440002AB066004F13C0006784278F608CA
:1068100053F82600024341F8342F6846FBF7BCFECC
:106820000FF22810217F50F821300FF23010617FD5
:1068300050F821000FF22C12A17F034352F82100DF
:10684000A2690199334C0343286800F095F8206849
:1068500040F0100020602846616841F0010161604D
:10686000FFF7D5FB18B1606840F44040606008B0A5
:1068700070BDF0B585B085684468687D264E40F0EF
:10688000004000900827287D304301902846FFF7FC
:10689000BEFB38B1A87D40F0004002901027E87D93
:1068A00006430396FE204DF80700694604F15800A0
:1068B00000F043FA6066A0B1697D0F2200F0F8FA9B
:1068C00000F02CF82846FFF7A2FB48B1A97D606EC6
:1068D000112200F0EDFAE97D606E122200F0E8FA74
:1068E000012005B0F0BD0000401B002040420F0019
:1068F000241C0020231C0020056200001D630000F2
:106900005F6000006760000035610000FEFCFFFF73
:10691000301000402C1000400000C0A0297D606EA7
:10692000102200F0C5BA000080B5042804BF10464C
:10693000FFF750FF002002BD00000000080000002B
:1069400010000000180000002000000000000000FF
:106950002000000040000000600000000000000077
:106960000800000000000000060000000200000017
:106970008600000082000000F8B504460D46164669
:106980001F4600F011F8ED00B5FBF6F0401C400882
:1069900004F124028109116000F03F0004F1280194
:1069A000086044F82C7FF1BD00F118010A68130754
:1069B000FCD400F12C010A6822F010020A6050F8A1
:1069C000303F0C490B400360704700F118010A6822
:1069D000D30601D4006870474FF0FF30704710B500
:1069E00000F1180213689C0602D40160012010BD5A
:1069F000002010BDFEFCFFFF016042600021521E1E
:106A00008160C26001614161704738B500F016F8DD
:106A1000A16801B92FE021682269895C2970216988
:106A20006268491CB1FBF2F302FB13112161A168FA
:106A3000491EA160FBF76CFDA06832BD04460D46FF
:106A4000FBF756BD38B5FFF7F9FF6168A2688A42C7
:106A500011D0E268521CB2FBF1F301FB1321226852
