:020000040000FA
:1000000000440020DD1D010001C9011001C90110DB
:1000100001C9011001C9011001C9011001C9011074
:1000200001C9011001C9011001C9011001C9011064
:1000300001C9011001C901103FC90110DFF800F02A
:1000400055A40110DFF800F0C1BF0110DFF800F087
:10005000B9BA0110DFF800F0E5C00110DFF800F0D8
:100060001FBE0110DFF800F035BD0110DFF800F011
:1000700019BD0110DFF800F069B20110DFF800F0DF
:10008000A1B601102DE9F04389B080468946174694
:100090001D46109C119E0823242200216846FFF76C
:1000A000D1FF344906964FF47A700A68B0FBF2F03B
:1000B000454305954743ADF810406B463A464946DF
:1000C0004046FFF7D7FF404609B0BDE8F08338B59A
:1000D00004460D4600F0A2FA10B12046FFF7B6FF25
:1000E00000F00EF82046BDE83240FFF7B7BF80B5FC
:1000F00000F094FA00B10120C0B202BDFFF7A6BF24
:100100001C4A10684FF47A71B1FBF0F04543294660
:100110002046FFF79FBF10B504460021FFF7AEFF52
:10012000204610BD70B505460C4616460C2002F060
:1001300024FD01000BD08E602846FFF793FF24B109
:100140004FF080412046FFF779FF012070BD304617
:1001500002F014FD002070BD10B50446FFF786FFC5
:10016000A04204D0846802F009FD204610BD0020A2
:1001700010BD0000241F010000B583B00FF2542011
:10018000914A01901021009113239049102002F010
:10019000A7FEC0B20EBD00002DE9F04200250828E0
:1001A0000E4691468A4F00F27780DFE800F0050C9A
:1001B0001824303C48546A00082E6BD10822494666
:1001C00007F1080063E0152E64DA152107F110002D
:1001D00000F022FB3246494607F1100057E0152E89
:1001E00058DA152107F1280000F016FB324649467F
:1001F00007F128004BE0152E4CDA152107F14000DD
:1002000000F00AFB3246494607F140003FE0152E58
:1002100040DA152107F1580000F0FEFA324649464F
:1002200007F1580033E0152E34DA152107F170007C
:1002300000F0F2FA3246494607F1700027E0152E29
:1002400028DA07F188041521204600F0E5FA324645
:10025000494620461BE0304602F08FFC04000ED0D9
:10026000786807F1A001884218BF02F087FC324687
:100270004946204600F06CF97C603E700DE0132585
:100280000BE0072E06D10722494607F1B00000F027
:100290005FF902E0182500E002252846BDE8F0825B
:1002A00010B500240B460828494924D8DFE800F09F
:1002B00005080B0E1114171A1D000822083116E04C
:1002C0001422103113E01422283110E0142240319E
:1002D0000DE0142258310AE01422703107E0142294
:1002E000883104E00A78496801E00722B0311846F5
:1002F00000F02EF900E00224204610BD2DE9FC4B51
:1003000091464A68107852780A9CDDF82C80DFF814
:10031000C0C000EB0220002680B242F623221D4618
:100320002746801A0CEB070307D0401E052811D979
:10033000801F20D026382ED040E0082F2DD8C7F1BE
:100340000807B84534BF4446C4F108042C8003F1C3
:1003500008012EE0D1F80CB0584600F061FA80B2E6
:10036000B8421ADBC11B8845B4BF4446041B2C802D
:100370000BEB07011DE09CF800000146A1420CD3E5
:10038000C01B8045B4BF44460C1B2C80DCF8040025
:100390002A88C1190EE0082F01D3072610E0C7F103
:1003A0000707B84534BF4446C4F107042C8003F165
:1003B000B0012A88484600F0CBF801E02E800A26DA
:1003C0003046BDE8F68B00001C030020E517010055
:1003D00064020020FD020000000000000000000098
:1003E000F0B4034618689D681A18586802EB500468
:1003F000C00721D54D441FE0F0BC03F10C0070474D
:1004000012F8017B05F8017B491EF9D1A0B1B608AD
:1004100012F8011B06F00306032E08BF12F8016B49
:1004200001EB06214942801C294405D011F8016BDB
:1004300005F8016B401EF9D1A242DDD012F8016B24
:1004400016F0030104BF12F8011BC91C30090F2864
:10045000DAD112F8010B0F30D6E7000070B5044670
:100460000F48016888470F4A05461068002101E0DF
:100470000146006870B100F108039C4222BF8688E3
:100480009B19A342F4D3036800290CBF13600B60CF
:1004900006F046F82846BDE8704003490A68104750
:1004A0004C040020A41C0020500400200300002065
:1004B00013F0030F09D0521E22BF13F8010B11F8DD
:1004C00001CBB0EB0C00F3D0704711F0030F14D147
:1004D000121F22BF53F8040B51F804CB6045F7D02C
:1004E000121D0AD200BA9CFA8CFCB0EB0C0038BF8B
:1004F0006FF0000088BF01207047521E22BF13F822
:10050000010B11F801CBB0EB0C00F6D0521C08BF68
:100510001046704702460229107803D1517800EB4B
:1005200001207047032906D15178927800EB012011
:1005300000EB02407047042908D15178937800EB12
:100540000120D17800EB034000EB01607047000010
:1005500062B38B0708D0521E11F8013B00F8013B33
:1005600000F024808B07F6D1830740F0208000BF85
:10057000103A07D330B4B1E83810103AA0E8381078
:10058000F9D230BC530724BFB1E80810A0E8081026
:1005900044BF51F8043B40F8043BD20724BF31F874
:1005A000022B20F8022B44BF0B7803707047121FF8
:1005B00017D35B0009D151F8043B20F8023B1B0C18
:1005C000121F20F8023BF6D20BE051F8043B00F872
:1005D000013B1B0A20F8023B1B0C121F00F8013BD9
:1005E000F3D238BF121D521E24BF11F8013B00F890
:1005F000013BF8D8704701700A0A42700A0C090ED4
:100600008270C170001D70470A050000002205F0CD
:1006100093BF0000DFF800F01D9A0110808A704738
:100620000120FFF7F7BF00001B4213D1094236D16A
:100630002AB18446B0FBF2F002FB10C2704705F00D
:10064000ABBFFCD30022002370470B000200002147
:1006500000207047904271EB030CF6D370B5B1FAED
:1006600081F4B3FA83F52C1BA340C4F1200532FAC0
:1006700005F63343A2405FF00046E64002E05B0827
:100680005FEA3202841A71EB030524BF2046294633
:100690007641F4D302000B003000002170BD012A26
:1006A000CFD970B5140C20D0B1FA81F4B2FA82F52A
:1006B000C4F120046419B4F12006D6D3B2405FF02F
:1006C0000044F440002502E052085FEA3303C61AF2
:1006D00071EB020E24BF3046714664416D41F3D385
:1006E00002000B002000290070BD0C46B1FBF2F1A6
:1006F00002FB11452D0445EA1045B5FBF2F402FB5F
:10070000145580B240EA0545B5FBF2F002FB1052E9
:1007100040EA044070BD00000148007D704700BF02
:10072000A401002010B5044601E006F06BF8B4FA0D
:1007300084F0202806D000F017F8F6DB401F06F002
:1007400076F8F4E710BD10B5044601E005F0F5FFBA
:10075000B4FA84F0202806D000F006F8F6DB401F3B
:1007600006F001F8F4E710BDC0F11F00C0B201218E
:1007700081404C400528704738B50446012060711F
:10078000244D2079A8B101F0EAFE04462878FF281C
:1007900005D1204601F0EEFE6FF0060032BD401C90
:1007A0002870C0B2012804BF6868FFF7BBFF20466D
:1007B00014E001F0D4FE297821B901F0DBFE6FF0DE
:1007C000070032BD491E2970C9B239B901F0D2FE05
:1007D0006868FFF7B8FF0020607101E001F0CAFE11
:1007E000002032BD80B5406810F07F4F00D00DE092
:1007F000FFF798FF002002BD80B5406810F07F4FE2
:1008000000D003E0FFF79FFF002002BD6FF0020061
:1008100002BD00005C040020002206F0CBBA0201F9
:1008200000F10103810704D010F8011B89B1810791
:10083000FAD10268B2F10131914311F0803F04BF57
:1008400050F8042FF6E710F8011B11B110F8011B46
:10085000FBE7C01A7047000000000000DFF800F05E
:10086000D5140110DFF800F0BDFD0010DFF800F036
:1008700005FE0010DFF800F011610110DFF800F054
:10088000891401102DE9F0410C4684B00746207A06
:100890000026C10690461D460BD54046FFF7DEFFF9
:1008A000030000F0F0800A222146384698470600EF
:1008B00050D1207802281AD160680178427801EB83
:1008C000022189B24FF42050091A012910D9891E3A
:1008D00041D0491E16D0FD3905D0491E00F08B804D
:1008E000491E74D0491E7BD0491E00F0A180B8E09B
:1008F0000B98002831D1E0680A9A017811800278BB
:10090000416891E00B98002827D10A9801210180C5
:10091000E0680178297000216089401C80B2FFF7EF
:10092000A1FF0A99098868B102780A9B921C5118A4
:100930001980418969704189090AA9700278416862
:10094000E81C72E00A98091D018004220021681C3D
:100950000AF0BFFD98E00B9800286BD1E06807888B
:100960000A98042101802F70380A68700DF1020185
:100970003846FFF777FF04001FD0E768BDF8022074
:100980004FF6FF786B464146FFF770FF40B923787A
:1009900062683F480221FFF76DFF08B9ADF800809B
:1009A000387802280BD179680222281D0AF09BFDB5
:1009B0000A980188891C018001E0ADF80070BDF83B
:1009C0000000A870BDF80000000AE8705CE00B9819
:1009D00000282FD1E068016838460DF069FD03E07A
:1009E0000B9838BBE06800880A9A022111802870B1
:1009F000000A687048E0E0680BF0B2FA0B9B80B226
:100A00009842B8BF07263FDB834208BF002006D0CC
:100A10000C99C9188142B2BF0C98C01A80B20A99C9
:100A200008800246E068C11828460AF05CFD2BE009
:100A30000B9808B10B2627E00A9AE068072111807D
:100A400002782A70417869704188A9704188090A42
:100A5000E97001792971C1886971C088000AA8719B
:100A600012E04046FFF70AFF06000CD00D980C99E3
:100A70000A9B029001912A460B9800902146384625
:100A8000B047064600E00E26304604B0BDE8F081CF
:100A900064F60000000000000000000000000000FC
:100AA0000000000000000000000000000000000046
:100AB0000000000000000000000000000000000036
:100AC0000000000000000000000000000000000026
:100AD0000000000000000000000000000000000016
:10100000B41200001810000015AB0110FDB3011060
:101010006DC00110FDAE011099B501100000000077
:10102000000000002D000000B01200003C10000085
:10103000B1C00110A9BF011067C0011069B801104B
:10104000000000000000000030000000B0120000AE
:1010500060100000BDC00110CDB30110D9BD01105A
:101060006DB301100000000000000000310000001E
:10107000000000002C070020040000000000000019
:101080000000000020000000741701003000000084
:10109000281000004C0700200400000000000000A1
:1010A000000000000C0000001C1D010018000000E2
:1010B0004C10000054070020040000000000000055
:1010C0000000000024000000341D01001800000092
:1010D0000000000094070020040000000000000051
:1010E0000000000010000000141801002C00000097
:1010F00000100000B0070020040000000000000005
:101100000000000020000000181A01002400000068
:10111000FFFFFFFFB80700200400000000000000F0
:1011200000000000280000003C1A0100240000001C
:10113000FFFFFFFFE00700200400000000000000A8
:1011400000000000140000004C1D01001800000009
:10115000FFFFFFFFE8070020040000000000000080
:101160000000000058000000B81501003400000025
:10117000FFFFFFFFF0070020040000000000000058
:101180000000000010000000641D010018000000B5
:10119000FFFFFFFFF8070020040000000000000030
:1011A000000000001C000000601A01002400000084
:1011B000FFFFFFFF00080020040000000000000007
:1011C0000000000038000000F818010028000000AE
:1011D000FFFFFFFF6808002004000000000000007F
:1011E0000000000054000000F41201003C00000068
:1011F00001000000281F01000100000000000E0097
:1012000000000F0032000000010000003407002041
:10121000000200000000000001C9011000000000F1
:101220000000000008000000000022005C07002011
:10123000000000000000000008000000C0070020BF
:101240000000000000000000080000000000000096
:10125000000000000000000000000000010000008D
:1012600008080020060000000100000070080020AF
:10127000000000000000000000020000000000006C
:10128000290001002500300031002D00010001007F
:1012900004000000301E01000000000000000000FB
:1012A000000001000000030013C40110B9EA0000AF
:1012B000B8120000B812000000000000A4070020CF
:1012C00019EA000020000000F41D010020190100AF
:1012D00029C101101F65000097650000A1C701101A
:1012E000A3C70110000000008E83000070110100F0
:1012F00088110100581101000200090001000000DE
:1013000001000000C518010099180100291C010006
:101310002516010043170100A111010085090100F4
:10132000951D010091E90000F1EA0000F5EA0000D6
:10133000DFF800F089840110DFF800F00584011067
:10134000DFF800F001C10110DFF800F005C1011065
:1013500010B5DFF8844B0020207082B004F110003B
:10136000FEF7D9FEA06004F11C00FEF7D4FEE06099
:101370005020DFF8684B217801F098FD0246DFF835
:10138000601B00F023FA2178502001F08FFD024607
:10139000DFF83C1C00F01AFA0FF25400DFF8341C9E
:1013A00000901523002200F05EFD4FF0FF32DFF8C1
:1013B000281C00F00BFA4FF0FF32DFF8201C00F081
:1013C00005FAFEF7D9FEBDE81640002038B5DFF873
:1013D000104C00202070A06940B1056801F0CEFBE0
:1013E0002800FAD1A16900200860A06131BD000089
:1013F000534E5000000000000000000000000000FC
:10140000000000000000000030B5044683B02079E1
:101410001E2814D1608800F0FF01000A01EB0021B2
:10142000ADF805100DF1050560788DF80400009504
:10143000022301AA8921552001F00EFF15E07F2823
:1014400013D160888DF800006B466188090A8DF819
:101450000110042221898DF8021000212089000A40
:101460008DF80300202001F04AFF217904F10800E3
:10147000FFF75EFF37BD012800D0704710B5DFF8D9
:10148000604B6078122882B003D018280FD0FE2855
:1014900027D1A069D0B187218DF8001000228E21BC
:1014A0008DF8012000F085F9A088FFF78FFFA06973
:1014B00060B141790091038AC2884169C06800F037
:1014C00091FDA06900210171406908E06078A3895D
:1014D000628821690090A06800F084FD2069FEF711
:1014E000BDFF13BDF8B5DFF8B45BDFF8B46BDFF810
:1014F000E8791EE06069A0B1606802223146FEF71B
:10150000D5FF28B1606802222946FEF7CFFF30B927
:1015100060694068B0F5801FA8BF01F02FFB00F0A4
:1015200046FA6068B0F5801FA8BF01F027FB00F005
:101530003BFAB868FEF710FE0400DBD1012078709A
:10154000F1BD70B586B004460D4602A940F20E30DA
:1015500002F040FDDFF8886A3178002909D00020C8
:1015600030702078932805D100203061B088FFF7D3
:101570002DFF75E098B17078B168B2888DF80000E1
:101580006B464889ADF80200102021788DF80410D0
:10159000DFF8581C01F0A4FC0020306160E0708886
:1015A000A84254D3707808283FD00A2802D00C28CB
:1015B0001BD04CE0B08800232A460B21FFF7BCFE6D
:1015C000049010B900F05BF83EE000F050F8B288EB
:1015D000DFF8701C00F047F8002841D000F0CEFD85
:1015E000012100F0E4F80B211BE0B08800232A461B
:1015F0000D21FFF7A1FE049010B900F040F823E0A0
:1016000000F035F8B288DFF8401C00F02CF8C1B2C9
:10161000002925D000F03AF88DF8020000F0CBF850
:101620000D2103A8FFF784FE1AE0B06841890191FB
:101630000095D4F80730B288DFF8101C00F013FCD6
:10164000C1B269B100F022F88DF8020006E000F0A6
:1016500095FD84218DF800008DF8021000F0ABF8A4
:10166000002006B070BD03AB102001F039BCADF80E
:101670000C50D4F8071004982A46FEF769BF87205B
:1016800000218DF800008DF801107047872100229D
:101690008DF800108DF80120704700BF30B5DFF8DD
:1016A00040592978002983B070D00178932910D04F
:1016B00091B16978AA688DF800106B465189AA88A3
:1016C000ADF802100078DFF8241B8DF80400FFF756
:1016D000CBFF00F077F859E0AA88B0F801009042FB
:1016E00006D08DF801108820842100F060F84DE0CC
:1016F0006878122804D0182807D0FE2826D027E0C2
:1017000000202870DFF8041C1DE0AC69DFF8001C25
:10171000BCB1207900283BD12068002818BF0446BE
:10172000F7D135E018200090238AE2886169E068EB
:1017300000F058FC002020716069FEF78FFE012048
:1017400005E00020287000F041F801E0002028703A
:10175000A86841680A78497802EB012292B242F601
:1017600002139A4210D1C0680068297D8170AA884E
:1017700002806878FE2807D000911020A9684B8964
:10178000DFF8901B01F0ACFB0020286100203EBD7B
:101790002379002B04BF20680028C3D12B7000F0F0
:1017A00015F82869FEF75AFE00F00CF8D0E78DF81E
:1017B00000008DF802106B46032200214FF4004018
:1017C00001F09DBD00202861A888FFE5102001F0F0
:1017D00087BB2DE9F843804689461446872604B125
:1017E00026700DF1010100F0B5F99DF8011019B155
:1017F00054B18620207007E0DFF8DC767878012885
:1018000004D10CB186212170862040E0012078703F
:1018100000F027F9050039D000F0FEF8022028700A
:1018200098F80000012802D0022832D034E0DFF816
:1018300070086860012028720020688108202882D2
:1018400001F09BF90028686136D06A46494608F1E4
:10185000010003F0C3FA78B36A699DF800101170B3
:10186000696948606869DFF84C1CE860102001F085
:1018700037FBB8802A463878401C38700021B86899
:10188000FEF750FC68B1002604B126703046BDE872
:10189000F283DFF80808CCE70CB1842020708420A4
:1018A000F5E768694068B0F5801FA8BF01F066F9E8
:1018B000686908B101F062F9284601F05FF9E5E7CF
:1018C00011B581B000F0CDF804001CD000F0A4F8F0
:1018D00002202070DFF8E00B00F060F80120208289
:1018E00001F04BF9606160B1E06001A861690278C4
:1018F000DFF8C80B0A70224600F011F828B900F092
:1019000056F800F051F8002016BD012016BD9DF8D4
:10191000000028706C602E722A46DFF8A00B8068E9
:101920000021FEF7FFBB18B50FB481B000F099F8A5
:1019300004002ED000F070F802202070DFF8800B39
:1019400000F02CF80620208201F017F96061F0B158
:10195000E06001A960690A78027002A9421C0B7854
:10196000137003A9821C0B7813704B78537004A971
:10197000021D0B78137008A90A7800F8052F4A7821
:1019800042702246FFF7C9FF28B900F010F800F0B6
:101990000BF8002000E0012006B010BD60600120BF
:1019A0002072002060817047204601F0E7B860692E
:1019B00001F0E4B82DE9F04107460E461546984679
:1019C00000F04FF8040022D000F026F8022020702A
:1019D00007F0CF07DFF8EC0A606027720020608113
:1019E0002682304601F0C9F8606170B1E0602A4695
:1019F00060694146FEF7ACFDDFF8C00A8068224608
:101A0000FFF78EFF28B9FFF7D2FFFFF7CDFF0020C9
:101A100000E00120BDE8F0811821FEF7F7BDF8B520
:101A200014461F4601F0CF0600F01BF8050014D045
:101A3000FFF7F2FF6A462146384603F0CFF904006B
:101A400008D0FFF764FF50B9B4F5801FA4BF20464B
:101A500001F094F8284601F091F80020F2BD012031
:101A6000F2BD182001F089B8F8B500F0CF060C4699
:101A70001746FFF7F6FF050014D0FFF7CDFF6A46C3
:101A80003946204603F0AAF9040008D0FFF73FFFCB
:101A900050B9B4F5801FA4BF204601F06FF8284666
:101AA00001F06CF80020F2BD0120F2BD38B505460A
:101AB000FFF7D7FF040036D0FFF7AEFF02202070FB
:101AC00005F0CF05DFF8000A606045F001052572DA
:101AD00000206081DFF8F45928788000001D208202
:101AE000208A01F04AF86061D8B1011D016000212F
:101AF0006069E0606069001D07E0FF2220F8212096
:101B000000EB810300229A70491C2A789142F4DB91
:101B1000DFF8A80980682246FFF702FF28B9FFF71F
:101B200046FFFFF741FF002032BD012032BD10B556
:101B300082B00446694600F00DF89DF800000028C8
:101B400002BFDFF878194878012802D08621217079
:101B5000002016BD40F21A3002F03CBA70B582B0D7
:101B6000054687200E4614468DF800001CB1002162
:101B7000A4F8011020706846FFF7D9FF40B9FFF7BD
:101B8000B1FC14B19DF8000020709DF8000076BDF6
:101B9000B5F80100C0B2FFF793FE10B9FFF7A2FC41
:101BA0000BE02978A888AB1D3246FFF738FF30B923
:101BB000FFF798FC0CB187202070872076BDDFF8F6
:101BC000FC080178891C01704CB18288C9B289185F
:101BD000491E00F09AF8A4F801100021217000219C
:101BE0008170002076BDF0B583B0044687200D4695
:101BF0008DF804000027217811F0700F68D101A83A
:101C0000FFF795FF00285ED0DFF8B0682078B17844
:101C1000014201D08620FEBDC0070ED5D4F80100D8
:101C2000C11C00780222FFF71FFF00284BD000F0F4
:101C300069F86980401C012730702078810710D531
:101C4000D4F80500C11C00781022FFF70DFF002812
:101C500039D000F057F8AA1C401C22F817107F1C3E
:101C60003070207841070BD5D4F809000078FFF7D1
:101C70001DFF002827D000F04EF840F00400B0709F
:101C80002178080710D5D4F80D00B0F805100091A0
:101C90000379428841780078FFF745FE98B100F05B
:101CA0003AF840F00800B0702178080624D5D4F83E
:101CB0001100D0F80530B0F80320B0F8011000781A
:101CC000FFF778FE40B9FFF70DFC9DF80400FEBD5C
:101CD000FFF708FC8420FEBD3078B188401C3070CE
:101CE000FFB2C0B2401800F0B7F8A91C21F81700E5
:101CF000B07840F08000B0700021297020786870C2
:101D00000020FEBD3078B188411801F0FF0201F4D7
:101D10007F41891870473078B188401C3070FFB21D
:101D2000C0B24018401E00F0FF0100F47F40401890
:101D3000A91C21F817007F1CB07870472DE9F047E7
:101D400084B0054600240DB9842076E0A5F8014052
:101D5000A5F803408720287002A9FFF7FBFE9DF835
:101D60000800002802BF5C4F7878012803D0862144
:101D70002970862061E0102000F0FFFE060068D088
:101D80003878000100F0F9FE5FEA00085ED038788C
:101D9000800000F0F2FE5FEA000A01D1404653E005
:101DA000C6F80080C6F808A0B888B08139783171CB
:101DB0000818401EF08113E0B88820182AF8240083
:101DC0000AEB8401B9F8100048801022494608EB5C
:101DD0000410FEF7BDFB4846641C00F0CFFEA4B221
:101DE000B868FEF7B9F95FEA0009E5D1F86832464C
:101DF000FFF796FD20B3B88800F0FF01020A01EB5F
:101E00000221A5F8011042463B78181800F024F88A
:101E1000A5F8030010210020787000910FF2CC602B
:101E2000DFF8AC16019000F01EF82870287808B191
:101E3000FFF758FB00213970287804B0BDE8F0871F
:101E4000404600F09BFE504600F098FE304600F001
:101E500095FEFFF747FBEFE7401E00F0FF0100F49F
:101E60007F4040187047102001F03AB8F8B5DFF80D
:101E70004C760646F8680C461546FFF761FA01E015
:101E8000FFF762FAF968884223D0826893899E42FC
:101E900024BFD189B142F3D3106891681279C0B1DF
:101EA0000023934215DA1F0100EB070CBCF80AC0AF
:101EB000B44504D100F10C0C5CF80770276031F8D0
:101EC0002370B74203D101EB83077F882F805B1C0F
:101ED000E7E70020F2BD000028180020A805002038
:101EE000BD1E010030B583B0002301930C4615469A
:101EF00000886A4601A9FFF7B9FF38B90198C4F80C
:101F00000300BDF80000288000203EBD88203EBDB3
:101F10007CB50546002001900E46144628886A4686
:101F200001A9FFF7A3FF98B9BDF8000008B9862002
:101F300076BDB04201D2842076BDD5F8021001985A
:101F40003246FEF705FB2888A4F80100002076BD84
:101F5000882076BDFEB50A9C0A2C1CBF0C2C082CD0
:101F600005460E4631D1844F387870BB01A940F246
:101F70000E3002F02FF870897C7000F0FF0101AA8A
:101F8000000A01EB00215180BD800899089801F0FA
:101F9000FF01000A01EB00219180BE6009980999B8
:101FA00000F0FF00090A00EB0120ADF80A00082349
:101FB00001203870002209987880872101A80090BC
:101FC0001624552001F048F900E011242046FEBDFA
:101FD00031810110F1B50000A91A0100E11B0100D7
:101FE0000C1800202DE9FE4307460C007868417864
:101FF000904602781E4602EB01294DD0072000F0E2
:10200000BCFD050048D0294640F20E3001F0E2FF49
:102010007889A87042F602117889000AE8701FFAE0
:1020200089F0884220D15449012008700C61A1F840
:1020300002808E818F600A98487001202871681D87
:102040002278027062784270207808754878FE28FD
:1020500004BF086900F092FD0095072300228B2140
:10206000552001F0F9F812E00A986E7152280CBF61
:1020700000200120360A2871AE710294CDF8048048
:102080000095072300228821552001F005F92846F4
:10209000BDE8FE4300F072BDBDE8F78364F60000C2
:1020A00060F600002DE9FC470A9D81468A461E46DF
:1020B000701940F2012188429046A8BF182059DAD1
:1020C0002D4F3878012808BF0E2053D00B98BC69DB
:1020D000122807D0162829D018280CD0522819D039
:1020E000FE2811D13CB100F049F88E21FFF75FFBCB
:1020F000B888FFF76BF90B9801900095334642467C
:102100005146484600F03FF80B9852280CBF00207B
:1021100016202FE0522100912B4632464146504670
:10212000FFF760FF4046FEF799F9EDE71CB100F0BC
:1021300066F8206002E0FFF794FCB86140B100F05F
:1021400057F8C6800582C0F80CA0A0F80890DBE71D
:1021500087208DF8000000218DF802008DF8011015
:102160006B4603224FF4004001F0C9F8B888FFF72E
:102170002DF91320BDE8F6870C18002000218DF8FA
:102180000110872070472DE9F047DFF84873089D5C
:10219000BC6906468A469046994654B100F02FF82D
:1021A000206000F025F8A0F806900582C0F80CA089
:1021B00006810120099C3870FE2C08D1484600F0A9
:1021C000DCFC38614A464146FEF7C2F901E0C7F837
:1021D0001080A7F802907C70BD81C7F808A0BE806F
:1021E0000121BDE8F047022001F009B8398E011045
:1021F00000210160C0F8148001210171704700E0E6
:10220000044620680028FBD1182000F0B6BC10B5A9
:1022100082B00B4601780129144602D0022907D06A
:102220000CE0811C00914278AB49FFF71CFE06E0F0
:10223000821C4078D9B2FDF7AFFF00E08920207002
:10224000207816BD2D8F0110518F0110C5FC0000A4
:1022500010B50C4600211180C4F80210417861705D
:10226000017821700178012902D0022927D048E0A5
:102270004078082811D8DFE800F005070D090B0D9C
:102280000D0D0D00152006E0022004E0062002E0FE
:10229000082000E00120108003E01188842000293C
:1022A00033D0108800F069FC0300C4F8023026D057
:1022B00062788A49102000F013FEC0B21BE040781B
:1022C00028B1401E062806D9C01F02D006E008200B
:1022D00002E0072000E01520108002E01188842031
:1022E00099B1108800F049FCC4F8020038B10146E9
:1022F0006078FDF7D5FF022807D1842010BD872024
:1023000010BD00218920C4F8021010BDED8F01100E
:102310002590011061FB00002DE9F04F054685B0C6
:102320006879002410F0030F1CBF00F0030003289D
:102330008A4600F0B9806149C868FFF701F8834612
:1023400042F6030803E05846FEF7FEFF83465B486B
:10235000C1688B4562D0DBF80800B5F8029081892E
:10236000894524BFC1894945EDD30168027900261A
:102370009642E8DA01EB0610761C43894B45F7D10B
:10238000A0F10C0318680778407807EB002080B2B2
:10239000404507D19B6868791B7810EA231F03D05A
:1023A000334608E083206FE090206DE0C44533D0D1
:1023B000002CDDD15B1C9342DADA4FEA031E01F1F7
:1023C000040C5CF80E7097F800C07F780CEB0727C0
:1023D0001FFA87FC42F60217BC45E7D101F10C0356
:1023E0004FF0000C53F80E301B6801E00CF1010CAB
:1023F000364F3F785FFA8CFEBE4557D25FFA8CFCB1
:1024000033F82CE02F88BE45F0D19B1C13F82C40EC
:1024100004424DD00124ABE7912035E00CB988206F
:1024200032E0288802AB4FF6FF721B21FEF784FFD3
:10243000049008B9872027E06888ADF80C00524660
:10244000BDF808009042B4BFBDF808101FFA8AF129
:10245000ADF80E10B8BFBDF808200498A91DFEF70E
:1024600077F86879C10712D528791D49009003AB28
:102470002A88102000F034FD0446C0B218B11B2198
:1024800003A8FEF755FFE0B205B0BDE8F08F800766
:102490000AD514480178502000F008FD019003ABE4
:1024A000287911490090E3E78420EDE7002CB2D1B0
:1024B0008F20E9E7B90701106CF60000281800200A
:1024C00080F6000074F6000078F60000694F0020E6
:1024D000E51701000C180020F1B500007D13010084
:1024E00045000110A8050020CDFF0010551F000079
:1024F000A520000000000000DFF800F085BF0110FB
:10250000DFF800F061C00110DFF800F021C0011019
:10251000DFF800F031BF0110DFF800F0F5B701106F
:10252000DFF800F02DB40110DFF800F0CDAC0110A1
:10253000DFF800F02DC00110DFF800F0F99B01106A
:10254000DFF800F09DB20110DFF800F0FDB10110DE
:1025500020B108233C220021FFF7D6BF704780B589
:10256000FFF7D6FFADF80000FFF7C6FFADF8020099
:10257000009802BD01B5BDF80200FFF7C1FFBDF82C
:102580000000BDE80240FFF7C7BF38B5DFF82C4AAE
:102590002078012832D0DFF8282ADFF8280A9208AC
:1025A0009200801A206301212170E262104602E04D
:1025B000002340F8043B236B9D18A842F8D39B08E6
:1025C00002EB8301002041F8040CE8201060206B2E
:1025D00080088000EC38C2F8E80002F1E800A06052
:1025E000002000F00CF8E060E06AA0600220A0612A
:1025F000606100206080206B001FA06231BDF8B5D3
:1026000000260025071D17F003001CBF391D0F1AF7
:10261000FFF7A5FFDFF8A42901465160112F34BF51
:102620009468D4682068002803D580F00040002515
:1026300019E02B0013D053695B1E536193695B1E35
:102640009361D4F800C033686344BB4233600AD35B
:10265000344618466CB95088401C508043E0B8425C
:10266000F8D201252646044420680028DBD1002446
:10267000F1E7C01BD36A042818D3E05147F00040AB
:10268000206050691569401C5061854238BF106157
:10269000D0693818D061E019C31A506A984238BF1F
:1026A00018465062906AC71B976216E0D569206889
:1026B00045199069D561401E90612568506A25448E
:1026C000EB1A984238BF18465062936A20681B1A6A
:1026D0009362206840F000402060D069136A834212
:1026E00038BF1062241D00F09AFA2046F2BD10B5E2
:1026F0000446FFF734FFDFF8C428506054F8041C88
:1027000021F0004144F8041CD369591AD161916940
:10271000936A491C916154F8041CCB189362211FE1
:102720009368994238BF9160BDE8104022E72DE9D7
:10273000F041FFF714FFDFF88418CA6848600026EC
:102740000027002400250AE00C460127164605E074
:102750003B00F9D03368CB1833600C190A44116878
:10276000A846A54238BFA046002905D0F0D581F083
:10277000004100274546F1E7FFF7FCFE4046BDE873
:10278000F08110B50446DFF83408016B2160806ADF
:102790006060FFF7CCFF09282CBF08380020A0603C
:1027A00010BD80B5FFF7F1FE4BF6BE2002BD084616
:1027B00025E708469BE702B56846FFF7E2FF01BD43
:1027C0000120704770B50446FFF7C9FE0022DFF80C
:1027D000F8570C265643A95921B18C4203D0521CFC
:1027E000042AF6D32EE1FFF7C5FEA81970BD70B517
:1027F0000546FFF7B4FE044600210C22DFF8C807A7
:102800004A438618306830B185420DD0491C0429EE
:10281000F3D3204616E1B06035600021FFF780FE5B
:10282000706008B9FDF7FCFE2046FFF7A3FE3046B6
:1028300070BD38B50446FFF792FE0025DFF88C27FF
:102840000C216943515A21B18C4206D06D1C082DD0
:10285000F6D3FFF78FFEFF2032BD23E310B5044609
:102860002088FFF7E6FFFF2802D14FF0FF3010BDB0
:102870000C21DFF8582748431044816811B96FF0E4
:10288000010010BD2046BDE81040084702460FF287
:102890006070104710B500200C21DFF82C270024B1
:1028A00001FB00F3401CD450134404289C60F7D370
:1028B0000020DFF81827002301FB00F4401C13530D
:1028C0000828F9D3BDE810405FE62DE9F04790B045
:1028D00081468846FFF71CFE05460027DFF8F066B4
:1028E00047451FD26846FFF733FE09EB07104168E2
:1028F0000691816808916946026804920022C068C6
:1029000005903046FFF710FE040011D0FFF727FEB8
:1029100082462046FFF76BFF50B15046FFF72AFE74
:102920007F1CDDE72846FFF7F7FD10B0BDE8F08714
:10293000FDF776FE00BF00B585B068460521416011
:102940004FF47A718160DFF88C26DFF88C160091E5
:10295000C2600121FFF7B9FF05B000BD38B50446DC
:102960000D46FFF7FCFD002145F80C1C226812B94A
:10297000256006E00A4652F80C1C0029FAD142F8FC
:102980000C5CBDE83240F5E580B5FFF7D1FDFFF7FF
:1029900019FF10B96FF0040002BD816809B9022067
:1029A00002BD4068AFE008280ADA0C225043DFF885
:1029B0001C26105A00281CBF4FF6F872904202D114
:1029C0004FF0FF30704708800020704730B5DFF8C7
:1029D0000C562A680C464FF47A71A1FB00010023C3
:1029E000FDF722FE002399424FF0004201D89042A9
:1029F00002D36FF0020030BD2060002030BD0146E0
:102A000088684968084770B505460E46FFF790FD8F
:102A1000FFF7EDFE040009D0FFF7A1FD01460022FB
:102A200000F0A4F820B1521C082AF9D3FDF7F8FDF4
:102A30004FF6F87018805C60002098602A7060681B
:102A400030600846FFF796FD002070BD0C384EE65A
:102A500070B5044615461E460846FFF7EAFEFF28F5
:102A600002D14FF0FF3070BD014633462A46204662
:102A7000BDE8704084E070B582B00546164600F0AF
:102A8000A1F8040010D128886946C0B2FFF78BFF77
:102A900028B13068FFF7DAFF6FF0050076BDBDF8AA
:102AA00000002880FFF770FF204676BD38B5054648
:102AB000FFF73EFDFFF786FE0446FDF72DFE0028DA
:102AC00018BF012800D014B96FF0040032BD65B9F9
:102AD00000200090009B60684FF000420021FFF74B
:102AE0002BFD401E8041C00F32BD15F1010F08BF04
:102AF0004FF0FF30EDD069462846FFF767FF00280A
:102B0000E8D032BD80B54FF00041FDF797FA0020C4
:102B100002BD2DE9F84304460E4617469846FFF7D6
:102B200007FDFFF764FE05006FF002091CD0FFF7F8
:102B300016FD0146002200F019F840B1844211D080
:102B4000521C082AF7D3FDF76BFDBDE8F2831C8009
:102B50005D609E603A706868C8F8000000F05FF839
:102B60000020F2E700F05BF84846EEE70C23DFF8C0
:102B70005C04534303441888704740E5B7E500E61A
:102B80002DE9F8430D460446082DB8BF082C16461B
:102B900099466FF0020806DAFFF7E1FC00F005FA4B
:102BA00019B9FFF7E7FC40460AE0FFF7E3FC00F045
:102BB000F2F9786840684FF00041FDF73FFA0020D5
:102BC000BDE8F2832DE9F04106460F469046FFF737
:102BD000AFFCFFF7F7FD050008BF6FF004001CD045
:102BE000FFF7BDFC0146A868002440B10446A4F1EB
:102BF0000C000268AA6000220260FF22827200F0CC
:102C00000EF80CB9022008E0A4F10C000179317033
:102C100040793870C8F800400020BDE8F0810846CF
:102C2000A8E482B001218DF800109DF80000002872
:102C3000FBD1FDF7F5FC00BFFFF782BC10B5DFF854
:102C40009C0302686FF00044A4FB020100234FF4D0
:102C50007A72FDF7E9FC002399424FF0004201D857
:102C6000904200D3204610BD70B582B00C46154688
:102C70001E466946FFF7AAFE30B9009833462A4639
:102C8000214600F002F8002076BD2DE9F0431D46F4
:102C900089B02C6880460E4617462CBB0C20FFF7E7
:102CA000AEFC04006FF0030918D008232422002191
:102CB0006846FDF7C7F90020ADF8100005900694AE
:102CC00000236A464146DFF81803FFF73DFC206009
:102CD00030B9FFF7A6FF2046FFF709FD484617E089
:102CE0006660A7602C600BE0DFF8F8623068804710
:102CF00005462068FDF7AAF9A7602846716888474D
:102D000020684146FDF7A6F92068FDF7A7F90020E5
:102D100009B0BDE8F08300281CBF0068FDF796B934
:102D2000704700B583B08DF804006846FDF724FDB8
:102D30009DF805000EBD00B583B001906846FDF713
:102D400051FD0EBD00B583B001906846FDF754FDFE
:102D50000EBD2DE9F04385B00446884616461F4651
:102D6000FFF7E6FBFFF72EFD054600200290FDF77A
:102D7000D3FC002818BF012800D015B96FF004005B
:102D80006FE044B900200190FFF7DAFB814601981B
:102D90000124814425E014F1010F08BF4FF0FF30FA
:102DA000F1D001A92046FFF711FE0400ECD058E055
:102DB000039902A8FFF7D2FD68684FF00051FDF7B4
:102DC0003DF90199012411F1010F0AD0080008D042
:102DD000FFF7B6FBB9EB00002ED0019981422BD34F
:102DE0000190019B68684FF000520021FFF7A4FB9F
:102DF00010B303AA69460DF10100FFF7E3FE0400DA
:102E0000DFD19DF801000DF10201FFF7CCFD002894
:102E1000CED1039A9DF80010BDF80200C0470028EB
:102E2000C6D016B1BDF80200308017B19DF8000081
:102E300038700C9903980860FFF7A6FD029EFFF713
:102E40008EFB014656B1324600E0024652F80C0CA9
:102E50000028FAD1A86842F80C0CAE60FFF7DFFE3C
:102E6000204605B0BDE8F08338B5FFF761FB0446A6
:102E7000FDF752FC002818BF012811D0FFF76FFBA7
:102E80000025524A0C236B43D15A39B1D1184B68F3
:102E90001968A14206D06D1C082DF3D3FFF76AFB19
:102EA000FF2032BDFFF766FBE8B232BD00B583B04C
:102EB000ADF800008DF8061000204B490A68ADF807
:102EC00002006846904710B99DF807000EBDFF202C
:102ED0000EBD1078422801D10120704700207047B4
:102EE0000CB470B504460E4688B0FDF715FC0CAD69
:102EF000002814BF0128FFF794FE1420ADF810003D
:102F00000021FF2002918DF8120006960595FFF72B
:102F1000ABFF05AB03222146FFF79AFD002001A974
:102F20000190009100230022304941F28830FFF7E0
:102F300010FF012805D020B9019820B1FFF786FDC8
:102F400001E0FFF76EFE0598006808B070BC5DF800
:102F50000CFB2DE9F8430D460446082DB8BF082C9C
:102F6000164699466FF0020806DAFFF7F8FA00F005
:102F70001CF819B9FFF7FEFA40460AE0FFF7FAFA23
:102F800000F009F8786840684FF00051FDF756F8F6
:102F90000020BDE8F283A9F1080004704570867036
:102FA000494678680830FFF7D9BC0C21074A01FB75
:102FB00005F7D71979687047000000004413002016
:102FC0009C1D0020FF3F0020B4120020E4120020CE
:102FD0008D28000074040020ED150100241F01005D
:102FE000FF2900004C04002054040020D32E0000D0
:102FF0005D2800005F25000075250000DFF800F067
:103000004FBF0110DFF800F019AE011000B58FB00E
:1030100008233C2200216846FFF776FADFF8840790
:1030200000F15001079140F2EE2201210892069131
:1030300000236A460FF25D01FFF7E4FF0FB000BD09
:1030400010B5DFF8644704F10C012046FFF7DBFC04
:103050000FF2CD11152002F087FA21785020FFF7EA
:1030600025FF0246DFF844171020FFF739FF04F16F
:103070002400FDF750F8206102F08AFBFEF768F9A2
:10308000002020711020BDE81040DFF82417FFF762
:1030900027BF000010B5DFF81C4782B02146002092
:1030A00002F0C6F94FF0FF306060A06040F25A2194
:1030B00040F212206080218000206073204602F0E0
:1030C000D2F90020FFF7BCFF00200090002300226F
:1030D0000121552000F0C0F8DFF8CC06C0684FF0A1
:1030E000FF334FF040420021FFF726FA0028F3D0CB
:1030F00000F001F8F0E7F0B583B00020019001AADC
:103100000DF102016846FFF7B6FCDFF89C5618BBCC
:10311000BDF80000102802BF9DF8021028788142F7
:103120000FD101980178912909D0922904D0B029B2
:1031300008BFFEF769F904E000F05BF801E000F079
:103140004BF8019840B1FFF781FC05E0607802F090
:1031500085FC2046FFF712FD2869FFF74FFF80BB73
:103160002869FCF7F9FF0400F6D020780128EDD09B
:10317000022822D01028ECD16668F0788209112A42
:1031800020D2032A1EBF05EB82014969002919D00C
:10319000002300E05B1C05F1080717F802C0DFB24E
:1031A00067450FD2DBB231F83370B842F2D101EB90
:1031B000C30130464A68904707E06078FEF75BF944
:1031C000C7E7F7BD304600F037F9304602F000FAA5
:1031D000BFE70146012012E041780E2903D01029F3
:1031E00002D0FF2904D145E10021082002F0D2BF1E
:1031F000704741780E2908BF00F03CB9704738B5D8
:1032000004460D460820FFF7B8FC38B1047045703D
:1032100000F01CF8BDE83840FCF784BF31BD000069
:1032200010B504460820FFF7A8FC50B1102101702A
:1032300000214170446000F009F8BDE81040FCF73F
:1032400071BF2046BDE8104002F0C2B90246DFF867
:103250005835D968186970472DE9F0478046894686
:1032600016469A46002406B1012404EB0A07B8B2B8
:1032700002F0A1F905000DD02F8085F8028085F8B5
:10328000039014B1696830780870524668680899EC
:1032900020442DE0BDE8F0872DE9F04781468A46BD
:1032A00016469846002406B10124099F04EB080045
:1032B000381880B202F07FF9050017D007EB08003C
:1032C0002018288085F8029085F803A014B1696859
:1032D000307808704246686808992044FDF738F94C
:1032E00068680A99A0443A46404401E0BDE8F08786
:1032F000FDF72EF92846BDE8F04702F016B92DE992
:10330000F8430646DFF8B0048946018800250E42DE
:103310001746984637D1B9F1000F0AD0F81C80B291
:10332000FFF72BFC04001AD099F80010A1700125BA
:1033300005E0B81C80B2FFF720FC04000FD0267017
:10334000360A3800667005D060193A464146801C3E
:10335000FDF7FEF87F19BF1C0094BBB209E0022004
:10336000FFF70BFC04000ED02570802060700094E5
:103370000223002205215520FFF76EFF2046BDE8FD
:10338000F243FFF7FBBBBDE8F183E0B501A802F013
:103390001BFF01A9009106230022102109E000B5BE
:1033A00083B001A802F01AFF01A9009104230022B2
:1033B00006215520FFF750FF07BD00B585B001A8D5
:1033C00002F027FF0DF1050100910C2301AA032152
:1033D00002E300B583B001A802F048FF01A9009103
:1033E0000423002208217520E4E700B583B000F033
:1033F0001BFBADF8061001A9BDF80600ADF80400EE
:103400000DF1060002F038FF01AA0092022300220B
:1034100002217520CEE71CB544680088811E89B260
:10342000204602F02DFF16288DF8040003D00094EA
:10343000022300F080F913BD00B583B081788DF8C8
:10344000041001A9C2784A7086228A7080784009E7
:10345000012807D1002100910023002207217520B7
:10346000FFF7FAFE01AB032200214FF40040FFF703
:1034700046FF07BD30B587B083218DF8041041F2B7
:1034800009048288C849131B26D04FF47F741B1B84
:1034900037D040F6FE341B1B00F02081143B00F0B7
:1034A000E9809B1F012B46D99B1E5ED04DF6E2346E
:1034B0001B1B012B04D91B1F00F0C4809B1E072B74
:1034C00040F2A4800A3BFBD0DB1E64D09B1FF7D0E8
:1034D0009B1F00F0E48014E1092200F022F902BFF2
:1034E000CC888288944213D100F02FF908D10023B0
:1034F0008DF8043006228168491C00F004F9082385
:10350000E7E0052200F003F902BFCD8882889542EA
:1035100040F0DC8000F013F9F2D1491C0AD08DF89C
:103520000420052381684A78A2700021E170806838
:10353000C1782171CDE08DF808208288120A8DF8BB
:1035400009200A79012A02BFCB888288934206D1DA
:1035500000220A71806801788DF8041002E08C2244
:103560008DF8042002A800906AE01F2200F0CFF836
:1035700002BFCD88828895426BD100F0E0F809D176
:10358000491C07D08DF80420042380684178A1707D
:103590000020E0709DE014228DF8082002AA8388A4
:1035A0001B0A53700B79012B02BFCC8883889C4285
:1035B00028D100230B71816889788DF804100029C7
:1035C00019D18368D978917081680B79D370002103
:1035D000117181688B7953710021917181680B7A27
:1035E0008DF80F30002111720B238068817A51729F
:1035F0000020907203E08068C1789170032302A8D4
:10360000009068E08C208DF804007AE08DF80620A8
:103610008288120A8DF807200A79012A02BFCB8816
:103620008288934206D100220A71806881788DF8E1
:10363000041002E08C208DF804000DF106010091C9
:10364000022348E0052200F06CF802BFCC88828893
:1036500094423BD100220A7182689178002938D1C6
:1036600000228DF8042011228068811C00F04BF8A4
:1036700013232EE0172200F054F802BFCC88828872
:10368000944223D100F061F823D100238DF8043057
:1036900010228068411C00F036F8122319E0202225
:1036A00000F03FF802BFCC88828894420ED10022FD
:1036B0000A718268917861B900228DF804200C2289
:1036C0008068C11C00F01FF80E2302E08C208DF8EA
:1036D000040002A9009100F02EF812E08168087839
:1036E00078B90822491C02A8FCF732FF9DF80800AF
:1036F000324900F0FD008DF8080002AA1020FFF703
:10370000EFFB07B030BD0DF10A00FCF721BF8DF8CB
:10371000082002AC8288120A627002230A79012A08
:1037200070478DF80820022384880A79240A8DF8CE
:103730000940012A704701AA042155208CE5002286
:103740000A7181680A78002A704700220A7182682B
:1037500011780029704700B585B000218DF8001060
:10376000426811788DF8041000F0D1FAADF8052008
:1037700000F0C7FAADF8072011490A788DF8092042
:103780004068417B8DF8111001A802F0D2F98DF844
:10379000000028B10023002269460820FFF7AFFD92
:1037A00005B000BD98140020A80500205188011024
:1037B000C5AB0010D8170020801D002095B4001064
:1037C000E206002002F053BA00B585B041680A78DD
:1037D0008DF8082041684A1CCDF809200188491E4F
:1037E000C9B202A802F07BFA00F0C1F843215520CB
:1037F000F3E000B585B000F058F841688A78C978E0
:1038000002EB0122ADF80A2041680A79497902EBFE
:103810000122ADF80C2041688A79C97902EB0122B6
:10382000ADF80E204068017A407A01EB0021ADF836
:10383000101002A802F09CFA8DF804000223BDF8D3
:103840000800BDF808108DF80600090A0DF1060001
:103850008DF80710009001AA45215520BDE080B5E4
:10386000406802F0D5FA68B1FF208DF800008DF8AD
:1038700001006B4684208DF8020003220021022003
:10388000FFF73DFD01BDE0B500F00FF8406881781D
:10389000C07801EB0021ADF80A1002A802F0D3FABB
:1038A00000F065F84821752084E541680A78497878
:1038B00002EB0122ADF80820704700B585B04068E2
:1038C0000178427801EB0221ADF8081002A802F05D
:1038D000C8FA8DF804000423BDF80800BDF80810EC
:1038E0008DF80C00090A03A80090417001AABDF8E8
:1038F0000A1081707520090A8DF80F1049216CE0BB
:10390000E0B541680A78ADF8082040684178ADF824
:103910000A1002A802F0F2FA00F029F84A217520F4
:1039200048E580B502F04CFB01000AD001218DF87A
:1039300000108DF801006B46022200214020FFF7A5
:10394000DEFC01BDE0B5406801784278837801EB88
:103950000221C27801EB034101EB0261029102A84E
:1039600002F071FB00F003F84C21752022E50021E4
:103970008DF804000091002301AA704700B583B0C0
:1039800041680A788DF8042001A802F0F7FA0021B6
:103990008DF80500009100230DF105024D217520E1
:1039A00008E500B583B001884068491E0022C9B20D
:1039B000FDF70FFFFFF7DBFF81217520FAE400B56B
:1039C00085B002A8FEF7BAF98DF8040004230DF1C2
:1039D0000900009001AA84217520FFF73DFC05B085
:1039E00000BD00B587B000F01FF8ADF80C100DF168
:1039F0000E0204A903A8FEF775FA8DF81000022341
:103A0000BDF80C00BDF80E10ADF81100019104AA2C
:103A1000DDF81300029085210DF111000090752052
:103A2000FFF73AFC07B000BD40680178407801EB31
:103A30000021704700B585B0FFF737FF01AA416844
:103A40008B1CCDF80A300188891E89B202A8FEF7C6
:103A50005FFA8DF8040000F016F98621BCE700B586
:103A600083B001884068891E0DF1050289B2FEF716
:103A7000CEFBFFF77CFF8C2175209BE430B585B031
:103A800045680DF1060203A92846FEF7E1FB8DF813
:103A90000400BDF80600801C80B2FFF76EF8040039
:103AA0001CBFDDF80E00002816D029782170687838
:103AB0006070BDF80620DDF80E10A01CFCF748FD74
:103AC000BDF8063000949B1C9BB200F01EF8DDF898
:103AD0000E00FFF753F813E087208DF8040002234F
:103AE00029788DF8081002A968788DF809000091EE
:103AF00000F00BF8DDF80E0008B1FFF73FF814B145
:103B00002046FFF73BF805B030BD01AA8D21752096
:103B1000FFF7A2BB10B504468AB0606801788DF843
:103B20000C1060684178807801EB0021ADF80D1031
:103B30006068C1788DF80F1060680179407901EBF9
:103B40000021ADF8101022886368921F991D0DF1B5
:103B50001200FCF7FDFC2088811F02AAC9B203A84D
:103B6000FDF7FCFF8DF8040002230DF10900009021
:103B700001AA82217520FFF76FFB0AB010BD10B5B6
:103B80008EB041680A7800240121D3078DF81020F7
:103B900005D541684A1CCDF81120062101249DF865
:103BA0001020930706D542680A441331CDF815203A
:103BB000C9B2641C9DF81020530706D542680A4418
:103BC000491CCDF81920C9B2641C9DF810201307B8
:103BD00006D542680A44C91DCDF81D20C9B2641C2F
:103BE0009DF81020130619D54268525C8DF8042008
:103BF000491C4268C9B2641C00F025F8ADF80530D4
:103C0000C9B2426800F01FF8ADF80730C9B2406889
:103C1000084401A9CDF80900CDF821100AA904A88B
:103C2000FDF7E1FF010018BF8DF828000AA8240461
:103C30000090E40BA41CA3B2002283217520FFF79F
:103C40000BFB0EB010BD535C0A44891C527803EB89
:103C5000022370471CB54468B0F90000811F09B207
:103C60002046FEF759FB8DF8040010B96179C807AA
:103C700008D52088ADF8050000F005F88921552009
:103C8000FFF7EAFA13BD02230DF10500009001AA27
:103C9000704780B500F009F8FDF700FD01BD80B563
:103CA00000F003F8FDF7F9FC01BD41680A788DF8D2
:103CB000002040684178807801EB0021ADF80110C8
:103CC00068467047E0B541680A788DF8002000F03A
:103CD0001EF8ADF8012000F014F8ADF8032041689B
:103CE0004A79897902EB0122ADF805204168CA1DA5
:103CF000CDF807200188C91F89B26846FDF721FC6D
:103D000007BD4168CA78097902EB01227047416812
:103D10004A78897802EB0122704700002DE9FC4DBA
:103D2000DFF84C5A0F469046002440F2013B95F8CC
:103D300001C02979EA7895F800A0B0EB0B0640F6AF
:103D40007B4332D0761E37D0761E3CD0B61E40D094
:103D5000761E00F08680761E00F08980761E00F0C8
:103D60009980761E00F0AD80761E00F0B280761E3F
:103D700000F0B780761E00F0BD80761E00F0C28095
:103D8000F61E00F0C780761E00F0CC80761E00F094
:103D9000D180761E00F0D680761E00F0DB80761F84
:103DA00000F0E380B61E2FD0F9E0102F12D11022C0
:103DB000414605F1A4009AE0102F0BD11022414694
:103DC00005F1B40093E0042F04D1D8F80000E862B4
:103DD000F4E0012F40F0E180012940D098F8000084
:103DE000E87042B10028F3D1BCF1020F1ED0BCF143
:103DF000050FEDD11AE00028EAD0BCF1010F2AD05E
:103E0000BCF1040F24D126E0012F5BD1012A26D07A
:103E100098F80000287189B100280ED1BCF1030F79
:103E20001CBFBCF1070FBCF1050F06D100F044FC2C
:103E30000246DFF8401900F03CFCBFE00028FCD04F
:103E4000BCF1010F1CBFBCF1040FBCF1060F02D086
:103E5000BCF1050F02D1012000F084FCAEE0122479
:103E6000ACE0022F2ED1B8F80000A883A6E0202FE6
:103E700034DA05F1CC041F212046FCF7CDFC00F01C
:103E8000A4F86F7100F018FC697900910246019462
:103E9000012311E0202F21DA05F1EC041F21204637
:103EA000FCF7BAFC00F091F8AF7100F005FCA979BD
:103EB0000091024601940023DFF8BC1800F0D0F90D
:103EC00079E0012F69D198F80000042865DCE871D9
:103ED00074E0012F61D198F8000004285DDA28729F
:103EE0006CE0062F59D10622414605F58670FCF795
:103EF0002FFB63E0012F50D198F8000007284CDC1D
:103F000068725BE0012F48D198F80000042844DA79
:103F1000A87253E0012F40D198F8000006283CDA3F
:103F200028744BE000F04DF837D1811F994234D20C
:103F3000688243E000F045F82FD1811F99422CD2CE
:103F4000A8823BE000F03DF827D1B0F5FA7F24DAF3
:103F5000E88233E000F035F81FD1A0F10A0140F605
:103F60007742914219D2288328E0012F04BF98F8A4
:103F70000000012811D105F18000FCF7B8F850B914
:103F800005F1100100F09CFB040017D105F15C0065
:103F9000FCF7B4F812E0162410E018240EE02828EC
:103FA0000BDA022F09D1B8F80030DFF8D01702463B
:103FB0001020FEF795FF044600E00224E0B2BDE8C1
:103FC000F68DB8F80000022F70473A464146204669
:103FD000FCF7BEBA38B50D4600244FF440730246D4
:103FE000D11ADFF88C0736D0491E36D0491E38D09A
:103FF000491E3AD0491E3BD0491E3DD0491E3FD0F4
:10400000491E3FD0491E41D0491E43D0491E43D0CE
:10401000491E43D0491E45D0491E45D0491E45D0B2
:10402000891E45D0491E45D0491E45D0491E45D060
:10403000491E45D0491E45D0491E4AD0491E4AD086
:10404000491E4AD0891E4CD0491E17D0491E46D061
:10405000491E48D04AE0807846E0102200F1A401D1
:1040600033E0102200F1B4012FE0C06A286044E080
:10407000062200F1C40128E0C07835E0007933E081
:10408000808B37E0427900F1CC011EE0827900F1AB
:10409000EC011AE0C07927E0007A25E0062200F55D
:1040A000867112E0407A1FE0807A1DE0C08B21E02B
:1040B000007C1FE0408A1DE0808A1BE0C08A19E076
:1040C000008B17E0062200F58A712846FCF740FABB
:1040D00013E0008C0EE0408C0CE0808C0AE0C07A8B
:1040E00002E0407800E0007B287006E0282A03DA2E
:1040F00000F0DEFA288000E00224204632BD1FB521
:10410000DFF86C466178C1B900B12063217800F016
:10411000D4FA04F1B4010291024604F12C03039392
:1041200004F1A4000021019000911020A378DFF891
:104130005016FEF7D5FE002000E0112004B010BD9F
:1041400010B1DFF82C164863704710B5DFF8204631
:104150006078062818BF072882B00CD1217800F0BB
:10416000ACFA132200920246E38BDFF8181600F037
:1041700077F8C0B216BD122016BD00B58FB0082367
:104180003C2200216846FEF7BFF9DFF8FC0500F18C
:10419000500107914FF4DC7203210892069100232D
:1041A0006A460FF2C501FEF72DFF0FB000BD7CB5CA
:1041B000DFF8BC4504F128012046FEF724FC00206E
:1041C000607000214FF6FF70E083009101200190A4
:1041D00000230FF2E1550022294604F13800FBF7D5
:1041E00051FF022000F034F804F15C00FBF74AFFB5
:1041F000042000F02DF804F18000FBF743FF0420B9
:10420000A070002104F1A40000220023002580E812
:104210002E0004F1B405002685E84E00E162E1714C
:104220002172A2720721617200901023DFF85C6591
:10423000022200F014F800951023032200F00FF87A
:1042400004F12C0000900423042200F008F873BD50
:104250000021019000910023002229467047314639
:104260001020FEF73DBE00002DE9F04387B0FFF7B8
:104270009EFFDFF8FC74DFF81855DFF81865DFF8EB
:10428000188507F18009B86ADFF810254FF0FF3371
:104290000021FEF751F90400F5D00020029002AA97
:1042A00001A90DF10600FEF7E6FB00283DD1BDF89F
:1042B0000600102802BF9DF804103878814230D1E2
:1042C000029801884FF6FF7291420BD14088410459
:1042D00027D507F12C010091042304224146FFF762
:1042E000BFFF1EE00178A22904D0D02908BF00F04A
:1042F00068F816E04179132913D10089012804BF19
:10430000797B022905D14846FBF7F8FEFFF71DFF30
:1043100007E00522314600F0CCF981B24846FBF7B0
:10432000D6FE029808B1FEF791FBE00730D5387948
:10433000F97801432CD018B103208DF80C000CE063
:10434000F9798DF80C100622387A8DF80D0007F5F2
:1043500086710DF10E00FCF7FBF8787A8DF81400E9
:10436000B87A8DF8150050203978FEF79FFD024687
:1043700003AB29461020FEF7B3FD00281FBF08201D
:104380007870386B002803D0016809B1082088478D
:10439000A00704D507F11001002000F091F9600793
:1043A00006D5787B012804D0022808BFFFF7CDFE90
:1043B00069E700903B8BFA8AB98A788A00F0B8F9ED
:1043C00061E72DE9F041054684B0DFF8A443A97800
:1043D00062782379DFF8A063080004F58A7704F196
:1043E000800815D002294AD0032918BF042971D0AA
:1043F000052900F09380062900F0C480072900F009
:10440000E5800F2900F0FD80112900F0018134E0E2
:104410006878010026D104F1A40100911023DFF88F
:10442000787302223946FFF71BFF04F1B4010091B3
:10443000102303223946FFF713FF0622E91C04F17B
:10444000C400FCF785F80120607050202178FEF749
:104450002DFD024604F1CC0001900123607900900B
:10446000FFF7FDFEC0B208B108206070206B002885
:104470001FBF0168002960788847BDE8FF8169781F
:1044800011BBE87868B1217800F017F904F1EC016C
:1044900001910246A17900910023FFF7E0FE6870C8
:1044A00012E0022A18BF072A0ED0062A02D1012BD9
:1044B0000AD101E0032A07D004F13800FBF717FE08
:1044C00010B9012000F04EF968780028D5D00821F5
:1044D0006170CBE7687800BBE078032908D1062A31
:1044E00008BF0720C1D000280CBF03200220BCE772
:1044F000A18B31B103430AD004F13800FBF7E7FD8B
:1045000005E0012807BF0020E070002020716078DE
:10451000072814BF04200620A7E7A5E7687858BB42
:104520000622291D3846FCF713F86889E083062027
:104530006070E8892084288A6084688AA084E8788A
:10454000E072207C012818BF02280AD11F2200F047
:10455000AFF880B24FF47A71414304F15C00FBF78D
:10456000B6FD042001902B1D68898D490090102014
:10457000EA78FEF7B5FC79E73128CED10020E0706B
:10458000042072E7AA88874900F093F8062138468C
:10459000FCF742F9002020846084A084A87920736D
:1045A00000F0DCF84046FBF7A9FD4FF6FF70E08312
:1045B000207908B103218BE7A87908280CBF0520D2
:1045C00004206070012000F0CDF84FE74046FBF773
:1045D00095FD6878002813D1E988218428896084B2
:1045E0006889A08404F15C00FBF781FD002807D1F5
:1045F000636B002B04D0A28C618C208C1B689847C5
:104600003BE7AA88684905231020FEF769FC34E7D8
:10461000217CA888ADF80000052903D100208DF881
:104620000A003FE001218DF80A1000F097F8207C85
:10463000012818BF04281AD1608AE988814228BF5E
:104640000846ADF80200A18A2889884238BF08468A
:10465000ADF80400E18A6889884238BF0846ADF8A1
:104660000600218BA88988421AD2084618E0032840
:1046700018BF02280AD1608AADF80200A08AADF8FE
:104680000400E08AADF80600208B09E0E888ADF868
:1046900002002889ADF804006889ADF80600A889F1
:1046A000ADF8080041496A461020FEF719FCE4E61F
:1046B00038491020FEF714BC51465020FEF7F6BBD7
:1046C000FEB50F462A4D79880446288C884224BFBF
:1046D000B988814207D3688CF988884202BFA88CC8
:1046E0003989884221D00522FFF7E2FFE98BADF836
:1046F0000010064678882E49ADF802006A46B88850
:10470000ADF80400F888ADF806003889ADF8080067
:104710001020FEF7E5FB0746C0B238B96C73B1B2A2
:1047200005F18000FBF7D3FC00E01827F8B2FEBDCE
:104730003EB50F4C6578062D01D014203EBDADF876
:104740000200ADF80410ADF80620ADF8083000F016
:1047500005F806986946FFF7B3FF3EBD04F15C001B
:10476000FBF7CCBC01460248806AFBF767BC00003F
:104770008C0400209945011009450110BD840110E9
:10478000FD140100E5140110F80B002075B40000C1
:1047900059440110F5840110B5B4000007000080F1
:1047A000D5F9000041F00000C117011005160110F5
:1047B0007D150110D6E7000030B502460120002328
:1047C000D45CCD5C95EA040F03D15B1C0B2BF7DBAB
:1047D00030BD002030BD02460020022940F05C813F
:1047E0001178527801EB022189B241F60203C91A0D
:1047F00000F0AB80491E00F0AB80491E00F0AB809A
:10480000491E00F0AB80491E00F0AB80491E00F04D
:10481000AB80491E00F0AB80491E00F0AB80491E02
:1048200000F0AB80491E00F0AB80891E00F0AB8029
:10483000491E00F0AB80491E00F0AB80491E00F01D
:10484000AB80491E00F0AB80491E00F0AB80491ED2
:1048500000F0AB80491E13D0891E00F0A98041F200
:10486000F003C91A00F0C8804FF48073C91A00F031
:10487000A580491E00F0A580113900F0A580491ED1
:1048800000F0C680C91E00F0AB80491E00F0AB806E
:10489000491E00F0AB80C91E00F0AB80491E00F03D
:1048A000C3800F3900F0DB80491E00F0C380491E31
:1048B00000F0BD80491E00F08A80491E00F0AB80E8
:1048C000491E00F0AE80491E00F09980491E00F09C
:1048D0009980491E00F09980103900F09F80491E90
:1048E00000F0AB80491E00F0AB80491E00F0AB80A9
:1048F000491E00F0AB80491E00F0AB80491E00F05D
:10490000AB80891E66D0491E67D0491E00F0AA8080
:10491000891E00F0AA80891F00F0AA80491E00F0BD
:10492000AA804DF29453C91A45D0491E00F0A680C2
:10493000491E00F0A680491E00F0A680491E00F026
:10494000A680491E00F0A68070470FF6B800704799
:104950000FF6AC0070470FF6B00070470FF64C1022
:1049600070470FF64C1070470FF6481070470FF65F
:10497000A40070470FF6B0007047DFF8BC04704722
:104980000FF6341070470FF6B80070470FF62C1072
:1049900070470FF6BC0070470FF6B80070470FF66F
:1049A000201070470FF6BC0070470FF6DC00704710
:1049B0000FF6EC0070470FF60C1070470FF64C0026
:1049C00070470FF64C0070470FF64C0070470FF61B
:1049D0004C0070470FF6480070470FF648007047CC
:1049E0000FF6480070470FF6480070470FF6440076
:1049F00070470FF6440070470FF6400070470FF6FF
:104A0000440070470FF6400070470FF640007047B3
:104A10000FF6800070470FF6400070470FF6400019
:104A200070470FF6380070470FF63C0070470FF6DE
:104A30003C0070470FF6380070470FF6380070479B
:104A40000FF6340070470FF6340070470FF6300051
:104A500070470FF6300070470FF6300070470FF6C2
:104A6000300070470FF6300070470FF63000704787
:104A70000FF6300070470FF6300070470FF6480011
:104A800070470FF6480070470FF6440070470FF666
:104A9000440070470FF64000704770B500240229AB
:104AA0000646154602D1307871780AE0102948D1BF
:104AB00000F090F918B900F089F9002841D0307B56
:104AC000717B00EB012080B24FF6CB61401A21D000
:104AD000401E2BD0401E2CD0401E1ED0401E1FD08A
:104AE000401E20D0401E27D0401E0DD0401E0ED0AC
:104AF000401E06D04FF48E71401A1FD10FF2C474BD
:104B00001CE00FF26C6419E00FF2943416E00FF21F
:104B1000E03413E00FF2E83410E00FF2F4340DE06B
:104B20000FF2FC340AE00FF2084407E00FF21044E1
:104B300004E00FF21C4401E00FF224440CB1022007
:104B40002870204670BD70B500240229064615461F
:104B500040F09B803078717800EB012080B2012812
:104B600000F0B280052800F0B280082800F0B28082
:104B70000D2800F0B2800E2800F0B2800F2800F05F
:104B8000B280102800F0B280112800F0B280122804
:104B900000F0B880132800F0B880142800F0B88026
:104BA000192800F0B8801A2800F0B8801C2800F0FE
:104BB000B8801D2800F0B8801E2800F0B8801F289B
:104BC00000F0B880202800F0B880212800F0B880DC
:104BD000222800F0B880232800F0B880242800F0B4
:104BE000B880252800F0B880262800F0B880282852
:104BF00000F0B880292800F0B8802F2800F0B88095
:104C0000302800F0B880322800F0BB80332800F054
:104C1000BB80342800F0BB80352800F0BB803628EC
:104C200000F0BB80372800F0BB804C282AD04E28EB
:104C300041D04F2842D0502843D0512800F0B380B3
:104C4000522859D053285AD0542800F097804FF654
:104C5000F171884200F0AA804FF6F271884200F0AC
:104C6000A8804FF6F371884200F0A6804FF6F471E9
:104C7000884200F0A4804FF6F571884208BF0FF219
:104C800010249EE00FF218549BE0102912D100F07E
:104C9000A1F810B900F09AF810B1307B717B5BE796
:104CA0000FF29C15102229463046FBF7FFFB002827
:104CB00000D12C4688E00FF2F84482E00FF2005455
:104CC0007FE00FF20C547CE00FF2A42479E00FF2A5
:104CD000B02476E00FF2F81473E00FF2B42470E021
:104CE0000FF2BC246DE00FF2C8246AE00FF2D0246A
:104CF00067E00FF2DC2464E00FF2E42461E00FF2DD
:104D0000F0245EE00FF2F8245BE00FF2B41458E0F8
:104D10000FF2FC2455E00FF2083452E00FF2103489
:104D20004FE00FF21C344CE00FF2243449E00FF254
:104D3000303446E00FF2383443E00FF2443440E0C0
:104D40000FF24C343DE00FF258343AE00FF2404499
:104D500037E00FF25C3434E00FF2541431E00FF21C
:104D600060342EE00FF268342BE00FF2743428E048
:104D70000FF26C1425E00FF2783422E00FF2803449
:104D80001FE00FF28C341CE00FF2943419E00FF2A4
:104D9000A03416E00FF2A83413E00FF2B43410E0A0
:104DA0000FF2BC340DE00FF2D8340AE00FF2A00489
:104DB00007E00FF2AC0404E00FF2B40401E00FF2DC
:104DC000C0040CB110202870204670BD31460FF28F
:104DD0002040F1E431460FF20840EDE4F8B5154605
:104DE00006460F462F703B46324614491020FEF708
:104DF00077F8040004D139463046FFF7ECFC04464E
:104E00002CB92A4639463046FFF747FE04462CB9EE
:104E10002A4639463046FFF796FE04464CB93846D6
:104E2000FDF7ABFE050004D03A463146FBF790FB98
:104E30002C462046F2BD0000641C010069F500000C
:104E40009A9396D7BD6AD9B51646D281FEF046DC54
:104E5000FB349B5F8000008000100000F1FF000029
:104E6000FB349B5F8000008000100000F2FF000018
:104E7000FB349B5F8000008000100000F3FF000007
:104E8000FB349B5F8000008000100000F4FF0000F6
:104E9000FB349B5F8000008000100000F5FF0000E5
:104EA000D2FE000000000000000000000000000032
:104EB000915276BB26000080001000002500000003
:104EC000915276BB26000080001000001300000005
:104ED000915276BB26000080001000000800000000
:104EE000915276BB26000080001000002F000000C9
:104EF000D3FE0000000000000000000000000000E1
:104F0000CBFE0000000000000000000000000000D8
:104F1000CEFE0000000000000000000000000000C5
:104F2000CFFE0000000000000000000000000000B4
:104F3000D0FE0000000000000000000000000000A3
:104F4000CCFE000000000000000000000000000097
:104F5000CDFE000000000000000000000000000086
:104F6000D1FE000000000000000000000000000072
:104F7000915276BB26000080001000000100000066
:104F8000915276BB26000080001000000500000052
:104F9000915276BB26000080001000000D0000003A
:104FA000915276BB26000080001000000E00000029
:104FB000915276BB26000080001000000F00000018
:104FC000915276BB26000080001000001000000007
:104FD000915276BB260000800010000011000000F6
:104FE000915276BB260000800010000052000000A5
:104FF000915276BB26000080001000005300000094
:10500000915276BB260000800010000012000000C4
:10501000915276BB260000800010000014000000B2
:10502000915276BB2600008000100000190000009D
:10503000915276BB26000080001000001A0000008C
:10504000915276BB26000080001000001C0000007A
:10505000915276BB26000080001000001D00000069
:10506000915276BB26000080001000001E00000058
:10507000915276BB26000080001000001F00000047
:10508000915276BB26000080001000002000000036
:10509000915276BB26000080001000002100000025
:1050A000915276BB26000080001000002200000014
:1050B000915276BB26000080001000002400000002
:1050C000915276BB260000800010000026000000F0
:1050D000915276BB260000800010000028000000DE
:1050E000915276BB260000800010000029000000CD
:1050F000915276BB260000800010000030000000B6
:10510000915276BB26000080001000005400000081
:10511000915276BB26000080001000003200000093
:10512000915276BB26000080001000003300000082
:10513000915276BB26000080001000003400000071
:10514000915276BB26000080001000003500000060
:10515000915276BB2600008000100000360000004F
:10516000915276BB2600008000100000370000003E
:10517000D4FE00000000000000000000000000005D
:10518000915276BB26000080001000005100000004
:10519000915276BB26000080001000002300000022
:1051A000915276BB26000080001000004C000000E9
:1051B000915276BB26000080001000004E000000D7
:1051C000915276BB26000080001000004F000000C6
:1051D000915276BB260000800010000050000000B5
:1051E000FB349B5F80000080001000000000000086
:1051F000915276BB260000800010000000000000E5
:10520000031800000218000004180000062A00001D
:10521000072A000008180000182A0000342A00009D
:10522000512A0000522A0000091800001C2A000020
:105230001D2A00001E2A0000212A00000629000065
:105240000D180000372A0000382A0000392A000013
:105250000F18000010180000352A0000362A000040
:10526000492A000012180000222A0000332A0000F8
:10527000322A00004A2A00004B2A00004C2A000073
:105280004D2A00004E2A0000131800004F2A00008B
:10529000312A000014180000532A0000552A00008B
:1052A000161800005B2A00005C2A000005180000A8
:1052B00006180000071800000B1800000E18000068
:1052C00011180000F0FF0000F1FF0000F2FF0000E5
:1052D000F3FF0000F4FF0000F5FF0000DFF800F02E
:1052E000CDB60110DFF800F011BF0110F0B5DFF806
:1052F000506483B006F1440306F1480200213820CF
:10530000FDF707FC65E0002C04BF3057002806D1EC
:10531000306BFDF773FE10B9306B00F05BF901AA3A
:1053200069460DF10200FDF7A6FB88B90198BDF8AA
:105330000210002206EBC2031F7AB94206D0521CAB
:10534000D2B2042AF6DBFDF781FB01E0D968884779
:1053500004B396F90000002818DC01F044FD07466C
:10536000F06B01F070FD0446384601F047FD4CB18A
:105370003078401C3070204600F007F910B120460C
:1053800000F026F9F06BFDF739FE18B9706C0421B6
:10539000FAF754FEE8071CD596F90000C8B901F0E9
:1053A00022FD0546706B01F04EFD0446284601F0D3
:1053B00025FD34B1204600F0E8F810B1204600F099
:1053C00007F9706BFDF71AFE18B9706C0121FAF736
:1053D00035FE706CDFF86C234FF0FF330021FDF7D2
:1053E000ABF80546A80644BFB07800F08DF9002D53
:1053F000EFD001F0F8FC01F001FD280704D5306C76
:10540000FDF7BCFB00203064A80705F0040486D536
:1054100001F051FD002882D1B06BFDF7EFFD0028AF
:105420007FF471AF305600283FF56DAFB06B74E775
:1054300010B50C0015D020460FF218313422FBF7BE
:1054400097F804F1100001F0DFFD04F125000021C0
:10545000017041700121217461740021817000206C
:1054600010BD082010BD30B5B54D04466878002841
:10547000ABB053D1012169701CB91EA9FFF7D8FF49
:105480001EAC002028640021FFF728FF286300F0ED
:1054900048F8686300F045F8E86300F042F8A86354
:1054A00024226088ADF800006168019104F11001C8
:1054B000A0680290207B8DF80C00607B8DF80D00B9
:1054C00004A8FBF755F80FF2C020D0E90023CDE97E
:1054D0000D23684601F0C4FC20219B48FBF79CF992
:1054E000202105F10800FBF791F808233C22002158
:1054F0000FA8FDF709F82088FDF73FFBE86268B1C7
:105500001690022120881790159100220FA98F482C
:10551000FDF70AF8A86208B1002000E007202BB0D0
:1055200030BD00210020FFF7D9BE70B5044601F060
:105530005AFC0646A278824800255209416C012A8D
:1055400004D00BD3032A01D002D307E0806B00E024
:10555000006B2346022201F05CFC00E0042530468B
:1055600001F04CFC284670BD30B50023764C04EBAE
:10557000C3056A6822B15B1C042BF8DB012030BD37
:1055800004F833006960002030BD10B581786E4B9F
:1055900001F01F01002213F83240A14205D0521C35
:1055A000D2B2042AF7DB022010BD03EBC2014A6825
:1055B0009047002010BD10B5044604F1080080B2E9
:1055C000FDF7DBFA18B1048000F10801416010BD5D
:1055D000FDF7D4BAF8B5044601F005FC05462046AF
:1055E00001F031FC0446284601F008FC54B3208841
:1055F000001D80B2FDF7C1FA06000DD02088307082
:105600002088000A7070A078B070E078F07022886E
:105610006168301DFAF79CFF494F3E6476B12188DE
:10562000091D89B2304601F06EFCA07840090128BE
:1056300018BF032802D13878411E39702046BDE8D2
:10564000F240C5E7F1BD70B5002882B00E463C4D72
:1056500038D02879401C28710121684601F03DFCB2
:105660009DF800400121684601F037FC9DF80000DC
:1056700004EB0024A0B2FFF79EFF040022D001211A
:10568000A01C01F02AFC0121E01C01F026FC21886D
:10569000606801F022FCA078696C4009012804D000
:1056A0000DD3032801D004D309E0E86B234604227C
:1056B00002E0686B2346012201F0ABFB02E02046CA
:1056C000FFF786FF002E1CBF286C002806D0E97863
:1056D000491CE9700821686CFAF7B0FCA86BFDF76B
:1056E0008DFC18B1286BFDF789FC18B9686C022194
:1056F000FAF7A4FC73BD30B91148406C00281CBFF8
:105700001021FAF79BBC704710B582B00446FCF735
:10571000F3FEFFF7E7FDFCF7FBFE0D4804710521E2
:1057200001F00EFC01218DF800109DF8000000280A
:10573000FBD113BD024A90702021506CFAF77EBC59
:10574000801300203F000080CC130020ED520000A9
:105750008404002000041202FFFFFFFFFFFFFFFF91
:105760000000000000000000000000000000000039
:105770000000000000000000000000000000000029
:105780000000000000000000F7560000475600002F
:105790003EB5DFF8D84806231F2200F050FC002158
:1057A0008DF80110ADF80A10502004218DF800107A
:1057B000ADF80800A021ADF8061000204FF47A7172
:1057C000ADF80400ADF8021000F082FA0DF10A0203
:1057D000022140F20630FEF7A1FADFF8945805F1F5
:1057E000200209214FF44270FEF798FA05F12C02CD
:1057F000082140F20730FEF791FA6A4600F003FBF9
:1058000002AA022140F21130FEF788FA0DF10602D9
:10581000022140F21230FEF781FA01AA022140F281
:105820001330FEF77BFA0DF1020202214FF44570AE
:10583000FEF774FA0820FDF7A0F9E86030B10821FE
:105840002972082205F12C01FAF782FEA023062214
:1058500000F0F5FBA023072200F0F1FBA0230822B3
:1058600000F0EDFBA023092200F0E9FB05F1380070
:10587000FEF766FC012003218DF809008DF8081061
:105880008DF807008DF806008DF80500212102A88B
:105890008DF8041000900123DFF8D84740F203424E
:1058A00000F02FF80DF107000090012340F20642AE
:1058B00000F027F80DF10900009001234FF48062F9
:1058C00000F01FF80DF106000090012340F20D4298
:1058D00000F017F801A80090012340F2074200F001
:1058E00010F80DF10500009001234FF4836200F0E1
:1058F00008F805F13C02DFF880171020FDF7F0FAF8
:1059000037BD21461020FDF7EBBAF8B5DFF8604748
:10591000237E0246062A40F2073540F21B3640F24B
:10592000053727D1072902D100F090F819E00021AE
:10593000D8078DF800106A4608D501213846FEF7D1
:10594000EDF9012000F07BF801200DE0012138463F
:10595000FEF7E4F900208DF80100002300220DF18C
:10596000010100F0B2F90020217CE076002965D029
:1059700062693AE0E07E072A844604D1BCF1010F57
:105980005AD0002050E0042A1CBF052A032A48D11F
:10599000062918BF07292CD1980719D5607EBCF1BC
:1059A000010F0DD103281BD0012020776A4600206B
:1059B0008DF8000000F046F801208DF800000AE0A4
:1059C000012103288DF800106A4606D1304605E013
:1059D000002000F034F86A4601213846FEF79EF9AF
:1059E000207C00282AD0E268217A2846FEF796F922
:1059F000F1BD207F032A02D1B0B100200AE0BCF142
:105A0000010F1BD1022907D100F020F800F05DF949
:105A10000020E0762077F1BD80B900F051F9002038
:105A20000BE0022A0AD138B98DF8000000230022C9
:105A300069460820FDF763FC0120E076F1BD8DF892
:105A400000006A4601213046FEF768B900208DF853
:105A5000000000230022694670470000F0B5DFF81F
:105A60001C566B880446190A671E2878052F87B0D4
:105A700040F20E3640F21D3254D8DFE807F00353EF
:105A80003D3B3D08A91C3046FEF7A4FA4AE0002839
:105A900048D104A940F21530FEF79CFAA91C304603
:105AA000FEF798FA69463046FEF794FA0DF10201C6
:105AB00040F21630FEF78EFA01A940F21730FEF7D9
:105AC00089FA0DF106014FF44670FEF783FA02A938
:105AD0004FF44770FEF77EFA062204A90DF1090083
:105AE000FAF736FD6B460F2200210120FDF707FC77
:105AF000012016E0B0B100E090B18DF801108DF8F2
:105B000000300DF102011046FEF764FABDF8000006
:105B1000FBF75CFC6B46032200210220FDF7EFFB44
:105B20000020287069782046FFF7EFFE6C7007B000
:105B3000F0BD2DE9F04E0746DFF8345582B005F18F
:105B40003400FEF7DCFA39780024012908BF8424E8
:105B50000DD040F21A3B69465846FEF73BFA9DF8D5
:105B6000000002281CBF0328072801D18A2474E002
:105B7000B7F8010090B14FF47A7190FBF1F0ADF8F5
:105B800002000DF1020202210120FEF7C7F80446CF
:105B90007A1C02210020FEF7C1F80443B7F8033055
:105BA000FBB1DFF8C8940622494600F049FA0646E0
:105BB000B7F803300722494600F042FA8246B7F8A8
:105BC00003300822494600F03BFA4AEA060140EA5F
:105BD0000106B7F803300922494600F031FA0643BE
:105BE000344305F11A02012140F20D30FEF796F818
:105BF00004433A46012140F20930FEF78FF804438E
:105C0000E4B20CB1872029E0787B00F0030028760D
:105C100038786876032810D100F022F89DF800103B
:105C2000062907D1287C28B1EA68297A40F2073092
:105C3000FEF774F800F03EF80CE000F011F89DF863
:105C40000000062808BF862008D00DF101020121BE
:105C500040F20530FEF762F804462046BDE8F68EB5
:105C600001208DF8010069465846FEF7B3B980B5AA
:105C700000208DF802008DF800000DF1020140F2C5
:105C80001A30FEF7A7F99DF8020002281CBF03286E
:105C9000072803D08B2000F013F808E000208DF8CF
:105CA000010000F015F800F005F8FEF737F89DF850
:105CB000000002BD0DF10102012140F21B307047CE
:105CC0008DF800000023002269461020FDF717BB65
:105CD0000DF10102012140F20530FEF71FB82DE958
:105CE000F0410746DFF8885382B0884605F134005A
:105CF000FEF705FA38780026022802DDB8F1200FF9
:105D000032DB291D51F8300008B1FCF737FF40465F
:105D1000FCF733FF0446281D397840F831400CB3B6
:105D2000387805F830804246D7F801102046FAF757
:105D30000FFC387820B9224641464FF442700DE0FE
:105D4000012807D0022810D100F058F89DF8000073
:105D500007280AD12246414640F20730FDF7DEFF10
:105D6000064602E0872600E084263046BDE8F6813C
:105D7000F8B5044601208DF801000DF1010200F094
:105D800042F80546A21C022140F21130FDF7C6FF81
:105D90000646221D022140F21230FDF7BFFF0746E2
:105DA000A21D022140F21330FDF7B8FF3E43064327
:105DB00004F1080202214FF44570FDF7AFFF0643DE
:105DC0003543182D01D18420F2BD280001D0832055
:105DD000F2BD00F013F89DF80000062818BF072850
:105DE00009D10DF10102012140F21930FDF796FFB2
:105DF00010B1842500E092252846F2BD694640F2A4
:105E00001A30FEF7E7B801214FF44470FDF786BF62
:105E100038B504460025A07801280DD100F068F8B7
:105E20002288BDF8000082420BD10246944910201E
:105E3000FDF756F8284632BD18B9FEF786F9054633
:105E4000F8E7842032BD80B50288262A06D0282AA9
:105E500004DA4388854900F0F3F800E08420C0B2FA
:105E600002BD10B504462288262A0AD08549102092
:105E7000FDF736F800F0FF020004000E02EB0022EE
:105E800062804FF6FF716088884201D0002010BD0B
:105E9000842010BD70B584B006460D46144600F04F
:105EA00027F8BDF80010BDF8000001F0FF01000A5E
:105EB00001EB002106F0FF00360A00EB0620ADF8EA
:105EC0000600ADF8041005F0FF002D0A00EB0520D8
:105ED000ADF8080001AB04F0FF00240A00EB042039
:105EE000ADF80A00082200210420FDF708FA7FBD62
:105EF000694640F20E30FEF76DB80000F0B504467A
:105F000083B020885B4D042836D8DFE800F003100A
:105F1000292C32004FF480660127A01C00903B46DC
:105F2000324629461020FCF7DBFFC0B2FEBD618877
:105F300040F20242032919BF01208DF8040000211C
:105F40008DF8041001A80090012329461020FCF7C9
:105F5000C7FF0127C1B2002940F20346E5D1DCE7C3
:105F600040F20646D8E74249002740F209468F76BC
:105F7000D3E74FF48366CFE78320D6E710B582B02E
:105F800004460DF1010140F21A30FEF723F86B468A
:105F900040F20E423C491020FCF7A2FF9DF80100A0
:105FA000022818BF032802D09DF8001009B98320E9
:105FB00016BD207800B103202D498876002016BD3B
:105FC00010B582B0304C6B4640F2064200F033F818
:105FD0009DF8000010B101218DF800100DF10103B2
:105FE00040F2024200F027F89DF8010000B10420C1
:105FF00000F01BF80DF1010340F2114200F01BF814
