:020000040000FA
:1000000000440020E527010001C9011001C90110C9
:1000100001C9011001C9011001C9011001C9011074
:1000200001C9011001C9011001C9011001C9011064
:1000300001C9011001C901103FC90110120001835B
:1000400001000143C5A70D63C9C315B0070100AC8A
:10005000030020C5A7000161106108100B8460F83F
:100060000543022804438AFF00FF01F001203D669A
:10007000000110030D2000800E04F200FE3BF3236C
:1000800001000110031B4D000031044004AB4F0080
:100090000041294492064A100760020020401301E3
:1000A000003871125C0412700412FC14400100004C
:1000B000FF2682042DF00134FEFF00011003B74833
:1000C0000000E90412CB04F20EFF5416A4782104B8
:1000D00061261003B1260100030D3001FF00141347
:1000E00012C41C210452CC04834C105041EE100168
:1000F0000100E818F206E81C200204040020045263
:100100000C0452140463CC22221001000028102198
:1001100004523004439C0104C70100963001BFBD66
:10012000016212582421045260045268045270047F
:100130005278045280048321084612050AD62013FF
:1001400043D8041312B008210452B80452C0045218
:10015000C80452D00452D80452E00452E804830088
:1001600000B075D7400302000080081CD00353C0C4
:1001700001100001E97620023405002004523C04FD
:10018000524404524C04525404525C046178F1C746
:10019000016520FE0E019F0310035F2C0000CF04B9
:1001A000631F2C31510824020577100185C20A40D3
:1001B000F7A5E803361E95A00383457EBC300C1DD1
:1001C0001C0100712801009D1F01008513EA4001F8
:1001D00000625FFF12C418F50B37A12C43CC283CFA
:1001E000435A66101A7BB421104376831043880764
:1001F000106120527C2043DE8410D28620527D2064
:10020000434E8710128420ED8B04140CB9020100B8
:100210000DDC000085F7000019F6C03004EC00008A
:1002200003081B26F301D428BAF0010034080001AA
:10023000200618008001A414140C1A43FF7F6C1DC3
:100240001E06000302020201FF83010001A10CD07F
:100250000334050020000152641420023401002000
:1002600004523C0412000110074019002020150020
:10027000202404C20001C005200101000058141808
:10028000520001100708020020800400200111C361
:10029000010001123818210422000150026CDC0216
:1002A00000015003F0030020030D100359C30000A8
:1002B000A104F3010100012002B004002017120084
:1002C0000100020802002052000152000112000148
:1002D0000002080000000300000000000000000011
:1002E000000000000000000000000000000000000E
:1002F00000000000000000000000000000000000FE
:1003000000000000000000000000000000000000ED
:1003100000000000000000000000000000000000DD
:10100000B41200001810000015AB0110FDB3011060
:101010006DC00110FDAE011099B501100000000077
:10102000000000002D000000B01200003C10000085
:10103000B1C00110A9BF011067C0011069B801104B
:10104000000000000000000030000000B0120000AE
:1010500060100000BDC00110CDB30110D9BD01105A
:101060006DB301100000000000000000310000001E
:1010700000000000A40300200400000000000000A5
:1010800000000000200000001421010030000000DA
:1010900028100000C403002004000000000000002D
:1010A000000000000C0000002427010018000000D0
:1010B0004C100000CC0300200400000000000000E1
:1010C00000000000240000003C2701001800000080
:1010D000000000000C0400200400000000000000DC
:1010E0000000000010000000E42101002C000000BE
:1010F0000010000028040020040000000000000090
:101100000000000020000000BC23010024000000BB
:10111000FFFFFFFF3004002004000000000000007B
:101120000000000028000000E0230100240000006F
:10113000FFFFFFFF58040020040000000000000033
:1011400000000000140000005427010018000000F7
:10115000FFFFFFFF6004002004000000000000000B
:101160000000000058000000241F010034000000AF
:10117000FFFFFFFF680400200400000000000000E3
:1011800000000000100000006C27010018000000A3
:10119000FFFFFFFF700400200400000000000000BB
:1011A000000000001C0000000424010024000000D6
:1011B000FFFFFFFF78040020040000000000000093
:1011C0000000000038000000F422010028000000A8
:1011D000FFFFFFFFE004002004000000000000000B
:1011E0000000000054000000E01B01003C00000073
:1011F000010000000C2901000100000000000E00A9
:1012000000000F003200000001000000AC030020CD
:10121000000200000000000001C9011000000000F1
:10122000000000000800000000002200D40300209D
:10123000000000000000000008000000380400204A
:101240000000000000000000080000000000000096
:10125000000000000000000000000000010000008D
:10126000800400200600000001000000E8040020C7
:10127000000000000000000000020000000000006C
:10128000290001002500300031002D00010001007F
:1012900004000000242801000000000000000000FD
:1012A000000001000000030013C40110B5C30000DA
:1012B000B8120000B8120000000000001C0400205A
:1012C00055C2000020000000FC2701001C23010083
:1012D00029C1011047D000006FD30000A1C7011041
:1012E000A3C7011000000000DAF70000D0160100CB
:1012F000E8160100B8160100020009000100000014
:1013000001000000C12201009522010031260100E8
:1013100009200100E3200100011701004510010030
:101320009D270100CDC10000EDC30000F1C3000006
:1013300038B5054601F0DCF82C680CB1216829604D
:1013400001F0E6F8204632BD70B505460E462C6821
:10135000002030601CB901F0CBF82E600DE001F0E8
:10136000C7F800E0246821680029FBD1B44203D10A
:1013700001F0CEF8002070BD266001F0C9F8012010
:1013800070BD10B501460022DFF8500B00EB421093
:10139000C37F1C0603D5B0F91C308B4203D0521C0E
:1013A000082AF1DB002010BD38B504281DD1DFF874
:1013B000CC4A04F1EC05284601F0F2F8A8B1284621
:1013C00001F0ECF8DFF8B81A0A68504364280CD230
:1013D000284601F0F3F8052001F02AFA0120E07711
:1013E000042104F14C0001F03FFD002032BD70B536
:1013F000044601F07DF8DFF88C1A0546887D00B3BD
:10140000401E8875C0B2E0B9DFF8706A082100F0AC
:10141000F4F8B4B1B06B703001F0D0F8B06BDFF815
:10142000601AC0680A68241AB4FBF2F1012906F1B7
:10143000EC0498BF0121204601F0BCF8204601F0E1
:10144000BBF82846BDE8704001F062B810B504460C
:10145000207B00F00F0002280FD100F018FDA168DA
:10146000081ADFF8181A8A6BD168800801F57A71BA
:10147000814238BFB0F1405F00D3002010BD38B5C5
:10148000DFF85C1ADFF85C0A0C68DFF8F0590440FA
:10149000E0430860A00606D54868810603D54FF4EE
:1014A000005100F0E6FD14F4602F09D0286904F41F
:1014B000602404432C6105F19C00BDE834403AE00F
:1014C00031BD70B501F014F8DFF8B0590446286951
:1014D00010F4602F25D02E69F601360EF00748BFB4
:1014E000002606D4B00748BF012602D4700748BFC3
:1014F0000226701D40B200F051FF2969012206F159
:10150000110082409143296100F0BEFC05EB86008A
:10151000446844B1286800224FF00063711DA04761
:1015200001E000F0B1FC286920B105F19C00BDE8A4
:10153000704000E070BD002101F096BC70B501F074
:1015400099FCDFF83869DFF8E05B8107B16A1DD4E8
:10155000D1E90423104007D0F1628A691043886101
:101560004FF4804100F049F8B06A002844D1746A11
:10157000002C41D0E068B16B884222D006F14C00CB
:10158000BDE870404FF4805101F06EBC09B9B16AFA
:10159000EAE70022B262D1E904238C69104040F0EE
:1015A000020020438861686990436861E868984355
:1015B000E86006F13000FFF7C7FE022100F01DF8D9
:1015C000E5E7A068FFF742FFB06408B1B06CD1E076
:1015D000D4E904016A6902436A610020EA680A43A7
:1015E000EA60E861A0682860E8690028FCD006F19C
:1015F0002400FFF79DFEB46270BD06F14C0001F0BF
:1016000033BC0020F3E6F8B5074614463E6E1D468F
:1016100006B1B047A00708D4D7E9160120402940F9
:101620000022914208BF904207D0C7E91A4507F14E
:101630003800BDE8F24001F0F8BCF1BD704780B55C
:1016400001F010FCDFF834280146906BD26BBDE846
:10165000084010470421DFF8D40A01F005BC80B52A
:1016600001F008FCDFF8C81A084204D0BDE80440C5
:101670004FF00051EFE701BD70B504005AD0A168EA
:10168000202000291CBFC2B2002A59D00A8840F687
:1016900003039A421FBF40F604039A424968401E62
:1016A000EFD148E000224FF08043B4F91C10E0680D
:1016B0006568A84700F01CFFDFF8C0570646E88EB3
:1016C000401CC0F30B00E8860020296BC87705F1A9
:1016D0003000FFF72DFE304600F01AFFB5F9360056
:1016E000E26802F19403B3F90010884202BFDFF808
:1016F0009407017D00291DD1987808B9106810B9A8
:101700000020987036E0A96B0B6813F1010F11D01F
:10171000DFF86C572968B0FBF1F1012998BF01216E
:1017200002F1700000F046FFE068BDE870407030E4
:1017300000F042BF70BDE0681822203001F0C4FC08
:10174000A2690020A06160680028B3D0E07F002378
:1017500000F00700012842F0020207D00228A1D0C1
:10176000042804BF00224FF080539EE700224FF070
:1017700000539AE7BDE8704039E638B50D46A80732
:10178000DFF8F84619D5206BFFF776FF206B25F0C0
:10179000020510B145F0020109E0680702D4606A51
:1017A000002854D004F1EC0000F008FF042104F1FB
:1017B0004C00BDE8344001F057BB680747D5012015
:1017C00084F82000042001F033F8DFF8680901688C
:1017D0000A6B90472064606A08B1C068A063A06B80
:1017E0004168DFF854090A780260022001F020F80D
:1017F000112001F032F80120E076A06B017C002975
:1018000019BF607E00280E2001F027F8A06BDFF8DA
:10181000182940688168002904BFC068002804D0E6
:101820000021D161DFF84C0A106040F2FF70DFF850
:10183000481A086000219161DFF8F40850610FF246
:101840001100E0631920BDE8324000F053BE31BD05
:101850002DE9F0430446880085B040F19380DFF81D
:101860001C56A86B4068406800B18047A86BDFF841
:10187000B88842689068002804BFD16800290DD05C
:1018800000F0A7F8906800B18047A86B4068C06876
:1018900000B18047DFF86C0A01F0EFFA0020C8F8C9
:1018A0001C0040F60A09DFF8600ADFF8D875C8F8AE
:1018B0000000012001F01BFB0FF28110E863002102
:1018C00000207880A7F8009000F00CFA787B00F0F8
:1018D00003FAA26816467180697E09B1607CA0B1E6
:1018E000108840F60201884218BFB0F5C15F05D1EB
:1018F000318A4FF60F400140318204E0318B4FF6C0
:101900000F4001403183002060746946104601F0A9
:10191000DBFA684601F0E6FA7068B0B30188494521
:1019200018BF0646F8D130E0208C00283FD00021B7
:101930006184616204F12C004278017802F0F002C7
:1019400001F0F00142F001020170427004F1200048
:101950007860787B00F0F000787328E0DFF8801A78
:101960000A68136801209847012808D0707B00F0AE
:10197000F00040F0010070730FF26900E863A068A6
:10198000C8F8000005B0BDE8F083776040F60301B9
:10199000707B00F0F0007073686A8068008888428D
:1019A0001CBF40F604018842BED10020286400F02C
:1019B00010F84FF6FF30A1680A8A02400A82E87FD9
:1019C0000028CBD001F0CEF80028FBD001F0DBF8E6
:1019D000D5E7D8F81C000028FBD00021C8F81C105F
:1019E00070470000DFF8FC29114200D17047DFF892
:1019F000F019012010B50A68DFF880441368984791
:101A0000012808D10FF23500DFF81C17E063DFF87A
:101A10007404086010BDDFF8682410683221B1FB3F
:101A2000F0F1012998BF0121EC34204600F0C2FDFD
:101A30002046BDE8104000F0BFBD00002DE9FE4F7C
:101A400006460C466004DFF8345419D500F050FD0A
:101A5000EE6AB769B9070ED46EB10021B16100F02A
:101A600057FD706848B1B6F91C10F06876683A46C0
:101A70000023B04701E000F04BFD24F4804425E151
:101A8000A0070AD5286BFFF7F7FD286B002824F084
:101A9000020401D044F0020418E1A00005F180081E
:101AA00040F60909DFF8DC73DFF888B676D595F8DB
:101AB000200028B1042000F056FE002085F8200008
:101AC00040F60202B0680188914218BFB1F5C15FCB
:101AD00005D1028A2D2161F30912028204E0028BF2
:101AE0002D2161F309120283286CD8B1DBF8541060
:101AF0000A6804209047A8B1DBF80000016B884712
:101B0000296C814228BF401E401A718A11EB1030A7
:101B1000F06040F2D171A0F5FA70884224BF40F61F
:101B2000C410F060787B10F00F0F04BF708C484534
:101B300008D1D6F818C000224FF000736FF48071FE
:101B40003046E0470022DFF8A818404600F0D6FCF7
:101B5000A87E50B10221ADF80010684601F08DF961
:101B6000BDF80800A8820020A87601202876002170
:101B7000B87D401CB875E976686A18B1192000F084
:101B8000BBFC01E044F002043046766900224FF0CD
:101B900080630021B04724F0005497E0A87F24F030
:101BA000080A20B1210703D50020A8777BE0200791
:101BB0007BD5E87F20B10021E977052000F0D3FD37
:101BC0000020287601202877002001F090F90022DB
:101BD000DFF82018404600F091FC697E09B1A87E2C
:101BE00010B10121697612E0A86C002834D0DBF82E
:101BF0000010086B8047296C6A6C401A02EB1032A7
:101C00006A64A86CC001904226D200216964DFF8A2
:101C1000E80701680A061FD5787BA7F8009000F056
:101C20005BF800210020788000F05CF800F060FC98
:101C3000DFF8F4144A6922F002024A616FF00202EE
:101C40000A610F600B699C07FCD50A614A6942F082
:101C500002024A6100F05CFC0020286401F01AF9DD
:101C6000DFF8141600200860022000F07CFD11202F
:101C700000F08FFD307C10B90E2000F08AFD0020AE
:101C8000A883787D18B906F1380001F0CEF9DFF8A5
:101C90006C07E863F87D30B10021F97505F14C005F
:101CA000042101F0E1F8544610E0A0040ED5AE6A1C
:101CB000002E1CBF7068002806D0B6F91C10F06812
:101CC000766800222023B04724F4005414B1214642
:101CD00000F0CFF9BDE8F78F00F0F00040F0010010
:101CE000787370477960387B00F0F0003873704784
:101CF00030B585B000F0A4FCDFF80407DFF8044736
:101D000001685E4D41F002010160684601F07FF814
:101D1000A078DFF8F41602906A4605F14C0001F055
:101D20007EF8684600F0ECFB2178DFF8C8260191C8
:101D300000208DF808006B46192105F1800000F0A5
:101D4000B4FB684601F063F8E078DFF8C016029053
:101D50006A4605F19C0001F062F8684600F0D0FB8D
:101D600001208DF808006B466078DFF8A42601900A
:101D70001A2105F1D00000F098FB00230022DFF8C3
:101D8000941605F1EC0000F0E8FBDFF87006DFF8D0
:101D90008826E8630023042105F5887000F0D1FC53
:101DA0004FF6FF70A88205B00120A8760020E875E4
:101DB0006876E876E861286485F8200030BDF0B5E3
:101DC00000298BB0064615461C4653D0DFF84C065A
:101DD00000680A78D040C0074CD5002D716049D00A
:101DE0000021284601F084F8B56000F081FB254F02
:101DF0000546787D00283BD1FFF77AFF787D401CAF
:101E0000787500F0A0FA34B903A80FF24C611C22D7
:101E100001F05AF903AC2068DFF8041630600A4676
:101E20006068F060207C307401207074608A708279
:101E3000E06800B10146B161A06800B1024672617C
:101E4000782106F1200001F09FF9002106F1380009
:101E500001F0B5F8684600F0AAFB02966B46002236
:101E6000DFF8C01506F1700000F077FB304602E0A5
:101E700000F069FA00200BB0F0BD0000441500200E
:101E80003818002068160020204600F041BBD0B56D
:101E900000F02EFBDFF89025117E31B1DFF88C25A4
:101EA000146800F035FB2046D0BD00F031FBA1489E
:101EB000DFF87C4501680A6B904710F50032DFF8C7
:101EC000740541F100030169A4FB0267002004FBD3
:101ED0000377321847EB01031846D0BD800A002073
:101EE0000810044020000E002DE9F84F04460E466D
:101EF00092469B46DFF8305500F0FAFAB5F93410F7
:101F00008046B5F93600091AC1F30B0108296FF0B4
:101F1000010949DAA88EDFF82015401CC0F30B0038
:101F2000A886B5F93400ADF800000020420101F1A7
:101F30001F039B5C1F0640F18C80401CC0B2082828
:101F4000F4DB002704F1700000F038FBBE6087F876
:101F50001EA0C7F804B02021BDF80000B883FC60C3
:101F6000DDE90AABDFF8D4040AEA00000BEA01015C
:101F7000C7E9040194340020F87740F6FF76686AD8
:101F80000028394605F1240006D0FFF7DDF930B10D
:101F900000F061F840464FE0FFF7D6F940B9A88E4F
:101FA0003618C6F30B06AE8600F01EFA48464EE021
:101FB00000F051F8697FDFF87C4400291CBF287EBF
:101FC000002807D0002001216877A876A977A07D96
:101FD000401CA07500F008FAA96A002935D1287EB6
:101FE00018B1192000F088FA2FE0E87E68BB00F0F5
:101FF0007FFA0646287F10B10121E1751BE0B86821
:10200000FFF724FAA864D0B1A86BDFF83414C068D5
:102010000968AA6C121AB2FBF1F2012A83BFAA6CFA
:10202000101AB0FBF1F10121EC35284600F0C2FA9C
:10203000284600F0C1FA304600F06AFA05E0304662
:1020400000F066FA042100F014F8BDF90000BDE8C4
:10205000F28F8F1876E7BDF800002080F87F40F0FF
:102060008000F877A078012802D10021A170A9761C
:10207000704705F14C0000F0F7BE2DE9F041054630
:102080000C4616461F4600F0EBFE80462046FFF742
:1020900078F9040003D1404600F0EAFE0AE0E07F50
:1020A00010F0070F09D0404600F0E2FEE07F10F08C
:1020B000070FFBD10220002112E06168DFF88403E2
:1020C000814202D0616829666060C5E916674046B2
:1020D00000F0CEFE00F006F800202866D5E91A01CF
:1020E000BDE8F0814FF0FF3105F1380000F094BFFA
:1020F000DCB5DDE906670446CDE90067180008BFD6
:10210000DFF840332046FFF7EFFE002803D500201C
:102110004FF00041DCBD0146204602B0BDE8D04092
:1021200002224FF0E043A8E7001004409015002081
:10213000020000408C010010D021084001E042F074
:1021400002022DE9F843DFF8E052686A00900F467A
:102150000326144600F0CCF917F1010F04F0010832
:10216000814609D1A86A002819BFA96AB1F91C7073
:10217000EF8E7F1C0020E87538B2FFF702F90100EE
:1021800069D0A86A814204F0020426D11CB1686AB1
:10219000009000226A620122C87F02FA08F210430E
:1021A000C87700F05DFE0646B8F1000F14BFDFF8F7
:1021B0009802DFF8980200F060FE00F06BF824B996
:1021C00006E000F05BF800F060F800980028F8D115
:1021D000304600F04DFE83263FE00098884205F12E
:1021E000EC0316D1184600F0E9F9002C12BF0020CC
:1021F000686A0068686200F04DF8009800F03EF8E8
:1022000000F043F8009820B3002CF6D121E01268CA
:102210000092009820B3024610688842F7D1184611
:1022200000F0CCF9009800681CB1009A0021116000
:1022300004E00168009A116000220260009003E04F
:1022400000F01CF800F021F800980028F8D100F008
:1022500021F8832606E000F01DF83046BDE8F28341
:1022600000F018F8E87E0028F7D10221FFF701FFFF
:10227000F3E700005100070600000460C17F41F051
:102280000401C1776846FFF753B8014605F13000F5
:10229000FFF75AB8484600F03BB90FF2BC111C22B8
:1022A00000F012BF38B5044600F022F9DFF87811CB
:1022B0000546087E68B1204600F0DFFD044600F0C8
:1022C00042F804F0FF04012C01D1812032BD02202C
:1022D00032BD00F038F8012032BD0A46DFF848115F
:1022E0008B6B984201D00320704707E00A46DFF865
:1022F00038118B6B984201D00320704700211046A3
:10230000D0E700000100070601010E0470B5DFF8F8
:1023100018118A6B90426FF07F0412D1087E80B151
:1023200000F0E6F80546DFF8280100F0A6FD0646B5
:1023300000F009F806F0FF00012802D1360230163D
:1023400070BD204670BD284600F0E2B870B50E465C
:10235000154600F0CDF88324334A1EB1022E0ED06C
:1023600006D30FE0916A41B1926A918B29800AE00D
:10237000917E11B9928A2A8005E0802403E0117EC3
:10238000297000E0032400F0C3F8204670BD80B53A
:102390000846FEF7F6FF00B1806802BD38B5044676
:1023A00000F0A6F8204AD17D4B0702D5937D9C42D0
:1023B00012D00123958A03FA04F10D432549958231
:1023C0000C340A6803FA04F422EA04040C60096875
:1023D00011B9184B00221A75BDE8324000F098B8C8
:1023E000E001001004000020404600F091B8000019
:1023F0003D1500005F160000000004407B17000040
:1024000000200940C80701003F160000C314000067
:102410007F14000055160000A9130000D4210840C5
:102420003D1600000316000044150020043004404F
:1024300000093D0068160020800A0020F1EFFF9F90
:1024400038180020071600000100020401000104F2
:10245000010003040C100440FFFFFFFFC40900004B
:10246000000000000000000001001A010000000050
:1024700000000000DFF800F085BF0110DFF800F079
:1024800061C00110DFF800F079BF0110DFF800F043
:10249000A9C00110DFF800F089AF011020B10823B6
:1024A00030220021FFF7EEBF7047F0B51C008DB061
:1024B00005460E46174603D1002300F075FE0CE0DA
:1024C0006846FFF7EBFF206805906B466068089050
:1024D0003A4600F005F800F067FE28460DB0F0BD62
:1024E000207AADF81800314628467047FFF7CEBF76
:1024F000FFF7C0BFFFF7CEBF00F076BE00F07EBE94
:10250000002101604FF0FF314160012101727047ED
:10251000FFF7B4BFDFF800F0C1BF0110DFF800F033
:10252000B9BA0110DFF800F0E5C00110DFF800F0E3
:102530001FBE0110DFF800F0DDC00110DFF800F071
:1025400069B20110DFF800F091BE011020B108233C
:1025500024220021FFF7DEBF7047F0B51C0089B0D0
:1025600005460E46174603D10023FFF7E7FF0AE0B2
:102570006846FFF7EBFFA06806906B463A46314687
:102580002846FFF7DBFF0E480E4A01681160284617
:1025900009B0F0BDFFF7CEBFFFF7D4BF00F036BEE5
:1025A00080B500F04AFE00B10120C0B202BD00219A
:1025B00081607047FFF7B6BFFFF7B8BFFFF7AEBF48
:1025C000082901003818002070B5DFF8584782B09C
:1025D0000120009009232568DFF84C076E684FF44E
:1025E00000720021B04773BD70B5DFF83847DFF8DF
:1025F00038072568EE68002301223421B04700B176
:102600000120C0B270BDDFF8240780687047024621
:102610000020022904D1012A06D140F2EE207047A1
:10262000012A08BF4FF47A707047DFF8001791F85D
:10263000E60020B1D1F81001002818BF004770470C
:102640002DE9FF41DFF8E48608F1E105A8790028CB
:1026500073D1DFF8DC16DFF8DC660A689209012026
:1026600002F00102A871EA71307BDFF8CC76687164
:102670007068C8F8100101A8FFF799FF00210291C6
:102680008DF80410039101AB00220FF2295108F1DB
:102690000C00FFF762FF01AB00220FF2D55108F1E9
:1026A0003000FFF75AFF01AB00220FF20D5108F185
:1026B0005400FFF752FFB16801208847DFF87C061D
:1026C00001787868C0F38154707B20B1032C02D16B
:1026D0000121297003E0032C18BF022C16D102201F
:1026E00000F0A6F8DFF858160A68032C0CBF4FF468
:1026F0007A7042F21070B0FBF2F108F15400FFF76B
:1027000059FF08F15400FFF757FF10E0012C0ED1DC
:10271000DFF81046032000901C232568DFF8080628
:102720006E684FF040520021B047FFF74DFF386808
:1027300040075CBF002000F07BF8002004B0BDE83B
:10274000F08138B5002408B1150002D16FF0020401
:1027500007E08160C26003610146DFF8D00500F048
:1027600078FD204632BD10B50446FFF7C1FEDFF804
:10277000BC150A1992F8E9305B1E82F8E930DBB229
:1027800033B98A68012303FA04F422EA04048C6052
:102790005FE0F8B50546FFF7ABFE0446DFF88C15A1
:1027A000481990F8EF20521E80F8EF20D2B27ABB81
:1027B0000FF2D850DFF88C7500EB850210F8255029
:1027C0005688280615D539680A6A304690473A680F
:1027D000916A3046884739680A6B30469047DFF87F
:1027E000681501200860DFF8641508688007FCD5CB
:1027F00007E0680611D501EB86010020D1F804211D
:10280000904705F03F053F2D1CBF2846FFF7C1FF4D
:102810002046FFF77DFE0020F2BD39688A69304608
:1028200090473A68516B304688470228F9D1E8E76B
:1028300010B50446FFF75CFEDFF8F0148A68012348
:10284000A3401A438A60214491F8E920521C81F880
:10285000E920FFF75DFE002010BD2DE9F04107469D
:10286000FFF746FE0546DFF8C464F01990F8EF1054
:102870004A1C80F8EF2049BB0FF2105818F82700C7
:1028800000F03F003F2818BFFFF7E7FF08EB870085
:10289000448818F82700DFF8AC7401060ED53968B3
:1028A000CA69204690473A68516A20468847396885
:1028B000CA6A2046904700F01AF807E040060BD598
:1028C00006EB84010120D1F8042190472846FFF748
:1028D0001FFE0020BDE8F08139684A692046904714
:1028E0003A68516B204688470128F9D1EEE7DFF8B6
:1028F000581401200860DFF8541408688007FCD5DC
:1029000070472DE9F84F0746DFF82404DFF84454F8
:102910000168002600244A06A0460DD5287B58B938
:10292000DFF83404DFF8341402680A4042F08172A0
:102930000260202000F075F9012F18BF6FF0010927
:1029400057D12868012852D10221296000F00DFDDD
:10295000012000F066F95FEA00094BD100F080FA2F
:10296000DFF8FC13DFF8DC7300900C600120B96A1B
:102970000A689047012803D1002000F0A8F901243B
:10298000DFF8E013DFF8C8A3DFF8DC230E60DAF825
:102990000010907808B14FF00108517809B148F063
:1029A0000208107808B148F00408A87F20B13968FF
:1029B0000A6B4FF480609047687F20B139680A6BDA
:1029C0004FF481609047DFF880130120086048F0E1
:1029D000200039688A699047DFF890130120086069
:1029E000DFF84813087AC10709D501261FE06FF008
:1029F00004097DE00120286000F0C2FC78E0396A1B
:102A0000DFF86C038A6890478346BBF1040FF6D069
:102A1000BBF1010F05D13A6ADFF854035368032173
:102A20009847DFF850030168890889000160002099
:102A300000F0CAFCDAF800003868816B884776B984
:102A4000BBF1010F05D13A6ADFF824035368012175
:102A50009847DFF82003016841F00301016001207D
:102A6000DFF800130860404639684A699047A87F3C
:102A700020B13968CA6A4FF480609047687F20B1FE
:102A80003968CA6A4FF481609047AF49B74A01205C
:102A9000086000211160032028603A68516B4046AD
:102AA00088470128F9D1DAF80000042000F0B9F8CD
:102AB0000646AB4901200860DAF800109C49086816
:102AC0008006FCD514B1012000F001F900F0CCFD26
:102AD000082000F0A6F8064301202860009800F0C6
:102AE000C7F900F046FD00F04BFC0EB14FF0FF3986
:102AF0004846BDE8F28F38B50446FFF7F9FC0546B5
:102B000021468A4800F0B9FB2846BDE83240FFF76D
:102B1000FFBC3EB50024012804D020D303281CD0DC
:102B200017D31CE06846FFF742FD804D924901949F
:102B30008DF8004002946B46012205F17800FFF702
:102B40000CFD00238D4A2C2105F19C00FFF7ADFC04
:102B500005E000F0A5FD044601E000F065FE20461A
:102B60003EBD000038B5FFF7C3FC7049054691F83B
:102B7000E000012410B1FFF737FD04462846FFF7B7
:102B8000C7FC204632BD70B5FFF7B2FC044600F02A
:102B9000DAFF6649002081F8E00066488568022077
:102BA000A8470646102000F03CF8012E04BF032081
:102BB000A84787E07047000038B55A4CE16B0A68B7
:102BC00004209047022818BF03280FD1032000904B
:102BD0001C232468544865684FF040520021A847E0
:102BE000FFF7F2FCBDE832400220BCE564485449DE
:102BF00000680A684D4CC0F3815003280CBF4FF4A5
:102C00007A7041F28830B0FBF2F104F15400FFF722
:102C1000D1FC04F15400BDE83240FFF7CDBC0020E8
:102C2000704738B50546414C204600F008FB88B98E
:102C3000204600F00AFB0446A068284205D022691D
:102C4000E36800212846984730B9204600F0FFFA93
:102C50000400F1D1002032BD4FF0FF3032BD4949B0
:102C600001280CBF40F2FF70002008600020704770
:102C700070B5FFF73DFC2D4E2E4D044696F8E00052
:102C800028B100F060FF70B1002086F8E00002205B
:102C9000AD68A84706461020FFF7C3FF012E11D1EB
:102CA0000320A8470EE026490A683220B0FBF2F163
:102CB00001B9012106F13000FFF77CFC06F130007C
:102CC000FFF77AFC2046BDE87040FFF721BC38B51D
:102CD000012823D12C490A681368984701281DD080
:102CE00000F024FF114D012085F8E000287A8106CC
:102CF00016D4134802683221B1FBF2F404B901245E
:102D000005F13000FFF75AFC214605F13000FFF7CE
:102D100051FC05F13000FFF74FFC01E000F039FFF6
:102D2000002032BDA401001000A00C406805002066
:102D300014100940B8070100B03F00504C190020A2
:102D400038180020B801001028200860282008400A
:102D50002C2009404406002004000940FFFFFCFC31
:102D60000C40094000022243660600208001044313
:102D7000004003402422084071390000053700005C
:102D8000B43F005000000460E00100108F0000001C
:102D90008F0001008F0002008F00030090000001EF
:102DA0008F00010190000002900000038F000104D9
:102DB0008F0000058F0008048F0000048A000006C1
:102DC000510000007F0001003F0004003F000200AE
:102DD0003F0001007F000200DFF800F011BF01108A
:102DE000DFF800F011B00110DFF800F015C001109D
:102DF000DFF800F015C10110DFF800F005B3011095
:102E000020B1082328220021FFF7EEBF70470021E0
:102E100001604160C1604FF0FF318160704770B563
:102E200014008AB005460E4603D1002200F0FCFED5
:102E30000CE06846FFF7E4FF206804906A4660688B
:102E40000590314600F004F800F0EEFE0AB070BDC7
:102E5000E0680790A068069028467047FFF7C8BF53
:102E6000FFF7BABF00F0ECBE00F0F0BEFFF7B8BF4E
:102E7000FFF7C2BF3849086867E0384A116800297F
:102E8000FCD10023D3611060D0690028FCD0D1614F
:102E9000506870473248016821F0020141F4007126
:102EA000016003212F48816041F23001416101211D
:102EB000C160502141610121C1604FF4CA6141618B
:102EC0000121C16001607047274802680A6082687A
:102ED0004A60C2688A60406B20F0784040F08050C1
:102EE000C860704701461022204800F0DDB87047E6
:102EF000FEB50188B1F5C15F18D142691C4F00923F
:102F0000002382690192C06902901A480268C2F3E4
:102F100003625DF8230098B1002550F82560BE4299
:102F200006D06D1CEDB2042DF7DD09E00120FEBDD9
:102F3000042D05DC26F4702444EA024440F82540C0
:102F40005B1C032BE5DB0020FEBDC2430A600A6860
:102F50000242FAD1704700001010044000100440F3
:102F600000000460004104404C1300501800002190
:102F70000200F84454130050DFF800F009C00110BB
:102F8000DFF800F0D1B20110DFF800F0E1A301108A
:102F9000DFF800F0059B0110DFF800F05DB40110D0
:102FA000DFF800F009C10110DFF800F00DC10110D9
:102FB00020B1082324220021FFF7DEBF704730B57F
:102FC00089B004460D4600F00BF801218DF8181069
:102FD0006A4629462046FFF7DFFF204609B030BD8C
:102FE0006846E5E710B58AB00446FFF7F9FF01210E
:102FF0008DF818102046034A6946FFF7C1FF0AB052
:1030000010BD00008403002080B500906846FFF7E3
:10301000C7FF01BDFFF7C8BF80B5FFF7B9FF10B903
:103020006FF0010002BD002002BDFFF7ADBFF0B49C
:10303000034618689D681A18586802EB5004C007C8
:1030400021D54D441FE0F0BC03F10C00704712F88D
:10305000017B05F8017B491EF9D1A0B1B60812F831
:10306000011B06F00306032E08BF12F8016B01EBEB
:1030700006214942801C294405D011F8016B05F84E
:10308000016B401EF9D1A242DDD012F8016B16F09F
:10309000030104BF12F8011BC91C30090F28DAD143
:1030A00012F8010B0F30D6E762B38B0708D0521E1F
:1030B00011F8013B00F8013B00F024808B07F6D1AA
:1030C000830740F0208000BF103A07D330B4B1E846
:1030D0003810103AA0E83810F9D230BC530724BF9A
:1030E000B1E80810A0E8081044BF51F8043B40F8CC
:1030F000043BD20724BF31F8022B20F8022B44BF37
:103100000B7803707047121F17D35B0009D151F879
:10311000043B20F8023B1B0C121F20F8023BF6D2A6
:103120000BE051F8043B00F8013B1B0A20F8023B7E
:103130001B0C121F00F8013BF3D238BF121D521EA8
:1031400024BF11F8013B00F8013BF8D87047024654
:103150000229107803D1517800EB01207047032930
:1031600006D15178927800EB012000EB02407047C5
:10317000042908D15178937800EB0120D17800EB35
:10318000034000EB01607047002200F073BD017046
:103190000A0A42700A0C090E8270C170001D704745
:1031A000DFF800F0BDAA0110F8B504460B480C4F3B
:1031B0000668F8690D4650F82500B04209D1094863
:1031C00000902046FFF7ECFFF86950F82500B04268
:1031D00001D10020F2BD2046F2BD00BF1812000050
:1031E0004401002084030020102803D30249103832
:1031F000C1F8000F704700BF00E000E0816042604E
:1032000070470000DFF800F09DB2011070B5044671
:1032100000F04AFD0646A08A0025012808D1FFF7E4
:10322000F1FF0546E068451BA068A84238BF0025AD
:10323000304600F03AFD284670BD808A704700682D
:1032400008B9012070470020704700687047006887
:10325000704738B504460D46FFF74AF9002129604A
:10326000616869606168002914BF0D602560656050
:10327000FFE7BDE83240FFF74BB90A684B68002A08
:103280000CBF436053604A6809680AB9016070471F
:1032900011607047FF7F0000DFF800F031BF0110C0
:1032A000DFF800F0F5B7011030BF7047FCE738B524
:1032B00000F0D6F900F087F9FFF7A5F9044604F00D
:1032C0000C000C284BD0600721D400F021FD0546EE
:1032D00001210120FFF79BF92F49096801FB05F245
:1032E000904214D2F020B0FBF1F02C4C291A04F1DA
:1032F0000C00FFF717F904F10C00FFF717F9012094
:10330000FFF7FFFA04F10C00FFF708F929E02007A6
:1033100025D4234D2348296A8A6890470428F8D089
:10332000E206214900D420B9086840F00100086095
:1033300003E00A68520852000A601C481C4C0168ED
:1033400041F00301016020202A68916988472068C4
:103350002868816B884701212160206801E0FFF720
:10336000A5FFBDE8314000F07FB910B5114CFFF763
:1033700093FF20601048006808B18047606010BD6E
:1033800010B50E480B4C016809B160688847206889
:10339000BDE81040FFF784BF082901006805002040
:1033A000B8010010004003408C210840242208404E
:1033B0002C20094090170020E4280100E828010093
:1033C0001628A8BF203870472DE9F84F804694484A
:1033D000DFF850920168944E8A0705D50820B07135
:1033E0009248C9F80000C2E0914801680A68904715
:1033F0008246904805682F1700247F1CA80208D435
:10340000CAF13E00C0100828C8BF08208742B8BFD4
:10341000074689480168C1F30460FFF7D1FF83467E
:1034200086480168C1F30440FFF7CAFF5F44152FC7
:103430000146C8BF152704DC6FF009008742B8BFFA
:10344000074607F01F007E4A40F4F85010807D4A7E
:10345000106810F0030F18BF0124400748BF44F064
:10346000020496F90700B8F1000F18BF44F00404F5
:10347000AAEB0000042802DCB27994425DD0AAF1E4
:103480000F084FF0000BB8F1000FDC4604F0040009
:103490006D4B24D408EB08184FEA282CBCF1070F19
:1034A00088BF4FF0070CE646BEF1070F28BF4FF06C
:1034B000060E1A1D52F82E2053F82EE0A2EB0E0E27
:1034C0000EF0FF0B10B1CEF307229344A20744BFC6
:1034D000CEF307429344E20748BF0BEB1E6B53F851
:1034E0002C2002F0FF0310B1C2F30720C318A0077D
:1034F00044BFC2F30740C318E007A8EB0C2048BF45
:1035000003EB126300FB0BF0CF1B8030002F03EBAB
:103510001023D8BF0127342005F0FF0547437D4322
:10352000B5FBF3F04FF6FF71884288BF08460AF3F7
:10353000070AB08086F807A0B47144480168B088D3
:10354000316000211F2804D21F20B08004E0400811
:10355000491CB0F5007FFAD20F38000941EAC001DA
:103560003B480143C9F800100020C9F80400BDE839
:10357000F18F10B537480468A4B21CB32C48016819
:103580000A689047284991F90720904205DA6FF0C0
:103590007F029042B8BF1046C8718888844210D319
:1035A0002A4A13680A689A1A921C1F2A88BF1F2287
:1035B000241A5208D4402418B4F5803F28BF4FF68F
:1035C000FF748C8010BD2448006800B9704730B586
:1035D00022498A6802F04063B3F1406F1FD0104B5C
:1035E0001C68A5071BD44C68A50718D41C6809687B
:1035F000C1F303511C31090114F0050F04D08842B6
:103600000DD224F0050409E0814208D2100158BF10
:1036100044F00104500158BF44F004041C6030BD64
:10362000000009403010094050180020FDFDA400A2
:10363000EC010010B43F0050B81200503C11005093
:103640006E620840242208409C1300500820094064
:1036500000E7A4803410094028500940AC3F0050D6
:10366000EFF3108072B67047EFF3108062B67047C8
:103670000138FDD17047704710B50C18FFF7F0FF07
:10368000411E8941C90FDFF8602410680028FCD072
:1036900024680123136009B1FFF7E6FF204610BD3F
:1036A00038B5DFF8485428780024002802BFDFF836
:1036B0004014887B00280CD0FEF71AFF0146A8783A
:1036C000002806BF0122AA7001240846FEF720FF49
:1036D0000CB1002032BD0220FFF7AAF80E20FFF740
:1036E000BCF8DFF81014086808B1012032BDDFF81B
:1036F00008044022C26002600120C8610020687096
:1037000032BD00002DE9F041DFF8EC1382B000205B
:103710000860DFF8E81301F1D804A07A002837D058
:103720000128DFF8DC53DFF8DC2332D1DFF8D813CF
:1037300016684BF2F52046430868360AC0F381400C
:1037400001280BD1A86C0168884700F03AFA00F014
:1037500053FA3509C010454306EBE536607B10B1DE
:103760000021617306E0DFF8A403006820F07F40C9
:1037700036187608DFF898030660360C466001219B
:103780008160DFF86C13887B002849D00521217304
:1037900048E0022809D11568284600F00CF9A5F286
:1037A000FF55032D3CD308203BE003283AD1106895
:1037B00001F1B806A0F5C0603168F061002948BF8A
:1037C0004942002848BF40428142A8BF002026DA73
:1037D0007068D04F80B200900823D5F800C0DCF8A4
:1037E00004804FF47F4230213846C047B06880B231
:1037F00000901223D5F800C0DCF804804FF4F802E2
:1038000004213846C047B06980B200900A232D6871
:103810006E684FF4406220213846B0470120207086
:103820000B202073BDE8F3412DE9F843DFF8CC828B
:10383000B94EDFF8E092B94CB94FAF4808F1E10555
:10384000E9784A1E0B2A00F29280DFE802F0063087
:10385000415F74415F74415F7B8031680A6820205A
:1038600090470F20E060072341F61D5020614FF480
:10387000C072022000900021D6F804C0DCF8044099
:103880004846A04776684846D6F80C9007234FF480
:10389000C0720021C847012038600220E87008F19A
:1038A0007800BDE8F243FEF787BEBDE8F183012052
:1038B000E061287800281DBF00213961032006201F
:1038C000E870032020600020786078688107E6D4E3
:1038D00070684668E878032808D102210091052322
:1038E000602200214846B04704200BE000200090F1
:1038F0000523602200214846B047E87806280CBF1F
:1039000007200A20E87001207860C8E7042903D165
:103910002021A161012105E001220A29A2610CBF39
:10392000032102216970002121600821C16001602A
:1039300001202060B9E705290CBF06200920E870A6
:103940000020E1E70020386078600C20A6E7002125
:1039500001600120674908600E20FEF71AFF02206F
:10396000FEF701FF0120E8700020A8709DE7FEE748
:1039700062496B4891F8E420921E0A2A1AD8DFE8BF
:1039800002F0060A0E190A0E190A0E191200026830
:103990009107FCD548E741688A07FCD4FAE74168FB
:1039A0008A07FCD5F6E702689107FCD441688A07CC
:1039B000FCD4EFE7FEE7F8B50446564D3021284623
:1039C000FFF75AFE4D4F07F1B806C0F307207060AD
:1039D00004212846FFF750FEC0F38440B060202148
:1039E0002846FFF749FEC0F38120B4F5C064B061FA
:1039F000346003D1002087F8D800F1BD316997F811
:103A0000D80028B97068B168F060F461B06970617D
:103A1000F06900284CBF6FF00102022200EB400069
:103A20001018421000EB927001EBA0017268F26076
:103A3000002912DC7069032805D111F1150211006B
:103A40001EDA00211CE011F10B000100B8BF0021BB
:103A5000521E48BF0022F26007E01E2912DD706985
:103A600028B915391E29C8BF1E21032009E00B39CA
:103A70001E29C8BF1E21521C3F2AC8BF3F22F26028
:103A800000207061316108231D4CF06880B2009005
:103A90004FF47F422768D7F804C030212846E0471A
:103AA0000120009011232768D7F804C04FF400329A
:103AB00004212846E047306980B20090122327682D
:103AC000D7F804C04FF4F80204212846E047706993
:103AD00080B200902846246865680A234FF440624B
:103AE0002021A847F1BD000000800C4049060020BD
:103AF000B807010004800C402C500C4068050020E1
:103B0000A401001008400C40B43F005010200940B0
:103B10003C600C4000A00C40A001001000400C4094
:103B200034600C403748006800F00AB910B5374CD3
:103B3000626D53680121032098472068C16A884755
:103B40003349886010BD70B5304C616D0A68012042
:103B5000904701281BD0A5692B48EE68002301225D
:103B60003421B047A0B1FFF7DDFF2068C16A884764
:103B7000274B9A6827491C68D860A4EB9404801AE4
:103B80004843000C1860A04238BF2046186001204E
:103B900070BD38B51D4C626D5368002103209847F5
:103BA000616D0A680120904708B1FFF7BBFF2068EC
:103BB000174DC16A88476860206E01688847286190
:103BC00031BD10B501461448144B02681B6810043F
:103BD00000161B394843C01000EB2240120601FBBF
:103BE00001F412161B06624361431B1600EBA22070
:103BF000594300EBA14010BD00FB00F1C0EBA15008
:103C000000B270478000001000A00C408C01001032
:103C10003C18002040420F0090130050A4100050A8
:103C2000DFF800F079AD011010B50446034BFFF743
:103C3000F7FFA06800B1204610BD00BF840300203C
:103C400001488068704700BFC801002038B50446AD
:103C50000D4600F034F8616A0D43656200F030F8FB
:103C60002046BDE83240FFF7BBB8004062F30F22A8
:103C700062F31F4200B500BF130096469446103908
:103C800028BFA0E80C50FAD85FEA417C28BF0CC0DE
:103C900048BF40F8042BC90728BF20F8022B48BFB3
:103CA00000F8012B00BD001800E005E0EFF31180E3
:103CB000202181F31188704780F311887047F5E760
:103CC000FAE70000F2E7F7E70D49C20744BF012217
:103CD0000A60820744BF4FF480720A60400744BF05
:103CE0004FF4803008607047064AC30748BF116030
:103CF000830748BF5160400748BF9160704700008C
:103D00000420094018200940DFF800F0E1BE01104E
:103D100070B5FFF7C9FF094D0446A8680021FFF7F9
:103D2000F3FF06466869861BA869B04238BF0026C3
:103D30002046FFF7BAFF304670BD00BF7801002073
:103D400070B50446FFF78CFC451EAD41ED0F064EE5
:103D500030680028FCD0A047012131601DB1BDE8CA
:103D60007040FFF781BC70BD00800C40DFF800F0B0
:103D700021C00110DFF800F019AE0110DFF800F0EB
:103D8000F99B0110DFF800F055A40110DFF800F0F6
:103D90004FBF0110DFF800F005840110DFF800F0DC
:103DA0008984011000B58FB008233C2200216846A9
:103DB000FFF7DCFFDFF8B00B00F1500107914FF483
:103DC000587201210892069100236A460FF275117C
:103DD000FFF7D0FF0FB000BD30B5DFF8904B83B0D8
:103DE00004F12401204601F0B3F904F1500001F080
:103DF000F7FCA06200230020019000904FF47A723B
:103E00000FF60131DFF8685B04F12C0001F0A4FC2F
:103E10000FF6FD2001F044FD00214FF0804001F03D
:103E20009FFD20626A464FF6FF70E081012100206D
:103E3000206108208DF8000040F2044001F0EEFD02
:103E40004FF47A630222294600F00EFC4FF47A63A5
:103E50000322294600F008FC0FF6BC20DFF8141BF3
:103E6000DFF8145B009015230022102001F0DDFB29
:103E7000012000218DF807008DF806108DF805103F
:103E80000DF1070001218DF80410009001234FF47B
:103E9000806200F0ADF80DF106000090012340F2C1
:103EA000024200F0A5F80DF105000090012340F258
:103EB000034200F09DF801A80090012340F2064261
:103EC00000F096F8DFF8B41A102001F0AEFB00F015
:103ED00031F80246DFF8A81A00F030F84FF0FF3250
:103EE000DFF8A01A00F02AF84FF0FF32DFF8981A36
:103EF00000F024F804F15C0001F076FD04F16002AA
:103F0000DFF8881A00F01AF800F014F80246DFF81B
:103F1000801A00F013F800F00DF80246DFF8741A6A
:103F200000F00CF8206A0FF6A0230022002101F017
:103F30004AFD37BD2178502001F05DBB102001F013
:103F400074BB00007FB5FFF747FFDFF84C5ADFF87E
:103F50001C6A22E0B06A01F064FC040004D000F0A6
:103F600078F8204601F0AFF9B06AFFF70FFF00289C
:103F7000F0D039E0002070833083F082012070712E
:103F8000B08B011FADF80C105020317801F033FBDD
:103F9000009003ABB28A00F02BF8706ADFF8FC29BE
:103FA0004FF0FF330021FFF7E9FE00280090F4D026
:103FB0000021029102AA01A90DF1060001F000F909
:103FC00078B9BDF80600102802BF9DF804103078BB
:103FD000814204BF029800F00FF8029808B101F086
:103FE000DAF800984100BFD40098C107D5D5C1E7E1
:103FF0002946102001F019BB80B50178912909D01C
:10400000B02904D0D02923D1BDE802409AE0BDE810
:10401000024038E341780E2902D0102912D001BDA8
:10402000818841F20542914212D180680FF6144313
:1040300090F90310DFF83409006A4942009100F05A
:1040400072FB01BDBDE804400021082001F0AEBEB6
:1040500001BD70B582B0DFF8141904462288086AE1
:10406000012A08D0022A0ED0042A10D0082A26D00D
:10407000102A4CD073BD6068FFF7BEFF6068BDE8D2
:10408000764001F088B8A178BDE87C4030E16468F2
:1040900062884FF6FF70824253D0012300F0E2FAAB
:1040A00000284ED02188606801F07DFB6288DFF82F
:1040B000F01802B0BDE87040102001F0B6BA616897
:1040C000A2780978130008BF0FF6883314D0012AAC
:1040D00007D111B90FF68C330EE000910FF694332F
:1040E00010E0022A03D139BB0FF69C3304E0032A07
:1040F00022D121B90FF6A03300F0EFF81CE00091B7
:104100000FF6A8330022022101F05DFC14E0626882
:104110008D8A1178DFF88C6831B1009600220FF695
:10412000A433042101F04FFC009600232A46DFF857
:104130007818102001F079FA6068BDE8764001F047
:10414000C2B873BD2DE9F041DFF8204882B00546C2
:10415000206AA9780FF688060FF6D0084FF0FF37CF
:104160004FF6FE7259B1012941D0052952D00629D6
:104170007CD0072900F0A3800D2911D0A7E0688921
:10418000A083E81C01F05AFB0346206A00220121AB
:1041900001F019FC206A0FF63C0300F09EF885E060
:1041A0002969287B0844421E00E001449142E5D27F
:1041B00011F8010B0028F9D00B78022B18BF032B44
:1041C000F3D1491C401EC0B2012840F382809142C5
:1041D00080F07F800B78F02B07BF4C78FF2C891C78
:1041E000801EF0D12979681DBDE8FC4139E300212A
:1041F000E170002261780FF2F4730091022101F066
:10420000E2FB607820B1206A0FF2F47300F037FA15
:10421000A7704BE06978D9B9022020716889A08223
:1042200001202072608B18B904F12C0001F0B9FA5A
:10423000206A0FF2DC7300F050F8281D01F0FEFA3E
:104240000346206A00F01BFABDE8FC4108214FE05C
:1042500000212171A282617100220FF2C07302213C
:1042600001F0B1FB687800F03CF82EE000202071EE
:10427000607160832072A28204206072A770A88897
:1042800000F055FA206A0FF2B07300F026F8A87912
:1042900000F027F801F097FB206A0022042101F0CA
:1042A0008BFB206A0022062101F086FB206A334640
:1042B00002B0BDE8F0410022052101F084BBE9789D
:1042C0000FF2847300910022022101F07CFBBDE813
:1042D000F381012800D1491C68E70022022101F086
:1042E00072BB00904346206A002203217047000001
:1042F0005FF000002DE9F041DFF87056DFF8AC66A2
:104300002A7995F809E0286A95F902C00B46E97800
:104310001C0786B07EA74FF0FF385ED5002A0FF24B
:1043200054742ED1002940F094810CF10103AB703C
:1043300059B26A7891420BDB85F802803B46FFF761
:10434000CCFF00F09AF90FF29863002205216AE190
:10435000491C009100220FF20473022101F033FB8B
:1043600095F90210B01C00EBC10001F067FA03469A
:10437000286A00F084F9286A0FF2EC6300F079F9FA
:1043800027E0022A4CD1BEF1040F0CBF4FF0000E03
:104390000EF1010E85F809E01022072101F00CFB57
:1043A000697A286A042914D8DFE801F00306090CA9
:1043B0000F000FF2D0630AE00FF2DC6307E00FF2A8
:1043C000EC6304E00FF2FC6301E00FF20C7300F009
:1043D00050F923460022062125E1DB0620D5002ADC
:1043E00042D11CF1010F1CD1002919D10121E97022
:1043F0000021697002210FF2F06301F0E4FA00F08D
:104400003CF900F029F900F032F9286A3B46002215
:10441000062101F0D8FA00220121032001F07BFBE4
:1044200017E1B01C00EBCC04012028712346701C5E
:10443000002110F83C20002001F038FB286A0FF220
:10444000B863FFF74AFF204601F0F8F90346286AEF
:1044500000F015F9286A0022042101F0ADFA0020CD
:10446000687085F80280F4E0022AFCD1AE8ABEF1C1
:10447000040FF8D8DFE80EF0034E8793DB00698B5A
:104480000029F0D02A7A002AEDD1E87938B3002348
:10449000012212213046FFF77DFC002802901DD03A
:1044A000688BADF804000121ADF806100299A879D7
:1044B00008700020ADF80C005020297801F09BF81E
:1044C000009001ABAA8ADFF8E814102001F0ADF8E3
:1044D000C0B2A8B1122101A8FFF760FCB9E0ADF8A5
:1044E00004105020297801F086F8009001ABAA8AC8
:1044F000DFF8C014102001F098F8C0B2002806D1EF
:1045000001202872E879401E8041C00FE871A0E0C8
:1045100000000000304600F026F970BB012332464F
:1045200000F0A0F80028F2D0304600F01CF904009A
:104530004FF47A7704D0606801F045F9278017E0DE
:10454000E8894FF6FF71884216D1242000F0BAFEA8
:10455000002828617DD000210191002200920023D3
:104560000FF2CD3101F0F8F8EE8105F10C04AF81C6
:104570003946606801F017F96BE0304600F0D7F873
:104580000FF280534DE04FF41670009000234FF46B
:1045900048724FF4C871304601F0A8FA59E00F2074
:1045A00000F090FE04003AD023460022DFF8081401
:1045B00000F05AF820680FF25C5300900022286A3D
:1045C000072101F000FAA0880FF25C53009000224E
:1045D000286A082101F0F7F9B4F807000FF26053D8
:1045E00002900022607A01900921A0790090286A47
:1045F00001F0E9F9A07A0FF2685304900022E07A02
:1046000003900A21207B0290607B0190A07B0090A8
:10461000286A01F0D8F9204600F055FE19E00FF2A3
:104620005C5300220421286A01F0CDF911E0032037
:104630002871304601F02AFA286A0FF28453FFF7F6
:104640004CFE00F01AF800F007F800F010F8002017
:10465000687206B0BDE8F081286A3B46002204215A
:1046600001F0B1B9DFF85413102000F0DEBF286A62
:104670003B460022052101F0A6B9286A3B460022EC
:10468000032101F0A0B970B5B84D0446287902287D
:1046900082B041D166782179286A162E03D1009123
:1046A0000FF22C5330E00B2908D001290CD1217ACC
:1046B0000A2916D1217B0FF22C5317E0E1680FF283
:1046C00034530A78009207E0132911D1A9790FF227
:1046D000445300914A1CAA7100F025F8002028726A
:1046E0001AE0122913D1217B0FF218530091F3E73E
:1046F0007E2903D1217A0FF22C5304E07F2906D1C1
:1047000021890FF23053009100F00DF804E0687930
:1047100010B1204600F030F8217904F10800BDE81E
:104720007C40FFF73BBB0022042101F04CB938B5B7
:10473000044600F018F8A0B140688C4D01F043F831
:10474000E889A0420BD1286930B1FDF7F3FE286952
:1047500000F0B9FD002028614FF6FF70E8810020CD
:1047600032BD122032BD8149CA89824202D101F193
:104770000C00704700207047014610B57B4C6079F3
:10478000012888B01DD10879032868D10FF244515F
:104790000FF2A0430988ADF80810172000900022FE
:1047A000206A042101F00FF9022161715020217863
:1047B00000F021FF01900220A28A8149009002AB03
:1047C0002EE0022833D1087907282DD1088950B16D
:1047D000C8680278437802EB0322E2828278C078CC
:1047E00002EB0022228348781A2838D1E08AB0B33D
:1047F00003216171ADF804000221208B8DF80810AF
:10480000ADF80600FF21F1208DF80A108DF809009F
:104810005020217800F0EFFEA28A6A49009001AB97
:10482000102000F002FF1AE0012818D1DEE703286B
:1048300015D10A79092A10D1088970B1C8680FF218
:1048400098430178407801EB002161830022206ABF
:10485000022101F0B8F8002020720020607108B039
:1048600010BD2DE9F047414D6C78A246BAF1080F12
:10487000804689461DDA00264C4F00E0761CF0B2D7
:10488000A0420AD2B81CF6B200EBC601062240468E
:1048900001F02CFB0028F1D10BE0B81C06224146A8
:1048A00000EBCA00FEF700FC781C641C00F83A908C
:1048B0006C70BDE8F08780B502460021012000F051
:1048C0003FF8401E8041C00F02BD38B50C4615466A
:1048D000012000F0F7FC30B1214605700246BDE82A
:1048E000384008202CE031BD10B51C46012000F0F6
:1048F000E9FC30B104700246BDE8104000211020F0
:104900001EE010BD1948406A0121FFF73BBA0000C4
:1049100001460022022013E053696D706C6520434C
:10492000656E7472616C0000000000000000000001
:104930000E4901EBC00101F10C0200215FF00400FF
:1049400070B504460D461646082000F0BBFC50B179
:104950000480857046600246BDE87040034B596A8A
:10496000986A00F044BF70BD581000201C0300205E
:10497000BD8401105184000025CD0000D50A01003E
:104980009528010029240100E92501006D26010078
:104990005188011031810110BD1D0100010000C0CE
:1049A00025AB001040E20100611F01000814002047
:1049B0003D29010039290100190F0100B17F0110C3
:1049C000B1100100E9EB0000424C452043656E74D4
:1049D00072616C00496E697469616C697A65640022
:1049E000446973636F766572202D3E004465766975
:1049F00063657320466F756E6420256400000000B7
:104A00003C2D20546F2053656C65637400000000DA
:104A1000436F6E6E6563746564000000436F6E6E75
:104A2000656374204661696C65640000526561735A
:104A30006F6E3A2025640000446973636F6E6E6583
:104A40006374656400000000506172616D205570F0
:104A5000646174653A20256400000000446576694D
:104A60006365202564000000436F6E6E65637420EB
:104A70002D3E00003C2D204E657874204F707469E7
:104A80006F6E00004741545420526561642F577285
:104A9000697465202D3E0000546F67676C65205275
:104AA0006561642052535349202D3E00436F6E6E62
:104AB000656374696F6E20557064617465202D3E66
:104AC00000000000436F6E6E656374696F6E20496D
:104AD0006E666F202D3E0000446973636F6E6E65D5
:104AE0006374202D3E000000446973636F76657225
:104AF000696E672E2E2E0000436F6E6E65637469BB
:104B00006E670000525353492043616E63656C6CBD
:104B10006564000041636365737341646472657327
:104B2000733A203078257800436F6E6E6563746940
:104B30006F6E20496E74657276616C3A2025640050
:104B4000486F7056616C3A25642C206E7874436807
:104B50003A25642C206D5343413A2564000000003F
:104B60004368616E4D61703A202225783A25783A83
:104B700025783A25783A2578220000004552524F90
:104B8000523A204661696C656420746F20616C6CD8
:104B90006F63617465206D656D6F727920666F72E9
:104BA0002072657475726E20636F6E6E65637469D2
:104BB0006F6E20696E666F726D6174696F6E000052
:104BC000446973636F6E6E656374696E670000009D
:104BD000415454205273702064726F707065642069
:104BE0002564000052656164204572726F72202551
:104BF0006400000052656164207273703A2025647D
:104C0000000000005772697465204572726F72204F
:104C10002564000057726974652073656E743A20CC
:104C20002564000046432056696F6C617465643AE0
:104C3000202564004D54552053697A653A20256437
:104C40000000000052535349202D64423A2025644D
:104C50000000000050616972696E672073746172B0
:104C60007465640050616972696E6720737563636F
:104C70006573730050616972696E67206661696C63
:104C80003A20256400000000426F6E64696E672060
:104C90007375636365737300426F6E64207361762E
:104CA000652073756363657373000000426F6E6403
:104CB0002073617665206661696C65643A202564BD
:104CC0000000000050617373636F64653A202564CF
:104CD00000000000F0FF000053696D706C65205308
:104CE000766320466F756E6400000000DFF800F008
:104CF0002DB40110DFF800F0CDAC0110DFF800F0AA
:104D00002DC00110DFF800F0FDB1011020B1082323
:104D10003C220021FFF72AB8704780B5FEF7BCFAA5
:104D2000ADF80000FDF7A6FBADF80200009802BD4B
:104D300001B5BDF80200FDF7A1FBBDF80000BDE81C
:104D40000240FEF7ADBA38B5DFF8B849207801283F
:104D50002DD0DFF8B429DFF8B40992089200801A48
:104D6000A061012121706261104602E0002340F839
:104D7000043BA3699D18A842F8D39B0802EB83016A
:104D8000002041F8040CE8201060A0698008800031
:104D9000EC38C2F8E80002F1E800A060002000F062
:104DA00007F8E0606069A060A069001F206131BD64
:104DB000F8B500250026071D17F003001CBF391D9C
:104DC0000F1AFFF7AAFFDFF83C2901465160112FA7
:104DD00034BF9468D4682068002803D580F0004070
:104DE00000261AE0330014D02B68D4F800C06344C6
:104DF000BB422B6011D32C461846ECB1C01B0428D3
:104E000011D3E05147F0004020601069C71B1761C3
:104E100011E0B842F1D2012625460444206800285A
:104E2000DAD1002408E0136920681B1A1361206896
:104E300040F000402060241D00F096FA2046F2BDAC
:104E400010B50446FFF769FFDFF8B818486054F85A
:104E5000042C22F0004244F8042C0B69D2180A6199
:104E6000221F8B689A4238BF8A60BDE810405FE716
:104E70002DE9F041FFF751FFDFF88818CA68486054
:104E800000260027002400250AE00C4601271646CC
:104E900005E03B00F9D03368CB1833600C190A44A5
:104EA0001168A846A54238BFA046002905D0F0D514
:104EB00081F0004100274546F1E7FFF739FF404602
:104EC000BDE8F08110B50446DFF83808816921603B
:104ED00000696060FFF7CCFF09282CBF083800206C
:104EE000A06010BD80B5FFF72EFF4BF6BE2002BDBF
:104EF00008465DE70846A3E702B56846FFF7E2FF0C
:104F000001BD0120704738B50446FFF706FF0022B7
:104F10000C23DFF8FC175343CD18A96C21B18C4248
:104F200006D0521C032AF3D3FFF702FF002032BD44
:104F3000FFF7FEFE05F1480032BD70B50546FFF7EC
:104F4000ECFE044600210C22DFF8C4074A43861811
:104F5000B06C30B185420DD0491C0329F3D32046F3
:104F600015E13065B5640021FFF7C0FEF06408B9B3
:104F700000F0F4FF2046FFF7DBFE06F1480070BDAD
:104F800038B50446FFF7C9FE0025DFF884270C2159
:104F90006943515A21B18C4206D06D1C062DF6D3BF
:104FA000FFF7C6FEFF2032BD21E310B5044620887E
:104FB000FFF7E6FFFF2802D14FF0FF3010BD0C21B4
:104FC000DFF84C2748431044816811B96FF00100A5
:104FD00010BD2046BDE81040084702460FF254704D
:104FE000104710B500200C21DFF82427002401FB16
:104FF00000F31344401C03289C641C65F7D3002075
:10500000002301FB00F4401C13530628F9D3BDE82C
:10501000104098E62DE9F04790B081468846FEF7AB
:105020003BF905460027DFF8EC6647451FD2684686
:10503000FFF76CFE09EB0710416806918168089143
:105040006946026804920022C06805903046FFF766
:1050500051FE040011D0FFF760FE82462046FFF7A4
:105060006CFF50B15046FFF763FE7F1CDDE728461A
:10507000FEF716F910B0BDE8F08700F06FFF00BF33
:1050800000B585B06846052141604FF47A718160B2
:10509000DFF88426DFF884160091C2600121FFF753
:1050A000B9FF05B000BD38B504460D46FFF735FE23
:1050B000002145F80C1C226812B9256006E00A465A
:1050C00052F80C1C0029FAD142F80C5CBDE83240C1
:1050D0002EE680B5FFF712FEFFF715FF10B96FF04F
:1050E000040002BD816809B9022002BD4068AFE03A
:1050F00006280ADA0C225043DFF81426105A00283A
:105100001CBF4FF6F872904202D14FF0FF3070474B
:1051100008800020704730B5DFF804562A680C4636
:105120004FF47A71A1FB0001002300F01BFF002364
:1051300099424FF0004201D8904202D36FF0020032
:1051400030BD2060002030BD0146886849680847AE
:1051500070B505460E46FFF7D1FDFFF7EEFE0400E1
:1051600009D0FFF7DAFD0146002200F0A4F820B1D3
:10517000521C062AF9D300F0F1FE4FF6F8701880A1
:105180005C60002098602A70606830600846FFF715
:10519000CFFD002070BD0C3852E670B504461546B0
:1051A0001E460846FFF7ECFEFF2802D14FF0FF3005
:1051B00070BD014633462A462046BDE8704084E073
:1051C00070B582B00546164600F0A1F8040010D173
:1051D00028886946C0B2FFF78BFF28B13068FFF717
:1051E000DAFF6FF0050076BDBDF800002880FFF7FC
:1051F00070FF204676BD38B50546FFF77FFDFFF707
:1052000082FE044600F026FF002818BF012800D0C7
:1052100014B96FF0040032BD65B900200090009B06
:1052200060684FF000420021FEF7A8FD401E80415B
:10523000C00F32BD15F1010F08BF4FF0FF30EDD0A8
:1052400069462846FFF767FF0028E8D032BD80B5E1
:105250004FF00041FEF796FD002002BD2DE9F84316
:1052600004460E4617469846FFF748FDFFF765FED1
:1052700005006FF002091CD0FFF74FFD0146002228
:1052800000F019F840B1844211D0521C062AF7D31D
:1052900000F064FEBDE8F2831C805D609E603A70A1
:1052A0006868C8F8000000F05FF80020F2E700F03E
:1052B0005BF84846EEE70C23DFF8540453430344FD
:1052C0001888704774E5BBE5FCE52DE9F8430D4609
:1052D0000446062DB8BF062C164699466FF0020804
:1052E00006DAFFF71AFD00F005FA19B9FFF720FDFD
:1052F00040460AE0FFF71CFD00F0F2F978684068CC
:105300004FF00041FEF73EFD0020BDE8F2832DE99D
:10531000F04106460F469046FFF7F0FCFFF7F3FD1D
:10532000050008BF6FF004001CD0FFF7F6FC014633
:10533000A868002440B10446A4F10C000268AA60E9
:1053400000220260FF22827200F00EF80CB90220E7
:1053500008E0A4F10C000179317040793870C8F888
:1053600000400020BDE8F0810846E1E482B0012160
:105370008DF800109DF800000028FBD100F0EEFD34
:1053800000BFFDF73FBF10B5DFF8940302686FF070
:105390000044A4FB020100234FF47A7200F0E2FD06
:1053A000002399424FF0004201D8904200D320469A
:1053B00010BD70B582B00C4615461E466946FFF713
:1053C000AAFE30B9009833462A46214600F002F87A
:1053D000002076BD2DE9F0431D4689B02C6880463B
:1053E0000E4617462CBB0C20FFF7E2FC04006FF0C2
:1053F000030918D00823242200216846FDF78AF803
:105400000020ADF810000590069400236A4641463E
:10541000DFF81003FFF776FC206030B9FFF7A6FF36
:105420002046FFF70DFD484617E06660A7602C6038
:105430000BE0DFF8F4623068804705462068FDF72E
:105440006DF8A76028467168884720684146FDF7D7
:1054500069F82068FDF76AF8002009B0BDE8F0831C
:1054600000281CBF0068FDF759B8704700B583B02D
:105470008DF80400684600F01DFE9DF805000EBD85
:1054800000B583B00190684600F04AFE0EBD00B53D
:1054900083B00190684600F04DFE0EBD2DE9F0434B
:1054A00085B00446884616461F46FFF727FCFFF7DF
:1054B0002AFD05460020029000F0CCFD002818BF10
:1054C000012800D015B96FF004006FE044B9002046
:1054D0000190FDF797FE814601980124814425E063
:1054E00014F1010F08BF4FF0FF30F1D001A92046A1
:1054F000FFF711FE0400ECD058E0039902A8FFF773
:10550000D2FD68684FF00051FEF73CFC0199012480
:1055100011F1010F0AD0080008D0FDF773FEB9EBB6
:1055200000002ED0019981422BD30190019B686825
:105530004FF000520021FEF721FC10B303AA694688
:105540000DF10100FFF7E3FE0400DFD19DF801003B
:105550000DF10201FFF7CCFD0028CED1039A9DF892
:105560000010BDF80200C0470028C6D016B1BDF833
:105570000200308017B19DF8000038700C99039834
:105580000860FFF7A6FD029EFFF7C7FB014656B174
:10559000324600E0024652F80C0C0028FAD1A86806
:1055A00042F80C0CAE60FFF7DFFE204605B0BDE808
:1055B000F08338B5FFF7A2FB044600F04BFD00284E
:1055C00018BF012811D0FFF7A8FB0025504A0C2373
:1055D0006B43D15A39B1D1184B681968A14206D032
:1055E0006D1C062DF3D3FFF7A3FBFF2032BDFFF7A1
:1055F0009FFBE8B232BD00B583B0ADF800008DF876
:105600000610002049490A68ADF802006846904734
:1056100010B99DF807000EBDFF200EBD107842287E
:1056200001D101207047002070470CB470B50446CA
:105630000E4688B000F00EFD0CAD002814BF012806
:10564000FFF794FE1420ADF810000021FF20029116
:105650008DF8120006960595FFF7ABFF05AB032208
:105660002146FFF79AFD002001A901900091002337
:1056700000222F4941F28830FFF710FF012805D0A2
:1056800020B9019820B1FFF786FD01E0FFF76EFE1B
:105690000598006808B070BC5DF80CFB2DE9F84374
:1056A0000D460446062DB8BF062C164699466FF0E7
:1056B000020806DAFFF731FB00F01CF819B9FFF712
:1056C00037FB40460AE0FFF733FB00F009F8786843
:1056D00040684FF00051FEF755FB0020BDE8F28313
:1056E000A9F1080004704570867049467868083052
:1056F000FFF7D9BC0C21064A01FB05F7D7197968D9
:1057000070470000341000205C190020FF3F00208B
:10571000C80F0020DB4F00000C030020D11F010048
:105720000829010049510000E4020020EC02002099
:105730001D560000AB4F00001B4D0000314D000016
:10574000DFF800F0A1B60110DFF800F035BD011060
:10575000DFF800F019BD01102DE9F04389B0804653
:10576000894617461D46109C119E082324220021BD
:105770006846FCF7CFFE434906964FF47A700A68F4
:10578000B0FBF2F0454305954743ADF810406B463A
:105790003A4649464046FCF7D1FE404609B0BDE8CE
:1057A000F083FCF7C3BE38B504460D46FDF745FD52
:1057B00010B12046FCF7B2FE00F007F82046BDE825
:1057C0003240FCF7B3BEFCF7A9BE2E4A10684FF476
:1057D0007A71B1FBF0F0454329462046FCF7A2BEA2
:1057E00010B504460021FFF7ABFF204610BD70B591
:1057F00005460C4616460C20FFF764FD01000BD051
:105800008E602846FFF7A0FF24B14FF0804120466C
:10581000FEF7B8FA012070BD3046FFF754FD0020B6
:1058200070BD10B50446FFF793FFA04204D0846812
:10583000FFF749FD204610BD002010BD70B586B0B1
:10584000044668460FF244011422FDF73DFC0E4861
:1058500030250570831C78254570A21D062112F89D
:10586000015D2D09491E1DF8056003F8016B1678CE
:1058700006F00F061DF8065003F8015BEFD106B0E5
:1058800070BD000008290100481400203031323377
:10589000343536373839414243444546000000002C
:1058A00030B50446294D83B005F1300105F13C00C7
:1058B00000F0ADFDA8600FF2510100F059FEA8689C
:1058C000234A4FF4E02100F057FEA868214A4FF424
:1058D000E02100F051FEA8681F4A4FF0C05100F0CF
:1058E0004BFEA8681D4A4FF0C05100F045FE002055
:1058F000019000900023C8220FF2410105F10C0035
:10590000FFF72AFF6C6037BD10B5104C00202070E7
:105910000D2000F0F2FD18B9217841F00801217046
:105920000E2000F0EAFD18B9207840F01000207039
:1059300004F10C00BDE81040FFF733BF0348416895
:1059400000291CBF0078084770470000640200204F
:105950000D0005800E0005800D0000100E000010E7
:105960002DE9F04306461D4807785FEA010908BFA4
:105970000FF2700981B000259FB1DFF864804446C2
:10598000AE4204D02068C1698847304205D0226801
:10599000536849462046984738B96D1C0C34BD42BF
:1059A000EED3002001B0BDE8F08305EB450008EB25
:1059B000800001B0BDE8F08300B9704710B50368FE
:1059C000DC68A04710BD00B9704730B581B004ACA9
:1059D000009404682569A84701B030BDAC070100F8
:1059E000A0070100030001181FB5DFF8304300B124
:1059F000A060217800F077F804F12001029104F111
:105A00000C0204F1100101910392024661780091A9
:105A10000823DFF80C1300F00CF979E070B50346A9
:105A2000084600244FF4806611469B1B0246DFF8AF
:105A3000EC5208D05B1E0BD05B1E10D09B1E13D007
:105A40005B1E18D01FE0102813D105F1100003E0F1
:105A500010280ED105F12000FDF726FB14E00428E4
:105A600007D10868E8600FE0012802D10878687063
:105A70000AE0182408E039B1012805D10878022885
:105A800002DCA87000E00224204670BD10B5A34AD5
:105A90001178044682B000F026F8132200922346C3
:105AA0000246A04900F0C5F8C0B216BDFEB51446C6
:105AB0009A4A0F46064611781D4600F014F88DF8F4
:105AC00000008DF801608DF802708DF80340062209
:105AD000294601A8FDF7E8FA6A4693491020FFF726
:105AE000A4FDC0B2FEBD5020FFF785BD10B584B047
:105AF000069CADF80000ADF80210ADF80420ADF83A
:105B00000630ADF808406A4688491020FFF78DFD41
:105B1000C0B204B010BD70B51646804A0D460446AA
:105B2000117882B0FFF7DFFF8DF800008DF801409B
:105B30008DF802508DF803606A467D491020FFF70A
:105B400074FDC0B276BD00B58FB008233C220021A1
:105B50006846FEF70BF9774800F1500107914FF4C2
:105B6000DC7203210892069100236A460FF20901B4
:105B7000FEF700F90FB000BD70B5684D84B0291D67
:105B80002846FFF7E5FA05F11000009010236A4C53
:105B9000022200F04DF805F12000009010230322AE
:105BA00000F046F805F10C0000900423042200F0F8
:105BB0003FF8624E09E00178D02935D100F03CF879
:105BC000044631E00CB1FFF7E6FA68684FF0FF33A6
:105BD0004FF000420021FEF7D1F80028F5D0002058
:105BE000029002AA01A90DF10600FFF7E9FA0028C8
:105BF000EBD1BDF806000124102802BF9DF8041067
:105C00002878814210D1029801884FF6FF729142A4
:105C1000D1D14088410407D505F10C01009104233E
:105C20000422314600F005F802980028CDD0C9E7DB
:105C300021461020FFF7F9BC70B5044684B0A07867
:105C4000364D40B1052821D006282DD00C2831D062
:105C5000112836D055E06078002852D105F11001A6
:105C600000911023354E02223146FFF7E2FF05F185
:105C700020010091102303223146FFF7DAFF0622AC
:105C8000E11C05F13000FDF70FFA3AE060780028DA
:105C900037D108210191231D6089294900901020E6
:105CA000E278FFF7C2FC2CE0A28826491020FFF71B
:105CB000BCFC26E0237BA28823491020FFF7B5FC1B
:105CC0001FE0A8782149012810D1A088ADF8000074
:105CD000E288ADF8022001222089ADF80400608935
:105CE000ADF80600A089ADF8080004E048B9A08826
:105CF000ADF8000000228DF80A2010206A46FFF758
:105D000094FCA86800281CBF0168002902D0204626
:105D1000884700E0012004B070BD0000AC02002004
:105D2000E5170100E514011095FC00007D15011038
:105D3000C5080100B80D0020D582000015830000C1
:105D400089FA000055E00000CDDF000005160110C3
:105D5000DFF800F0B1BE011010B50FF251003A4C5F
:105D600000F05CFC394800F0A3FA01220121204632
:105D700000F066FC364A136820465C680121A047A3
:105D8000344C3548E26801681160FFF7FCFAE168BD
:105D90004860FFF726F9FFF773F9FFF7D4FEFEF727
:105DA00001F8FFF7D5FF002010BD000070B52B4EA5
:105DB000326882B004460D462AB900214FF00040F7
:105DC000FFF7CEFD3060002230680FF29C03002107
:105DD000FFF7F9FD30680FF2A003022C10D0042C5D
:105DE00002D0052C18D01DE000F03AF80FF2940311
:105DF000306802B0BDE8704000220221FFF7E3BD29
:105E0000012D04D100F02CF80FF28C03F0E700F024
:105E100027F80FF29C03EBE700F022F830680FF24E
:105E2000A40304E000F01CF830680FF2A80300227D
:105E30000221FFF7C8FD01218DF800109DF8000038
:105E40000028FBD173BD0000004003401022010078
:105E5000D80100100C030020082901003C03002099
:105E600000220021FFF7AFBD3E3E3E535441434B5D
:105E700020415353455254002A2A2A4552524F5228
:105E80002A2A2A003E3E204F5554204F46204D4599
:105E90004D4F5259210000003E3E20494E5445527C
:105EA0004E414C204657204552524F52210000008F
:105EB0003E3E20494E5445524E414C204552524F91
:105EC000522100003E3E204943414C4C2041424F6C
:105ED000525421003E3E2044454641554C542053E7
:105EE00050494E4C4F434B2100000000030000205E
:105EF00013F0030F09D0521E22BF13F8010B11F843
:105F000001CBB0EB0C00F3D0704711F0030F14D1AC
:105F1000121F22BF53F8040B51F804CB6045F7D091
:105F2000121D0AD200BA9CFA8CFCB0EB0C0038BFF0
:105F30006FF0000088BF01207047521E22BF13F887
:105F4000010B11F801CBB0EB0C00F6D0521C08BFCE
:105F500010467047DFF800F01D9A01100120FFF78E
:105F6000F9BF00281B4213D1094236D12AB1844619
:105F7000B0FBF2F002FB10C2704700F06DBBFCD327
:105F80000022002370470B00020000210020704710
:105F9000904271EB030CF6D370B5B1FA81F4B3FA09
:105FA00083F52C1BA340C4F1200532FA05F63343D8
:105FB000A2405FF00046E64002E05B085FEA320282
:105FC000841A71EB030524BF204629467641F4D399
:105FD00002000B003000002170BD012ACFD970B53E
:105FE000140C20D0B1FA81F4B2FA82F5C4F1200485
:105FF0006419B4F12006D6D3B2405FF00044F440F7
:10600000002502E052085FEA3303C61A71EB020E64
:1060100024BF3046714664416D41F3D302000B004A
:106020002000290070BD0C46B1FBF2F102FB1145C6
:106030002D0445EA1045B5FBF2F402FB145580B27D
:1060400040EA0545B5FBF2F002FB105240EA04407D
:1060500070BD01280148007D704700BFA4010020E9
:1060600010B5044601E0FCF7E3FBB4FA84F0202805
:1060700006D000F017F8F6DB401FFCF7EEFBF4E764
:1060800010BD10B5044601E0FCF76DFBB4FA84F0D6
:10609000202806D000F006F8F6DB401FFCF779FB5D
:1060A000F4E710BDC0F11F00C0B2012181404C4097
:1060B0000528704738B5044601206071244D2079C9
:1060C000A8B1FEF72AFE04462878FF2805D120460D
:1060D000FEF72EFE6FF0060032BD401C2870C0B2E5
:1060E000012804BF6868FFF7BBFF204614E0FEF7F5
:1060F00014FE297821B9FEF71BFE6FF0070032BDB0
:10610000491E2970C9B239B9FEF712FE6868FFF757
:10611000B8FF0020607101E0FEF70AFE002032BDEA
:1061200080B5406810F07F4F00D00DE0FFF798FF7A
:10613000002002BD80B5406810F07F4F00D003E022
:10614000FFF79FFF002002BD6FF0020002BD0000BC
:10615000F402002090FAA0F0B0FA80F0704770B519
:10616000FCF780FE05460026DFF864440DE025FAC2
:1061700006F0C00708D504EB8600406820B102682D
:1061800011001CBF31469047761C2068F6B286424B
:10619000EDD370BDDFF83C04DFF83C240168DFF884
:1061A0003C041160FCF760BE2DE9F0475FEA01088E
:1061B000DFF82C1406465FFA88F401EB840144BF33
:1061C00088F0204080F4C0480A68DFF8180406EA26
:1061D000080788EA0203B243074033403A4306F413
:1061E000E0201B0EB0F5E02F03F0010302D1D30134
:1061F00005D411E016F4E02F08BF002B0CD002F4F8
:10620000E020B0F5A02F04D0B0F5C02F04D10520B8
:1062100000E0062060F31242DFF8CC730A6004F15C
:1062200080403D68E54000F5083915F001054FEA6A
:10623000985000F0010A03D1700248BF89F800A00D
:1062400030020ED5FCF754F90122A24039685FEA0A
:1062500008234CBF13460023914319433960FCF7D0
:1062600057F91DB1700248BF89F800A0BDE8F0875A
:10627000DFF86C2302EB80020029106848BF002180
:10628000800901F03F0141EA80111160704710B5AB
:10629000DFF85803046800F0EBF9012804F07F04EC
:1062A00004D100F0DBF9022808BF641C204610BDB1
:1062B0002DE9F04F87B08246FCF7C2F900F0D8F91B
:1062C0000025012804D100F0C9F9022808BF0125E2
:1062D000DFF81C03C1680127C1F38151012904D1F2
:1062E0000068000E07FA00F00543DFF80813DFF836
:1062F000E0620A78DFF800B3FFF7C9FF5FEA000841
:10630000C6F8008004D0FF2241465846FDF7AEFC97
:106310004FF0000900245AF8240000F0FF01FE2984
:1063200036D000F0FF02FF2A0BD041453ED225FABD
:1063300000F2D2073AD407FA00F00BF8014040EA25
:106340000909641CE7E729FA04F0C00759BF04F003
:10635000FF0141F4C0411BF804005AF820104046E8
:10636000FFF722FF4FF0FF31E0B2FFF781FF311D51
:10637000002041F82400641C3068844218D225FAB9
:1063800004F0C007DFD5321D042142F82410F2E7E3
:106390000920FCF762FAC6F880A0012106F1D400BA
:1063A000FCF70DFE0024DFF85482E5E702202BE025
:1063B0006846FCF7A5F8DFF84842DFF84822207865
:1063C00001906B46102106F18400FCF76EF803A8DB
:1063D000FCF71DFD606805900021069103AADFF817
:1063E000281206F1A000FCF71AFDDFF82002DFF802
:1063F0002022016821F47C5141F400510160002009
:10640000DFF810120F60176007B0BDE8F08F2DE9BC
:10641000F042DFF8BC5107460C4605F1D4094FF0B5
:10642000FF314846FCF7F8FD00214CBB00203860E6
:106430007860B86000214CB31AE0FF2806D02A68C3
:10644000904222D22A1D52F82000F0B9491C17E0D0
:106450002A1D012342F8207083407A681A437A602B
:10646000384654F82120DFF8941100F085F83146C1
:1064700014F82100FE2809D04E1CFF28E8D1F6E7C9
:1064800014F82100FE28D8D1D0E700274846FCF7B1
:10649000CCFD3846BDE8F08210B50C46F0B141683D
:1064A00021FA04F2D20719D50122A240914341609A
:1064B000002047490A1D42F824004F48025D4F481A
:1064C000FF2A0EBF44F02041D1F8801051F822106D
:1064D000FFF76AFE4FF0FF31204671E0022010BD49
:1064E00010B5044605E0FFF735FEC1B22046FFF7C0
:1064F000D3FF60680028F6D110BD014646482FE062
:1065000038B50C46324915460A68944204D201EB6C
:1065100084014A68824201D0022032BDFBF7E8FFC5
:1065200031490A680123A3409A4305FA04F414434D
:106530000C6049E010B5264B1C68A14204D203EB65
:1065400081035C68844201D0022010BD01F18041CA
:10655000100001F5083118BF01200870002010BD9F
:106560000068C84000F001007047016000207047DB
:1065700000B1FAE70220704738B5154C25680B4684
:10658000114601F0FF02AA4204D204EB82025468D1
:10659000844201D0022032BD1846FFF705FE0020DC
:1065A00032BD0B4610B51146094A1468A34204D205
:1065B00002EB83025468844201D0022010BD1846C9
:1065C000FFF756FE002010BDFBF7A2FF002032BDF2
:1065D00080160020E0200240E0200260201700200A
:1065E00000100840007F077FD02002404413005075
:1065F000A83F00504C19002070170020007FC7678B
:10660000B0070100956100005F61000000300940A3
:10661000080009400C400940C020024001490860C0
:10662000704700006002002081B001218DF8001049
:106630009DF800000028FBD101B070477047022888
:1066400050F8043F23F00C0309B143F008030AB1EA
:1066500043F0040303607047704703280D48006847
:10666000000C00F00700062828BF4FF0FF307047ED
:1066700009490A68C2F30F324BF69A139A424FF057
:10668000FF3006D10868000F0B2801D103207047A6
:1066900000207047941200501813005080B5FFF787
:1066A000E7FF032800D101BDFEE702294F190020B2
:1066B00052190020511900205319002050190020B0
:1066C0004C1D01000C19002064080020625F0000CE
:1066D00052600000328B00005A660000318E0000CC
:1066E000918900009DE30000478300006DCF00000A
:1066F00033830000A1890000C1840000158B0000D5
:10670000B9EA0000E1840000211B010039F4000017
:106710008F3100004F310000F5820000599D0000CC
:1067200035070100111D01000D840000CD26010078
:106730005B830000D1DD0000FD9B00001D11010006
:10674000859B0000AB8F0000ED8E0000F1A70010CC
:1067500091BB0010A5BC00108DBA001075A80010E8
:10676000A1280100F1D20000B9A90010F1A9001080
:10677000AD280100B1BA001005AB00101DA9001032
:106780004594011079BD001051BD001021BE0010CC
:1067900039A800107DA90010B9280100FDA700103C
:1067A0002DBC001041BA001021AE0010A9AF00109E
:1067B0008DAF001089AB001079B00010BDB0001093
