:020000040000FA
:10000000004400202D66010001C9011001C9011042
:1000100001C9011001C9011001C9011001C9011074
:1000200001C9011001C9011001C9011001C9011064
:1000300001C9011001C901103FC90110DFF800F02A
:1000400085BF0110DFF800F061C00110DFF800F09B
:1000500079BF0110DFF800F0A9C00110DFF800F04F
:1000600089AF011020B1082330220021FFF7EEBF35
:100070007047F0B51C008DB005460E46174603D1FB
:10008000002302F0FBFB0CE06846FFF7EBFF206863
:1000900005906B46606808903A4600F005F802F05B
:1000A000EDFB28460DB0F0BD207AADF818003146C2
:1000B00028467047FFF7CEBFFFF7C0BFFFF7CEBFA0
:1000C00002F0FCBB02F004BC002101604FF0FF31E4
:1000D0004160012101727047FFF7B4BFDFF800F003
:1000E000C1BF0110DFF800F0B9BA0110DFF800F06D
:1000F000E5C00110DFF800F01FBE0110DFF800F0CE
:10010000DDC00110DFF800F069B20110DFF800F087
:1001100091BE011020B1082324220021FFF7DEBF89
:100120007047F0B51C0089B005460E46174603D14E
:100130000023FFF7E7FF0AE06846FFF7EBFFA06840
:1001400006906B463A4631462846FFF7DBFF0E48DD
:100150000E4A01681160284609B0F0BDFFF7CEBF16
:10016000FFF7D4BF02F0BCBB80B502F0D0FB00B1FA
:100170000120C0B202BD002181607047FFF7B6BF09
:10018000FFF7B8BFFFF7AEBF80670100BC180020C3
:1001900070B5DFF8584782B0012000900923256828
:1001A000DFF84C076E684FF400720021B04773BD52
:1001B00070B5DFF83847DFF838072568EE680023A8
:1001C00001223421B04700B10120C0B270BDDFF878
:1001D00024078068704702460020022904D1012AC2
:1001E00006D140F2EE207047012A08BF4FF47A7022
:1001F0007047DFF8001791F8E60020B1D1F8100140
:10020000002818BF004770472DE9FF41DFF8E4865A
:1002100008F1E105A879002873D1DFF8DC16DFF8D2
:10022000DC660A689209012002F00102A871EA71F5
:10023000307BDFF8CC7668717068C8F8100101A8CF
:10024000FFF799FF002102918DF80410039101AB93
:1002500000220FF2295108F10C00FFF762FF01ABF9
:1002600000220FF2D55108F13000FFF75AFF01AB21
:1002700000220FF20D5108F15400FFF752FFB16850
:1002800001208847DFF87C0601787868C0F3815444
:10029000707B20B1032C02D10121297003E0032CD3
:1002A00018BF022C16D1022000F0A6F8DFF858166D
:1002B0000A68032C0CBF4FF47A7042F21070B0FB46
:1002C000F2F108F15400FFF759FF08F15400FFF76D
:1002D00057FF10E0012C0ED1DFF8104603200090EC
:1002E0001C232568DFF808066E684FF04052002195
:1002F000B047FFF74DFF386840075CBF002000F0B3
:100300007BF8002004B0BDE8F08138B5002408B1C6
:10031000150002D16FF0020407E08160C260036142
:100320000146DFF8D00502F0FEFA204632BD10B5D6
:100330000446FFF7C1FEDFF8BC150A1992F8E93050
:100340005B1E82F8E930DBB233B98A68012303FA15
:1003500004F422EA04048C605FE0F8B50546FFF778
:10036000ABFE0446DFF88C15481990F8EF20521EBA
:1003700080F8EF20D2B27ABB0FF2D850DFF88C753C
:1003800000EB850210F825505688280615D53968E7
:100390000A6A304690473A68916A30468847396819
:1003A0000A6B30469047DFF8681501200860DFF8D7
:1003B000641508688007FCD507E0680611D501EBD5
:1003C00086010020D1F80421904705F03F053F2D1C
:1003D0001CBF2846FFF7C1FF2046FFF77DFE002027
:1003E000F2BD39688A69304690473A68516B3046A9
:1003F00088470228F9D1E8E710B50446FFF75CFE0C
:10040000DFF8F0148A680123A3401A438A6021446C
:1004100091F8E920521C81F8E920FFF75DFE0020E9
:1004200010BD2DE9F0410746FFF746FE0546DFF80F
:10043000C464F01990F8EF104A1C80F8EF2049BB13
:100440000FF2105818F8270000F03F003F2818BF9F
:10045000FFF7E7FF08EB8700448818F82700DFF86C
:10046000AC7401060ED53968CA69204690473A68CF
:10047000516A204688473968CA6A2046904700F08A
:100480001AF807E040060BD506EB84010120D1F8ED
:10049000042190472846FFF71FFE0020BDE8F081A9
:1004A00039684A69204690473A68516B2046884728
:1004B0000128F9D1EEE7DFF8581401200860DFF8D1
:1004C000541408688007FCD570472DE9F84F07469B
:1004D000DFF82404DFF844540168002600244A06AB
:1004E000A0460DD5287B58B9DFF83404DFF8341462
:1004F00002680A4042F081720260202000F075F923
:10050000012F18BF6FF0010957D12868012852D177
:100510000221296002F09BFA012000F066F95FEAEF
:1005200000094BD101F0EAFFDFF8FC13DFF8DC73C0
:1005300000900C600120B96A0A689047012803D135
:10054000002000F0A8F90124DFF8E013DFF8C8A3C9
:10055000DFF8DC230E60DAF80010907808B14FF075
:100560000108517809B148F00208107808B148F044
:100570000408A87F20B139680A6B4FF48060904767
:10058000687F20B139680A6B4FF481609047DFF8CB
:1005900080130120086048F0200039688A6990477C
:1005A000DFF8901301200860DFF84813087AC107CC
:1005B00009D501261FE06FF004097DE001202860C5
:1005C00002F050FA78E0396ADFF86C038A689047E5
:1005D0008346BBF1040FF6D0BBF1010F05D13A6A97
:1005E000DFF85403536803219847DFF8500301688C
:1005F000890889000160002002F058FADAF800004A
:100600003868816B884776B9BBF1010F05D13A6A2A
:10061000DFF82403536801219847DFF820030168BD
:1006200041F0030101600120DFF80013086040463B
:1006300039684A699047A87F20B13968CA6A4FF47F
:1006400080609047687F20B13968CA6A4FF4816042
:100650009047AF49B74A012008600021116003208C
:1006600028603A68516B404688470128F9D1DAF88A
:100670000000042000F0B9F80646AB4901200860EC
:10068000DAF800109C4908688006FCD514B10120F6
:1006900000F001F902F05AFB082000F0A6F806432A
:1006A00001202860009801F031FF02F0D4FA02F036
:1006B000D9F90EB14FF0FF394846BDE8F28F38B591
:1006C0000446FFF7F9FC054621468A4802F03FF947
:1006D0002846BDE83240FFF7FFBC3EB500240128A4
:1006E00004D020D303281CD017D31CE06846FFF7A2
:1006F00042FD804D924901948DF8004002946B4672
:10070000012205F17800FFF70CFD00238D4A2C2112
:1007100005F19C00FFF7ADFC05E002F033FB044659
:1007200001E002F0F3FB20463EBD000038B5FFF7C4
:10073000C3FC7049054691F8E000012410B1FFF7B1
:1007400037FD04462846FFF7C7FC204632BD70B58A
:10075000FFF7B2FC044602F068FD6649002081F80C
:10076000E000664885680220A8470646102000F091
:100770003CF8012E04BF0320A84787E07047000023
:1007800038B55A4CE16B0A6804209047022818BF1C
:1007900003280FD1032000901C2324685448656867
:1007A0004FF040520021A847FFF7F2FCBDE832406D
:1007B0000220BCE56448544900680A684D4CC0F307
:1007C000815003280CBF4FF47A7041F28830B0FB9F
:1007D000F2F104F15400FFF7D1FC04F15400BDE83C
:1007E0003240FFF7CDBC0020704738B50546414C7C
:1007F000204602F08EF888B9204602F090F80446B0
:10080000A068284205D02269E3680021284698475D
:1008100030B9204602F085F80400F1D1002032BD45
:100820004FF0FF3032BD494901280CBF40F2FF7044
:10083000002008600020704770B5FFF73DFC2D4E8A
:100840002E4D044696F8E00028B102F0EEFC70B19F
:10085000002086F8E0000220AD68A8470646102078
:10086000FFF7C3FF012E11D10320A8470EE0264950
:100870000A683220B0FBF2F101B9012106F1300023
:10088000FFF77CFC06F13000FFF77AFC2046BDE85C
:100890007040FFF721BC38B5012823D12C490A68E4
:1008A0001368984701281DD002F0B2FC114D0120B9
:1008B00085F8E000287A810616D4134802683221B0
:1008C000B1FBF2F404B9012405F13000FFF75AFC42
:1008D000214605F13000FFF751FC05F13000FFF72C
:1008E0004FFC01E002F0C7FC002032BDA401001063
:1008F00000A00C409405002014100940F03D0100B8
:10090000B03F0050DD1D0020BC180020B8010010D1
:1009100028200860282008402C200940700600206C
:1009200004000940FFFFFCFC0C4009400002224388
:100930009206002080010443004003402422084026
:1009400055300000E92D0000B43F00500000046065
:10095000E00100108F0000008F0001008F000200F6
:100960008F000300900000018F0001019000000241
:10097000900000038F0001048F0000058F00080421
:100980008F0000048A000006510000007F00010073
:100990003F0004003F0002003F0001007F00020012
:1009A000DFF800F005FE0010DFF800F0D5140110AC
:1009B000DFF800F0BDFD0010DFF800F0116101105C
:1009C000DFF800F0891401102DE9F0410C4684B0E5
:1009D0000746207A0026C10690461D460BD54046A4
:1009E000FFF7E2FF030000F0F0800A2221463846BC
:1009F0009847060050D1207802281AD16068017803
:100A0000427801EB022189B24FF42050091A0129E2
:100A100010D9891E41D0491E16D0FD3905D0491E76
:100A200000F08B80491E74D0491E7BD0491E00F017
:100A3000A180B8E00B98002831D1E0680A9A0178CB
:100A400011800278416891E00B98002827D10A981C
:100A500001210180E0680178297000216089401C33
:100A600080B2FFF7A5FF0A99098868B102780A9B4E
:100A7000921C51181980418969704189090AA9702D
:100A800002784168E81C72E00A98091D018004227E
:100A90000021681C08F07DFA98E00B9800286BD1C3
:100AA000E06807880A98042101802F70380A68706E
:100AB0000DF102013846FFF77BFF04001FD0E76805
:100AC000BDF802204FF6FF786B464146FFF768FFFE
:100AD00040B9237862683F480221FFF76DFF08B9EB
:100AE000ADF80080387802280BD179680222281DE1
:100AF00008F059FA0A980188891C018001E0ADF8D4
:100B00000070BDF80000A870BDF80000000AE87091
:100B10005CE00B9800282FD1E068016838460FF0A0
:100B20003BF803E00B9838BBE06800880A9A022182
:100B300011802870000A687048E0E06808F0EFFF54
:100B40000B9B80B29842B8BF07263FDB834208BFA9
:100B5000002006D00C99C9188142B2BF0C98C01A67
:100B600080B20A9908800246E068C118284608F059
:100B70001AFA2BE00B9808B10B2627E00A9AE068D6
:100B80000721118002782A70417869704188A97024
:100B90004188090AE97001792971C1886971C088A1
:100BA000000AA87112E04046FFF70AFF06000CD0C9
:100BB0000D980C990A9B029001912A460B9800907F
:100BC00021463846B047064600E00E26304604B0BF
:100BD000BDE8F0812E63000030000000000000003E
:100BE00000000000000C00000400000000000000F5
:100BF00001000000FFFFFFFFFF00000001000000F8
:100C0000080000000000000010B504460B466168B3
:100C100009B9012010BD206806A20DF0CBFDA16826
:100C20004118A16061680029C4BF081A60600020F3
:100C300010BD00BF2573000030B583B04D6818218A
:100C40000191144669880091AB88AA682988408878
:100C500011F0A0FB162802D10021A9603EBD0100C1
:100C60001CBF298821803EBD002202800A80074ADD
:100C700053789A0601D411207047054A13880380DF
:100C8000044803880B800020704700BFA81900208B
:100C9000444F0020464F002038B50C00054605D0D3
:100CA00007494A6B51690A79904201D3122032BD3B
:100CB0000DF0E0F80348057001202070002032BDDF
:100CC000285B0100714F0020DFF800F009FB0010E5
:100CD000DFF800F08108011030B5040083B01D4634
:100CE0000FD0ADF800108DF8022001946846FFF790
:100CF000EBFF010006D12DB160892946FFF7E8FF1F
:100D00003EBD02203EBD00000000000000000000CB
:100D100000000000000000000000000000000000D3
:100D200000000000000000000000000000000000C3
:100D300000000000000000000000000000000000B3
:100D400000000000000000000000000000000000A3
:10100000B41200001810000015AB0110FDB3011060
:101010006DC00110FDAE011099B501100000000077
:10102000000000002D000000B01200003C10000085
:10103000B1C00110A9BF011067C0011069B801104B
:10104000000000000000000030000000B0120000AE
:1010500060100000BDC00110CDB30110D9BD01105A
:101060006DB301100000000000000000310000001E
:1010700000000000D0030020040000000000000079
:101080000000000020000000D80B0000300000002D
:1010900028100000F0030020040000000000000001
:1010A000000000000C000000546501001800000062
:1010B0004C100000F80300200400000000000000B5
:1010C00000000000240000006C6501001800000012
:1010D00000000000380400200400000000000000B0
:1010E00000000000100000001C5F01002C00000048
:1010F0000010000054040020040000000000000064
:1011000000000000200000007461010024000000C5
:10111000FFFFFFFF5C04002004000000000000004F
:101120000000000028000000986101002400000079
:10113000FFFFFFFF84040020040000000000000007
:101140000000000014000000846501001800000089
:10115000FFFFFFFF8C0400200400000000000000DF
:101160000000000058000000385D0100340000005D
:10117000FFFFFFFF940400200400000000000000B7
:1011800000000000100000009C6501001800000035
:10119000FFFFFFFF9C04002004000000000000008F
:1011A000000000001C000000BC61010024000000E1
:1011B000FFFFFFFFA4040020040000000000000067
:1011C00000000000380000008460010028000000DA
:1011D000FFFFFFFF0C0500200400000000000000DE
:1011E0000000000054000000BC5901003C00000059
:1011F00001000000846701000100000000000E00F3
:1012000000000F003200000001000000D8030020A1
:10121000000200000000000001C9011000000000F1
:101220000000000008000000000022000004002070
:10123000000000000000000008000000640400201E
:101240000000000000000000080000000000000096
:10125000000000000000000000000000010000008D
:10126000AC0400200600000001000000140500206E
:10127000000000000000000000020000000000006C
:10128000290001002500300031002D00010001007F
:101290000400000080660100000000000000000063
:1012A000000001000000030013C401105DE4000011
:1012B000B8120000B812000000000000480400202E
:1012C000FDE200002000000044660100AC60010067
:1012D00029C10110A39C00000B9D0000A1C70110B3
:1012E000A3C70110000000008F1200005854010035
:1012F0007054010040540100020009000100000088
:101300000100000051600100256001002D64010012
:10131000155E0100BB5E01008954010035490100E2
:10132000CD65010075E2000095E4000099E400003D
:1013300038B50546FEF7C0FE2C680CB1216829605F
:10134000FEF7CAFE204632BD70B505460E462C6833
:10135000002030601CB9FEF7AFFE2E600DE0FEF7F6
:10136000ABFE00E0246821680029FBD1B44203D120
:10137000FEF7B2FE002070BD2660FEF7ADFE012034
:1013800070BD10B501460022DFF8500B00EB421093
:10139000C37F1C0603D5B0F91C308B4203D0521C0E
:1013A000082AF1DB002010BD38B504281DD1DFF874
:1013B000CC4A04F1EC052846FEF7D6FEA8B1284633
:1013C000FEF7D0FEDFF8B81A0A68504364280CD242
:1013D0002846FEF7D7FE0520FFF70EF80120E0773C
:1013E000042104F14C0001F08DF8002032BD70B5ED
:1013F0000446FEF761FEDFF88C1A0546887D00B3CF
:10140000401E8875C0B2E0B9DFF8706A082100F0AC
:10141000F4F8B4B1B06B7030FEF7B4FEB06BDFF827
:10142000601AC0680A68241AB4FBF2F1012906F1B7
:10143000EC0498BF01212046FEF7A0FE2046FEF7EF
:101440009FFE2846BDE87040FEF746BE10B5044634
:10145000207B00F00F0002280FD100F018FDA168DA
:10146000081ADFF8181A8A6BD168800801F57A71BA
:10147000814238BFB0F1405F00D3002010BD38B5C5
:10148000DFF85C1ADFF85C0A0C68DFF8F0590440FA
:10149000E0430860A00606D54868810603D54FF4EE
:1014A000005100F0E6FD14F4602F09D0286904F41F
:1014B000602404432C6105F19C00BDE834403AE00F
:1014C00031BD70B5FEF7F8FDDFF8B0590446286964
:1014D00010F4602F25D02E69F601360EF00748BFB4
:1014E000002606D4B00748BF012602D4700748BFC3
:1014F0000226701D40B200F051FF2969012206F159
:10150000110082409143296100F0BEFC05EB86008A
:10151000446844B1286800224FF00063711DA04761
:1015200001E000F0B1FC286920B105F19C00BDE8A4
:10153000704000E070BD002100F0E4BF70B500F025
:10154000E7FFDFF83869DFF8E05B8107B16A1DD497
:10155000D1E90423104007D0F1628A691043886101
:101560004FF4804100F049F8B06A002844D1746A11
:10157000002C41D0E068B16B884222D006F14C00CB
:10158000BDE870404FF4805100F0BCBF09B9B16AAA
:10159000EAE70022B262D1E904238C69104040F0EE
:1015A000020020438861686990436861E868984355
:1015B000E86006F13000FFF7C7FE022100F01DF8D9
:1015C000E5E7A068FFF742FFB06408B1B06CD1E076
:1015D000D4E904016A6902436A610020EA680A43A7
:1015E000EA60E861A0682860E8690028FCD006F19C
:1015F0002400FFF79DFEB46270BD06F14C0000F0C0
:1016000081BF0020F3E6F8B5074614463E6E1D463E
:1016100006B1B047A00708D4D7E9160120402940F9
:101620000022914208BF904207D0C7E91A4507F14E
:101630003800BDE8F24001F046B8F1BD704780B512
:1016400000F05EFFDFF834280146906BD26BBDE8F6
:10165000084010470421DFF8D40A00F053BF80B5DA
:1016600000F056FFDFF8C81A084204D0BDE8044075
:101670004FF00051EFE701BD70B504005AD0A168EA
:10168000202000291CBFC2B2002A59D00A8840F687
:1016900003039A421FBF40F604039A424968401E62
:1016A000EFD148E000224FF08043B4F91C10E0680D
:1016B0006568A847FEF700FDDFF8C0570646E88ECC
:1016C000401CC0F30B00E8860020296BC87705F1A9
:1016D0003000FFF72DFE3046FEF7FEFCB5F9360070
:1016E000E26802F19403B3F90010884202BFDFF808
:1016F0009407017D00291DD1987808B9106810B9A8
:101700000020987036E0A96B0B6813F1010F11D01F
:10171000DFF86C572968B0FBF1F1012998BF01216E
:1017200002F17000FEF72AFDE068BDE870407030FD
:10173000FEF726BD70BDE0681822203001F012F8D7
:10174000A2690020A06160680028B3D0E07F002378
:1017500000F00700012842F0020207D00228A1D0C1
:10176000042804BF00224FF080539EE700224FF070
:1017700000539AE7BDE8704039E638B50D46A80732
:10178000DFF8F84619D5206BFFF776FF206B25F0C0
:10179000020510B145F0020109E0680702D4606A51
:1017A000002854D004F1EC00FEF7ECFC042104F115
:1017B0004C00BDE8344000F0A5BE680747D50120C5
:1017C00084F820000420FEF717FEDFF8680901689E
:1017D0000A6B90472064606A08B1C068A063A06B80
:1017E0004168DFF854090A7802600220FEF704FE1F
:1017F0001120FEF716FE0120E076A06B017C002987
:1018000019BF607E00280E20FEF70BFEA06BDFF8EC
:10181000182940688168002904BFC068002804D0E6
:101820000021D161DFF84C0A106040F2FF70DFF850
:10183000481A086000219161DFF8F40850610FF246
:101840001100E0631920BDE83240FEF737BC31BD1E
:101850002DE9F0430446880085B040F19380DFF81D
:101860001C56A86B4068406800B18047A86BDFF841
:10187000B88842689068002804BFD16800290DD05C
:1018800000F0A7F8906800B18047A86B4068C06876
:1018900000B18047DFF86C0A00F03DFE0020C8F878
:1018A0001C0040F60A09DFF8600ADFF8D875C8F8AE
:1018B0000000012000F069FE0FF28110E8630021B2
:1018C00000207880A7F8009000F00CFA787B00F0F8
:1018D00003FAA26816467180697E09B1607CA0B1E6
:1018E000108840F60201884218BFB0F5C15F05D1EB
:1018F000318A4FF60F400140318204E0318B4FF6C0
:101900000F4001403183002060746946104600F0AA
:1019100029FE684600F034FE7068B0B3018849457E
:1019200018BF0646F8D130E0208C00283FD00021B7
:101930006184616204F12C004278017802F0F002C7
:1019400001F0F00142F001020170427004F1200048
:101950007860787B00F0F000787328E0DFF8801A78
:101960000A68136801209847012808D0707B00F0AE
:10197000F00040F0010070730FF26900E863A068A6
:10198000C8F8000005B0BDE8F083776040F60301B9
:10199000707B00F0F0007073686A8068008888428D
:1019A0001CBF40F604018842BED10020286400F02C
:1019B00010F84FF6FF30A1680A8A02400A82E87FD9
:1019C0000028CBD0FEF7B2FE0028FBD0FEF7BFFE0A
:1019D000D5E7D8F81C000028FBD00021C8F81C105F
:1019E00070470000DFF8FC29114200D17047DFF892
:1019F000F019012010B50A68DFF880441368984791
:101A0000012808D10FF23500DFF81C17E063DFF87A
:101A10007404086010BDDFF8682410683221B1FB3F
:101A2000F0F1012998BF0121EC342046FEF7A6FB16
:101A30002046BDE81040FEF7A3BB00002DE9FE4F95
:101A400006460C466004DFF8345419D5FEF734FB23
:101A5000EE6AB769B9070ED46EB10021B161FEF725
:101A60003BFB706848B1B6F91C10F06876683A46DE
:101A70000023B04701E0FEF72FFB24F4804425E16A
:101A8000A0070AD5286BFFF7F7FD286B002824F084
:101A9000020401D044F0020418E1A00005F180081E
:101AA00040F60909DFF8DC73DFF888B676D595F8DB
:101AB000200028B10420FEF73AFC002085F8200021
:101AC00040F60202B0680188914218BFB1F5C15FCB
:101AD00005D1028A2D2161F30912028204E0028BF2
:101AE0002D2161F309120283286CD8B1DBF8541060
:101AF0000A6804209047A8B1DBF80000016B884712
:101B0000296C814228BF401E401A718A11EB1030A7
:101B1000F06040F2D171A0F5FA70884224BF40F61F
:101B2000C410F060787B10F00F0F04BF708C484534
:101B300008D1D6F818C000224FF000736FF48071FE
:101B40003046E0470022DFF8A8184046FEF7BAFA10
:101B5000A87E50B10221ADF80010684600F0DBFC11
:101B6000BDF80800A8820020A87601202876002170
:101B7000B87D401CB875E976686A18B11920FEF77F
:101B80009FFA01E044F002043046766900224FF0EB
:101B900080630021B04724F0005497E0A87F24F030
:101BA000080A20B1210703D50020A8777BE0200791
:101BB0007BD5E87F20B10021E9770520FEF7B7FB50
:101BC0000020287601202877002000F0DEFC00228B
:101BD000DFF820184046FEF775FA697E09B1A87E45
:101BE00010B10121697612E0A86C002834D0DBF82E
:101BF0000010086B8047296C6A6C401A02EB1032A7
:101C00006A64A86CC001904226D200216964DFF8A2
:101C1000E80701680A061FD5787BA7F8009000F056
:101C20005BF800210020788000F05CF8FEF744FAB1
:101C3000DFF8F4144A6922F002024A616FF00202EE
:101C40000A610F600B699C07FCD50A614A6942F082
:101C500002024A61FEF740FA0020286400F068FCA6
:101C6000DFF81416002008600220FEF760FB112048
:101C7000FEF773FB307C10B90E20FEF76EFB0020E0
:101C8000A883787D18B906F1380000F01CFDDFF854
:101C90006C07E863F87D30B10021F97505F14C005F
:101CA000042100F02FFC544610E0A0040ED5AE6ACB
:101CB000002E1CBF7068002806D0B6F91C10F06812
:101CC000766800222023B04724F4005414B1214642
:101CD00000F0CFF9BDE8F78F00F0F00040F0010010
:101CE000787370477960387B00F0F0003873704784
:101CF00030B585B0FEF788FADFF80407DFF804474F
:101D000001685E4D41F002010160684600F0CDFBC4
:101D1000A078DFF8F41602906A4605F14C0000F056
:101D2000CCFB6846FEF7D0F92178DFF8C826019190
:101D300000208DF808006B46192105F18000FEF7A0
:101D400098F9684600F0B1FBE078DFF8C016029021
:101D50006A4605F19C0000F0B0FB6846FEF7B4F956
:101D600001208DF808006B466078DFF8A42601900A
:101D70001A2105F1D000FEF77CF900230022DFF8DC
:101D8000941605F1EC00FEF7CCF9DFF87006DFF8E9
:101D90008826E8630023042105F58870FEF7B5FA6C
:101DA0004FF6FF70A88205B00120A8760020E875E4
:101DB0006876E876E861286485F8200030BDF0B5E3
:101DC00000298BB0064615461C4653D0DFF84C065A
:101DD00000680A78D040C0074CD5002D716049D00A
:101DE0000021284600F0D2FBB560FEF765F9254FCB
:101DF0000546787D00283BD1FFF77AFF787D401CAF
:101E0000787500F0A0FA34B903A80FF24C611C22D7
:101E100000F0A8FC03AC2068DFF8041630600A4626
:101E20006068F060207C307401207074608A708279
:101E3000E06800B10146B161A06800B1024672617C
:101E4000782106F1200000F0F5FC002106F13800B1
:101E500000F003FC6846FEF78EF902966B460022FE
:101E6000DFF8C01506F17000FEF75BF9304602E0BE
:101E700000F069FA00200BB0F0BD0000CC15002086
:101E8000BC180020F01600202046FEF725B9D0B57A
:101E9000FEF712F9DFF89025117E31B1DFF88C25BD
:101EA0001468FEF719F92046D0BDFEF715F9A148D0
:101EB000DFF87C4501680A6B904710F50032DFF8C7
:101EC000740541F100030169A4FB0267002004FBD3
:101ED0000377321847EB01031846D0BD080B0020EA
:101EE0000810044020000E002DE9F84F04460E466D
:101EF00092469B46DFF83055FEF7DEF8B5F9341010
:101F00008046B5F93600091AC1F30B0108296FF0B4
:101F1000010949DAA88EDFF82015401CC0F30B0038
:101F2000A886B5F93400ADF800000020420101F1A7
:101F30001F039B5C1F0640F18C80401CC0B2082828
:101F4000F4DB002704F17000FEF71CF9BE6087F88F
:101F50001EA0C7F804B02021BDF80000B883FC60C3
:101F6000DDE90AABDFF8D4040AEA00000BEA01015C
:101F7000C7E9040194340020F87740F6FF76686AD8
:101F80000028394605F1240006D0FFF7DDF930B10D
:101F900000F061F840464FE0FFF7D6F940B9A88E4F
:101FA0003618C6F30B06AE8600F01EFA48464EE021
:101FB00000F051F8697FDFF87C4400291CBF287EBF
:101FC000002807D0002001216877A876A977A07D96
:101FD000401CA07500F008FAA96A002935D1287EB6
:101FE00018B11920FEF76CF82FE0E87E68BBFEF709
:101FF00063F80646287F10B10121E1751BE0B8683F
:10200000FFF724FAA864D0B1A86BDFF83414C068D5
:102010000968AA6C121AB2FBF1F2012A83BFAA6CFA
:10202000101AB0FBF1F10121EC352846FEF7A6F8B5
:102030002846FEF7A5F83046FEF74EF805E0304694
:10204000FEF74AF8042100F014F8BDF90000BDE8DD
:10205000F28F8F1876E7BDF800002080F87F40F0FF
:102060008000F877A078012802D10021A170A9761C
:10207000704705F14C0000F045BA2DE9F0410546E6
:102080000C4616461F4600F039FA80462046FFF7F8
:1020900078F9040003D1404600F038FA0AE0E07F06
:1020A00010F0070F09D0404600F030FAE07F10F042
:1020B000070FFBD10220002112E06168DFF88403E2
:1020C000814202D0616829666060C5E916674046B2
:1020D00000F01CFA00F006F800202866D5E91A0185
:1020E000BDE8F0814FF0FF3105F1380000F0E2BAB1
:1020F000DCB5DDE906670446CDE90067180008BFD6
:10210000DFF840332046FFF7EFFE002803D500201C
:102110004FF00041DCBD0146204602B0BDE8D04092
:1021200002224FF0E043A8E70010044018160020F8
:10213000020000408C010010D021084001E042F074
:1021400002022DE9F843DFF8E052686A00900F467A
:1021500003261446FDF7B0FF17F1010F04F0010844
:10216000814609D1A86A002819BFA96AB1F91C7073
:10217000EF8E7F1C0020E87538B2FFF702F90100EE
:1021800069D0A86A814204F0020426D11CB1686AB1
:10219000009000226A620122C87F02FA08F210430E
:1021A000C87700F0ABF90646B8F1000F14BFDFF8AE
:1021B0009802DFF8980200F0AEF900F06BF824B94D
:1021C00006E000F05BF800F060F800980028F8D115
:1021D000304600F09BF983263FE00098884205F1E5
:1021E000EC0316D11846FDF7CDFF002C12BF0020DE
:1021F000686A0068686200F04DF8009800F03EF8E8
:1022000000F043F8009820B3002CF6D121E01268CA
:102210000092009820B3024610688842F7D1184611
:10222000FDF7B0FF009800681CB1009A0021116012
:1022300004E00168009A116000220260009003E04F
:1022400000F01CF800F021F800980028F8D100F008
:1022500021F8832606E000F01DF83046BDE8F28341
:1022600000F018F8E87E0028F7D10221FFF701FFFF
:10227000F3E700005100070600000460C17F41F051
:102280000401C1776846FFF753B8014605F13000F5
:10229000FFF75AB84846FDF71FBF0FF2BC111C22CA
:1022A00000F060BA38B50446FDF706FFDFF8781194
:1022B0000546087E68B1204600F02DF9044600F07E
:1022C00042F804F0FF04012C01D1812032BD02202C
:1022D00032BD00F038F8012032BD0A46DFF848115F
:1022E0008B6B984201D00320704707E00A46DFF865
:1022F00038118B6B984201D00320704700211046A3
:10230000D0E700000100070601010E0470B5DFF8F8
:1023100018118A6B90426FF07F0412D1087E80B151
:10232000FDF7CAFE0546DFF8280100F0F4F806467E
:1023300000F009F806F0FF00012802D1360230163D
:1023400070BD204670BD2846FDF7C6BE70B50E466E
:102350001546FDF7B1FE8324334A1EB1022E0ED07E
:1023600006D30FE0916A41B1926A918B29800AE00D
:10237000917E11B9928A2A8005E0802403E0117EC3
:10238000297000E00324FDF7A7FE204670BD80B54C
:102390000846FEF7F6FF00B1806802BD38B5044676
:1023A000FDF78AFE204AD17D4B0702D5937D9C42E2
:1023B00012D00123958A03FA04F10D432549958231
:1023C0000C340A6803FA04F422EA04040C60096875
:1023D00011B9184B00221A75BDE83240FDF77CBEDA
:1023E000E0010010040000204046FDF775BE00002B
:1023F0003D1500005F160000000004407B17000040
:1024000000200940003E01003F160000C3140000F8
:102410007F14000055160000A9130000D4210840C5
:102420003D16000003160000CC15002004300440C7
:1024300000093D00F0160020080B0020F1EFFF9F7F
:10244000BC1800200716000001000204010001046E
:10245000010003040C100440FFFFFFFFC40900004B
:10246000000000000000000001001A010000000050
:1024700000000000DFF800F011BF0110DFF800F0ED
:1024800011B00110DFF800F015C00110DFF800F006
:1024900015C10110DFF800F005B3011020B10823C9
:1024A00028220021FFF7EEBF704700210160416044
:1024B000C1604FF0FF318160704770B514008AB081
:1024C00005460E4603D1002200F020FF0CE06846CE
:1024D000FFF7E4FF206804906A4660680590314683
:1024E00000F004F800F012FF0AB070BDE068079039
:1024F000A068069028467047FFF7C8BFFFF7BABF2D
:1025000000F010BF00F014BFFFF7B8BFFFF7C2BF65
:102510003849086867E0384A11680029FCD100236F
:10252000D3611060D0690028FCD0D1615068704739
:102530003248016821F0020141F400710160032179
:102540002F48816041F2300141610121C160502179
:1025500041610121C1604FF4CA6141610121C16043
:1025600001607047274802680A6082684A60C26852
:102570008A60406B20F0784040F08050C86070471F
:1025800001461022204800F0DDB87047FEB50188F2
:10259000B1F5C15F18D142691C4F009200238269D6
:1025A0000192C06902901A480268C2F303625DF8A2
:1025B000230098B1002550F82560BE4206D06D1C5E
:1025C000EDB2042DF7DD09E00120FEBD042D05DC90
:1025D00026F4702444EA024440F825405B1C032B97
:1025E000E5DB0020FEBDC2430A600A680242FAD160
:1025F0007047000010100440001004400000046008
:10260000004104404C130050180000210200F8441F
:1026100054130050DFF800F009C00110DFF800F09B
:10262000D1B20110DFF800F0059B0110DFF800F0D7
:10263000E1A30110DFF800F05DB40110DFF800F055
:1026400009C10110DFF800F00DC1011020B108230D
:1026500024220021FFF7DEBF704730B589B0044661
:102660000D4600F00BF801218DF818106A46294636
:102670002046FFF7DFFF204609B030BD6846E5E79A
:1026800010B58AB00446FFF7F9FF01218DF8181044
:102690002046034A6946FFF7C1FF0AB010BD00009B
:1026A000B003002080B500906846FFF7C7FF01BD6A
:1026B000FFF7C8BF80B5FFF7B5FF10B96FF0010095
:1026C00002BD002002BDFFF7B1BFF0B40346186899
:1026D0009D681A18586802EB5004C00721D54D4474
:1026E0001FE0F0BC03F10C00704712F8017B05F805
:1026F000017B491EF9D1A0B1B60812F8011B06F002
:102700000306032E08BF12F8016B01EB06214942B4
:10271000801C294405D011F8016B05F8016B401E9F
:10272000F9D1A242DDD012F8016B16F0030104BF0B
:1027300012F8011BC91C30090F28DAD112F8010B5D
:102740000F30D6E762B38B0708D0521E11F8013B59
:1027500000F8013B00F024808B07F6D1830740F09E
:10276000208000BF103A07D330B4B1E83810103AD7
:10277000A0E83810F9D230BC530724BFB1E80810E4
:10278000A0E8081044BF51F8043B40F8043BD207CE
:1027900024BF31F8022B20F8022B44BF0B780370C2
:1027A0007047121F17D35B0009D151F8043B20F882
:1027B000023B1B0C121F20F8023BF6D20BE051F833
:1027C000043B00F8013B1B0A20F8023B1B0C121FC4
:1027D00000F8013BF3D238BF121D521E24BF11F87E
:1027E000013B00F8013BF8D870470268920841EAC3
:1027F00082028B0822F0040203F0010342EA830202
:10280000CB0822F0080203F0010342EAC3020B09DD
:1028100022F0100203F0010342EA03124B0922F0F6
:10282000E00203F0010342EA4312890942EA8112FD
:1028300002607047002200F08FBD02460229107826
:1028400003D1517800EB01207047032906D151785C
:10285000927800EB012000EB02407047042908D178
:102860005178937800EB0120D17800EB034000EB26
:1028700001607047DFF800F0BDAA0110F8B504460A
:102880000B480C4F0668F8690D4650F82500B04219
:1028900009D1094800902046FFF7ECFFF86950F88D
:1028A0002500B04201D10020F2BD2046F2BD00BF9C
:1028B0001812000044010020B0030020102803D3A8
:1028C00002491038C1F8000F704700BF00E000E077
:1028D0008160426070470000DFF800F09DB2011097
:1028E00070B5044600F052FD0646A08A0025012876
:1028F00008D1FFF7F1FF0546E068451BA068A84234
:1029000038BF0025304600F042FD284670BD808A61
:102910007047006808B901207047002070470068C0
:1029200070470068704738B504460D46FDF7C4FB94
:1029300000212960616869606168002914BF0D6029
:1029400025606560FFE7BDE83240FDF7C5BB0A685A
:102950004B68002A0CBF436053604A6809680AB993
:10296000016070471160704701700A0A42700A0CDA
:10297000090E8270C170001D70470000DFF800F082
:1029800031BF0110DFF800F0F5B7011030BF70471C
:10299000FCE738B500F0D6F900F087F9FDF717FC31
:1029A000044604F00C000C284BD0600721D400F042
:1029B00021FD054601210120FDF70DFC2F49096885
:1029C00001FB05F2904214D2F020B0FBF1F02C4C48
:1029D000291A04F10C00FDF789FB04F10C00FDF746
:1029E00089FB0120FDF771FD04F10C00FDF77AFB76
:1029F00029E0200725D4234D2348296A8A68904777
:102A00000428F8D0E206214900D420B9086840F033
:102A10000100086003E00A68520852000A601C487E
:102A20001C4C016841F00301016020202A68916973
:102A3000884720682868816B8847012121602068C9
:102A400001E0FFF7A5FFBDE8314000F07FB910B508
:102A5000114CFFF793FF20601048006808B18047D1
:102A6000606010BD10B50E480B4C016809B160687C
:102A700088472068BDE81040FFF784BF80670100E9
:102A800094050020B8010010004003408C2108404C
:102A9000242208402C200940181800205C670100FF
:102AA000606701001628A8BF203870472DE9F84F4D
:102AB00080469448DFF850920168944E8A0705D505
:102AC0000820B0719248C9F80000C2E0914801683E
:102AD0000A6890478246904805682F1700247F1C9B
:102AE000A80208D4CAF13E00C0100828C8BF0820B8
:102AF0008742B8BF074689480168C1F30460FFF701
:102B0000D1FF834686480168C1F30440FFF7CAFF3E
:102B10005F44152F0146C8BF152704DC6FF009007C
:102B20008742B8BF074607F01F007E4A40F4F850BE
:102B300010807D4A106810F0030F18BF0124400771
:102B400048BF44F0020496F90700B8F1000F18BF1F
:102B500044F00404AAEB0000042802DCB279944299
:102B60005DD0AAF10F084FF0000BB8F1000FDC4662
:102B700004F004006D4B24D408EB08184FEA282C0D
:102B8000BCF1070F88BF4FF0070CE646BEF1070FF8
:102B900028BF4FF0060E1A1D52F82E2053F82EE0D3
:102BA000A2EB0E0E0EF0FF0B10B1CEF307229344F2
:102BB000A20744BFCEF307429344E20748BF0BEBA2
:102BC0001E6B53F82C2002F0FF0310B1C2F3072054
:102BD000C318A00744BFC2F30740C318E007A8EB1F
:102BE0000C2048BF03EB126300FB0BF0CF1B8030BF
:102BF000002F03EB1023D8BF0127342005F0FF0579
:102C000047437D43B5FBF3F04FF6FF71884288BF21
:102C100008460AF3070AB08086F807A0B471444852
:102C20000168B088316000211F2804D21F20B080C5
:102C300004E04008491CB0F5007FFAD20F380009C3
:102C400041EAC0013B480143C9F800100020C9F81F
:102C50000400BDE8F18F10B537480468A4B21CB376
:102C60002C4801680A689047284991F9072090424A
:102C700005DA6FF07F029042B8BF1046C8718888AD
:102C8000844210D32A4A13680A689A1A921C1F2A8F
:102C900088BF1F22241A5208D4402418B4F5803F5C
:102CA00028BF4FF6FF748C8010BD2448006800B91F
:102CB000704730B522498A6802F04063B3F1406F33
:102CC0001FD0104B1C68A5071BD44C68A50718D44F
:102CD0001C680968C1F303511C31090114F0050F88
:102CE00004D088420DD224F0050409E0814208D2C4
:102CF000100158BF44F00104500158BF44F00404CF
:102D00001C6030BD0000094030100940D41800207C
:102D1000FDFDA400EC010010B43F0050B8120050BB
:102D20003C1100506E620840242208409C13005061
:102D30000820094000E7A4803410094028500940C9
:102D4000AC3F0050EFF3108072B67047EFF3108085
:102D500062B670470138FDD17047704710B50C1846
:102D6000FFF7F0FF411E8941C90FDFF860241068AA
:102D70000028FCD024680123136009B1FFF7E6FFA7
:102D8000204610BD38B5DFF84854287800240028C4
:102D900002BFDFF84014887B00280CD0FDF78CF9C7
:102DA0000146A878002806BF0122AA70012408461F
:102DB000FDF792F90CB1002032BD0220FDF71CFB9B
:102DC0000E20FDF72EFBDFF81014086808B1012073
:102DD00032BDDFF808044022C26002600120C861F1
:102DE0000020687032BD00002DE9F041DFF8EC13DF
:102DF00082B000200860DFF8E81301F1D804A07A5F
:102E0000002837D00128DFF8DC53DFF8DC2332D18B
:102E1000DFF8D81316684BF2F52046430868360AE7
:102E2000C0F3814001280BD1A86C0168884700F0ED
:102E30003AFA00F053FA3509C010454306EBE5367F
:102E4000607B10B10021617306E0DFF8A403006825
:102E500020F07F4036187608DFF898030660360CBD
:102E6000466001218160DFF86C13887B002849D01F
:102E70000521217348E0022809D11568284600F091
:102E80000CF9A5F2FF55032D3CD308203BE00328A5
:102E90003AD1106801F1B806A0F5C0603168F06160
:102EA000002948BF4942002848BF40428142A8BF8C
:102EB000002026DA7068D04F80B200900823D5F841
:102EC00000C0DCF804804FF47F4230213846C04710
:102ED000B06880B200901223D5F800C0DCF80480FE
:102EE0004FF4F80204213846C047B06980B2009020
:102EF0000A232D686E684FF4406220213846B0479F
:102F0000012020700B202073BDE8F3412DE9F84328
:102F1000DFF8CC82B94EDFF8E092B94CB94FAF4838
:102F200008F1E105E9784A1E0B2A00F29280DFE8F9
:102F300002F00630415F74415F74415F7B8031680D
:102F40000A68202090470F20E060072341F61D50BB
:102F500020614FF4C072022000900021D6F804C016
:102F6000DCF804404846A04776684846D6F80C90FE
:102F700007234FF4C0720021C847012038600220A7
:102F8000E87008F17800BDE8F243FDF7F9B8BDE854
:102F9000F1830120E061287800281DBF00213961FC
:102FA00003200620E8700320206000207860786805
:102FB0008107E6D470684668E878032808D10221C2
:102FC00000910523602200214846B04704200BE011
:102FD000002000900523602200214846B047E87891
:102FE00006280CBF07200A20E87001207860C8E797
:102FF000042903D12021A161012105E001220A2930
:10300000A2610CBF03210221697000212160082107
:10301000C160016001202060B9E705290CBF0620CE
:103020000920E8700020E1E70020386078600C207B
:10303000A6E7002101600120674908600E20FDF726
:103040008CF90220FDF773F90120E8700020A870C8
:103050009DE7FEE762496B4891F8E420921E0A2A38
:103060001AD8DFE802F0060A0E190A0E190A0E191C
:10307000120002689107FCD548E741688A07FCD432
:10308000FAE741688A07FCD5F6E702689107FCD4A5
:1030900041688A07FCD4EFE7FEE7F8B50446564DD1
:1030A00030212846FFF75AFE4D4F07F1B806C0F30E
:1030B0000720706004212846FFF750FEC0F38440CB
:1030C000B06020212846FFF749FEC0F38120B4F507
:1030D000C064B061346003D1002087F8D800F1BD2E
:1030E000316997F8D80028B97068B168F060F46168
:1030F000B0697061F06900284CBF6FF001020222D4
:1031000000EB40001018421000EB927001EBA001A0
:103110007268F260002912DC7069032805D111F190
:10312000150211001EDA00211CE011F10B00010054
:10313000B8BF0021521E48BF0022F26007E01E29DE
:1031400012DD706928B915391E29C8BF1E21032058
:1031500009E00B391E29C8BF1E21521C3F2AC8BFD7
:103160003F22F26000207061316108231D4CF0683D
:1031700080B200904FF47F422768D7F804C0302116
:103180002846E0470120009011232768D7F804C0A3
:103190004FF4003204212846E047306980B20090A5
:1031A00012232768D7F804C04FF4F80204212846F8
:1031B000E047706980B200902846246865680A2359
:1031C0004FF440622021A847F1BD000000800C4070
:1031D00075060020F03D010004800C402C500C408E
:1031E00094050020A401001008400C40B43F00509A
:1031F000102009403C600C4000A00C40A0010010D1
:1032000000400C4034600C403748006800F00AB9B8
:1032100010B5374C626D5368012103209847206830
:10322000C16A88473349886010BD70B5304C616D04
:103230000A680120904701281BD0A5692B48EE6839
:10324000002301223421B047A0B1FFF7DDFF206841
:10325000C16A8847274B9A6827491C68D860A4EB45
:103260009404801A4843000C1860A04238BF2046DE
:103270001860012070BD38B51D4C626D5368002187
:1032800003209847616D0A680120904708B1FFF755
:10329000BBFF2068174DC16A88476860206E0168CF
:1032A0008847286131BD10B501461448144B0268A7
:1032B0001B68100400161B394843C01000EB224065
:1032C000120601FB01F412161B06624361431B1632
:1032D00000EBA220594300EBA14010BD00FB00F120
:1032E000C0EBA15000B270478000001000A00C405D
:1032F0008C010010C018002040420F0090130050B5
:10330000A4100050DFF800F079AD011010B50446AC
:10331000034BFFF7F7FFA06800B1204610BD00BFC8
:10332000B003002001488068704700BFC80100203A
:1033300038B504460D4600F034F8616A0D43656205
:1033400000F030F82046BDE83240FFF797B8FF7F25
:1033500062F30F2262F31F4200B500BF13009646CE
:103360009446103928BFA0E80C50FAD85FEA417C97
:1033700028BF0CC048BF40F8042BC90728BF20F85D
:10338000022B48BF00F8012B00BD004000E005E023
:10339000EFF31180202181F31188704780F31188A9
:1033A0007047F5E7FAE70000F2E7F7E70D49C207D3
:1033B00044BF01220A60820744BF4FF480720A6052
:1033C000400744BF4FF4803008607047064AC30787
:1033D00048BF1160830748BF5160400748BF9160F4
:1033E000704700000420094018200940DFF800F071
:1033F000E1BE011070B5FFF7C9FF094D0446A8688A
:103400000021FFF7F3FF06466869861BA869B042F2
:1034100038BF00262046FFF7BAFF304670BD00BF18
:103420007801002070B50446FFF78CFC451EAD41C5
:10343000ED0F064E30680028FCD0A0470121316016
:103440001DB1BDE87040FFF781BC70BD00800C402D
:10345000DFF800F0E5710110DFF800F01D6E0110DB
:10346000DFF800F04D71011080B54FF4FC720FF2DF
:1034700078011A48FFF776F90121194841740022B2
:1034800002210270C17601BD2DE9F0410FF25022F8
:1034900014493820136854689568D6681769D2F8BB
:1034A00014C0D2F818E0D2F81C800B604C608D601C
:1034B000CE600F61C1F814C0C1F818E0C1F81C80DB
:1034C00020322031401EE5D150689368D4681268DC
:1034D0000A6048608B60CC60BDE8F0814804002140
:1034E0005903002100C00021410500217D05002174
:1034F0002D06002170B51D46004C204787B2000004
:1035000010B5014800470000D509000070B5614CB6
:103510006148254650358047022809D14034E1886A
:103520005E4A914204D1E97C890601D4911DE18073
:1035300070BD70B557495A4A084650300378002B81
:1035400010D08379012B0DD1037C5B09DB0709D0F7
:10355000097D544DC1746C7F2020204368779047CB
:103560006C7770BDFF21C174904770BD10B54E4897
:10357000484C804702280ED121464031CA88474B2B
:103580009A4208D1CA7C5209D20704D0227D920601
:1035900001D49A1DCA8010BD70B53E4843494030E1
:1035A000C07C4009C00707D03E4D41482C8B2043CA
:1035B000288388472C8370BD884770BD10B53B4871
:1035C000344CAC388047214653310A789309DB07E5
:1035D00005D04034A2730A7803231A430A7010BD41
:1035E0002C4940310871182812D004DC0A280BD06D
:1035F0000B2804D10AE025280CD02A280CD02D490C
:1036000080004018C06870472B4870472B487047AF
:103610002B4870472B4870472B48704770B50446BD
:103620001C484E252D5CAE09F60716D0067D3007E6
:10363000000F052803D00120054202D00DE0022032
:10364000FAE7E80905D0700603D54868800F01281D
:1036500003D05B085B0052085200062B03D01020F9
:10366000022B11D011E0FB20024002232046FFF77D
:1036700041FF002807DAC100611A2039497E14226F
:10368000114200D1002070BD024303432046FFF7E2
:1036900031FF70BD4401002137CB0000041400004D
:1036A000EBC80000A8000021F5B4000053AD0000F5
:1036B0002020000080DF00001D050021F90400210A
:1036C000CD040021930400216D04002110B5034CAA
:1036D000FFF716FF20680028FAD110BD0011044042
:1036E00068610000F825F965F97545004500450059
:1036F0002600260057A3520052004C00401F401FD6
:10370000401F3F00000000003040004001400340E7
:1037100007400F404F40CF40CF41CF43CF47CF4F1F
:10372000CF3FCF2FCF1FCF0F0000000000000000C1
:1037300000000F00080000003F00000040003F00B4
:103740000000040068000E00DC00060043001A00C0
:103750000500000000000200000000000000000062
:103760000400C00000000400C000000007000000CA
:103770000000000000000000000000000000000049
:10378000304000400140034007400F404F40CF40D1
:10379000CF7FCF6FCF5FCF4FCF3FCF2FCF1FCF0F79
:1037A000000000000000000050C00091007070C0D8
:1037B0000091007082312100319110B100700181BF
:1037C00001B100A18231329110B1019111104181FA
:1037D00041227740F106007051C001913018103934
:1037E000833108D01831416F3100319110B1831409
:1037F000141683680070251050C00091F4C340C1B6
:103800002014036F311041045082F0229840512659
:1038100022C082312100319110B16339311041044D
:1038200082C082312100319110B163393110A2C0C0
:1038300082312100319110B15010153105140592DB
:103840000070676452C0311031066131C1026A6490
:1038500012C13110213971065131E1026A640070E0
:1038600051C0019101CCE2C06A64676411C1C2C059
:103870006A6450B054B0007140804022D6440022A7
:10388000C94060B08180111EC944007054A064B06A
:10389000F0800022C9404012B09032B070C1DF68A1
:1038A00011C122C16A6470C1E46851C00191E2C0D3
:1038B000823160820200329110B130C2EE685382D0
:1038C00053395339B16460C3F4688012B09032B098
:1038D0000070676401C122C16A6401C1C2C06A6428
:1038E0005382B164C012B09032B00070676472C28B
:1038F00081C06A6422C111C16A6402C011C16A64D4
:1039000062C031C36A6462C311C16A6402C311C177
:103910006A6453825339B164E2C36F6411221C415B
:1039200042C281C86A6452C211C16A6472C2E1CEE5
:103930006A6402C281C86A6402C201C86A64B0C013
:1039400030690070676442C201C86A6452C211C023
:103950006A6472C2E1C06A6402C001C16A6462C082
:1039600001C36A6422C101C16A6462C301C16A649D
:1039700002C301C16A645382B16400708180111E68
:103980005C4150B054B00071408040225D4154A071
:1039900064B0F1800122514500700022514160B0B5
:1039A0004E61000000000000000000000000000068
:1039B000067305720B720E7250B00071818060B098
:1039C00050A09280F0EFF19202936A6741228C45F9
:1039D0008080F1C11004301601110114016CB56131
:1039E000B661B761B861B961BA61BB61BD61BF6100
:1039F000C161C36126632D63F0C002043231412AE4
:103A00001214321601112114016CDA61C561E061F2
:103A1000C761CB61B561B561B561F461C561FA613A
:103A2000C761CB61B561B561B561F461C561FA612A
:103A3000C761CB61B561B561B561E761C561ED6134
:103A4000C761CB61B561B561B561CF61CF61CF6150
:103A5000CF61CF61CF61C064CF61F964CF6106658A
:103A6000CF613265CF617467CF611166CF61C06489
:103A70004E65F964CF61066511663265CF6182805B
:103A8000E0DFF2926A67B0B0D661B1B0067305723A
:103A900030B06C61D0CF6A6784C203C0C0C37C649D
:103AA000207851788278E3781579B6780062C0CFB3
:103AB0006A6784C203C0C0C37C643078617892783E
:103AC000F3781579C6780062B0CF6A6784C203C004
:103AD000C0C37C6440787178A27803791579D67870
:103AE00010922192329243925492659256911FC045
:103AF000FF914039F00601101031101400927067E8
:103B0000CF61E3B054A0F08050221A4640800022DA
:103B1000BE461262E3A000C86091598150B0918006
:103B200041228E46A0CF6A671282823182394239A1
:103B30008B641282F2062F101F312F141682D622A8
:103B4000334640C1346200C520140D6F6D39DE105C
:103B5000F4C34E0482C082312E006D39A2C082317E
:103B60002D001A828A39FA062082803180390BC0F2
:103B70000B18BC10AC18038239149B141082F00689
:103B8000011010311014518110140C14C622C946B2
:103B900031D0C1266462021011C0013010C001187A
:103BA000021882312100C126919103B013B063B095
:103BB00053B041800122BE46B481C491D581B51C69
:103BC000774E95186591F080102269428C623D9184
:103BD00010B13E9110B1E08000228146E622814280
:103BE000E0B0951865910F925981F914F080502238
:103BF000114210228C464D6390CF6A6763B052A089
:103C00003082F2C02004021011C0013010C001182F
:103C1000021882312100C1269191919113B003B015
:103C200063B053B064B054B0007141800122BE460D
:103C300063B064B0F08050221142B181C191D18152
:103C40009118619131B0A4622967E0A05981058281
:103C5000591480C0007163B0BA6A6962E3A001823E
:103C600062818231823D80EFF19202936A6703A004
:103C7000007037824739873930828039F006021068
:103C800011C0013010C00118021882312100C12674
:103C9000819102B012B030824039F006021011C09A
:103CA000013010C00118021882312100C126919103
:103CB00003B013B063B053B0007153A062B052B000
:103CC00041800122BE46A481C491D581B51CFE4E1F
:103CD00095186591F0801022F0428C62B481C491F5
:103CE000D4814518751C084FF0801022F0428C6278
:103CF0003D9110B13E9110B1E08000221247E622C2
:103D00001243E0B065910F925981F914F08050226E
:103D1000114210228C4630632967E0A05981058248
:103D20005914F0C0007162B0226BF062A2808B6403
:103D3000CF6112824239F2068B6050B00071CF61C0
:103D400070CF6A67408241800122BE46A481C4913F
:103D5000D58195186591F18011228C46336B418095
:103D60000122BE46A481C491D581C51C1C4B951867
:103D70006591F08010223F438C6260CF6A67408279
:103D800041800122BE46B481C491D58195186591C8
:103D9000F18011228C46506B41800122BE46B481D5
:103DA000C491D581C51CB44A95186591F080102244
:103DB0005C438C62E092D08200226B47C0B20070FC
:103DC000A080F022874330B002C1623101C0A080E0
:103DD000001E8043F022814380F8603160398163A6
:103DE0002010101A136F236E11161216826B0070BA
:103DF0002DE9F84FDFF82085DFF8201588F800005E
:103E0000002008600921DFF8180501700D214180AC
:103E10004FF408718180DFF80C05DFF80C150160A4
:103E20008A7EDFF808050270FF2ACB7E437008BF48
:103E3000FF2B0D7F85704E7FC6708F7F0771C97F06
:103E4000417115D1FF2D08BFFF2E11D1FF2F08BFE3
:103E5000FF290DD1DFF8D8140A7802704A78427031
:103E60008A788270CA78C2700A7902714979417180
:103E7000DFF8C01402780A70FF2542784A70827811
:103E80008A70C278CA7002790A714079DFF8A82472
:103E900048710021DFF8A404057045708570C57075
:103EA000057145711180DFF89804DFF89814466BAE
:103EB000DFF894247078087031781170B078DFF8EA
:103EC0008C14087071690879DFF88414421E0A7036
:103ED000F078DFF880140870B069DFF87C140860AF
:103EE00008B900F069FAF069DFF87044206008B999
:103EF00000F062FA2068DFF868740168884721687A
:103F000051F8042F38469047DFF85804DFF858146A
:103F10003862DFF858047862306A086008B900F047
:103F20004BFA706ADFF84814086008B900F044FAE8
:103F3000DFF840B4DFF840649BF8040000F052FA68
:103F4000306008B900F049B99BF80500DFF82C741F
:103F500000F048FA386008B930683BE19BF8060089
:103F6000DFF81C4400F03EFA206020B9306800F011
:103F700041FA38682EE19BF80700DFF8089400F05A
:103F800031FAC9F8000038B9306800F033FA3868FF
:103F900000F030FA20681DE1DFF8AC130A789BF8D6
:103FA0000000DFF8E4A3921C504380B200F01AFA3C
:103FB000CAF8080058B9306800F01CFA386800F0F8
:103FC00019FA206800F016FAD9F8000002E1DFF8CB
:103FD00078030078002800F00581BBF80210DFF8B4
:103FE000ACB3484380B200F0FDF9CBF8040078B9D7
:103FF000306800F0FFF9386800F0FCF9206800F044
:10400000F9F9D9F8000000F0F5F9DAF80800E1E074
:10401000CD48007800F0E6F9DD49086098B93068CD
:1040200000F0E8F9386800F0E5F9206800F0E2F9FE
:10403000D9F8000000F0DEF9DAF8080000F0DAF94B
:10404000DBF80400C6E0C04800781C21484300F0BB
:10405000C9F9D04A1060B0B9306800F0CBF93868BF
:1040600000F0C8F9206800F0C5F9D9F8000000F0A8
:10407000C1F9DAF8080000F0BDF9DBF8040000F03F
:10408000B9F9C348A5E0B0480078400100F0AAF9AA
:10409000C1490860D8B9306800F0ACF9386800F060
:1040A000A9F9206800F0A6F9D9F8000000F0A2F9FB
:1040B000DAF8080000F09EF9DBF8040000F09AF945
:1040C000B348006800F096F9B249086882E09E485B
:1040D0000078000100F086F9B0490860F0B9306856
:1040E00000F088F9386800F085F9206800F082F95E
:1040F000D9F8000000F07EF9DAF8080000F07AF94B
:10410000DBF8040000F076F9A148006800F072F9CD
:10411000A049086800F06EF99F485AE08A48007884
:10412000000100F05FF99E49086018BB306800F09C
:1041300061F9386800F05EF9206800F05BF9D9F8A1
:10414000000000F057F9DAF8080000F053F9DBF846
:10415000040000F04FF98E48006800F04BF98D49DB
:10416000086800F047F98C48006800F043F98B4973
:1041700008682FE0744800783021484300F032F995
:10418000884A106070BB306800F034F9386800F07D
:1041900031F9206800F02EF9D9F8000000F02AF972
:1041A000DAF8080000F026F9DBF8040000F022F944
:1041B0007748006800F01EF97649086800F01AF99F
:1041C0007548006800F016F97449086800F012F9A3
:1041D0007348006800F00EF9002000F0EDF84FF48D
:1041E000804192E0316801200871306805733168C0
:1041F0004D73306885733168CD7330680574002065
:1042000031684D743268D072A02231684871032140
:104210003068C2800172072031684872002032681D
:1042200090722821306841820121C17600203168D6
:104230004877326882F85E0001203168087732687A
:1042400082F85D00396808713868057339684D7304
:10425000386885733968CD7338680574002039680B
:104260004D743A68D072396848713A6890724FF468
:10427000207039680022C88008818A7401213A6858
:10428000D17421680D732268557321688D7322687B
:10429000D57321680D740021226855742368D97282
:1042A0000121226811710021236859712168C88099
:1042B0000881002088722168887405202268D074E3
:1042C0003948016888472A490A68054610688047C6
:1042D00027490A6852F8043F0020984718481D4BA8
:1042E000C16818780A88314902430A802846304953
:1042F0000A6890470C212F48FFF7AAF80F48FFF7EC
:10430000ABF8FFF7ADF84FF4005198F80000BDE8A6
:10431000F44F00F077B800BF6E4F0020044F00202C
:10432000604E0020084F0020B63F00502C4E002069
:10433000E81200503C4E00200C4F0020344E00206C
:10434000285B01006D4F00207B4F00206B4F002049
:10435000724F00206C4F0020F04E0020F44E0020E1
:104360007C4B0020E5430000F84E0020F5430000A0
:10437000FC4E0020E8080020104F0020BC1900204F
:10438000184F0020C0190020481C0020684E002053
:10439000004F0020901C0020941C0020884E00201C
:1043A0008C4E0020904E002000030020544F00202F
:1043B00004030020F84D002080B5010002BF06492B
:1043C0000A78012A04D00549054A097813689847F4
:1043D000BDE8014000F07CB806090020DF1D002088
:1043E0008C08002002490A6852F8343F184700BF81
:1043F000C419002002490A6852F8383F184700BF24
:10440000C41900202DE9F04180462A482A4D06783B
:104410005FEA08600F4632D5042000F05AF8040025
:1044200008BF042043D04FF6FF702080678000F063
:1044300063F82249FF280FBF4E78C96836188E5D91
:10444000FF2EA4F10C0707D1204600F05BF8286886
:1044500050F8081F884710E0404600F0CFF8FF21D1
:10446000B97201462D68D5F80080234600223046F7
:10447000C047E0B1204600F045F8012017E0B04504
:1044800014D20F48016888470E49096831F818208E
:10449000174321F818700C490A68904729680B489F
:1044A00051F8242F00689047002000E00320BDE869
:1044B000F08100BF86AC0000C41900206C08002009
:1044C000000300200019002004030020E818002049
:1044D000704710B5040001D1002010BD04F10C009C
:1044E00080B2FFF77FFF28B1002101600481FF2126
:1044F00081720C3010BD001801480078704700BF71
:104500006C08002080B508B9052002BD10F8021C17
:10451000FF2901D0042002BD0C38FFF76BFF0020FB
:1045200002BD01182DE9F04104460E469046FFF702
:10453000E3FF4649FF2808BF4F7804D0CA68444BC0
:1045400019780818175C434DFF2F04D1286850F8DC
:10455000081F884713E0304600F050F80146FF205E
:1045600008F8020C20002E680CD156F83C4F434648
:1045700000223846A04770B14046FFF7C3FF012034
:10458000BDE8F081012CF7D134684346002238465B
:10459000A0470028F0D10020F2E770B50C000546D6
:1045A000164618D0280602D500F034F89047284A5D
:1045B00011788D4204D32046FFF7A4FF032070BD7D
:1045C000A4F10C010868002804BF8A7AFF2A04D0ED
:1045D0002046FFF797FF052070BD8D72012E1E4803
:1045E000214602D100F050F801E000F061F84FF4EC
:1045F00000412846FFF706FF002070BD10B580F08F
:104600008004022C02DB00F005F890470F4820449C
:10461000807810BD0F48016851F8082F704738B5F1
:1046200004460E4801688847084905468868844260
:1046300006D108490A480A68006852F8243F98479A
:1046400008490A682846BDE8324010476C08002037
:1046500086AC0000C4190020DC18002000030020F4
:10466000E81800200403002080B5020606D50A469B
:1046700001460120FFF756FFC0B202BDBDE8084069
:104680000022FFF78ABF002838B5044606480D46C9
:1046900001688847216845F80C1C256003490A68B1
:1046A000BDE83240104700BF000300200403002093
:1046B00038B504460B480D4601688847002145F887
:1046C0000C1C226812B9256006E00A4652F80C1C40
:1046D0000029FAD142F80C5C03490A68BDE832406F
:1046E000104700BF0003002004030020DFF800F0A3
:1046F00021C00110DFF800F019AE0110DFF800F062
:10470000F99B0110DFF800F055A40110DFF800F06C
:104710004FBF0110DFF800F005840110DFF800F052
:104720008984011000B58FB008233C22002168461F
:10473000FFF7DCFFDFF8F80B00F1500107914FF4B1
:10474000587201210892069100236A460FF29911CE
:10475000FFF7D0FF0FB000BD3EB5DFF8D84B04F136
:104760002801204601F097F904F1600001F0DCFC1B
:10477000E06200230020019000904FF47A720FF65F
:104780004D31DFF8B45B04F13C0001F089FC0FF619
:10479000493001F029FD00214FF0804001F084FDF7
:1047A00060626A464FF6FF706082012100206061FE
:1047B00008208DF8000040F2044001F0D3FD4FF4D2
:1047C0007A630222294600F0C5F94FF47A63032286
:1047D000294600F0BFF90FF60830DFF8601BDFF85C
:1047E000605B009015230022102001F0C1FB44F60D
:1047F000C7400290012100208DF807108DF80600B7
:104800008DF8050002A901208DF804000091042311
:104810004FF4816200F0BEF80DF107000090012313
:104820004FF4806200F0B6F80DF10600009001230D
:1048300040F2024200F0AEF80DF1050000900123B5
:1048400040F2034200F0A6F801A80090012340F2D4
:10485000064200F09FF8DFF8EC5A2946102001F0DC
:1048600087FB00F03AF80246DFF8DC1A00F039F86E
:104870004FF0FF32DFF8D41A00F033F84FF0FF3278
:10488000DFF8CC1A00F02DF82946102001F070FB5B
:104890000422DFF8C01A00F024F804F16C0001F0E3
:1048A00047FD04F17002DFF8B01A00F01AF800F0CA
:1048B00014F80246DFF8A41A00F013F800F00DF81F
:1048C0000246DFF89C1A00F00CF8606A0FF6C42369
:1048D0000022002101F01BFD37BD2178502001F09E
:1048E0002DBB102001F044BB7FB5FFF735FFDFF88B
:1048F000745ADFF8406A22E0F06A01F036FC0400E6
:1049000004D000F09CF8204601F080F9F06AFFF72F
:10491000FDFE0028F0D039E00020F083B0837083E2
:1049200001207071308C011FADF80C1050203178CF
:1049300001F004FB009003AB328B00F02BF8B06A5F
:10494000DFF8242A4FF0FF330021FFF7D7FE0028BD
:104950000090F4D00021029102AA01A90DF10600F5
:1049600001F0D1F878B9BDF80600102802BF9DF813
:1049700004103078814204BF029800F00FF80298CA
:1049800008B101F0ABF800984100BFD40098C1070E
:10499000D5D5C1E72946102001F0EABA38B504465A
:1049A000207891280BD0B02805D0D02846D12046B9
:1049B000BDE83240D1E02046BDE8324048E3DFF8B0
:1049C00074596178686A0E2904D0102910D03E29E4
:1049D00014D031BDA18841F2054291422ED1A26886
:1049E0000FF6E03392F9031049420091002223E0D0
:1049F000BDE834400021082001F07CBEA2780C2ADA
:104A00001CD1E17841B101B0BDE830400FF6901300
:104A10000022032101F07BBC0FF6981300F06EF921
:104A2000E0790FF6A41301280CBF0FF6AC100FF6B7
:104A3000B01000900022686A00F0F4FB31BD2DE94F
:104A4000F041044682B02088DFF8E858012808D0F9
:104A500002280ED0042810D0082828D0102850D0C2
:104A600073E06068FFF79AFF6068BDE8F64101F007
:104A700035B8A178BDE8FC414AE1646862884FF628
:104A8000FF70824261D00123DFF8E01800F062F885
:104A900000285AD02188606801F029FB6288DFF87D
:104AA000D01802B0BDE8F041102001F061BA606892
:104AB000A2780178686A130008BF0FF6183315D082
:104AC000012A07D111B90FF61C330FE000910FF640
:104AD000243311E0022A04D1002931D10FF6283302
:104AE00004E0032A2CD121B90FF62C3300F000F991
:104AF00026E000910FF634330022022101F007FC7A
:104B00001EE06068B5F81880067801F094FE07464C
:104B1000DFF86018DFF85C08B7FBF1F100FB1177F4
:104B200036B100970022686A0FF6183300F07AFB5E
:104B3000009700234246DFF84018102001F018FAD1
:104B40006068BDE8F64101F061B8BDE8F38101237A
:104B500022463946102001F00BBA2DE9F041DFF86A
:104B6000D44782B00546606AA9780FF688060FF62A
:104B7000D0084FF0FF374FF6FE7259B1012941D0EE
:104B8000052952D006297CD0072900F0A3800D29E1
:104B900011D0A7E068892084E81C01F0F3FA0346ED
:104BA000606A0022012101F0B2FB606A0FF638034F
:104BB00000F09EF885E02969287B0844421E00E049
:104BC00001449142E5D211F8010B0028F9D00B788D
:104BD000022B18BF032BF3D1491C401EC0B2012881
:104BE00040F38280914280F07F800B78F02B07BFEA
:104BF0004C78FF2C891C801EF0D12979681DBDE8F6
:104C0000FC4112E30021E170002261780FF2F073A1
:104C10000091022101F07BFB607820B1606A0FF205
:104C2000F47300F06BF8A7704BE06978D9B90220F3
:104C300020716889208301202072E08B18B904F16B
:104C40003C0001F052FA606A0FF2D87300F050F89D
:104C5000281D01F097FA0346606A00F04FF8BDE89E
:104C6000FC41082154E0002121712283617100225E
:104C70000FF2BC73022101F04AFB687800F042F8A1
:104C80002EE0002020716071E083207222830420D6
:104C90006072A770A88800F02BFA606A0FF2AC73FC
:104CA00000F026F8A87900F02DF801F030FB606ADA
:104CB0000022042101F024FB606A0022062101F099
:104CC0001FFB606A334602B0BDE8F04100220521B7
:104CD00001F01DBBE9780FF28473009100220221DC
:104CE00001F015FBBDE8F381012800D1491C68E7FC
:104CF0000022022101F00BBB686A33460022032127
:104D000001F005BB00904346606A00220321704712
:104D10005FF000002DE9FF41DFF81856DFF85C7600
:104D20002A7995F809E0686A95F902C00B46E97896
:104D30005FEA0378BFA64FF0FF3458D5002A0FF280
:104D400048782DD1002940F073810CF10103AB703C
:104D500059B26A7891420ADBAC703346FFF7C8FF5C
:104D6000FFF7CAFF0FF28C630022052114E1491CF2
:104D7000009100220FF2F863022101F0C8FA95F9C0
:104D80000210B81C00EBC10001F0FCF90346686A90
:104D9000FFF7B4FF686A0FF2E46300F055F922E010
:104DA000022A47D1BEF1040F0CBF4FF0000E0EF1E6
:104DB000010E85F809E0697A042914D8DFE801F0CA
:104DC0000306090C0F000FF2D0630AE00FF2DC6358
:104DD00007E00FF2EC6304E00FF2FC6301E00FF276
:104DE000107300F031F9434600220621D4E0DB06BF
:104DF00020D5002A41D11CF1010F1CD1002919D165
:104E00000121E9700021697002210FF2F46301F0C1
:104E10007EFAFFF771FF00F00FF900F013F9686AEE
:104E200033460022062101F072FA002201210320FC
:104E300001F015FBFCE0B81C00EBCC06012028714A
:104E40003346781C002110F83C20002001F0D2FAF3
:104E5000686A0FF2BC63FFF74BFF304601F092F92E
:104E60000346686AFFF74AFF686A0022042101F0DE
:104E700047FA00206870AC70DAE0022AFCD12C8B73
:104E8000DFF8E874BEF1040FF6D8DFE80EF0034C4B
:104E90008995BF00E98B0029EED02A7A002AEBD150
:104EA000E87938B30023012212212046FFF732FCB3
:104EB000002802901DD0E88BADF804000121ADF868
:104EC00006100299A87908700020ADF80C00502057
:104ED000297801F033F8009001AB2A8BDFF8A01499
:104EE000102001F045F8C0B2A8B1122101A8FFF7C7
:104EF00015FC9DE0ADF804105020297801F01EF853
:104F0000009001AB2A8BDFF87C14102001F030F800
:104F1000C0B2002806D101202872E879401E8041E5
:104F2000C00FE87184E0204600F0FEF868BBFFF790
:104F30000EFE002826467BD0304600F0F5F804002F
:104F40004FF47A7704D0606801F0E1F8278017E029
:104F5000688A4FF6FF7188426AD1242000F055FE1E
:104F60000028686164D00021019100220092002392
:104F70000FF2853101F094F86E8205F110042F8252
:104F80003946606801F0B3F852E0204600F0B0F80E
:104F90000FF2885300220421686A01F0B8F947E053
:104FA0004FF41670009000234FF448724FF4C8710C
:104FB000204601F03FFA3BE0FFF7C9FD002837D05B
:104FC000A87A0FF2685302280CBF0020401CA87278
:104FD000A87A05EB80010A6B686A00920221002220
:104FE00001F095F9686A0022032101F089F9AA7A93
:104FF0002A440021107B02910190009000232A8B0B
:10500000DFF88413102000F0B3FF11E003202871B3
:10501000204601F0DFF9686A0FF22453FFF768FEBB
:10502000FFF76AFE00F008F800F00CF80020687244
:10503000BDE8FF8100000000686A334600220421B9
:1050400001F065B9686A33460022052101F05FB9B5
:1050500070B5B84D04462879022882B041D16678EF
:105060002179686A162E03D100910FF2E44330E0F3
:105070000B2908D001290CD1217A0A2916D1217BCC
:105080000FF2E04317E0E1680FF2E8430A7800927C
:1050900007E0132911D1A9790FF2F84300914A1CB6
:1050A000AA7100F0BEF8002028721AE0122913D16C
:1050B000217B0FF2D0430091F3E77E2903D1217ABF
:1050C0000FF2E04304E07F2906D121890FF2E44387
:1050D000009100F0A6F804E0687910B1204600F0D5
:1050E0002CF8217904F10800BDE87C40FFF716BBDD
:1050F00038B5044600F018F8A0B140688D4D01F0B5
:1051000006F8688AA0420BD1686930B1FAF7F6FF59
:10511000686900F07BFD002068614FF6FF706882CF
:10512000002032BD122032BD82494A8A824202D119
:1051300001F11000704700207047014610B57D4C0A
:105140006079012888B01CD10879032867D10FF253
:1051500004510FF260430988ADF808101720009041
:105160000022606A00F05EF802216171502021780F
:1051700000F0E4FE01900220228B8449009002ABF3
:105180002EE0022833D1087907282DD1088950B1A3
:10519000C8680278437802EB032262838278C07881
:1051A00002EB0022A28348781A2838D1608BB0B372
:1051B00003216171ADF804000221A08B8DF8081065
:1051C000ADF80600FF21F1208DF80A108DF80900D6
:1051D0005020217800F0B2FE228B6D49009001AB87
:1051E000102000F0C5FE1AE0012818D1DEE70328E0
:1051F00015D10A79092A10D1088970B1C8680FF24F
:1052000058430178407801EB0021E1830022606A75
:10521000022101F07CF8002020720020607108B0AB
:1052200010BD0022042101F072B82DE9F047414D74
:105230006C78A246BAF1080F804689461DDA00262E
:105240004E4F00E0761CF0B2A0420AD2B81CF6B273
:1052500000EBC6010622404601F0F2FA0028F1D127
:105260000BE0B81C0622414600EBCA00FDF76AFAC3
:10527000781C641C00F83A906C70BDE8F08780B52B
:1052800002460021012000F03FF8401E8041C00F7F
:1052900002BD38B50C461546012000F0B6FC30B111
:1052A000214605700246BDE8384008202CE031BD9B
:1052B00010B51C46012000F0A8FC30B10470024675
:1052C000BDE81040002110201EE010BD1948806A82
:1052D0000121FFF717BA000001460022022013E067
:1052E00053696D706C652043656E7472616C00006B
:1052F00000000000000000000E4901EBC00101F1B8
:10530000100200215FF0040070B504460D461646F9
:10531000082000F07AFC50B1048085704660024697
:10532000BDE87040034B996AD86A00F004BF70BDB5
:10533000E010002038030020BD840110F19000002F
:10534000B5F20000D5400100FD660100E1610100F9
:10535000C5630100E5650100696401005188011021
:1053600031810110995B0100010000C0B17F011083
:1053700025AB001040420F006D5D0100901400202D
:10538000B5670100B1670100F54E0100A1490100B8
:1053900081970000424C452043656E7472616C0039
:1053A000504859204368616E6765206661696C7575
:1053B000726500005048592055706461746520433F
:1053C0006F6D706C6574650043757272656E7420E4
:1053D0005048593A2025730031204D627073000007
:1053E00032204D6270730000496E697469616C69A6
:1053F0007A656400446973636F766572202D3E00A0
:105400004465766963657320466F756E6420256414
:10541000000000003C2D20546F2053656C656374C0
:1054200000000000436F6E6E6563746564000000E9
:10543000436F6E6E656374204661696C656400003D
:10544000526561736F6E3A2025640000446973638E
:105450006F6E6E6563746564000000005061726178
:105460006D205570646174653A2025640000000069
:10547000446576696365202564000000436F6E6EA5
:10548000656374202D3E00003C2D204E657874200D
:105490004F7074696F6E000047415454205265612B
:1054A000642F5772697465202D3E0000546F676742
:1054B0006C6520526561642052535349202D3E0093
:1054C000436F6E6E656374696F6E205570646174AE
:1054D00065202D3E0000000053657420504859207F
:1054E000507265666572656E6365202D3E00000032
:1054F000446973636F6E6E656374202D3E00000017
:10550000446973636F766572696E672E2E2E000094
:10551000436F6E6E656374696E6700005253534942
:105520002043616E63656C6C6564000050485920CF
:10553000707265666572656E63653A20257300005A
:10554000446973636F6E6E656374696E6700000013
:10555000415454205273702064726F7070656420DF
:105560002564000052656164204572726F722025C7
:105570006400000052656164207273703A202564F3
:10558000000000005772697465204572726F7220C6
:105590002564000057726974652073656E743A2043
:1055A0002564000046432056696F6C617465643A57
:1055B000202564004D54552053697A653A202564AE
:1055C0000000000052535349202D64423A202564C4
:1055D0000000000050616972696E67207374617227
:1055E0007465640050616972696E672073756363E6
:1055F0006573730050616972696E67206661696CDA
:105600003A20256400000000426F6E64696E6720D6
:105610007375636365737300426F6E6420736176A4
:10562000652073756363657373000000426F6E6479
:105630002073617665206661696C65643A20256433
:105640000000000050617373636F64653A20256445
:1056500000000000F0FF000053696D706C6520537E
:10566000766320466F756E6400000000DFF800F07E
:105670002DB40110DFF800F0CDAC0110DFF800F020
:105680002DC00110DFF800F0FDB1011020B108239A
:105690003C220021FFF72AB8704780B5FDF76EF96C
:1056A000ADF80000FAF7CAFCADF80200009802BDA0
:1056B00001B5BDF80200FAF7C5FCBDF80000BDE871
:1056C0000240FDF75FB938B5DFF88049207801283E
:1056D0002DD0DFF87C29DFF87C0992089200801A2F
:1056E000A061012121706261104602E0002340F8B0
:1056F000043BA3699D18A842F8D39B0802EB8301E1
:10570000002041F8040CE8201060A06980088000A7
:10571000EC38C2F8E80002F1E800A060002000F0D8
:1057200007F8E0606069A060A069001F206131BDDA
:10573000F8B500250026071D17F003001CBF391D12
:105740000F1AFFF7AAFFDFF8042901465160112F55
:1057500034BF9468D4682068002803D580F00040E6
:1057600000261AE0330014D02B68D4F800C063443C
:10577000BB422B6011D32C461846ECB1C01B042849
:1057800011D3E05147F0004020601069C71B17613A
:1057900011E0B842F1D201262546044420680028D1
:1057A000DAD1002408E0136920681B1A136120680D
:1057B00040F000402060241D00F079FA2046F2BD40
:1057C00010B50446FFF769FFDFF88018486054F809
:1057D000042C22F0004244F8042C0B69D2180A6110
:1057E000221F8B689A4238BF8A60BDE810405FE78D
:1057F0002DE9F041FFF751FFDFF85018CA68486003
:1058000000260027002400250AE00C460127164642
:1058100005E03B00F9D03368CB1833600C190A441B
:105820001168A846A54238BFA046002905D0F0D58A
:1058300081F0004100274546F1E7FFF739FF404678
:10584000BDE8F08110B50446DFF8000881692160E9
:1058500000696060FFF7CCFF09282CBF08380020E2
:10586000A06010BD80B5FFF72EFF4BF6BE2002BD35
:1058700008465DE70846A3E702B56846FFF7E2FF82
:1058800001BD0120704738B50446FFF706FF00222E
:105890000C23DFF8C4175343CD18A96C21B18C42F7
:1058A00006D0521C032AF3D3FFF702FF002032BDBB
:1058B000FFF7FEFE05F1480032BD70B50546FFF763
:1058C000ECFE044600210C22DFF88C074A438618C0
:1058D000B06C30B185420DD0491C0329F3D320466A
:1058E000F8E03065B5640021FFF7C0FEF06408B948
:1058F00000F0DEFF2046FFF7DBFE06F1480070BD3A
:1059000038B50446FFF7C9FE0025DFF84C270C2107
:105910006943515A21B18C4206D06D1C062DF6D335
:10592000FFF7C6FEFF2032BD04E310B50446208811
:10593000FFF7E6FFFF2802D14FF0FF3010BD0C212A
:10594000DFF8142748431044816811B96FF0010053
:1059500010BD2046BDE81040084702460FF21C70FB
:10596000104710B500200C21DFF8EC26002401FBC5
:1059700000F31344401C03289C641C65F7D30020EB
:10598000002301FB00F4401C13530628F9D3BDE8A3
:10599000104098E670B590B0FCF7F0FF05466846F9
:1059A000FFF774FE05204FF47A71069008910022EB
:1059B000DFF8A806DFF8A816049005916946DFF81D
:1059C000A406FFF757FE040006D0FFF766FE064662
:1059D0002046FFF772FF08B900F06AFF3046FFF774
:1059E00067FE2846FCF7CEFF10B070BD38B5044600
:1059F0000D46FFF752FE002145F80C1C226812B933
:105A0000256006E00A4652F80C1C0029FAD142F83B
:105A10000C5CBDE832404BE680B5FFF72FFEFFF788
:105A200032FF10B96FF0040002BD816809B902208D
:105A300002BD4068AFE006280ADA0C225043DFF8C6
:105A40001826105A00281CBF4FF6F872904202D157
:105A50004FF0FF30704708800020704730B5DFF806
:105A600008562A680C464FF47A71A1FB0001002306
:105A700000F022FF002399424FF0004201D89042EB
:105A800002D36FF0020030BD2060002030BD01461F
:105A900088684968084770B505460E46FFF7EEFD71
:105AA000FFF70BFF040009D0FFF7F7FD01460022C6
:105AB00000F0A4F820B1521C062AF9D300F0F8FE39
:105AC0004FF6F87018805C60002098602A7060685B
:105AD00030600846FFF7ECFD002070BD0C386FE623
:105AE00070B5044615461E460846FFF709FFFF2815
:105AF00002D14FF0FF3070BD014633462A462046A2
:105B0000BDE8704084E070B582B00546164600F0EE
:105B1000A1F8040010D128886946C0B2FFF78BFFB6
:105B200028B13068FFF7DAFF6FF0050076BDBDF8E9
:105B300000002880FFF770FF204676BD38B5054687
:105B4000FFF79CFDFFF79FFE044600F02DFF0028A5
:105B500018BF012800D014B96FF0040032BD65B938
:105B600000200090009B60684FF000420021FEF78B
:105B7000C5FD401E8041C00F32BD15F1010F08BFA9
:105B80004FF0FF30EDD069462846FFF767FF002849
:105B9000E8D032BD80B54FF00041FEF7B3FD0020E4
:105BA00002BD2DE9F84304460E4617469846FFF716
:105BB00065FDFFF782FE05006FF002091CD0FFF7BC
:105BC0006CFD0146002200F019F840B1844211D06A
:105BD000521C062AF7D300F06BFEBDE8F2831C804E
:105BE0005D609E603A706868C8F8000000F05FF879
:105BF0000020F2E700F05BF84846EEE70C23DFF800
:105C00005804534303441888704791E5D8E519E6D2
:105C10002DE9F8430D460446062DB8BF062C16465E
:105C200099466FF0020806DAFFF737FD00F005FA33
:105C300019B9FFF73DFD40460AE0FFF739FD00F0D6
:105C4000F2F9786840684FF00041FEF75BFD0020F4
:105C5000BDE8F2832DE9F04106460F469046FFF776
:105C60000DFDFFF710FE050008BF6FF004001CD00B
:105C7000FFF713FD0146A868002440B10446A4F1D3
:105C80000C000268AA6000220260FF22827200F00B
:105C90000EF80CB9022008E0A4F10C000179317073
:105CA00040793870C8F800400020BDE8F08108460F
:105CB000FEE482B001218DF800109DF8000000285C
:105CC000FBD100F0F5FD00BFFCF706BE10B5DFF814
:105CD000980302686FF00044A4FB020100234FF414
:105CE0007A7200F0E9FD002399424FF0004201D89A
:105CF000904200D3204610BD70B582B00C461546C8
:105D00001E466946FFF7AAFE30B9009833462A4678
:105D1000214600F002F8002076BD2DE9F0431D4633
:105D200089B02C6880460E4617462CBB0C20FFF726
:105D3000FFFC04006FF0030918D00823242200217F
:105D40006846FAF7CBF90020ADF8100005900694EC
:105D500000236A464146DFF81403FFF793FC2060F6
:105D600030B9FFF7A6FF2046FFF72AFD484617E0A7
:105D70006660A7602C600BE0DFF8F4623068804753
:105D800005462068FAF7AEF9A7602846716888478B
