:020000040000FA
:100000000044002015D4000001C9011001C90110ED
:1000100001C9011001C9011001C9011001C9011074
:1000200001C9011001C9011001C9011001C9011064
:1000300001C9011001C901103FC90110120001835B
:1000400001000143C5A70D63058D15B007010074BC
:10005000040020C5A70001611061081007430228B1
:1000600004438AFF00FF0140028460F8050823F979
:1000700015083009838800000200FF4488601820BA
:100080003369A43433010307F0012230750001F015
:10009000024302010400016002FF08808004120193
:1000A0000412FE6610034B58000061044004E15A3C
:1000B00000009DD57792067E100B7C020020E8C6DA
:1000C000000068B700008C0412A004F00222440370
:1000D0000020A1D380FE354004435053D0BABA0863
:1000E000F26600011315097E60072D4D4152323032
:1000F00031393A0123020A9017C77C34F20DFF9A76
:100100001A6C40876C0410240291D20000FC30016C
:10011000FF001413128C1C2104529404834C1050C1
:10012000499C10010100B018F206B01C12CC182135
:100130000452D40452DC044370CE2C212812F01057
:10014000210452F804439C0104211CAD000330013A
:10015000BFBD016220022005002004522804523055
:10016000045238045240045248048375BC451205B9
:100170000BE5FD43A00513127808210452800452B8
:10018000880452900452980452A00452A80452B019
:1001900004830000B07D02034003020000C0071C7E
:1001A000D00353C001100001D2011112FC482104F8
:1001B00043040604520C04521404521C0452240436
:1001C000F003CAB005002000016520F30D0101E62F
:1001D00010035F2C0000CF04431F2C28393C423E03
:1001E0000C122108ED07031E6BE804F00100030860
:1001F0001B55F30120D568F30134081420061800BC
:10020000A001A418140C1A23FF7F6033FFFF7402AF
:10021000FF83010001A10CD003FC05002000014375
:100220002C061420023401002004523C0412000168
:1002300010078C1900202C1300203004C20001C0CC
:100240000520010100006412185200011007080285
:100250000020480500200111D301000111182104DC
:1002600022000150026CDC0200015003B80400209F
:10027000030D1003958C0000DD04F3010100012043
:100280000278050020171200010002080200205227
:1002900000015200011200010002080000000300EA
:1002A000000000000000000000000000000000004E
:1002B000000000000000000000000000000000003E
:1002C000000000000000000000000000000000002E
:1002D000000000000000000000000000000000001E
:10100000B41200001810000015AB0110FDB3011060
:101010006DC00110FDAE011099B501100000000077
:10102000000000002D000000B01200003C10000085
:10103000B1C00110A9BF011067C0011069B801104B
:10104000000000000000000030000000B0120000AE
:1010500060100000BDC00110CDB30110D9BD01105A
:101060006DB301100000000000000000310000001E
:10107000000000006C0400200400000000000000DC
:101080000000000020000000E0CC00003000000064
:10109000281000008C040020040000000000000064
:1010A000000000000C0000003CD30000180000000D
:1010B0004C10000094040020040000000000000018
:1010C000000000002400000054D3000018000000BD
:1010D00000000000D4040020040000000000000014
:1010E000000000001000000070CD00002C00000087
:1010F00000100000F00400200400000000000000C8
:10110000000000002000000084CF00002400000048
:10111000FFFFFFFFF80400200400000000000000B3
:101120000000000028000000A8CF000024000000FC
:10113000FFFFFFFF2005002004000000000000006A
:1011400000000000140000006CD300001800000034
:10115000FFFFFFFF28050020040000000000000042
:1011600000000000580000000CCC0000340000001B
:10117000FFFFFFFF3005002004000000000000001A
:10118000000000001000000084D3000018000000E0
:10119000FFFFFFFF380500200400000000000000F2
:1011A000000000001C000000CCCF00002400000064
:1011B000FFFFFFFF400500200400000000000000CA
:1011C000000000003800000098CE00002800000059
:1011D000FFFFFFFFA8050020040000000000000042
:1011E000000000005400000034CA00003C00000071
:1011F000010000006CD500000100000000000E009E
:1012000000000F0032000000010000007404002004
:10121000000200000000000001C9011000000000F1
:101220000000000008000000000022009C040020D4
:101230000000000000000000080000000005002081
:101240000000000000000000080000000000000096
:10125000000000000000000000000000010000008D
:10126000480500200600000001000000B005002035
:10127000000000000000000000020000000000006C
:10128000290001002500300031002D00010001007F
:10129000040000007CD400000000000000000000FA
:1012A000000001000000030013C40110F18C0000D5
:1012B000B8120000B812000000000000E404002092
:1012C000918B0000200000002CD40000C0CE000054
:1012D00029C10110978A00008B930000A1C701105B
:1012E000A3C7011000000000DEA50000F8C8000040
:1012F00010C90000E0C80000020009000100000061
:101300000100000065CE000039CE000039D2000097
:1013100079CC0000ADCC000029C9000041C200001A
:10132000B5D30000098B0000298D00002D8D000031
:1013300038B5054601F0DCF82C680CB1216829604D
:1013400001F0E6F8204632BD70B505460E462C6821
:10135000002030601CB901F0CBF82E600DE001F0E8
:10136000C7F800E0246821680029FBD1B44203D10A
:1013700001F0CEF8002070BD266001F0C9F8012010
:1013800070BD10B501460022DFF8500B00EB421093
:10139000C37F1C0603D5B0F91C308B4203D0521C0E
:1013A000082AF1DB002010BD38B504281DD1DFF874
:1013B000CC4A04F1EC05284601F0F2F8A8B1284621
:1013C00001F0ECF8DFF8B81A0A68504364280CD230
:1013D000284601F0F3F8052001F02AFA0120E07711
:1013E000042104F14C0001F03FFD002032BD70B536
:1013F000044601F07DF8DFF88C1A0546887D00B3BD
:10140000401E8875C0B2E0B9DFF8706A082100F0AC
:10141000F4F8B4B1B06B703001F0D0F8B06BDFF815
:10142000601AC0680A68241AB4FBF2F1012906F1B7
:10143000EC0498BF0121204601F0BCF8204601F0E1
:10144000BBF82846BDE8704001F062B810B504460C
:10145000207B00F00F0002280FD100F018FDA168DA
:10146000081ADFF8181A8A6BD168800801F57A71BA
:10147000814238BFB0F1405F00D3002010BD38B5C5
:10148000DFF85C1ADFF85C0A0C68DFF8F0590440FA
:10149000E0430860A00606D54868810603D54FF4EE
:1014A000005100F0E6FD14F4602F09D0286904F41F
:1014B000602404432C6105F19C00BDE834403AE00F
:1014C00031BD70B501F014F8DFF8B0590446286951
:1014D00010F4602F25D02E69F601360EF00748BFB4
:1014E000002606D4B00748BF012602D4700748BFC3
:1014F0000226701D40B200F051FF2969012206F159
:10150000110082409143296100F0BEFC05EB86008A
:10151000446844B1286800224FF00063711DA04761
:1015200001E000F0B1FC286920B105F19C00BDE8A4
:10153000704000E070BD002101F096BC70B501F074
:1015400099FCDFF83869DFF8E05B8107B16A1DD4E8
:10155000D1E90423104007D0F1628A691043886101
:101560004FF4804100F049F8B06A002844D1746A11
:10157000002C41D0E068B16B884222D006F14C00CB
:10158000BDE870404FF4805101F06EBC09B9B16AFA
:10159000EAE70022B262D1E904238C69104040F0EE
:1015A000020020438861686990436861E868984355
:1015B000E86006F13000FFF7C7FE022100F01DF8D9
:1015C000E5E7A068FFF742FFB06408B1B06CD1E076
:1015D000D4E904016A6902436A610020EA680A43A7
:1015E000EA60E861A0682860E8690028FCD006F19C
:1015F0002400FFF79DFEB46270BD06F14C0001F0BF
:1016000033BC0020F3E6F8B5074614463E6E1D468F
:1016100006B1B047A00708D4D7E9160120402940F9
:101620000022914208BF904207D0C7E91A4507F14E
:101630003800BDE8F24001F0F8BCF1BD704780B55C
:1016400001F010FCDFF834280146906BD26BBDE846
:10165000084010470421DFF8D40A01F005BC80B52A
:1016600001F008FCDFF8C81A084204D0BDE80440C5
:101670004FF00051EFE701BD70B504005AD0A168EA
:10168000202000291CBFC2B2002A59D00A8840F687
:1016900003039A421FBF40F604039A424968401E62
:1016A000EFD148E000224FF08043B4F91C10E0680D
:1016B0006568A84700F01CFFDFF8C0570646E88EB3
:1016C000401CC0F30B00E8860020296BC87705F1A9
:1016D0003000FFF72DFE304600F01AFFB5F9360056
:1016E000E26802F19403B3F90010884202BFDFF808
:1016F0009407017D00291DD1987808B9106810B9A8
:101700000020987036E0A96B0B6813F1010F11D01F
:10171000DFF86C572968B0FBF1F1012998BF01216E
:1017200002F1700000F046FFE068BDE870407030E4
:1017300000F042BF70BDE0681822203001F0C4FC08
:10174000A2690020A06160680028B3D0E07F002378
:1017500000F00700012842F0020207D00228A1D0C1
:10176000042804BF00224FF080539EE700224FF070
:1017700000539AE7BDE8704039E638B50D46A80732
:10178000DFF8F84619D5206BFFF776FF206B25F0C0
:10179000020510B145F0020109E0680702D4606A51
:1017A000002854D004F1EC0000F008FF042104F1FB
:1017B0004C00BDE8344001F057BB680747D5012015
:1017C00084F82000042001F033F8DFF8680901688C
:1017D0000A6B90472064606A08B1C068A063A06B80
:1017E0004168DFF854090A780260022001F020F80D
:1017F000112001F032F80120E076A06B017C002975
:1018000019BF607E00280E2001F027F8A06BDFF8DA
:10181000182940688168002904BFC068002804D0E6
:101820000021D161DFF84C0A106040F2FF70DFF850
:10183000481A086000219161DFF8F40850610FF246
:101840001100E0631920BDE8324000F053BE31BD05
:101850002DE9F0430446880085B040F19380DFF81D
:101860001C56A86B4068406800B18047A86BDFF841
:10187000B88842689068002804BFD16800290DD05C
:1018800000F0A7F8906800B18047A86B4068C06876
:1018900000B18047DFF86C0A01F0EFFA0020C8F8C9
:1018A0001C0040F60A09DFF8600ADFF8D875C8F8AE
:1018B0000000012001F01BFB0FF28110E863002102
:1018C00000207880A7F8009000F00CFA787B00F0F8
:1018D00003FAA26816467180697E09B1607CA0B1E6
:1018E000108840F60201884218BFB0F5C15F05D1EB
:1018F000318A4FF60F400140318204E0318B4FF6C0
:101900000F4001403183002060746946104601F0A9
:10191000DBFA684601F0E6FA7068B0B30188494521
:1019200018BF0646F8D130E0208C00283FD00021B7
:101930006184616204F12C004278017802F0F002C7
:1019400001F0F00142F001020170427004F1200048
:101950007860787B00F0F000787328E0DFF8801A78
:101960000A68136801209847012808D0707B00F0AE
:10197000F00040F0010070730FF26900E863A068A6
:10198000C8F8000005B0BDE8F083776040F60301B9
:10199000707B00F0F0007073686A8068008888428D
:1019A0001CBF40F604018842BED10020286400F02C
:1019B00010F84FF6FF30A1680A8A02400A82E87FD9
:1019C0000028CBD001F0CEF80028FBD001F0DBF8E6
:1019D000D5E7D8F81C000028FBD00021C8F81C105F
:1019E00070470000DFF8FC29114200D17047DFF892
:1019F000F019012010B50A68DFF880441368984791
:101A0000012808D10FF23500DFF81C17E063DFF87A
:101A10007404086010BDDFF8682410683221B1FB3F
:101A2000F0F1012998BF0121EC34204600F0C2FDFD
:101A30002046BDE8104000F0BFBD00002DE9FE4F7C
:101A400006460C466004DFF8345419D500F050FD0A
:101A5000EE6AB769B9070ED46EB10021B16100F02A
:101A600057FD706848B1B6F91C10F06876683A46C0
:101A70000023B04701E000F04BFD24F4804425E151
:101A8000A0070AD5286BFFF7F7FD286B002824F084
:101A9000020401D044F0020418E1A00005F180081E
:101AA00040F60909DFF8DC73DFF888B676D595F8DB
:101AB000200028B1042000F056FE002085F8200008
:101AC00040F60202B0680188914218BFB1F5C15FCB
:101AD00005D1028A2D2161F30912028204E0028BF2
:101AE0002D2161F309120283286CD8B1DBF8541060
:101AF0000A6804209047A8B1DBF80000016B884712
:101B0000296C814228BF401E401A718A11EB1030A7
:101B1000F06040F2D171A0F5FA70884224BF40F61F
:101B2000C410F060787B10F00F0F04BF708C484534
:101B300008D1D6F818C000224FF000736FF48071FE
:101B40003046E0470022DFF8A818404600F0D6FCF7
:101B5000A87E50B10221ADF80010684601F08DF961
:101B6000BDF80800A8820020A87601202876002170
:101B7000B87D401CB875E976686A18B1192000F084
:101B8000BBFC01E044F002043046766900224FF0CD
:101B900080630021B04724F0005497E0A87F24F030
:101BA000080A20B1210703D50020A8777BE0200791
:101BB0007BD5E87F20B10021E977052000F0D3FD37
:101BC0000020287601202877002001F090F90022DB
:101BD000DFF82018404600F091FC697E09B1A87E2C
:101BE00010B10121697612E0A86C002834D0DBF82E
:101BF0000010086B8047296C6A6C401A02EB1032A7
:101C00006A64A86CC001904226D200216964DFF8A2
:101C1000E80701680A061FD5787BA7F8009000F056
:101C20005BF800210020788000F05CF800F060FC98
:101C3000DFF8F4144A6922F002024A616FF00202EE
:101C40000A610F600B699C07FCD50A614A6942F082
:101C500002024A6100F05CFC0020286401F01AF9DD
:101C6000DFF8141600200860022000F07CFD11202F
:101C700000F08FFD307C10B90E2000F08AFD0020AE
:101C8000A883787D18B906F1380001F0CEF9DFF8A5
:101C90006C07E863F87D30B10021F97505F14C005F
:101CA000042101F0E1F8544610E0A0040ED5AE6A1C
:101CB000002E1CBF7068002806D0B6F91C10F06812
:101CC000766800222023B04724F4005414B1214642
:101CD00000F0CFF9BDE8F78F00F0F00040F0010010
:101CE000787370477960387B00F0F0003873704784
:101CF00030B585B000F0A4FCDFF80407DFF8044736
:101D000001685E4D41F002010160684601F07FF814
:101D1000A078DFF8F41602906A4605F14C0001F055
:101D20007EF8684600F0ECFB2178DFF8C8260191C8
:101D300000208DF808006B46192105F1800000F0A5
:101D4000B4FB684601F063F8E078DFF8C016029053
:101D50006A4605F19C0001F062F8684600F0D0FB8D
:101D600001208DF808006B466078DFF8A42601900A
:101D70001A2105F1D00000F098FB00230022DFF8C3
:101D8000941605F1EC0000F0E8FBDFF87006DFF8D0
:101D90008826E8630023042105F5887000F0D1FC53
:101DA0004FF6FF70A88205B00120A8760020E875E4
:101DB0006876E876E861286485F8200030BDF0B5E3
:101DC00000298BB0064615461C4653D0DFF84C065A
:101DD00000680A78D040C0074CD5002D716049D00A
:101DE0000021284601F084F8B56000F081FB254F02
:101DF0000546787D00283BD1FFF77AFF787D401CAF
:101E0000787500F0A0FA34B903A80FF24C611C22D7
:101E100001F05AF903AC2068DFF8041630600A4676
:101E20006068F060207C307401207074608A708279
:101E3000E06800B10146B161A06800B1024672617C
:101E4000782106F1200001F0A7F9002106F1380001
:101E500001F0B5F8684600F0AAFB02966B46002236
:101E6000DFF8C01506F1700000F077FB304602E0A5
:101E700000F069FA00200BB0F0BD00005013002004
:101E8000A415002074140020204600F041BBD0B5FA
:101E900000F02EFBDFF89025117E31B1DFF88C25A4
:101EA000146800F035FB2046D0BD00F031FBA1489E
:101EB000DFF87C4501680A6B904710F50032DFF8C7
:101EC000740541F100030169A4FB0267002004FBD3
:101ED0000377321847EB01031846D0BDC009002034
:101EE0000810044020000E002DE9F84F04460E466D
:101EF00092469B46DFF8305500F0FAFAB5F93410F7
:101F00008046B5F93600091AC1F30B0108296FF0B4
:101F1000010949DAA88EDFF82015401CC0F30B0038
:101F2000A886B5F93400ADF800000020420101F1A7
:101F30001F039B5C1F0640F18C80401CC0B2082828
:101F4000F4DB002704F1700000F038FBBE6087F876
:101F50001EA0C7F804B02021BDF80000B883FC60C3
:101F6000DDE90AABDFF8D4040AEA00000BEA01015C
:101F7000C7E9040194340020F87740F6FF76686AD8
:101F80000028394605F1240006D0FFF7DDF930B10D
:101F900000F061F840464FE0FFF7D6F940B9A88E4F
:101FA0003618C6F30B06AE8600F01EFA48464EE021
:101FB00000F051F8697FDFF87C4400291CBF287EBF
:101FC000002807D0002001216877A876A977A07D96
:101FD000401CA07500F008FAA96A002935D1287EB6
:101FE00018B1192000F088FA2FE0E87E68BB00F0F5
:101FF0007FFA0646287F10B10121E1751BE0B86821
:10200000FFF724FAA864D0B1A86BDFF83414C068D5
:102010000968AA6C121AB2FBF1F2012A83BFAA6CFA
:10202000101AB0FBF1F10121EC35284600F0C2FA9C
:10203000284600F0C1FA304600F06AFA05E0304662
:1020400000F066FA042100F014F8BDF90000BDE8C4
:10205000F28F8F1876E7BDF800002080F87F40F0FF
:102060008000F877A078012802D10021A170A9761C
:10207000704705F14C0000F0F7BE2DE9F041054630
:102080000C4616461F4600F0EBFE80462046FFF742
:1020900078F9040003D1404600F0EAFE0AE0E07F50
:1020A00010F0070F09D0404600F0E2FEE07F10F08C
:1020B000070FFBD10220002112E06168DFF88403E2
:1020C000814202D0616829666060C5E916674046B2
:1020D00000F0CEFE00F006F800202866D5E91A01CF
:1020E000BDE8F0814FF0FF3105F1380000F094BFFA
:1020F000DCB5DDE906670446CDE90067180008BFD6
:10210000DFF840332046FFF7EFFE002803D500201C
:102110004FF00041DCBD0146204602B0BDE8D04092
:1021200002224FF0E043A8E7001004409C13002077
:10213000020000408C010010D021084001E042F074
:1021400002022DE9F843DFF8E052686A00900F467A
:102150000326144600F0CCF917F1010F04F0010832
:10216000814609D1A86A002819BFA96AB1F91C7073
:10217000EF8E7F1C0020E87538B2FFF702F90100EE
:1021800069D0A86A814204F0020426D11CB1686AB1
:10219000009000226A620122C87F02FA08F210430E
:1021A000C87700F05DFE0646B8F1000F14BFDFF8F7
:1021B0009802DFF8980200F060FE00F06BF824B996
:1021C00006E000F05BF800F060F800980028F8D115
:1021D000304600F04DFE83263FE00098884205F12E
:1021E000EC0316D1184600F0E9F9002C12BF0020CC
:1021F000686A0068686200F04DF8009800F03EF8E8
:1022000000F043F8009820B3002CF6D121E01268CA
:102210000092009820B3024610688842F7D1184611
:1022200000F0CCF9009800681CB1009A0021116000
:1022300004E00168009A116000220260009003E04F
:1022400000F01CF800F021F800980028F8D100F008
:1022500021F8832606E000F01DF83046BDE8F28341
:1022600000F018F8E87E0028F7D10221FFF701FFFF
:10227000F3E700005100070600000460C17F41F051
:102280000401C1776846FFF753B8014605F13000F5
:10229000FFF75AB8484600F03BB90FF2BC111C22B8
:1022A00000F012BF38B5044600F022F9DFF87811CB
:1022B0000546087E68B1204600F0DFFD044600F0C8
:1022C00042F804F0FF04012C01D1812032BD02202C
:1022D00032BD00F038F8012032BD0A46DFF848115F
:1022E0008B6B984201D00320704707E00A46DFF865
:1022F00038118B6B984201D00320704700211046A3
:10230000D0E700000100070601010E0470B5DFF8F8
:1023100018118A6B90426FF07F0412D1087E80B151
:1023200000F0E6F80546DFF8280100F0A6FD0646B5
:1023300000F009F806F0FF00012802D1360230163D
:1023400070BD204670BD284600F0E2B870B50E465C
:10235000154600F0CDF88324334A1EB1022E0ED06C
:1023600006D30FE0916A41B1926A918B29800AE00D
:10237000917E11B9928A2A8005E0802403E0117EC3
:10238000297000E0032400F0C3F8204670BD80B53A
:102390000846FEF7F6FF00B1806802BD38B5044676
:1023A00000F0A6F8204AD17D4B0702D5937D9C42D0
:1023B00012D00123958A03FA04F10D432549958231
:1023C0000C340A6803FA04F422EA04040C60096875
:1023D00011B9184B00221A75BDE8324000F098B8C8
:1023E000E001001004000020404600F091B8000019
:1023F0003D1500005F160000000004407B17000040
:10240000002009401CBC00003F160000C31400005F
:102410007F14000055160000A9130000D4210840C5
:102420003D16000003160000501300200430044045
:1024300000093D0074140020C0090020F1EFFF9F47
:10244000A415002007160000010002040100010489
:10245000010003040C100440FFFFFFFFC40900004B
:10246000000000000000000001001A010000000050
:1024700000000000DFF800F085BF0110DFF800F079
:1024800061C00110DFF800F079BF0110DFF800F043
:10249000A9C00110DFF800F089AF011020B10823B6
:1024A00030220021FFF7EEBF7047F0B51C008DB061
:1024B00005460E46174603D1002300F093FE0CE0BC
:1024C0006846FFF7EBFF206805906B466068089050
:1024D0003A4600F005F800F085FE28460DB0F0BD44
:1024E000207AADF81800314628467047FFF7CEBF76
:1024F000FFF7C0BFFFF7CEBF00F094BE00F09CBE58
:10250000002101604FF0FF314160012101727047ED
:10251000FFF7B4BFDFF800F0C1BF0110DFF800F033
:10252000B9BA0110DFF800F0E5C00110DFF800F0E3
:102530001FBE0110DFF800F069B20110DFF800F0F3
:10254000DDC00110DFF800F091BE011020B10823BA
:1025500024220021FFF7DEBF7047F0B51C0089B0D0
:1025600005460E46174603D10023FFF7E3FF0AE0B6
:102570006846FFF7EBFFA06806906B463A46314687
:102580002846FFF7D7FF0E480E4A0168116028461B
:1025900009B0F0BDFFF7D2BFFFF7D4BF00F054BEC3
:1025A00080B500F068FE00B10120C0B202BD00217C
:1025B00081607047FFF7B6BFFFF7B8BFFFF7AEBF48
:1025C00068D50000A415002070B5DFF8584782B028
:1025D0000120009009232568DFF84C076E684FF44E
:1025E00000720021B04773BD70B5DFF83847DFF8DF
:1025F00038072568EE68002301223421B04700B176
:102600000120C0B270BDDFF8240780687047024621
:102610000020022904D1012A06D140F2EE207047A1
:10262000012A08BF4FF47A707047DFF8001791F85D
:10263000E60020B1D1F81001002818BF004770470C
:102640002DE9FF41DFF8E48608F1E105A8790028CB
:1026500073D1DFF8DC16DFF8DC660A689209012026
:1026600002F00102A871EA71307BDFF8CC76687164
:102670007068C8F8100101A8FFF799FF00210291C6
:102680008DF80410039101AB00220FF2295108F1DB
:102690000C00FFF762FF01AB00220FF2D55108F1E9
:1026A0003000FFF75AFF01AB00220FF20D5108F185
:1026B0005400FFF752FFB16801208847DFF87C061D
:1026C00001787868C0F38154707B20B1032C02D16B
:1026D0000121297003E0032C18BF022C16D102201F
:1026E00000F0A6F8DFF858160A68032C0CBF4FF468
:1026F0007A7042F21070B0FBF2F108F15400FFF76B
:1027000059FF08F15400FFF757FF10E0012C0ED1DC
:10271000DFF81046032000901C232568DFF8080628
:102720006E684FF040520021B047FFF74DFF386808
:1027300040075CBF002000F07BF8002004B0BDE83B
:10274000F08138B5002408B1150002D16FF0020401
:1027500007E08160C26003610146DFF8D00500F048
:1027600096FD204632BD10B50446FFF7C1FEDFF8E6
:10277000BC150A1992F8E9305B1E82F8E930DBB229
:1027800033B98A68012303FA04F422EA04048C6052
:102790005FE0F8B50546FFF7ABFE0446DFF88C15A1
:1027A000481990F8EF20521E80F8EF20D2B27ABB81
:1027B0000FF2D850DFF88C7500EB850210F8255029
:1027C0005688280615D539680A6A304690473A680F
:1027D000916A3046884739680A6B30469047DFF87F
:1027E000681501200860DFF8641508688007FCD5CB
:1027F00007E0680611D501EB86010020D1F804211D
:10280000904705F03F053F2D1CBF2846FFF7C1FF4D
:102810002046FFF77DFE0020F2BD39688A69304608
:1028200090473A68516B304688470228F9D1E8E76B
:1028300010B50446FFF75CFEDFF8F0148A68012348
:10284000A3401A438A60214491F8E920521C81F880
:10285000E920FFF75DFE002010BD2DE9F04107469D
:10286000FFF746FE0546DFF8C464F01990F8EF1054
:102870004A1C80F8EF2049BB0FF2105818F82700C7
:1028800000F03F003F2818BFFFF7E7FF08EB870085
:10289000448818F82700DFF8AC7401060ED53968B3
:1028A000CA69204690473A68516A20468847396885
:1028B000CA6A2046904700F01AF807E040060BD598
:1028C00006EB84010120D1F8042190472846FFF748
:1028D0001FFE0020BDE8F08139684A692046904714
:1028E0003A68516B204688470128F9D1EEE7DFF8B6
:1028F000581401200860DFF8541408688007FCD5DC
:1029000070472DE9F84F0746DFF82404DFF84454F8
:102910000168002600244A06A0460DD5287B58B938
:10292000DFF83404DFF8341402680A4042F08172A0
:102930000260202000F075F9012F18BF6FF0010927
:1029400057D12868012852D10221296000F047FDA3
:10295000012000F066F95FEA00094BD100F080FA2F
:10296000DFF8FC13DFF8DC7300900C600120B96A1B
:102970000A689047012803D1002000F0A8F901243B
:10298000DFF8E013DFF8C8A3DFF8DC230E60DAF825
:102990000010907808B14FF00108517809B148F063
:1029A0000208107808B148F00408A87F20B13968FF
:1029B0000A6B4FF480609047687F20B139680A6BDA
:1029C0004FF481609047DFF880130120086048F0E1
:1029D000200039688A699047DFF890130120086069
:1029E000DFF84813087AC10709D501261FE06FF008
:1029F00004097DE00120286000F0FCFC78E0396AE1
:102A0000DFF86C038A6890478346BBF1040FF6D069
:102A1000BBF1010F05D13A6ADFF854035368032173
:102A20009847DFF850030168890889000160002099
:102A300000F004FDDAF800003868816B884776B949
:102A4000BBF1010F05D13A6ADFF824035368012175
:102A50009847DFF82003016841F00301016001207D
:102A6000DFF800130860404639684A699047A87F3C
:102A700020B13968CA6A4FF480609047687F20B1FE
:102A80003968CA6A4FF481609047AF49B74A01205C
:102A9000086000211160032028603A68516B4046AD
:102AA00088470128F9D1DAF80000042000F0B9F8CD
:102AB0000646AB4901200860DAF800109C49086816
:102AC0008006FCD514B1012000F001F900F006FEEB
:102AD000082000F0A6F8064301202860009800F0C6
:102AE000C7F900F080FD00F085FC0EB14FF0FF3912
:102AF0004846BDE8F28F38B50446FFF7F9FC0546B5
:102B000021468A4800F0D7FB2846BDE83240FFF74F
:102B1000FFBC3EB50024012804D020D303281CD0DC
:102B200017D31CE06846FFF742FD804D924901949F
:102B30008DF8004002946B46012205F17800FFF702
:102B40000CFD00238D4A2C2105F19C00FFF7ADFC04
:102B500005E000F0DFFD044601E000F09FFE2046A6
:102B60003EBD000038B5FFF7C3FC7049054691F83B
:102B7000E000012410B1FFF737FD04462846FFF7B7
:102B8000C7FC204632BD70B5FFF7B2FC044601F029
:102B900014F86649002081F8E00066488568022044
:102BA000A8470646102000F03CF8012E04BF032081
:102BB000A84787E07047000038B55A4CE16B0A68B7
:102BC00004209047022818BF03280FD1032000904B
:102BD0001C232468544865684FF040520021A847E0
:102BE000FFF7F2FCBDE832400220BCE564485449DE
:102BF00000680A684D4CC0F3815003280CBF4FF4A5
:102C00007A7041F28830B0FBF2F104F15400FFF722
:102C1000D1FC04F15400BDE83240FFF7CDBC0020E8
:102C2000704738B50546414C204600F026FB88B970
:102C3000204600F028FB0446A068284205D02269FF
:102C4000E36800212846984730B9204600F01DFB74
:102C50000400F1D1002032BD4FF0FF3032BD4949B0
:102C600001280CBF40F2FF70002008600020704770
:102C700070B5FFF73DFC2D4E2E4D044696F8E00052
:102C800028B100F09AFF70B1002086F8E000022021
:102C9000AD68A84706461020FFF7C3FF012E11D1EB
:102CA0000320A8470EE026490A683220B0FBF2F163
:102CB00001B9012106F13000FFF77CFC06F130007C
:102CC000FFF77AFC2046BDE87040FFF721BC38B51D
:102CD000012823D12C490A681368984701281DD080
:102CE00000F05EFF114D012085F8E000287A810692
:102CF00016D4134802683221B1FBF2F404B901245E
:102D000005F13000FFF75AFC214605F13000FFF7CE
:102D100051FC05F13000FFF74FFC01E000F073FFBC
:102D2000002032BDA401001000A00C40300600209D
:102D300014100940C8BB0000B03F00509A19002091
:102D4000A4150020B80100102820086028200840A1
:102D50002C2009400C07002004000940FFFFFCFC68
:102D60000C400940000222432E070020800104434A
:102D70000040034024220840E53900007937000074
:102D8000B43F005000000460E00100108F0000001C
:102D90008F0001008F0002008F00030090000001EF
:102DA0008F00010190000002900000038F000104D9
:102DB0008F0000058F0008048F0000048A000006C1
:102DC000510000007F0001003F0004003F000200AE
:102DD0003F0001007F000200DFF800F011BF01108A
:102DE000DFF800F011B00110DFF800F015C001109D
:102DF000DFF800F015C10110DFF800F005B3011095
:102E000020B1082328220021FFF7EEBF70470021E0
:102E100001604160C1604FF0FF318160704770B563
:102E200014008AB005460E4603D1002200F036FF9A
:102E30000CE06846FFF7E4FF206804906A4660688B
:102E40000590314600F004F800F028FF0AB070BD8C
:102E5000E0680790A068069028467047FFF7C8BF53
:102E6000FFF7BABF00F026BF00F02ABFFFF7B8BFD8
:102E7000FFF7C2BF3849086867E0384A116800297F
:102E8000FCD10023D3611060D0690028FCD0D1614F
:102E9000506870473248016821F0020141F4007126
:102EA000016003212F48816041F23001416101211D
:102EB000C160502141610121C1604FF4CA6141618B
:102EC0000121C16001607047274802680A6082687A
:102ED0004A60C2688A60406B20F0784040F08050C1
:102EE000C860704701461022204800F0DDB87047E6
:102EF000FEB50188B1F5C15F18D142691C4F00923F
:102F0000002382690192C06902901A480268C2F3E4
:102F100003625DF8230098B1002550F82560BE4299
:102F200006D06D1CEDB2042DF7DD09E00120FEBDD9
:102F3000042D05DC26F4702444EA024440F82540C0
:102F40005B1C032BE5DB0020FEBDC2430A600A6860
:102F50000242FAD1704700001010044000100440F3
:102F600000000460004104404C1300501800002190
:102F70000200F84454130050DFF800F009C00110BB
:102F8000DFF800F0D1B20110DFF800F0059B01106E
:102F9000DFF800F0E1A30110DFF800F05DB40110EC
:102FA000DFF800F009C10110DFF800F00DC10110D9
:102FB00020B1082324220021FFF7DEBF704730B57F
:102FC00089B004460D4600F00BF801218DF8181069
:102FD0006A4629462046FFF7DFFF204609B030BD8C
:102FE0006846E5E710B58AB00446FFF7F9FF01210E
:102FF0008DF818102046034A6946FFF7C1FF0AB052
:1030000010BD00004C04002080B500906846FFF71A
:10301000C7FF01BDFFF7C8BF80B5FFF7B5FF10B907
:103020006FF0010002BD002002BDFFF7B1BFF0B498
:103030000246106895681318506803EB5004C007E7
:1030400021D54D441FE0F0BC02F10C00704713F88D
:10305000017B05F8017B491EF9D1A0B1B60813F830
:10306000011B06F00306032E08BF13F8016B01EBEA
:1030700006214942801C294405D011F8016B05F84E
:10308000016B401EF9D1A342DDD013F8016B16F09D
:10309000030104BF13F8011BC91C30090F28DAD142
:1030A00013F8010B0F30D6E762B38B0708D0521E1E
:1030B00011F8013B00F8013B00F024808B07F6D1AA
:1030C000830740F0208000BF103A07D330B4B1E846
:1030D0003810103AA0E83810F9D230BC530724BF9A
:1030E000B1E80810A0E8081044BF51F8043B40F8CC
:1030F000043BD20724BF31F8022B20F8022B44BF37
:103100000B7803707047121F17D35B0009D151F879
:10311000043B20F8023B1B0C121F20F8023BF6D2A6
:103120000BE051F8043B00F8013B1B0A20F8023B7E
:103130001B0C121F00F8013BF3D238BF121D521EA8
:1031400024BF11F8013B00F8013BF8D87047026832
:10315000920841EA82028B0822F0040203F0010384
:1031600042EA8302CB0822F0080203F0010342EA9C
:10317000C3020B0922F0100203F0010342EA03121A
:103180004B0922F0E00203F0010342EA43128909ED
:1031900042EA811202607047002200F0ADBD024693
:1031A00081B01078022903D1517800EB012013E09F
:1031B000032906D15178927800EB012000EB024000
:1031C0000AE0042908D15178937800EB0120D178E6
:1031D00000EB034000EB016001B07047DFF800F046
:1031E000BDAA0110F8B504460B480C4F0668F869F3
:1031F0000D4650F82500B04209D1094800902046FC
:10320000FFF7ECFFF86950F82500B04201D100202B
:10321000F2BD2046F2BD00BF18120000440100209C
:103220004C040020102803D302491038C1F8000FC5
:10323000704700BF00E000E081604260704700001E
:10324000DFF800F09DB2011070B5044600F06EFD8D
:103250000646A08A0025012808D1FFF7F1FF0546A0
:10326000E068451BA068A84238BF0025304600F042
:103270005EFD284670BD808A7047006808B901204D
:10328000704700207047006870470068704738B585
:1032900004460D46FFF72CF900212960616869603A
:1032A0006168002914BF0D6025606560FFE7BDE817
:1032B0003240FFF72DB90A684B68002A0CBF436003
:1032C00053604A6809680AB9016070471160704725
:1032D00010B501688A089300CC0801F0030003F0E0
:1032E0000403E20018430B0902F008021C0110431A
:1032F0004A0904F010045301204303F0200318434B
:10330000890940EA8110C0B210BD0000DFF800F06A
:1033100031BF0110DFF800F0F5B7011030BF704782
:10332000FCE738B500F0D6F900F087F9FFF76BF944
:10333000044604F00C000C284BD0600721D400F0A8
:1033400029FD054601210120FFF761F92F49096890
:1033500001FB05F2904214D2F020B0FBF1F02C4CAE
:10336000291A04F10C00FFF7DDF804F10C00FFF757
:10337000DDF80120FFF7C5FA04F10C00FFF7CEF8E5
:1033800029E0200725D4234D2348296A8A689047DD
:103390000428F8D0E206214900D420B9086840F09A
:1033A0000100086003E00A68520852000A601C48E5
:1033B0001C4C016841F00301016020202A689169DA
:1033C000884720682868816B884701212160206830
:1033D00001E0FFF7A5FFBDE8314000F07FB910B56F
:1033E000114CFFF793FF20601048006808B1804738
:1033F000606010BD10B50E480B4C016809B16068E3
:1034000088472068BDE81040FFF784BF68D50000FA
:1034100030060020B8010010004003408C21084015
:10342000242208402C2009409C15002044D500008F
:1034300048D500001628A8BF203870472DE9F84F5E
:1034400080469448DFF850920168944E8A0705D56B
:103450000820B0719248C9F80000C2E091480168A4
:103460000A6890478246904805682F1700247F1C01
:10347000A80208D4CAF13E00C0100828C8BF08201E
:103480008742B8BF074689480168C1F30460FFF767
:10349000D1FF834686480168C1F30440FFF7CAFFA5
:1034A0005F44152F0146C8BF152704DC6FF00900E3
:1034B0008742B8BF074607F01F007E4A40F4F85025
:1034C00010807D4A106810F0030F18BF01244007D8
:1034D00048BF44F0020496F90700B8F1000F18BF86
:1034E00044F00404AAEB0000042802DCB279944200
:1034F0005DD0AAF10F084FF0000BB8F1000FDC46C9
:1035000004F004006D4B24D408EB08184FEA282C73
:10351000BCF1070F88BF4FF0070CE646BEF1070F5E
:1035200028BF4FF0060E1A1D52F82E2053F82EE039
:10353000A2EB0E0E0EF0FF0B10B1CEF30722934458
:10354000A20744BFCEF307429344E20748BF0BEB08
:103550001E6B53F82C2002F0FF0310B1C2F30720BA
:10356000C318A00744BFC2F30740C318E007A8EB85
:103570000C2048BF03EB126300FB0BF0CF1B803025
:10358000002F03EB1023D8BF0127342005F0FF05DF
:1035900047437D43B5FBF3F04FF6FF71884288BF88
:1035A00008460AF3070AB08086F807A0B4714448B9
:1035B0000168B088316000211F2804D21F20B0802C
:1035C00004E04008491CB0F5007FFAD20F3800092A
:1035D00041EAC0013B480143C9F800100020C9F886
:1035E0000400BDE8F18F10B537480468A4B21CB3DD
:1035F0002C4801680A689047284991F907209042B1
:1036000005DA6FF07F029042B8BF1046C871888813
:10361000844210D32A4A13680A689A1A921C1F2AF5
:1036200088BF1F22241A5208D4402418B4F5803FC2
:1036300028BF4FF6FF748C8010BD2448006800B985
:10364000704730B522498A6802F04063B3F1406F99
:103650001FD0104B1C68A5071BD44C68A50718D4B5
:103660001C680968C1F303511C31090114F0050FEE
:1036700004D088420DD224F0050409E0814208D22A
:10368000100158BF44F00104500158BF44F0040435
:103690001C6030BD0000094030100940BC150020FE
:1036A000FDFDA400EC010010B43F0050B812005022
:1036B0003C1100506E620840242208409C130050C8
:1036C0000820094000E7A480341009402850094030
:1036D000AC3F0050EFF3108072B67047EFF31080EC
:1036E00062B670470138FDD17047704710B50C18AD
:1036F000FFF7F0FF411E8941C90FDFF86024106811
:103700000028FCD024680123136009B1FFF7E6FF0D
:10371000204610BD38B5DFF848542878002400282A
:1037200002BFDFF84014887B00280CD0FEF7E0FED3
:103730000146A878002806BF0122AA700124084685
:10374000FEF7E6FE0CB1002032BD0220FFF770F854
:103750000E20FFF782F8DFF81014086808B1012086
:1037600032BDDFF808044022C26002600120C86157
:103770000020687032BD00002DE9F041DFF8EC1345
:1037800082B000200860DFF8E81301F1D804A07AC5
:10379000002837D00128DFF8DC53DFF8DC2332D1F2
:1037A000DFF8D81316684BF2F52046430868360A4E
:1037B000C0F3814001280BD1A86C0168884700F054
:1037C0003AFA00F053FA3509C010454306EBE536E6
:1037D000607B10B10021617306E0DFF8A40300688C
:1037E00020F07F4036187608DFF898030660360C24
:1037F000466001218160DFF86C13887B002849D086
:103800000521217348E0022809D11568284600F0F7
:103810000CF9A5F2FF55032D3CD308203BE003280B
:103820003AD1106801F1B806A0F5C0603168F061C6
:10383000002948BF4942002848BF40428142A8BFF2
:10384000002026DA7068D04F80B200900823D5F8A7
:1038500000C0DCF804804FF47F4230213846C04776
:10386000B06880B200901223D5F800C0DCF8048064
:103870004FF4F80204213846C047B06980B2009086
:103880000A232D686E684FF4406220213846B04705
:10389000012020700B202073BDE8F3412DE9F8438F
:1038A000DFF8CC82B94EDFF8E092B94CB94FAF489F
:1038B00008F1E105E9784A1E0B2A00F29280DFE860
:1038C00002F00630415F74415F74415F7B80316874
:1038D0000A68202090470F20E060072341F61D5022
:1038E00020614FF4C072022000900021D6F804C07D
:1038F000DCF804404846A04776684846D6F80C9065
:1039000007234FF4C0720021C8470120386002200D
:10391000E87008F17800BDE8F243FEF74DBEBDE85F
:10392000F1830120E061287800281DBF0021396162
:1039300003200620E870032020600020786078686B
:103940008107E6D470684668E878032808D1022128
:1039500000910523602200214846B04704200BE077
:10396000002000900523602200214846B047E878F7
:1039700006280CBF07200A20E87001207860C8E7FD
:10398000042903D12021A161012105E001220A2996
:10399000A2610CBF0321022169700021216008216E
:1039A000C160016001202060B9E705290CBF062035
:1039B0000920E8700020E1E70020386078600C20E2
:1039C000A6E7002101600120674908600E20FEF78C
:1039D000E0FE0220FEF7C7FE0120E8700020A8707C
:1039E0009DE7FEE762496B4891F8E420921E0A2A9F
:1039F0001AD8DFE802F0060A0E190A0E190A0E1983
:103A0000120002689107FCD548E741688A07FCD498
:103A1000FAE741688A07FCD5F6E702689107FCD40B
:103A200041688A07FCD4EFE7FEE7F8B50446564D37
:103A300030212846FFF75AFE4D4F07F1B806C0F374
:103A40000720706004212846FFF750FEC0F3844031
:103A5000B06020212846FFF749FEC0F38120B4F56D
:103A6000C064B061346003D1002087F8D800F1BD94
:103A7000316997F8D80028B97068B168F060F461CE
:103A8000B0697061F06900284CBF6FF0010202223A
:103A900000EB40001018421000EB927001EBA00107
:103AA0007268F260002912DC7069032805D111F1F7
:103AB000150211001EDA00211CE011F10B000100BB
:103AC000B8BF0021521E48BF0022F26007E01E2945
:103AD00012DD706928B915391E29C8BF1E210320BF
:103AE00009E00B391E29C8BF1E21521C3F2AC8BF3E
:103AF0003F22F26000207061316108231D4CF068A4
:103B000080B200904FF47F422768D7F804C030217C
:103B10002846E0470120009011232768D7F804C009
:103B20004FF4003204212846E047306980B200900B
:103B300012232768D7F804C04FF4F802042128465E
:103B4000E047706980B200902846246865680A23BF
:103B50004FF440622021A847F1BD000000800C40D6
:103B600011070020C8BB000004800C402C500C4002
:103B700030060020A401001008400C40B43F005063
:103B8000102009403C600C4000A00C40A001001037
:103B900000400C4034600C403748006800F012B917
:103BA00010B5374C626D5368012103209847206897
:103BB000C16A88473349886010BD70B5304C616D6B
:103BC0000A680120904701281BD0A5692B48EE68A0
:103BD000002301223421B047A0B1FFF7DDFF2068A8
:103BE000C16A8847274B9A6827491C68D860A4EBAC
:103BF0009404801A4843000C1860A04238BF204645
:103C00001860012070BD38B51D4C626D53680021ED
:103C100003209847616D0A680120904708B1FFF7BB
:103C2000BBFF2068174DC16A88476860206E016835
:103C30008847286131BD10B501461448144B02680D
:103C40001B68100400161B394843C01000EB2240CB
:103C5000120601FB01F412161B06624361431B1698
:103C600000EBA220594300EBA14010BD00FB00F186
:103C7000C0EBA15000B270478000001000A00C40C3
:103C80008C010010A815002040420F009013005036
:103C9000A4100050DFF800F079AD011010B5044613
:103CA000034BFFF7F7FFA06800B1204610BD00BF2F
:103CB0004C04002001488068704700BFC801002004
:103CC00038B504460D4600F03CF8616A0D43656264
:103CD00000F038F82046BDE83240FFF781B80170A7
:103CE0000A0A42700A0C090E8270C170001D7047EA
:103CF00062F30F2262F31F4200B500BF1300964625
:103D00009446103928BFA0E80C50FAD85FEA417CED
:103D100028BF0CC048BF40F8042BC90728BF20F8B3
:103D2000022B48BF00F8012B00BDFF7F00E005E03B
:103D3000EFF31180202181F31188704780F31188FF
:103D40007047F5E7FAE70000F2E7F7E70D49C20729
:103D500044BF01220A60820744BF4FF480720A60A8
:103D6000400744BF4FF4803008607047064AC307DD
:103D700048BF1160830748BF5160400748BF91604A
:103D8000704700000420094018200940DFF800F0C7
:103D9000E1BE011070B5FFF7C9FF094D0446A868E0
:103DA0000021FFF7F3FF06466869861BA869B04249
:103DB00038BF00262046FFF7BAFF304670BD00BF6F
:103DC0007801002070B50446FFF784FC451EAD4124
:103DD000ED0F064E30680028FCD0A047012131606D
:103DE0001DB1BDE87040FFF779BC70BD00800C408C
:103DF000DFF800F01D6E0110DFF800F04D710110CA
:103E000080B54FF4FC720FF278011A48FFF75CF9A5
:103E1000012119484174002202210270C17601BDBE
:103E20002DE9F0410FF250221449382013685468EC
:103E30009568D6681769D2F814C0D2F818E0D2F89D
:103E40001C800B604C608D60CE600F61C1F814C0A7
:103E5000C1F818E0C1F81C8020322031401EE5D1A5
:103E600050689368D46812680A6048608B60CC60C0
:103E7000BDE8F081480400215903002100C0002161
:103E8000410500217D0500212D06002170B51D464C
:103E9000004C204787B2000010B5014800470000E1
:103EA000D509000070B5614C614825465035804702
:103EB000022809D14034E1885E4A914204D1E97C6C
:103EC000890601D4911DE18070BD70B557495A4AE9
:103ED000084650300378002B10D08379012B0DD188
:103EE000037C5B09DB0709D0097D544DC1746C7FED
:103EF00020202043687790476C7770BDFF21C17404
:103F0000904770BD10B54E48484C804702280ED1EE
:103F100021464031CA88474B9A4208D1CA7C52098F
:103F2000D20704D0227D920601D49A1DCA8010BD0A
:103F300070B53E4843494030C07C4009C00707D0B7
:103F40003E4D41482C8B2043288388472C8370BDED
:103F5000884770BD10B53B48344CAC38804721468B
:103F600053310A789309DB0705D04034A2730A78ED
:103F700003231A430A7010BD2C49403108711828D8
:103F800012D004DC0A280BD00B2804D10AE0252823
:103F90000CD02A280CD02D4980004018C0687047EA
:103FA0002B4870472B4870472B4870472B48704769
:103FB0002B48704770B504461C484E252D5CAE0951
:103FC000F60716D0067D3007000F052803D0012024
:103FD000054202D00DE00220FAE7E80905D070069C
:103FE00003D54868800F012803D05B085B005208A6
:103FF0005200062B03D01020022B11D011E0FB2021
:10400000024002232046FFF741FF002807DAC100E3
:10401000611A2039497E1422114200D1002070BD5E
:10402000024303432046FFF731FF70BD44010021E6
:1040300037CB000004140000EBC80000A8000021EA
:10404000F5B4000053AD00002020000080DF000028
:104050001D050021F9040021CD0400219304002155
:104060006D04002110B5034CFFF716FF20680028EF
:10407000FAD110BD0011044068610000F825F9650F
:10408000F9754500450045002600260057A352005B
:1040900052004C00401F401F401F3F000000000026
:1040A000304000400140034007400F404F40CF40A8
:1040B000CF41CF43CF47CF4FCF3FCF2FCF1FCF0FD2
:1040C000000000000000000000000F0008000000D9
:1040D0003F00000040003F000000040068000E00A8
:1040E000DC00060043001A0005000000000002008A
:1040F00000000000000000000400C00000000400F8
:10410000C0000000070000000000000000000000E8
:10411000000000000000000030400040014003406B
:1041200007400F404F40CF40CF7FCF6FCF5FCF4F83
:10413000CF3FCF2FCF1FCF0F0000000000000000A7
:1041400050C00091007070C0009100708231210059
:10415000319110B10070018101B100A18231329121
:1041600010B101911110418141227740F106007098
:1041700051C0019130181039833108D01831416F86
:104180003100319110B1831414168368007025102A
:1041900050C00091F4C340C12014036F311041049A
:1041A0005082F0229840512622C082312100319164
:1041B00010B163393110410482C082312100319144
:1041C00010B163393110A2C082312100319110B198
:1041D00050101531051405920070676452C03110FB
:1041E00031066131C1026A6412C131102139710690
:1041F0005131E1026A64007051C0019101CCE2C00A
:104200006A64676411C1C2C06A6450B054B000717E
:1042100040804022D6440022C94060B08180111EF7
:10422000C944007054A064B0F0800022C94040121C
:10423000B09032B070C1DF6811C122C16A6470C130
:10424000E46851C00191E2C0823160820200329183
:1042500010B130C2EE68538253395339B16460C330
:10426000F4688012B09032B00070676401C122C15E
:104270006A6401C1C2C06A645382B164C012B09062
:1042800032B00070676472C281C06A6422C111C119
:104290006A6402C011C16A6462C031C36A6462C3E5
:1042A00011C16A6402C311C16A6453825339B16493
:1042B000E2C36F6411221C4142C281C86A6452C2C7
:1042C00011C16A6472C2E1CE6A6402C281C86A64C2
:1042D00002C201C86A64B0C030690070676442C23B
:1042E00001C86A6452C211C06A6472C2E1C06A64E1
:1042F00002C001C16A6462C001C36A6422C101C113
:104300006A6462C301C16A6402C301C16A64538200
:10431000B16400708180111E5C4150B054B00071D6
:10432000408040225D4154A064B0F180012251459B
:1043300000700022514160B04E610000000000009A
:104340000000000000000000067305720B720E7280
:1043500050B00071818060B050A09280F0EFF19277
:1043600002936A6741228C458080F1C110043016A7
:1043700001110114016CB561B661B761B861B96131
:10438000BA61BB61BD61BF61C161C36126632D6359
:10439000F0C002043231412A1214321601112114E4
:1043A000016CDA61C561E061C761CB61B561B5617E
:1043B000B561F461C561FA61C761CB61B561B56191
:1043C000B561F461C561FA61C761CB61B561B56181
:1043D000B561E761C561ED61C761CB61B561B5618B
:1043E000B561CF61CF61CF61CF61CF61CF61C06473
:1043F000CF61F964CF610665CF613265CF617467C3
:10440000CF611166CF61C0644E65F964CF61066506
:1044100011663265CF618280E0DFF2926A67B0B0E8
:10442000D661B1B00673057230B06C61D0CF6A67E7
:1044300084C203C0C0C37C64207851788278E3785A
:104440001579B6780062C0CF6A6784C203C0C0C362
:104450007C64307861789278F3781579C678006258
:10446000B0CF6A6784C203C0C0C37C6440787178EF
:10447000A27803791579D6781092219232924392DC
:104480005492659256911FC0FF914039F006011079
:104490001031101400927067CF61E3B054A0F08027
:1044A00050221A4640800022BE461262E3A000C895
:1044B0006091598150B0918041228E46A0CF6A67A9
:1044C00012828231823942398B641282F2062F10B5
:1044D0001F312F141682D622334640C1346200C5E4
:1044E00020140D6F6D39DE10F4C34E0482C082318A
:1044F0002E006D39A2C082312D001A828A39FA0647
:104500002082803180390BC00B18BC10AC1803829C
:1045100039149B141082F0060110103110145181CF
:1045200010140C14C622C94631D0C1266462021090
:1045300011C0013010C00118021882312100C126BB
:10454000919103B013B063B053B041800122BE46D5
:10455000B481C491D581B51C774E95186591F080D2
:10456000102269428C623D9110B13E9110B1E08001
:1045700000228146E6228142E0B0951865910F92B3
:104580005981F914F0805022114210228C464D635B
:1045900090CF6A6763B052A03082F2C0200402104C
:1045A00011C0013010C00118021882312100C1264B
:1045B0009191919113B003B063B053B064B054B013
:1045C000007141800122BE4663B064B0F080502289
:1045D0001142B181C191D1819118619131B0A46230
:1045E0002967E0A059810582591480C0007163B029
:1045F000BA6A6962E3A0018262818231823D80EF02
:10460000F19202936A6703A00070378247398739B5
:1046100030828039F006021011C0013010C001183C
:10462000021882312100C126819102B012B030827D
:104630004039F006021011C0013010C001180218F4
:1046400082312100C126919103B013B063B053B001
:10465000007153A062B052B041800122BE46A481D5
:10466000C491D581B51CFE4E95186591F08010223D
:10467000F0428C62B481C491D4814518751C084FF6
:10468000F0801022F0428C623D9110B13E9110B149
:10469000E08000221247E6221243E0B065910F92BB
:1046A0005981F914F0805022114210228C46306357
:1046B0002967E0A0598105825914F0C0007162B0E9
:1046C000226BF062A2808B64CF6112824239F206C3
:1046D0008B6050B00071CF6170CF6A6740824180BB
:1046E0000122BE46A481C491D58195186591F180BF
:1046F00011228C46336B41800122BE46A481C491B5
:10470000D581C51C1C4B95186591F08010223F4344
:104710008C6260CF6A67408241800122BE46B481CC
:10472000C491D58195186591F18011228C46506B0A
:1047300041800122BE46B481C491D581C51CB44AD2
:1047400095186591F08010225C438C62E092D082D3
:1047500000226B47C0B20070A080F022874330B0C7
:1047600002C1623101C0A080001E8043F02281435B
:1047700080F86031603981632010101A136F236E46
:1047800011161216826B00702DE9F84FDFF8BC92FB
:10479000AF4989F80000002008600921AD48017088
:1047A0000D2141804FF408718180AB48AB49016015
:1047B0008A7EAB480270FF2ACB7E437008BFFF2B76
:1047C0000C7F84704E7FC6708D7F0571C97F4171EB
:1047D00014D1FF2C08BFFF2E10D1FF2D08BFFF29D9
:1047E0000CD1A0490A7802704A7842708A788270A7
:1047F000CA78C2700A790271497941719A4902787E
:10480000DFF868A2DFF868B20A70FF2642784A70C3
:1048100082788A70C278CA7002790A714079954AA2
:1048200048718AF800608AF801608AF802608AF8A4
:1048300003608AF804608AF8056000208E490880C9
:10484000DBF834408D496078087021781170A078C9
:104850008B490870616908798A49421E0A70E078BC
:1048600089490870A0698949086008B900F026F9EB
:10487000206A8749086008B900F020F9606A854914
:10488000086008B900F01AF9DFF80C82834C98F838
:10489000040000F029F9206000283ED098F80500B7
:1048A0007F4D00F021F9286008B9206832E098F8BF
:1048B00006007C4F00F018F9386020B9206800F03D
:1048C0001BF9286826E098F8070000F00DF97649F2
:1048D000086038B9206800F00FF9286800F00CF97A
:1048E000386817E063490A7898F80000921C504332
:1048F00080B200F0F9F86D498860216890B90846E7
:1049000000F0FAF8286800F0F7F8386800F0F4F8DA
:104910006548006800F0F0F8002000F0CFF84FF490
:1049200080418DE0012008712068067321684E7374
:10493000206886732168CE73206806740020216881
:104940004E742268D072A022216848710321206829
:10495000C28001720720216848720020226890728C
:104960002821206841820121C176002021684877F2
:10497000226882F85E00012021680877226882F8A8
:104980005D00296808712868067329684E732868D5
:1049900086732968CE7328680674002029684E74CF
:1049A0002A68D072296848712A6890724FF4207082
:1049B00029680022C88008818A7401212A68D1747C
:1049C00039680E733A68567339688E733A68D673CD
:1049D00039680E7400213A6856743B68D972012117
:1049E0003A68117100213B6859713968C8800881A3
:1049F000002088723968887405203A68D0742C4881
:104A00000168884723490A6806461068804721499B
:104A10000A6852F8043F00209847DBF80C101A4B44
:104A20000A881878234902430A80304622490A68D6
:104A300090475046FFF7DCF9FFF7DEF94FF40051DD
:104A400099F80000BDE8F44F00F05EB86E4F00200A
:104A5000044F0020604E0020084F0020B63F005059
:104A60002C4E0020E81200503C4E0020344E002016
:104A7000ACCA00007B4F00200C4F00206D4F00207F
:104A80006B4F0020724F00206C4F0020F04E002032
:104A9000F84E0020FC4E0020A4070020104F0020FC
:104AA00000160020184F002004160020981800203F
:104AB0002C030020544F00203003002080B501005B
:104AC00002BF06490A78012A04D00549054A097837
:104AD00013689847BDE8014000F07CB8BC0700208F
:104AE000A31900206407002002490A6852F8343FE5
:104AF000184700BF8019002002490A6852F8383F61
:104B0000184700BF801900202DE9F04180462A484F
:104B10002A4D06785FEA08600F4632D5042000F07F
:104B20005AF8040008BF042043D04FF6FF702080DD
:104B3000678000F063F82249FF280FBF4E78C968EC
:104B400036188E5DFF2EA4F10C0707D1204600F029
:104B50005BF8286850F8081F884710E0404600F0CE
:104B6000D0F8FF21B97201462D68D5F800802346A0
:104B700000223046C047E0B1204600F045F8012051
:104B800017E0B04514D20F48016888470E490968FC
:104B900031F81820174321F818700C490A6890471B
:104BA00029680B4851F8242F00689047002000E046
:104BB0000320BDE8F08100BFDFA5000080190020C0
:104BC000540700202C030020C415002030030020CF
:104BD00014160020704710B5040001D1002010BD4C
:104BE00004F10C0080B2FFF77FFF28B100210160C3
:104BF0000481FF2181720C3010BD00400148007813
:104C0000704700BF5407002080B508B9052002BDD9
:104C100010F8021CFF2901D0042002BD0C38FFF758
:104C20006BFF002002BD00282DE9F04182B0044650
:104C30000E469046FFF7E2FF4649FF2808BF4F782F
:104C400004D0CA68444B19780818175C434DFF2FED
:104C500004D1286850F8081F884713E0304600F058
:104C600050F80146FF2008F8020C20002E680CD1F5
:104C700056F83C4F434600223846A04770B14046A4
:104C8000FFF7C2FF0120BDE8F681012CF7D134689F
:104C9000434600223846A0470028F0D10020F2E722
:104CA00070B50C000646154618D0300602D500F047
:104CB00034F89047284A11788E4204D32046FFF7F3
:104CC000A3FF032070BDA4F10C010868002804BFF5
:104CD0008A7AFF2A04D02046FFF796FF052070BD90
:104CE0008E72012D1E48214602D100F051F801E0DC
:104CF00000F062F84FF400413046FFF705FF002056
:104D000070BD10B580F08004022C02DB00F005F8C5
:104D1000904710482044807810BD1048016851F831
:104D2000082F704738B504460E480168884709497E
:104D300005468868844206D108490B480A6800681D
:104D400052F8243F984709490A682846BDE832408E
:104D50001047000054070020DFA500008019002044
:104D6000081600202C030020141600203003002019
:104D700080B5020606D50A4601460120FFF754FF1A
:104D8000C0B202BDBDE808400022FFF789BF01287C
:104D900038B5044606480D4601688847216845F83D
:104DA0000C1C256003490A68BDE83240104700BF6B
:104DB0002C0300203003002038B504460B480D4674
:104DC00001688847002145F80C1C226812B925604B
:104DD00006E00A4652F80C1C0029FAD142F80C5C95
:104DE00003490A68BDE83240104700BF2C03002089
:104DF000300300209E190020A1190020A0190020D6
:104E0000A21900209F190020ACCA000098180020A9
:104E1000A4070020264C00008E4D000046630000D1
:104E200056620000E94A0000F94A0000A5BE0000F1
:104E3000B9A20000CDD3000019AB0000D74B000091
:104E4000094C0000714D000039BE0000094B000004
:104E5000B5C9000011CF0000DF3C00009F31000009
:104E600019D20000D5AF00001DAA000071CA0000D1
:104E700055AA0000ADD20000A1B8000099D50000ED
:104E8000D5D40000C1C400004DC10000D54B0000C6
:104E9000BD4A0000F1A7001091BB0010A5BC001096
:104EA0008DBA001075A80010FDD40000EDBC0010F4
:104EB000B9A90010F1A9001009D50000B1BA00107D
:104EC00005AB00101DA900104594011079BD00101C
:104ED00051BD001021BE001039A800107DA900109E
:104EE00015D50000FDA700102DBC00106DC40000FA
:104EF00021AE0010A9AF00108DAF001089AB0010DB
:104F000079B00010BDB0001041AC001081AC0010B1
:104F100009AC0010E5AB001061AC0010F9490010BD
:104F200071BE0010955F0010D9490010615F00103C
:104F300049C7001079520010FD5A0010855E00101C
:104F4000BD4B001011BD000035CB0010E1A50000E5
:104F5000319F0000154D001095C6001001CA0010C9
:104F600069CA0010B55A0010615A001021C900101A
:104F7000954A0010ADD4000069490010B54A0010F0
:104F80005DB9001001570010C16100108D4900107B
:104F9000814C0010F1CF00007D4B00104D610010DE
:104FA00025C80010D14B0010ADC8001085C7000007
:104FB000ED4A0010314C0010614A00108951001078
:104FC00029520010E5BE0010254A001029A7000054
:104FD0006594011005B300009D55001075A40000F4
:104FE000AD4900101959001095570010395700109D
:104FF0004D60001045490010814D0010FD6100100A
:10500000F97201109D720110F9730110857401107D
:1050100061730110217201100D72011035720110BF
:10502000CD710110E571011059720110AD710110BF
:105030007D6D0010C16D0010C1680010996D0010E9
:10504000C5680010C9680010BD6C001055D4000080
:10505000756D0010596E0010796D0010B96C00105C
:1050600055D4000055D4000055D40000256E001022
:10507000A1680010216E0010556D0010056D001024
:10508000D9B90010ED6D0010996C00108D6B0010F7
:1050900029690010956C001055CB0000F9D1000073
:1050A000596800101D6C00104169001041CD0000CE
:1050B000A98C0110B18B0110C9D20000F98D01102B
:1050C000518C0110258C0110118C0110818B011065
:1050D000418D01108DCB000051A500105DA5001081
:1050E000A9A50010ADA5001065BF00100963001050
:1050F0007D6300106962001035630010BD6300100D
:10510000AD93001071930010D9A00000DD93001042
:10511000BD88001071C90000BDB2001089B2001036
:1051200019680010F9C00010D567001015C00010F4
:105130006DB100104DB200106DB2001095B90000B5
:10514000ADC20000C5AA000029D50000D9C70000E3
:105150009DCD00000DC0000029C80000296D011080
:105160002170011029C50000716D0110896E0110B8
:10517000016F0110596E011079B4000039710110EE
:10518000A9AA000015AD0000FDB3000019C300007E
:10519000718D0010F1800010B98000103D99011050
:1051A000018B00103544011001D3000079840010F8
:1051B00085830010A9850010B9860010998600101B
:1051C00069D40000097F0010AD7E001091860010A8
:1051D00069860010818B0010A1B400003586001094
:1051E000C5AF00004DB200006DB1000055D4000005
:1051F000B1970110F57F0010E5D200007570001026
:105200009D92001015A90000D1920010B9950010D0
:10521000E1850010B57F0010DD860010053F01100C
:105220008D820010697F001051A80000B5A9000010
:10523000B1700010A9B1000059B2000049890010F6
:1052400049800010D99E00002D9B0000E59C0000C5
:10525000297800109D890010D5890010099500104B
:105260002D7A0010897C0010DD7C0010597600102A
:10527000B9940010753B0110AD7B0010FD87001044
:105280005D880010397C0010A58A00107974001028
:1052900075940010ED7A0010197B0010E57D001068
:1052A000497E00105D7D0010B9970110DD97011057
:1052B000CDC10000458E00106D870010057E0110E5
:1052C0004D800110557F01107D7F01107D7D011003
:1052D0003D800110F17F011019800110E57D011062
:1052E000917E0110D57F0110E5800110B17F011082
:1052F00021800110D57E01102D540110AD4F0110F9
:105300009550011085910110C59101109D920110D9
:105310007592011059500110D9900110059101109A
:105320005154011091920110319201103952011023
:1053300069520110A55001102D500110E54C0110CB
:1053400091530110B94E0110BD520110A952011024
:10535000FD53011021530110855301108951011093
:105360004D530110DD510110ED4F0110514F01104F
:1053700099500110D14C0110D97A0110C97C01104B
:105380003D7C0110317B0110BD7B0110754D01107A
:10539000694E01102D4E0110F94C0110E952011017
:1053A00009530110054E0110495C01108D5C01107C
:1053B000895D0110C95C01101D600110A15F011021
:1053C000F95E0110355F0110295E01102D5F01109B
:1053D0006D5E01101161011079610110398E0110AB
:1053E000598E011025900110BD8E0110818E011083
:1053F0001D6201106590011045900110815C011043
:10540000FD5F0110BD5C0110415D0110E55B011005
:10541000795F0110D15E0110E55D0110155F01108B
:10542000515E0110755E0110FD8F0110518F01104A
:10543000BD8F0110F18E0110918F01102D8F011081
:10544000318E0110E9610110ED8F011071600110C2
:10545000999001104D81011005840110898401107B
:10546000BDFD001055FD001005FE001089FA00106A
:10547000CDFF001041830110BDFE0010ADFE0010F5
:105480005D83011011FC001059FC00105D06011035
:105490001D060110B183011035060110A98201100B
:1054A000190501106D020110190601109D0301106C
:1054B000710201109D040110C1030110F9030110D4
:1054C0009D050110F5810110E1810110E904011031
:1054D0002104011021810110850601108D83011026
:1054E0001D070110E1060110B9060110E9000110C5
:1054F0009D060110AD0001100D83011021830110E4
:10550000C9000110D50C011055D4000055D400007D
:10551000D514011009140110F90801104D130110E0
:1055200055D40000D91201107D0A01100512011096
:1055300055D40000DD0D0110D50B0110D50F011061
:10554000A90E01105D0D011055D4000055D40000C6
:1055500055D400006511011099450110A585011071
:10556000F5840110FD8801102918011071890110BE
:10557000B58A0110098B0110118A011009890110E7
:10558000498B011041870110AD870110A5870110DB
:105590007D870110758701106987011085870110CB
:1055A0000987011079860110BD860110E987011075
:1055B0008D1C0110C11D0110011E0110751F01106D
:1055C000FD1E0110E1190110F91A0110C11A011094
:1055D000F9200110251E0110351C0110811E01103B
:1055E0004D19011019190110B51C0110851B01106E
:1055F000F91B0110AD950110499501102595011079
:1056000029950110A195011035950110DD93011028
:10561000859301109993011001940110FD49011027
:105620006D470110BD4A0110894A0110C949011096
:10563000394A0110714A0110514C0110B54901104D
:10564000E54B01101D4C0110A14B0110BD4701108D
:105650008148011051490110B1480110754C0110E9
:1056600055D400006524011055D4000091EB0010C2
:10567000EDEA001021250110157701106577011062
:10568000C1760110892701107D28011061280110C1
:10569000D13200004524011059240110B12301101A
:1056A000D1CD0000A52101104F3100005D22011075
:1056B000252601109528011061290110012B0110E8
:1056C000452C0110652301104D2301104D280110B8
:1056D00019F80010CDF9001085F9001011F900102B
:1056E00015F2001099F3001029F10010B9F2001022
:1056F000D9F0001049F1001065F4001065F50010B4
:10570000A1EC0010F1EE00108DF5001055F800101E
:10571000C1F8001099F8001069F80010FDF80010A9
:10572000EDEC001025EE00105DF0001099EC00107B
:105730001DA100008DF1001035F40010F9ED0010EE
:1057400039FA0010F1F90010BDF10010BDF00010A1
:105750000DCE00005DF3001001F5001031EF0010D8
:105760001DF0001065330110CD3401103D350110DE
:1057700041360110FD3501108935011065310110E8
:105780005134011035330110ED3101106130011039
:10579000A1360110AD640110796501104965011051
:1057A000E56401100D640110D96601107D640110DB
:1057B0006D66011045640110556201107D62011093
:1057C0006962011025660110ED650110C9640110C0
:1057D000C96501109D65011029670110116501104F
:1057E00029640110F56601108D6401109D66011099
:1057F000616401102D6301104966011009660110F2
:105800003D670110DFF800F021C00110DFF800F063
:10581000F99B0110DFF800F055A40110DFF800F04B
:105820002DB40110DFF800F0CDAC0110DFF800F06E
:105830002DC00110DFF800F0FDB1011020B10823E8
:105840003C220021FFF7DEBF704780B5FDF75EFD0B
:10585000ADF80000FCF70EFEADF80200009802BDA6
:1058600001B5BDF80200FCF709FEBDF80000BDE877
:105870000240FDF74FBD38B5DFF890492078012888
:105880002DD0DFF88C29DFF88C0992089200801A5D
:10589000A061012121706261104602E0002340F8FE
:1058A000043BA3699D18A842F8D39B0802EB83012F
:1058B000002041F8040CE8201060A06980088000F6
:1058C000EC38C2F8E80002F1E800A060002000F027
:1058D00007F8E0606069A060A069001F206131BD29
:1058E000F8B500250026071D17F003001CBF391D61
:1058F0000F1AFFF7AAFFDFF8142901465160112F94
:1059000034BF9468D4682068002803D580F0004034
:1059100000261AE0330014D02B68D4F800C063448A
:10592000BB422B6011D32C461846ECB1C01B042897
:1059300011D3E05147F0004020601069C71B176188
:1059400011E0B842F1D2012625460444206800281F
:10595000DAD1002408E0136920681B1A136120685B
:1059600040F000402060241D00F0C4BB10B5044688
:10597000FFF76BFFDFF89418486054F8042C22F00E
:10598000004244F8042C0B69D2180A61221F8B686C
:105990009A4238BF8A60BDE8104061E72DE9F041C6
:1059A00082B0FFF752FFDFF86418CA68486000262B
:1059B0000027002400250AE00C460127164605E0D2
:1059C0003B00F9D03368CB1833600C190A441168D6
:1059D000A846A54238BFA046002905D0F0D581F0E1
:1059E000004100274546F1E7FFF73AFF4046BDE892
:1059F000F68110B50446DFF814088169216000695A
:105A00006060FFF7CBFF09282CBF08380020A0609A
:105A100010BD80B5FFF72FFF4BF6BE2002BD084634
:105A20005EE70846A2E702B56846FFF7E2FF01BD60
:105A30000120704738B50446FFF707FF00220C230A
:105A4000DFF8D4175343CD18A96C21B18C4206D08E
:105A5000521C032AF3D3FFF703FF002032BDFFF7E8
:105A6000FFFE05F1480032BD70B582B00546FFF774
:105A7000ECFE044600210C22DFF89C074A438618FE
:105A8000B06C48B1854210D0491C0329F3D320469D
:105A9000FFF7E6FE002076BD3065B5640021FFF714
:105AA000BDFEF06408B900F0D3FB2046FFF7D8FE36
:105AB00006F1480076BD38B50446FFF7C6FE00255E
:105AC000DFF854270C216943515A21B18C4206D08A
:105AD0006D1C062DF6D3FFF7C3FEFF2032BD05E394
:105AE00010B504462088FFF7E6FFFF2802D14FF0EB
:105AF000FF3010BD0C21DFF8202748431044816897
:105B000011B96FF0010010BD2046BDE810400847F4
:105B100002460FF22870104710B500200C21DFF864
:105B2000F826002401FB00F31344401C03289C6466
:105B30001C65F7D30020002301FB00F4401C135325
:105B40000628F9D3BDE8104095E670B590B0FDF792
:105B5000DDFB05466846FFF771FE05204FF47A71BC
:105B6000069008910022DFF8B406DFF8B41604901E
:105B700005916946DFF8AC06FFF754FE040006D035
:105B8000FFF763FE06462046FFF76EFF08B900F0F8
:105B90005FFB3046FFF764FE2846FDF7BBFB10B005
:105BA00070BD38B504460D46FFF74FFE002145F89D
:105BB0000C1C226812B9256006E00A4652F80C1C3B
:105BC0000029FAD142F80C5CBDE8324048E680B5C5
:105BD000FFF72CFEFFF72EFF10B96FF0040002BD97
:105BE000816809B9022002BD4068B0E0062881B092
:105BF0000ADA0C225043DFF82026105A00281CBF76
:105C00004FF6F872904202D14FF0FF3001E0088069
:105C1000002001B0704730B5DFF80C562A680C46FA
:105C20004FF47A71A1FB0001002300F015FB002363
:105C300099424FF0004201D8904202D36FF0020027
:105C400030BD2060002030BD0146886849680847A3
:105C500070B505460E46FFF7E9FDFFF705FF0400A6
:105C600009D0FFF7F2FD0146002200F0A3F820B1B1
:105C7000521C062AF9D300F0EBFA4FF6F8701880A0
:105C80005C60002098602A706068306000F00DFA57
:105C9000002070BD0C3869E670B5044615461E46F6
:105CA0000846FFF708FFFF2802D14FF0FF3070BD14
:105CB000014633462A462046BDE8704084E070B570
:105CC00082B00546164600F0A1F8040010D12888DD
:105CD0006946C0B2FFF78AFF28B13068FFF7DAFFE4
:105CE0006FF0050076BDBDF800002880FFF76FFF5C
:105CF000204676BD38B50546FFF798FDFFF79AFEBA
:105D0000044600F021FB002818BF012800D014B978
:105D10006FF0040032BD65B900200090009B606800
:105D20004FF000420021FFF771FD401E8041C00F7F
:105D300032BD15F1010F08BF4FF0FF30EDD06946BD
:105D40002846FFF768FF0028E8D032BD80B54FF045
:105D50000041FFF75FFD002002BD2DE9F843054635
:105D60000E4617469846FFF761FDFFF77DFE0400DB
:105D70006FF002091CD0FFF768FD0146002200F019
:105D800019F840B1854211D0521C062AF7D300F011
:105D90005FFABDE8F2831D805C609E603A706068C7
:105DA000C8F8000000F081F90020F2E700F07DF96A
:105DB0004846EEE70C23DFF8600453430344188899
:105DC00070478DE5D2E514E62DE9F8430E46062E20
:105DD000BCBF0446062C154698466FF0020906DA49
:105DE000FFF733FD00F009FA19B9FFF739FD48460E
:105DF0000AE0FFF735FD00F0F6F9786840684FF0EB
:105E00000041FFF707FD0020BDE8F2832DE9F041D6
:105E100006460F469046FFF709FDFFF70BFE05000B
:105E200008BF6FF004001BD0FFF70FFDA968002426
:105E300041B10C46A4F10C010A68AA6000220A6074
:105E4000FF228A72FFF70CFD0CB9022008E0A4F1D2
:105E50000C000179317040793870C8F8004000209A
:105E6000BDE8F08182B001218DF800109DF800009E
:105E70000028FBD100F0ECF900BFFDF7E1B910B547
:105E8000DFF8A40302686FF00044A4FB02010023C2
:105E90004FF47A7200F0E0F9002399424FF000428B
:105EA00001D8904200D3204610BD70B582B00C4698
:105EB00015461E466946FFF7AEFE30B900983346D8
:105EC0002A46214600F002F8002076BD2DE9F04375
:105ED0001D4689B02C6880460E4617462CBB0C2008
:105EE000FFF7FEFC04006FF0030918D008232422FA
:105EF00000216846FCF70EFB0020ADF8100005906D
:105F0000069400236A464146DFF82003FFF792FC1F
:105F1000206030B9FFF7A6FF2046FFF727FD48466F
:105F200017E06660A7602C600BE0DFF80463306860
:105F3000804705462068FCF7F1FAA760284671689B
:105F4000884720684146FCF7EDFA2068FCF7EEFA36
:105F5000002009B0BDE8F08300281CBF0068FCF7F2
:105F6000DDBA704700B583B08DF80400684600F0D4
:105F70001BFA9DF805000EBD00B583B00190684680
:105F800000F048FA0EBD00B583B00190684600F0FD
:105F90004BFA0EBD2DE9F04385B0044688461646FF
:105FA0001F46FFF743FCFFF745FD05460020029022
:105FB00000F0CAF9002818BF012800D015B96FF009
:105FC00004006FE044B900200190FDF739F98146E3
:105FD00001980124814425E014F1010F08BF4FF01E
:105FE000FF30F1D001A92046FFF715FE0028ECD0C4
:105FF00058E0039902A8FFF7D4FD68684FF00051FC
:10600000FFF708FC0199012411F1010F0AD00800E3
:1060100008D0FDF715F9B9EB00002ED001998142A7
:106020002BD30190019B68684FF000520021FFF7CD
:10603000EDFB10B303AA69460DF10100FFF7E6FE80
:106040000400DFD19DF801000DF10201FFF7CEFD44
:106050000028CED1039A9DF80010BDF80200C04779
:106060000028C6D016B1BDF80200308017B19DF8E7
:10607000000038700C9803990160FFF7A8FD029E9C
:10608000FFF7E3FB014656B1324600E0024652F804
:106090000C0C0028FAD1A86842F80C0CAE6000F095
:1060A00004F8204605B0BDE8F0830846FFF7D8BBEA
:1060B00038B5FFF7BBFB044600F046F9002818BFCF
:1060C000012811D0FFF7C1FB0025534A0C236B4375
:1060D000D15A39B1D1184B681968A14206D06D1C4C
:1060E000062DF3D3FFF7BCFBFF2032BDFFF7B8FB53
:1060F000E8B232BDFFF7D9FF2046F2BD00B583B04C
:10610000ADF800008DF8061000204A490A68ADF885
:1061100002006846904710B99DF807000EBDFF20A9
:106120000EBD1078422801D1012070470020704731
:106130000CB470B504460E4688B000F005F90CADFD
:10614000002814BF0128FFF78DFE1420ADF81000C1
:106150000021FF2002918DF8120006960595FFF7A9
:10616000A7FF05AB03222146FFF796FD002001A9FA
:1061700001900091002300222F4941F28830FFF75F
:1061800009FF012805D020B9019820B1FFF782FD51
:1061900001E0FFF767FE0598006808B070BC5DF885
:1061A0000CFB2DE9F8430E46062EBCBF0446062C18
:1061B000154698466FF0020906DAFFF746FB00F035
:1061C0001CF819B9FFF74CFB48460AE0FFF748FBFB
:1061D00000F009F8786840684FF00051FFF71AFBAB
:1061E0000020BDE8F283A8F1080041460470467023
:1061F000857078680830FFF7D4BC0C21064A01FB93
:1062000006F7D71979687047000000004C0F00208E
:10621000AC190020FF3F0020E00E002041CC000020
:1062200054030020115B000068D50000495C0000A9
:106230002C0300203403002023610000E15A0000F9
:106240004B58000061580000DFF800F01D9A011063
:106250000120FFF7F9BF03281B4213D1094236D1B1
:106260002AB18446B0FBF2F002FB10C2704700F086
:10627000EBB8FCD30022002370470B000200002182
:1062800000207047904271EB030CF6D370B5B1FA61
:1062900081F4B3FA83F52C1BA340C4F1200532FA34
:1062A00005F63343A2405FF00046E64002E05B089B
:1062B0005FEA3202841A71EB030524BF20462946A7
:1062C0007641F4D302000B003000002170BD012A9A
:1062D000CFD970B5140C20D0B1FA81F4B2FA82F59E
:1062E000C4F120046419B4F12006D6D3B2405FF0A3
:1062F0000044F440002502E052085FEA3303C61A66
:1063000071EB020E24BF3046714664416D41F3D3F8
:1063100002000B002000290070BD0C46B1FBF2F119
:1063200002FB11452D0445EA1045B5FBF2F402FBD2
:10633000145580B240EA0545B5FBF2F002FB10525D
:1063400040EA044070BD052A0148007D704700BF47
:10635000A401002010B5044601E0FCF769FAB4FA84
:1063600084F0202806D000F017F8F6DB401FFCF779
:1063700074FAF4E710BD10B5044601E0FCF7F3F938
:10638000B4FA84F0202806D000F006F8F6DB401FAF
:10639000FCF7FFF9F4E710BDC0F11F00C0B2012106
:1063A00081404C400528704738B504460120607193
:1063B000244D2079A8B1FFF748FA04462878FF2831
:1063C00005D12046FFF74CFA6FF0060032BD401CA5
:1063D0002870C0B2012804BF6868FFF7BBFF2046E1
:1063E00014E0FFF732FA297821B9FFF739FA6FF094
:1063F000070032BD491E2970C9B239B9FFF730FA1A
:106400006868FFF7B8FF0020607101E0FFF728FA25
:10641000002032BD80B5406810F07F4F00D00DE005
:10642000FFF798FF002002BD80B5406810F07F4F55
:1064300000D003E0FFF79FFF002002BD6FF00200D5
:1064400002BD00003C03002070470A0550F8382FB9
:1064500011430160704750F8382F22EA01010160B2
:106460007047817DFF291CBFC07DFF2801D001201E
:1064700070470020704738B50446FCF739F80546E8
:10648000207820B90220FCF7D3F9012020700BE01E
:1064900038B50446FCF72CF80546207820B10220D8
:1064A000FCF761F9002020702846BDE83240FCF777
:1064B0002FB84068D030FCF7B8BD4068EC30FCF72E
:1064C000B4BD70B5456886680C466CB12A6A306800
:1064D000117800F0AEFC38B1286A411C686A296264
:1064E000401C641E6862F0E7204670BD70B54568C8
:1064F00086680C467CB1306800F091FC10F1010F09
:1065000009D0296B0870641E286B411C686B2963D5
:10651000401C6863EEE7204670BD70B5456886682C
:106520000C4664B1306800F07AFC10F1010F06D01F
:10653000C1B205F1400000F0AFFC641EF1E7204657
:1065400070BD70B5466806F584750C462846FCF7A4
:1065500035F8DFF8E807337F717F0268DFF8E0077E
:10656000CB18DB1D5C434443B069B4FBF0F010185A
:106570006330B0FBF2F1491C2846FCF71BF82846B3
:10658000BDE87040FCF718B8F8B504466568A76820
:1065900005F584763046FCF711F838681830006845
:1065A000000711D5DFF894170A684FF4FA70B0FBB2
:1065B000F2F1012998BF01213046FBF7FBFF30467D
:1065C000BDE8F240FBF7F8BFDFF87807FFF760FFA0
:1065D00038682021FFF73FFF00F076FA00F07AFAE2
:1065E00001B0BDE8F040184738B504460D462021FB
:1065F0002868FFF730FF297D606E012200F040FE21
:10660000297D606E012200F055FE297D606E00221A
:1066100000F087FEA97D606E002200F082FEA07867
:10662000012805D1296851F8180F0007FAD405E0B0
:106630004FF0FF3104F1D000FCF7EEFC00F098FBC6
:106640002846FFF70EFF30B1A97D606EBDE83840E7
:10665000112200F066BE31BD2DE9F04780460024CE
:10666000D8F808502A68D8F8049002F1400002F1E6
:10667000440106680E6009F13007B8687B69D7F8F5
:1066800018A016F4F06F0146A3EB0A0A33D0700588
:1066900018D500202029CCBF20250D46294652F8C8
:1066A000044F106004F00F0400F060F8C5F1200101
:1066B0005145C8BF51464046FFF72FFF15E0B96866
:1066C000491EB960B96881B1012100F04FF829680D
:1066D00051F8040F0C6010F00F00F0D00446386839
:1066E000411E39607968491E796089F81F4040462B
:1066F00000F075FA27E0720609F19C040CD5F1B19F
:1067000000F034F8B86099F82D0010B10021B9609C
:1067100011E0B86800280DE0F20614D579B13D7B90
:106720006D1E854228BF0546294600F01FF8B8684F
:10673000451BBD6007D12046FCF798FB03E051469E
:106740004046FFF7EAFEB0060ED5D9F828405CB106
:1067500021464046FFF7B5FEC9F8280020B9211DA3
:106760004046BDE8F047ECE6BDE8F0874046BDE6B0
:1067700038B50446DFF8D0056568FFF789FE48E2C2
:10678000406800210170DFF8C0050170417070475A
:10679000F0B5064685B07468B5680F46FBF7A8FEED
:1067A0002178012941D001212170FBF7B1FE387811
:1067B000607000217878A07078686060B868A06028
:1067C000F868E06038692061387D2075787D6075F3
:1067D000B87DA075B869A061387F2077787F607731
:1067E000B87FA0770020206204F12C004160616234
:1067F0008160A162C16001704170102101740021AB
